:020000040800F2
:1000000000000220D1580008F1530008F353000803
:10001000F5530008F7530008F953000800000000EA
:10002000000000000000000000000000FB5300087A
:10003000FD53000800000000FF53000801540008B1
:1000400021590008215900082159000821590008A8
:100050002159000821590008215900082159000898
:100060002159000821590008215900082159000888
:100070002159000821590008215900082159000878
:100080002159000821590008215900082159000868
:100090002159000821590008215900082159000858
:1000A0002159000821590008215900082159000848
:1000B0002159000821590008215900082159000838
:1000C0002159000821590008215900082159000828
:1000D0002159000821590008215900082159000818
:1000E0002159000821590008215900082159000808
:1000F00021590008215900082159000821590008F8
:1001000021590008215900082159000821590008E7
:1001100021590008215900082159000821590008D7
:1001200021590008215900082159000821590008C7
:1001300021590008000000000000000021590008BB
:1001400021590008215900082159000809540008C4
:100150002159000821590008215900082159000897
:100160002159000821590008215900082159000887
:1001700021590008215900082159000800000000F9
:1001800000000000215900080000000000000000ED
:10019000215900080000000000000000215900085B
:1001A00000000000000000000000000021590008CD
:1001B0002159000821590008215900082159000837
:0401C00021590008B9
:1001D00010B5054C237833B9044B13B10448AFF381
:1001E00000800123237010BD4803002000000000A0
:1001F000E86B000808B5034B1BB103490348AFF394
:10020000008008BD000000004C030020E86B0008DF
:1002100053B94AB9002908BF00281CBF4FF0FF316D
:100220004FF0FF3000F072B9ADF1080C6DE904CE6B
:1002300000F006F8DDF804E0DDE9022304B07047C1
:100240002DE9F047089E04468846002B4BD18A4290
:10025000154667D9B2FA82F24AB1C2F1200701FA13
:1002600002F320FA07F7954047EA030894404FEA63
:10027000154E230CB8FBFEF71FFA85FC0EFB178802
:1002800043EA084307FB0CF1994209D9EB1807F13F
:10029000FF3080F01B81994240F21881023F2B44CD
:1002A0005B1AA4B2B3FBFEF00EFB103344EA034426
:1002B00000FB0CFCA44509D92C1900F1FF3380F098
:1002C0000781A44540F2048102382C4440EA0740EB
:1002D000A4EB0C0400271EB1D4400023C6E9004360
:1002E0003946BDE8F0878B4209D9002E00F0EB803B
:1002F0000027C6E9000138463946BDE8F087B3FA61
:1003000083F7002F47D18B4202D3824200F2FA805A
:10031000841A61EB030301209846002EE0D0C6E961
:100320000048DDE702B9FFDEB2FA82F2002A40F0AF
:100330008F80491B4FEA154E1FFA85F80127B1FB44
:10034000FEFC230C0EFB1C1143EA014308FB0CF1DD
:10035000994207D9EB180CF1FF3002D2994200F212
:10036000CD808446591AA3B2B1FBFEF00EFB1014E7
:1003700043EA044408FB00F8A04507D92C1900F112
:10038000FF3302D2A04500F2B6801846A4EB080461
:1003900040EA0C409FE7C7F1200CBB4022FA0CFE5C
:1003A0004EEA030E01FA07F420FA0CF521FA0CF3D9
:1003B0004FEA1E482543B3FBF8F92C0C08FB193310
:1003C0001FFA8EFA44EA034309FB0AF49C4202FA3C
:1003D00007F200FA07F10BD91EEB030309F1FF3016
:1003E00080F087809C4240F28480A9F10209734426
:1003F0001B1BADB2B3FBF8F008FB103345EA034416
:1004000000FB0AFAA24508D91EEB040400F1FF33F1
:100410006BD2A24569D90238744440EA0940A0FB76
:100420000289A4EB0A044C45C2464B4654D351D032
:10043000002E69D0B1EB0A0564EB030404FA0CFC4E
:10044000FD40FC404CEA0505C6E90054002747E79B
:10045000C2F1200320FA03F7954001FA02F021FAD5
:1004600003F34FEA154E3843010CB3FBFEF71FFAB6
:1004700085F80EFB173341EA034107FB08F38B4273
:1004800004FA02F407D9691807F1FF3C2FD28B4216
:100490002DD9023F2944CB1A81B2B3FBFEF00EFBEB
:1004A000103341EA034100FB08F38B4207D9691876
:1004B00000F1FF3C17D28B4215D902382944C91AE2
:1004C00040EA07473BE73746304609E70746E7E695
:1004D0001846FBE64145ABD2B8EB020A69EB0E02C7
:1004E00001381346A4E76046E9E7184695E76746F2
:1004F000D1E781467CE702382C4447E7ACF1020C97
:100500002B442FE7384608E73746E9E6704700BF37
:10051000034613F8012B002AFBD1181A0138704743
:1005200001F0FF01102A2BDB10F0070F08D010F8A4
:10053000013B013A8B422DD010F0070F42B3F6D1A8
:10054000F0B441EA012141EA014122F007047FF0C1
:1005500000070023F0E80256083C85EA010586EA18
:10056000010685FA47F5A3FA87F586FA47F6A5FA54
:1005700087F68EB9EED1F0BC01F0FF0102F0070260
:1005800032B110F8013B013A83EA010313B1F8D10B
:100590000020704701387047002D06BF35460338EC
:1005A000073815F0010F07D1013015F4807F02BF25
:1005B000013015F4C03F0130F0BC0138704700BF76
:1005C00010B504460E4B18784FF47A73B3FBF0F372
:1005D0000C4A1068B0FBF3F000F0AAF868B90F2CD1
:1005E00001D901200AE0002221464FF0FF3000F03F
:1005F0005DF8034B5C60002000E0012010BD00BFEF
:10060000000000201001002008B50B4B1A6842F4CE
:1006100000721A601A6842F480621A601A6842F422
:1006200080721A60032000F02FF80020FFF7C8FF47
:1006300004F044FE002008BD003C0240034A11685B
:10064000034B1B780B441360704700BF2C04002041
:1006500000000020014B1868704700BF2C040020E8
:1006600038B50446FFF7F6FF0546B4F1FF3F02D068
:10067000044B1B781C44FFF7EDFF401BA042FAD34C
:1006800038BD00BF00000020074AD36823F4E063B0
:100690001B041B0C000200F4E060184340F0BF6034
:1006A00040F40030D060704700ED00E030B4174BEC
:1006B000DB68C3F30223C3F10704042C28BF04241E
:1006C0001D1D062D18D9033B4FF0FF3505FA04F424
:1006D00021EA0401994005FA03F322EA03031943CE
:1006E00000280BDB0901C9B200F1604000F5614050
:1006F00080F8001330BC70470023E5E700F00F00DE
:100700000901C9B2024B1954F4E700BF00ED00E043
:1007100014ED00E0002807DB00F01F024009012370
:100720009340024A42F82030704700BF00E100E0E9
:100730000138B0F1807F0AD2064B5860064AF0219A
:1007400082F823100020986007221A607047012069
:10075000704700BF10E000E000ED00E000230F2B29
:1007600000F2D180F0B583B039E0062200E000222B
:10077000AA403A430234644D45F82420634A146881
:10078000F24302EA04054F6817F4803F01D046EABD
:1007900004055E4C2560646802EA04054F6817F49E
:1007A000003F01D046EA0405584C6560A46802EA9F
:1007B00004054F6817F4801F01D046EA0405534C26
:1007C000A560E46822404D6815F4001F01D046EA98
:1007D00004024E4CE26001330F2B00F292800122A2
:1007E0009A400C6804EA0206B242F4D14C68651ED5
:1007F000012D03D9112C01D0122C12D185685F0074
:100800000324BC4025EA0405CC68BC402C4384602A
:10081000456825EA02054C68C4F300129A402A4351
:100820004260C4685F000322BA40D24314408D681E
:10083000BD402543C5604C68022C01D0122C13D159
:10084000DD08083550F825E003F007044FEA840C72
:100850000F2404FA0CF42EEA040E0C6904FA0CF4CA
:1008600044EA0E0440F82540046822404C6804F035
:100870000304BC40224302604A6812F0805FAAD0A1
:1008800000220192224A546C44F480445464526C15
:1008900002F480420192019A9C08A51C1A4A52F85F
:1008A000257003F0030295000F22AA4027EA0207F1
:1008B000184A90423FF45BAF02F58062904216D036
:1008C00002F58062904214D002F58062904212D00C
:1008D00002F58062904210D002F5806290420ED004
:1008E00002F5806290423FF440AF072240E70122C8
:1008F0003EE702223CE703223AE7042238E70522DA
:1009000036E703B0F0BD704700380140003C0140BD
:10091000003802400000024012B9090481617047AA
:10092000816170472DE9F04782B00768CA00521A0A
:10093000930003445A6D1B6D9A4257D8B8469B1AD0
:10094000C1EBC104A2000244526C9A4200D31A4681
:100950000C46064602F1030A4FEA9A0A16E009F12C
:10096000030A4FEA9A0AE3001B1B9D003544A96C59
:10097000337C00931FFA89F3E2B2384602F026FC7A
:10098000AB6C4B44AB646B6D4B446B6508EB441331
:1009900003F510639B699BB2534513D3E3001B1B04
:1009A0009A003244516D136D99420BD253B15B1AC8
:1009B000C4EBC4018A003244D2F844909945CED3A6
:1009C0009946CCE7E3001B1B98000644326D736D1B
:1009D0009A420FD804F00F040121A140D7F83448FF
:1009E00024EA0104C7F83448002000E0012002B0E6
:1009F000BDE8F0870020FAE7F0B58BB0002800F0E2
:100A000091800446056890F8BD3323B3032384F82E
:100A1000BD33EB6B13F4807F01D100232361206889
:100A200002F06CF9254655F8107B6E460FCD0FC6C7
:100A30000FCD0FC695E8030086E80300231D0ECBFB
:100A4000384602F099F858B1022384F8BD330125E5
:100A500028460BB0F0BD80F8BC3304F023FDD5E789
:100A60000021206802F050F9002315E0D900C81ACF
:100A700082002244012082F83D0082F83C30A2F836
:100A80004230002082F83F0050649064CA1A9100FE
:100A9000214408650133DBB26568AB42E6D300232D
:100AA00015E0D800C11A8A002244002182F8FD1105
:100AB00082F8FC3182F8FF11C2F80412C2F8081261
:100AC000C21A90002044C0F810120133DBB29D42DC
:100AD000E7D8254655F8107B6E460FCD0FC60FCDD3
:100AE0000FC695E8030086E80300231D0ECB3846A9
:100AF00002F050F9054660B9002384F8383001232C
:100B000084F8BD33636A012B08D0206802F00CFD25
:100B10009EE7022384F8BD33012599E7204600F0C3
:100B2000C6FCF2E7012593E7026890F8BC33012B7D
:100B300019D010B5012380F8BC33836A012B0AD089
:100B40000446006802F0D4F8206802F0DFFC0020C0
:100B500084F8BC0310BD8369012BF1D0936B43F47F
:100B600080339363ECE702207047000070B50446C1
:100B70000D460068066C00EB411303F530639A687C
:100B80002169012911D037498E4254D03DB9C5EBB6
:100B9000C50293002344D3F81032002B5CD0E9B295
:100BA000204604F0C9FC002070BD12F0080F09D0E7
:100BB0002D498E42F7D912F4004FF4D04FF4004281
:100BC0009A60F0E712F0200F28D112F0280FEAD136
:100BD00025498E4202D912F4004F22D1E900491B67
:100BE0008A002244D2F804121B69C3F31203C91A03
:100BF000C2F81412D2F80412D2F808320B44C2F828
:100C0000083235B9C5EBC50293002344D3F810323E
:100C10005BB1E9B2204604F08FFCC4E720229A6061
:100C2000C1E74FF400429A60BDE704F571720121FB
:100C300002F0CCFCEDE712F4004F09D112F0200FC6
:100C400001D020229A60E9B2204604F075FCAAE7A0
:100C50004FF400429A60A6E704F57172002102F099
:100C6000B5FC9CE70A31544F0A30544F38B504465E
:100C700003681D6C03EB4111D1F8082B0E4B9D420C
:100C800007D901F5306112F4004F02D04FF4004350
:100C90008B60204604F048FC074B9D4202D9236933
:100CA000012B01D0002038BD04F5717201212068AC
:100CB00002F08CFCF6E700BF0A30544F2DE9F84FE4
:100CC00004460568284602F06DFC08B1BDE8F88FBF
:100CD0002F460646206802F035FC0028F6D0206832
:100CE00002F030FC10F0020F04D02268536903F0C8
:100CF00002035361206802F025FC10F0100F15D09C
:100D00002268936923F010039361D5F8208008F0DE
:100D10000F09C8F34343022B00F08580062B00F037
:100D2000A5802268936943F010039361206802F064
:100D300009FC10F4002F40F0AD80206802F002FCA6
:100D400010F4802F40F0F180206802F0FBFB0028B7
:100D5000C0F25F81206802F0F5FB10F4006F0AD04A
:100D6000D5F8083813F0010F40F06D8122685369FF
:100D700003F400635361206802F0E4FB10F0006F9D
:100D800015D02268536903F00063536194F8F4337B
:100D9000002B40F05C81012184F8F41323685B6D23
:100DA000C3F38303C4F8F833204604F07BFC2068C7
:100DB00002F0C8FB10F4805F40F04D81206802F023
:100DC000C1FB10F4005F40F0AC81206802F0BAFB78
:100DD00010F0080F40F0BD81206802F0B3FB10F462
:100DE000801F40F0BF81206802F0ACFB10F4001FB0
:100DF00040F0C281206802F0A5FB10F0804F40F067
:100E0000C581206802F09EFB10F0040F3FF45EAF36
:100E100023685D6815F0040F40F0C18122685368B3
:100E20002B43536052E747F6F07318EA030F3FF481
:100E300078AF4FEAC90BABEB09034FEA830AA24430
:100E40004FEA1818C8F30A02DAF80812284602F026
:100E5000DFFAC8F30A08DAF808324344CAF808325D
:100E6000DAF814324344CAF814325AE7082204F577
:100E70007171284602F0CCFAC8F30A184FEAC90388
:100E8000A3EB09018A002244D2F814324344C2F889
:100E9000143246E7206802F059FB8046B14617E05D
:100EA00007EB49130122C3F8082B49462046FFF7F8
:100EB0005DFE1DE007EB49130822C3F8082B4946E5
:100EC0002046FFF7D3FE16E009F101094FEA580862
:100ED000B8F1000F3FF431AF18F0010FF4D05FFA12
:100EE00089F1206802F042FB824610F0010FD7D151
:100EF0001AF0080FDED11AF0100F04D007EB4913D7
:100F00001022C3F8082B1AF0200F04D007EB491366
:100F10002022C3F8082B1AF4005FD5D007EB491341
:100F20004FF40052C3F8082BCEE7206802F016FBFE
:100F30008046B1462AE05946204604F009FB1AF0E3
:100F4000080F04D007EB49130822C3F808291AF048
:100F5000100F04D007EB49131022C3F808291AF028
:100F6000400F04D007EB49134022C3F808291AF0B8
:100F7000020F04D007EB49130222C3F808291AF024
:100F8000800F41D109F101094FEA5808B8F1000F6B
:100F90003FF4DAAE18F0010FF4D05FFA89FB59463E
:100FA000206802F0ECFA824610F0010FC7D009F079
:100FB0000F03012101FA03F2D7F8343823EA0203C0
:100FC000C7F8343807EB4913C3F8081923698B4273
:100FD000B1D14FEAC902A2EB090293002344596C34
:100FE0009A6C0A449A64B9F1000FA4D1C9EBC90202
:100FF000930023441B6D002B9DD104F571720121D8
:10100000206802F0E3FA96E749462046FFF78AFC9B
:10101000B8E7D5F8043823F00103C5F8043894F88C
:10102000F433012B08D0204604F0D2FA2268536929
:1010300003F0004353618DE6002184F8F413204649
:1010400004F030FBF2E7204604F0AAFA8EE62046D0
:1010500004F0A6FAABE605F50068D8F8043023F0F2
:101060000103C8F804301021206801F065FE20E07B
:1010700007EB46134FF67F31C3F80819D3F8002960
:1010800022F40012C3F80029D3F8002942F00062CC
:10109000C3F80029C3F8081BD3F8002B22F4001270
:1010A000C3F8002BD3F8002B42F00062C3F8002BEA
:1010B00001366368B342DBD8D8F81C3043F0011323
:1010C000C8F81C30236BEBB1D8F8843043F00B0325
:1010D000C8F88430D8F8443043F00B03C8F84430E3
:1010E000D5F8003823F4FE63C5F8003804F57172B2
:1010F000217C206802F06AFA2268536903F4805365
:1011000053615BE6D8F8143043F4005343F02B03EB
:10111000C8F81430D8F8103043F00B03C8F810307A
:10112000DEE7206802F042FA206801F0F7FEE06096
:10113000256800F07FFA227B0146284601F062FD17
:10114000204604F016FA2268536903F400535361F1
:101150003BE6204604F007FA2268536903F00803CF
:10116000536139E60021204604F03EFA22685369B3
:1011700003F48013536136E60021204604F02EFA72
:101180002268536903F40013536133E6204604F0E8
:1011900031FA2268536903F08043536131E62046F7
:1011A00004F02EFA3AE690F8BC33012B0DD010B5BE
:1011B0000446012380F8BC3380F83810006802F040
:1011C00095F9002084F8BC0310BD02207047F8B5E3
:1011D00011F0800F28D101F00F06F500AF1BBC0005
:1011E000274604F5FC74044404343E4606440025B6
:1011F00086F8FD5101F00F012170A260E370627862
:1012000002B1E180022B1ED090F8BC33012B1DD01F
:101210000546012380F8BC332146006801F08FFEAB
:10122000002085F8BC03F8BD01F00F06F500AF1BE8
:10123000BC0027463834044404343E4606440125A5
:1012400086F83D50D6E700232371DDE70220EAE768
:1012500038B511F0800F21D101F00F05EA00541BC1
:10126000A3001C4603F5FC730344043325460544E0
:10127000002285F8FD2101F00F01197090F8BC23C0
:10128000012A1AD00446012280F8BC2319460068BE
:1012900001F0A0FE002084F8BC0338BD01F00F046B
:1012A000E200151BAB001D463833034404332C46C3
:1012B0000444012284F83D20DDE70220EDE770B50B
:1012C00001F00F05EE00711B8C0004F5FC74044462
:1012D000211D761BB4000444C4F80822C4F810325F
:1012E0000023C4F8143284F8FD3184F8FC510369FA
:1012F000012B06D065B1DAB2006801F07BFF002057
:1013000070BDC5EBC506B4000444C4F80C22F1E777
:10131000DAB2006801F0CCFEF1E770B501F00F051C
:10132000EE00711B8C0038340444211D761BB40080
:101330000444A264236500236365012384F83D30DF
:1013400084F83C500369012B06D05DB1DAB2006825
:1013500001F050FF002070BDC5EBC506B400044489
:10136000E264F2E7DAB2006801F0A2FEF2E738B513
:1013700001F00F0543689D4236D811F0800F20D14F
:10138000CA00541AA3001C4603F5FC73034404333B
:1013900022460244002182F8FD1101229A701D703C
:1013A00090F8BC23012A21D00446012280F8BC23F6
:1013B0001946006802F03FF87DB1002084F8BC03B4
:1013C00013E0EA00511B8B00194638330344043301
:1013D0000144012281F83D20DFE704F57172217C90
:1013E000206802F0F3F8E8E7012038BD0220FCE7AE
:1013F00010B501F00F0443689C422CD811F0800F07
:101400001DD1E3001A1B91000A4601F5FC7101444D
:1014100004310244002382F8FD3100238B700C70EC
:1014200090F8BC33012B18D00446012380F8BC335C
:10143000006802F02DF8002084F8BC030CE0E30003
:101440001A1B91000A463831014404310244012339
:1014500082F83D30E1E7012010BD0220FCE730B406
:101460000468606A29B10D46A36A00EB13400023AB
:101470000CE040EA0240A06212E003F1400104EBFC
:101480008101496800EB11400133DBB2691E8B42D8
:10149000F3D340EA024005F13F0104EB81014860CB
:1014A000002030BC70470368596200207047034633
:1014B00002680121C0F8FC13002083F8F40393694B
:1014C00043F000639361536D43F0805343F0030393
:1014D00053657047002800F09E8070B50446504B5D
:1014E0001B6803F00F038B4209D2CBB24C4A137036
:1014F000136803F00F038B4201D0012070BD2368F5
:1015000013F0020F17D013F0040F04D0454A93686C
:1015100043F4E0539360236813F0080F04D0414A6A
:10152000936843F4604393603E4A936823F0F0036A
:10153000A068034393600D46236813F0010F32D077
:101540006368012B21D09A1E012A25D9354A1268D9
:1015500012F0020F61D033498A6822F0030213436C
:101560008B60FFF777F806462E4B9B6803F00C0361
:101570006268B3EB820F16D0FFF76CF8801B41F264
:1015800088339842F0D90320B8E7264A126812F44B
:10159000003FE0D10120B1E7224A126812F0007F3B
:1015A000D9D10120AAE71E4B1B6803F00F03AB4201
:1015B00009D9EAB21A4B1A701B6803F00F03AB4249
:1015C00001D001209AE7236813F0040F06D0154AD2
:1015D000936823F4E053E1680B439360236813F0AE
:1015E000080F07D00F4A936823F46043216943EA48
:1015F000C103936000F082FA0A4B9B68C3F30313A4
:10160000094AD35CD840094B1860094B1868FEF7AB
:10161000D7FF002072E70120704701206EE700BF6E
:10162000003C024000380240106C0008100100200D
:1016300004000020014B1868704700BF1001002013
:1016400008B5FFF7F7FF044B9B68C3F38223034AF7
:10165000D35CD84008BD00BF00380240206C0008B1
:1016600008B5FFF7E7FF044B9B68C3F34233034A17
:10167000D35CD84008BD00BF00380240206C000891
:10168000F0B583B00446036813F0010F0CD0964AFE
:10169000D2F88C3023F0C063816B0B43C2F88C30DE
:1016A000836B3BB3002600E00026236813F0020F93
:1016B0000BD08D4AD2F88C3023F0C053E16B0B4332
:1016C000C2F88C30E36B03B90126236813F0040FD2
:1016D00014D0854AD2F88C3023F44013216B0B438D
:1016E000C2F88C30236BB3F5801F05D0002B7BD064
:1016F000002504E00126D8E70126F7E70025236846
:1017000013F0080F0ED0784AD2F88C3023F440033F
:10171000616B0B43C2F88C30636BB3F5800F65D0FF
:1017200003B90125236813F0200F61D1236813F05A
:10173000100F03D094F858206C4B1A60236813F0F4
:10174000800F08D0684AD2F8943023F44003E16C4B
:101750000B43C2F89430236813F0400F08D0624A5C
:10176000D2F8943023F08063A16C0B43C2F894301C
:10177000236813F4807F0DD05B4AD2F8943023F0B5
:101780000063616D0B43C2F89430636DB3F1006F79
:1017900000F09580236813F4007F08D0524AD2F8F5
:1017A000943023F08053616C0B43C2F8943023686B
:1017B00013F4806F0CD04C4AD2F8943023F00053CD
:1017C000216D0B43C2F89430236DB3F1005F78D0E4
:1017D000002E76D12368B3F5006F72D0002D40F053
:1017E0002281002003B0F0BD012588E7012697E79C
:1017F000002301933C4B1A6C42F080521A641B6C1C
:1018000003F080530193019B394A136843F48073BA
:101810001360FEF71FFF0746354B1B6813F4807FEC
:1018200006D1FEF717FFC01B0228F5D90320D9E720
:101830002D4B1B6F13F4407312D0226C02F44072D4
:101840009A420DD0284B1A6F22F440722949012088
:101850000860002008601A671B6F13F0010F12D197
:10186000236C03F44072B2F5407F1DD01E4A93688A
:1018700023F4F81393601C490B6F226CC2F30B0224
:1018800013430B6752E7FEF7E5FE0746164B1B6F47
:1018900013F0020FE4D1FEF7DDFEC01B41F28833E6
:1018A0009842F3D903209DE70F498A6822F4F81281
:1018B00023F0704323F4407313438B60DBE701256F
:1018C00068E70D4B00221A60FEF7C4FE0646064B81
:1018D0001B6813F0006F11D0FEF7BCFE801B0228BE
:1018E000F5D903207EE700BF00380240E0114742EF
:1018F00000700040400E474268004742236813F0E2
:10190000010F01D0A26B22B113F0020F15D0E36BCF
:101910009BB9774AD2F88400D2F884106368A6682D
:1019200043EA861300F44030034301F070610B4337
:10193000616943EA0173C2F88430236813F0040F2D
:1019400003D0226BB2F5801F06D013F0080F20D011
:10195000636BB3F5800F1CD1654AD2F88400D2F8CE
:1019600084106368A66843EA861300F4403003439A
:10197000206943EA006301F0E0410B43C2F8843080
:10198000D2F88C3023F01F03A16A01390B43C2F84F
:101990008C30236813F4806F03D0236DB3F1005FA4
:1019A00028D0236813F4006F11D06368A26843EA5B
:1019B0008213E2685208013A43EA0243226943EA89
:1019C0000263626943EA0273494AC2F88430494BB0
:1019D00001221A60FEF73EFE0646454B1B6813F0D7
:1019E000006F7FF4FBAEFEF735FE801B0228F4D9B2
:1019F0000320F7E63E48D0F88430C3F301435A1C75
:101A0000D0F884606368A16843EA8113E1684908FB
:101A1000013943EA014343EA426306F0E0421343DB
:101A2000C0F88430BDE7344B00221A60FEF712FE86
:101A300005462F4B1B6813F0005F06D0FEF70AFE29
:101A4000401B0228F5D90320CCE6236813F0040FCD
:101A500001D0226B22B113F0080F1AD0636BC3B907
:101A6000234AD2F88810A369E06943EA801301F49D
:101A700040310B43616A43EA0163C2F88830D2F80F
:101A80008C3023F4F853E16A013943EA0123C2F8A8
:101A90008C30236813F4807F03D0636DB3F1006F43
:101AA00011D0154B01221A60FEF7D4FD0446104BED
:101AB0001B6813F0005F18D1FEF7CCFD001B022855
:101AC000F5D903208EE60A48D0F88810A369E269A8
:101AD00043EA8213226A5208013A43EA024301F0C0
:101AE00070621343C0F88830DBE700207AE600BF5D
:101AF0000038024068004742700047422DE9F04B31
:101B00005C4B9B6803F00C03082B07D00C2B5BD0BD
:101B1000042B00F0AD805848BDE8F08B554B5A6857
:101B200002F03F025B6813F4800F2AD0514B5B68D0
:101B3000C3F388131E4600275C010025E41A65EBF9
:101B40000705A90141EA9461A001001B61EB0501B1
:101B5000CB0043EA5073C400A01943EB07014B02CA
:101B600043EAD0534402204619460023FEF750FBB7
:101B7000404B5B68C3F3014301335B00B0FBF3F000
:101B8000CAE73C4B5B68C3F388131E4600275C0121
:101B90000025E41A65EB0705A90141EA9461A0015B
:101BA000001B61EB0501CB0043EA5073C400A01990
:101BB00043EB07018B0243EA905384022046194607
:101BC0000023FEF725FBD3E72A4B5A6802F03F02B9
:101BD0005B6813F4800F28D0264B5B68C3F388132F
:101BE0001E4600275C010025E41A65EB0705A901E4
:101BF00041EA9461A001001B61EB0501CB0043EABF
:101C00005073C400A01943EB07014B0243EAD053C1
:101C10004402204619460023FEF7FAFA154B5B688A
:101C2000C3F30273B0FBF3F076E7124B5B68C3F3C8
:101C300088131E4600275C010025E41A65EB0705A2
:101C4000A90141EA9461A001001B61EB0501CB00F1
:101C500043EA5073C400A01943EB07018B0243EA27
:101C600090538402204619460023FEF7D1FAD5E7A7
:101C7000024851E7003802400024F40000127A00C4
:101C800070B582B00446036813F0010F41D0A64B33
:101C90009B6803F00C03042B32D0A34B9B6803F02A
:101CA0000C03082B27D0A04B9B6803F00C030C2BD4
:101CB00059D06368B3F5803F5BD0B3F5A02F5ED0F9
:101CC000994B1A6822F480321A601A6822F4802232
:101CD0001A606368002B5CD0FEF7BCFC0546924B93
:101CE0001B6813F4003F14D1FEF7B4FC401B6428BA
:101CF000F5D903209DE18C4B5B6813F4800FD2D0A3
:101D0000894B1B6813F4003F03D06368002B00F07D
:101D10008D81236813F0020F67D0834B9B6813F00B
:101D20000C0F4AD0804B9B6803F00C03082B3FD06C
:101D30007D4B9B6803F00C030C2B48D0E368002B11
:101D400074D07A4B01221A60FEF784FC0546764B6C
:101D50001B6813F0020F60D1FEF77CFC401B0228C9
:101D6000F5D9032065E1704B5B6813F4800FA0D0B8
:101D7000C6E76D4A136843F480331360A9E76A4BE2
:101D80001A6842F480221A601A6842F480321A609B
:101D90009FE7FEF75FFC0546634B1B6813F4003FAB
:101DA000B7D0FEF757FC401B6428F5D9032040E16B
:101DB0005D4B5B6813F4800FBAD15B4B1B6813F06B
:101DC000020F0AD0E368012B07D0012031E1564B06
:101DD0005B6813F4800FB1D1EFE7534A136823F027
:101DE000F803216943EAC1031360236813F0080F65
:101DF00040D0636963B34E4B01221A60FEF72AFCA0
:101E00000546494B5B6F13F0020F33D1FEF722FCFE
:101E1000401B0228F5D903200BE1434A136823F045
:101E2000F803216943EAC1031360DEE73F4B002258
:101E30001A60FEF70FFC05463B4B1B6813F0020FC0
:101E4000D3D0FEF707FC401B0228F5D90320F0E0B1
:101E5000374B00221A60FEF7FDFB0546324B5B6FE5
:101E600013F0020F06D0FEF7F5FB401B0228F5D950
:101E70000320DEE0236813F0040F79D02A4B1B6C9B
:101E800013F0805F33D100230193274B1A6C42F08B
:101E900080521A641B6C03F080530193019B01254F
:101EA000244B1B6813F4807F23D0A368012B34D00C
:101EB000052B41D01C4B1A6F22F001021A671A6FD2
:101EC00022F004021A67A368002B3FD0FEF7C2FB82
:101ED0000646154B1B6F13F0020F48D1FEF7BAFBF5
:101EE000801B41F288339842F3D90320A1E00025FA
:101EF000D6E7104A136843F480731360FEF7AAFB19
:101F000006460C4B1B6813F4807FCED1FEF7A2FB74
:101F1000801B0228F5D903208BE0034A136F43F09E
:101F200001031367CFE700BF0038024000004742BB
:101F3000800E474200700040404B1A6F42F004028E
:101F40001A671A6F42F001021A67BCE7FEF782FBBC
:101F500006463A4B1B6F13F0020F08D0FEF77AFBD0
:101F6000801B41F288339842F3D9032061E0E5B940
:101F7000A369002B5CD0314A926802F00C02082A57
:101F800059D0022B17D02E4B00221A60FEF762FBAD
:101F900004462A4B1B6813F0007F45D0FEF75AFB1E
:101FA000001B0228F5D9032043E0244A136C23F0D8
:101FB00080531364DCE7224B00221A60FEF74AFBD1
:101FC00005461E4B1B6813F0007F06D0FEF742FB50
:101FD000401B0228F5D903202BE0E369226A134352
:101FE000626A43EA8213A26A5208013A43EA024350
:101FF000E26A43EA0263226B43EA02730F4A5360C8
:102000000F4B01221A60FEF725FB04460B4B1B68A1
:1020100013F0007F06D1FEF71DFB001B0228F5D947
:10202000032006E0002004E0002002E0012000E0A0
:10203000002002B070BD0120FBE700BF0038024065
:1020400060004742F8B505460F4616461C462B6809
:102050009B6837EA03030CBF01230023B34237D048
:10206000B4F1FF3FF3D0FEF7F5FA069BC01AA04289
:1020700001D2002CEBD12A68536823F0E0035360AF
:102080006B68B3F5827F0BD0AB6AB3F5005F14D0F9
:10209000012385F85130002385F85030032018E0E3
:1020A000AB68B3F5004F02D0B3F5806FECD12A686E
:1020B000136823F040031360E6E72A68136823F4EB
:1020C000005313602A68136843F400531360DFE77A
:1020D0000020F8BD30B585B0164C2468164DA5FB20
:1020E0000434640D4FF47A7505FB04F403944468DA
:1020F000B4F5827F0BD0039BC3B1039B013B0393D9
:1021000003689B6813F0800FF5D100230FE00B46A6
:102110000446009200228021FFF794FF034630B16D
:10212000636D43F020036365032300E0002318463A
:1021300005B030BD10010020819F5E1610B582B041
:1021400004464068B0F5827F16D06068B0F5827FA3
:102150002ED1A368B3F5806F1BD000920B460022EE
:1021600080212046FFF76EFF034650B3636D43F0B6
:1021700020036365032324E0A368B3F5004F02D076
:10218000B3F5806FE1D12068036823F0400303605A
:10219000DBE700920B46002201212046FFF752FFA9
:1021A000034670B1636D43F020036365032308E0C9
:1021B00000920B46002201212046FFF743FF034611
:1021C00010B9184602B010BD636D43F0200363657B
:1021D0000323F6E700283BD010B5044600238362B2
:1021E00090F85130002B2ED0022384F85130226811
:1021F000136823F0400313606368A2681343E26826
:1022000013432269134362691343A26902F4007203
:102210001343E2691343226A1343A16A22680B4302
:102220001360638B03F00403616A22680B435360FD
:102230002268D36923F40063D36100206065012321
:1022400084F8513010BD80F8503003F057F8CBE7D8
:10225000012070472DE9F04182B090F85040012CE8
:1022600000F0C3801D46174688460446012380F8C7
:102270005030FEF7EFF9064694F85130DBB2012BEF
:1022800009D00220012384F85130002384F8503013
:1022900002B0BDE8F081B8F1000F00F09880002F87
:1022A00000F09780032384F8513000236365C4F85D
:1022B0003080A786E786A363A387E38763642364EC
:1022C000A368B3F5004F1CD023681A6812F0400FC2
:1022D00003D11A6842F040021A60E368B3F5006F58
:1022E00015D063680BB1012F49D1226B2368127896
:1022F0001A73236B01332363E38E013B9BB2E386A6
:102300003DE02268136843F480431360DCE76368B0
:102310000BB1012F15D1226B23681288DA60236B71
:1023200002332363E38E013B9BB2E38609E0FEF7B1
:1023300091F9801BA84202D3B5F1FF3F4BD1002D8C
:102340004BD0E38E9BB2002B2CD023689A6812F0FE
:10235000020FECD0226B1288DA60236B0233236306
:10236000E38E013B9BB2E386EBE7FEF773F9801B3C
:10237000A84202D3B5F1FF3F31D1002D31D0E38E19
:102380009BB27BB123689A6812F0020FEDD0226BEA
:1023900012781A73236B01332363E38E013B9BB2E4
:1023A000E386ECE7324629462046FFF793FE08B164
:1023B00020236365A36833B901932368DA68019227
:1023C0009B680193019B636D6BB900205AE7012064
:1023D00058E7012056E7032054E7032052E7032083
:1023E00050E703204EE701204CE7022050E72DE99B
:1023F000F04383B0DDF8288090F85040012C00F0C5
:102400000B811D4617460E460446012380F85030C6
:10241000FEF720F9814694F85100C0B263680128A4
:1024200015D0B3F5827F0AD00223012284F851200F
:10243000002284F85020184603B0BDE8F083A3685A
:10244000002B40F0DB80042801D00223EDE7002EB2
:1024500000F0D680002F00F0D580002D00F0D48051
:1024600094F85130DBB2042B02D0052384F85130AC
:1024700000236365A763E587A5872663E586A586B0
:102480002364636423681A6812F0400F03D11A684A
:1024900042F040021A60E368B3F5006F10D0636841
:1024A0000BB1012D0AD1226B236812781A73236BAA
:1024B00001332363E38E013B9BB2E386012569E090
:1024C00063680BB1012D0AD1226B23681288DA6090
:1024D000236B02332363E38E013B9BB2E38601252A
:1024E0001BE023689A6812F0010F0DD0E28F92B2C0
:1024F00052B1DA68A36B1A80A36B0233A363E38F34
:10250000013B9BB2E3870125FEF7A4F8A0EB09008D
:10251000404502D3B8F1FF3F78D1E38E9BB21BB99F
:10252000E38F9BB2002B52D023689A6812F0020FFF
:10253000D7D0E28E92B2002AD3D0002DD1D0226B18
:102540001288DA60236B02332363E38E013B9BB274
:10255000E3860025C5E723689A6812F0010F0DD0C5
:10256000E28F92B252B1DA68A36B1A70A36B013397
:10257000A363E38F013B9BB2E3870125FEF76AF873
:10258000A0EB0900404502D3B8F1FF3F40D1B8F1BC
:10259000000F3FD0E38E9BB213B9E38F9BB2B3B170
:1025A00023689A6812F0020FD5D0E28E92B2002A08
:1025B000D1D0002DCFD0226B12781A73236B013348
:1025C0002363E38E013B9BB2E3860025C3E74A46C3
:1025D00041462046FFF77EFD034618B12023636580
:1025E000012322E7A268002A7FF41FAF019222682C
:1025F000D168019192680192019A16E7022314E7CB
:10260000012312E7012310E701230EE703230CE760
:1026100003230AE7032308E702230CE72DE9F0412F
:1026200082B004460F4690461D464368B3F5827F4C
:1026300019D094F85030012B00F09F80012384F8CA
:102640005030FEF707F8064694F85130DBB2012B04
:1026500015D00220012384F85130002384F8503033
:1026600002B0BDE8F0818368002BE2D1042380F83A
:102670005130009513460A46FFF7B9FEF0E7002FE8
:102680006DD0B8F1000F6CD0042384F851300023D2
:102690006365A763A4F83C80A4F83E802363A38607
:1026A000E38623646364A368B3F5004F0BD023680B
:1026B0001A6812F0400F03D11A6842F040021A6003
:1026C000E36883B12CE02268136823F4804313602D
:1026D000EDE7FDF7BFFF801BA84202D3B5F1FF3F36
:1026E00041D1002D41D0E38F9BB2002B2BD023682A
:1026F0009A6812F0010FECD0A26B1B7B1370A36BD6
:102700000133A363E38F013B9BB2E387EBE7FDF764
:10271000A1FF801BA84202D3B5F1FF3F27D145B3EB
:10272000E38F9BB27BB123689A6812F0010FEED061
:10273000DA68A36B1A80A36B0233A363E38F013BB8
:102740009BB2E387ECE7324629462046FFF7F6FCCA
:1027500008B120236365636D6BB900207AE701201F
:1027600078E7012076E7032074E7032072E703206F
:1027700070E703206EE701206CE7022070E700009D
:102780002DE9F04B04460268136923F44053C168F5
:102790000B43136183680269134342691343C2699F
:1027A0001A430168CB6823F4164323F00C03134348
:1027B000CB600268536923F4407381690B43536112
:1027C000C369B3F5004F3BD00368714A934200F0F0
:1027D000AB8002F58062934200F0A680FEF730FFE6
:1027E0004FF00009061849EB090716EB000B47EB01
:1027F000090C4FEACC0343EA5B734FEACB029346E2
:102800009C4663689A009B0F10EB0B0049EB0C0190
:10281000FDF7FEFC5F4DA5FB00325109642202FB6F
:10282000110213013233A5FB03235B0903F0F0020D
:1028300002EB011203F00F03216813448B60A4E044
:102840000368534A934239D002F58062934235D0EF
:10285000FEF7F6FE83464FF0000C06184CEB0C0713
:1028600016EB000847EB0C094FEAC90343EA58731B
:102870004FEAC8029046994662680021921841EBDF
:1028800001031BEB08004CEB0901FDF7C1FC414DB6
:10289000A5FB00325109642202FB1102D30032333E
:1028A000A5FB03235B095A0002F4F87202EB011244
:1028B00003F00703216813448B6066E0FEF7D0FE47
:1028C00080464FF00009061849EB090716EB000B8C
:1028D00047EB090C4FEACC0343EA5B734FEACB02A8
:1028E00093469C4662680021921841EB010318EB65
:1028F0000B0049EB0C01FDF78BFC264DA5FB0032CC
:102900005109642202FB1102D3003233A5FB0323D9
:102910005B095A0002F4F87202EB011203F007039C
:10292000216813448B6030E0FEF79AFE4FF00009F7
:10293000061849EB090716EB000B47EB090C4FEAA9
:10294000CC0343EA5B734FEACB0293469C46636831
:102950009A009B0F10EB0B0049EB0C01FDF758FCA4
:102960000C4DA5FB00325109642202FB1102130138
:102970003233A5FB03235B0903F0F00202EB0112E3
:1029800003F00F03216813448B60BDE8F08B00BF98
:10299000001001401F85EB512DE9F04105460F461F
:1029A00016469846069C2B681B6837EA03030CBF43
:1029B00001230023B3421DD1B4F1FF3FF3D02CB16A
:1029C000FDF748FEA0EB0800A042ECD92A68D368C6
:1029D00023F4D073D3602A68536923F00103536151
:1029E000202385F8393085F83A30002385F83830CF
:1029F000032000E00020BDE8F08158B310B5044684
:102A000090F839300BB3242384F839302268D36826
:102A100023F40053D3602046FFF7B2FE2268136907
:102A200023F4904313612268536923F02A0353610E
:102A30002268D36843F40053D3600020E06320236E
:102A400084F8393084F83A3010BD80F8383002F01C
:102A500097FCD8E7012070472DE9F04383B01E466C
:102A600090F83930DBB2202B56D104460D46904603
:102A7000002956D0002A56D090F83830012B54D077
:102A8000012380F838304FF00009C0F83C90212332
:102A900080F83930FDF7DEFD0746A4F82480A4F85D
:102AA000268084F8389010E000963B460022802172
:102AB0002046FFF771FF002839D12B882268C3F325
:102AC000080353602369C3B90235E38C9BB2B3B1E9
:102AD000E38C013B9BB2E384A368B3F5805FE3D052
:102AE00000963B46002280212046FFF755FF00BBA1
:102AF0002A7823685A600135E7E70135E5E7009653
:102B00003B46002240212046FFF746FF034690B98E
:102B1000202284F8392000E00223184603B0BDE8E3
:102B2000F0830123F9E70123F7E70223F5E7032305
:102B3000F3E70323F1E70323EFE70000002301336A
:102B40000C4A934211D80269002AF8DA036943F06B
:102B50000103036100230133064A934207D8026947
:102B600012F0010FF7D100207047032070470320B7
:102B7000704700BF400D030084B010B5044603A8A1
:102B800080E80E00089B012B1FD1A36B23F4803338
:102B9000A363E36823F4840323F04003E360E36862
:102BA00023F44013E3600F9B012B09D02046FFF76D
:102BB000C5FF069B012B1BD0BDE8104004B0704739
:102BC000E36843F48013E360F0E7E36843F0400315
:102BD000E3602046FFF7B2FF0C9B23B9A36B43F4DD
:102BE0008033A363E5E7A36B23F48033A363E0E7BB
:102BF000A36843F00603A360A36843F02003A36027
:102C0000DAE70000022A0AD00921C26822F47052D1
:102C1000C260C36843EA8123C360002070472A4B27
:102C20000B442A4A93423FD9294B0B44294A9342E9
:102C30003CD9A1F57403A3F51053274A934237D921
:102C4000A1F18373A3F5E74302F5C332A0329342A7
:102C500030D9224B0B44224A93422DD9214B0B44AD
:102C600002F5922202F57872934227D91E4B0B444B
:102C700002F5C32202F52072934221D9A1F1B77364
:102C8000A3F5585302F5B71202F55872934219D9B9
:102C9000164B0B4402F5122202F5F862934201D959
:102CA0000621B2E70721B0E70F21AEE70E21ACE71E
:102CB0000D21AAE70C21A8E70B21A6E70A21A4E72A
:102CC0000921A2E70821A0E7405327FFFF340C00A9
:102CD000401E1BFF3F420F007F4F120060B6E5FE13
:102CE0005FE3160000D3CEFEC05BB3FEE05459FE96
:102CF000836843F00103836000207047836823F0FA
:102D0000010383600020704708B5C36823F0C04307
:102D1000C360012909D069B9C36843F08043C36027
:102D20003220FDF79DFC002008BDC36843F000532E
:102D3000C360F5E70120F7E7890141F02001016157
:102D400000230133054A934205D8026912F0200F8F
:102D5000F7D1002070470320704700BF400D0300EB
:102D60001023036100230133054A934205D8026909
:102D700012F0100FF7D1002070470320704700BFFA
:102D8000400D0300D0F800381943C0F800180020A7
:102D90007047000084B02DE9F041044607A880E8A0
:102DA0000E002546002306E003F1400204EB8202F8
:102DB0000021516001330E2BF6D9119B23BBD4F8AF
:102DC000043843F00203C4F80438A36B23F400135F
:102DD000A363236843F040032360236843F0800328
:102DE00023600023C4F8003E04F50066D4F80038E0
:102DF000C4F800380C9B012B10D1099B4BB9002162
:102E00002046FFF7BFFF0DE0A36B43F40013A3635D
:102E1000E7E701212046FFF7B5FF03E00321204645
:102E2000FFF7B0FF10212046FFF786FF804608B16C
:102E30004FF001082046FFF793FF08B14FF001085B
:102E4000002333617361F3610AE0C3B94FF000609E
:102E5000C2F8000900220A614FF67F328A6001330E
:102E60000799994210D905EB431202F51061D2F887
:102E700000090028E9DB0020C2F80009EAE74FF06A
:102E80009040C2F80009E5E700230AE0BBB14FF02B
:102E90009047C2F8007B002202614FF67F328260C9
:102EA0000133994210D905EB431202F53060D2F894
:102EB000007B002FEADB0027C2F8007BEBE74FF036
:102EC0000067C2F8007BE6E7336923F4807333615F
:102ED0000023A3616FF0804363610A9B1BB9A36960
:102EE00043F01003A361A2690B4B1343A3610D9B35
:102EF0001BB1A36943F00803A361119B012B04D00C
:102F00004046BDE8F04104B07047A36943F08043F8
:102F100043F00403A361F3E700383C80D0F808389D
:102F200013F0060307D0022B07D0062B01D00F2089
:102F3000704702207047002070470220704770B42D
:102F40000B784A78012A22D0D0F81C2803F00F060B
:102F50000124B44042EA0442C0F81C2800EB4310AC
:102F6000D0F8003B13F4004F0ED1D0F8003B8A6834
:102F7000C2F30A02C97842EA8142134343F0805304
:102F800043F40043C0F8003B002070BC7047D0F809
:102F90001C4803F00F06B24092B22243C0F81C282E
:102FA00000EB4310D0F8002912F4004FECD1D0F818
:102FB00000298C68C4F30A04C97844EA814444EACD
:102FC0008353134343F0805343F40043C0F8003964
:102FD000DAE7000030B40B784A78012A24D000EBFD
:102FE0004313D3F8002B002A50DBD0F83C580A7862
:102FF00002F00F02012404FA02F225EA0242C0F8AC
:103000003C28D0F81C28097801F00F018C4022EAF6
:103010000444C0F81C48D3F8001B234A0A40C3F8F4
:10302000002B002030BC704700EB4313D3F800297D
:10303000002A1EDBD0F83C580A7802F00F02012467
:1030400004FA02F292B225EA0202C0F83C28D0F853
:103050001C28097801F00F018C40A4B222EA040474
:10306000C0F81C48D3F80019104A0A40C3F80029D8
:10307000D7E7D3F8002942F00062C3F80029D3F85B
:10308000002942F08042C3F80029D3E7D3F8002B8F
:1030900042F00062C3F8002BD3F8002B42F08042CC
:1030A000C3F8002BA1E700BF0078F3EF007833EC02
:1030B00070B40B784C78012C26D000EB431000F54F
:1030C00030631C69E40CE4041C611C6924F0FF54A7
:1030D00024F4C0141C614C690CB18C684C611C69EF
:1030E00044F400241C611C698D68C5F312052C434F
:1030F0001C61012A65D0D0F8003B43F00443C0F8BE
:10310000003B002070BC70474C696CBB00EB431463
:10311000D4F8105925F0FF5525F4C015C4F81059FE
:10312000D4F8105945F40025C4F81059D4F81059B2
:10313000ED0CED04C4F81059012A33D000EB431311
:10314000D3F8002942F00442C3F800294B69002B50
:10315000D7D0D0F83428097801F00F040121A1401C
:103160000A43C0F83428CCE700EB431404F510649C
:103170002569ED0CED042561256925F0FF5525F441
:10318000C01525614E698D68AE4200D94D61256933
:1031900045F40025256125694E69C6F312063543BD
:1031A0002561C9E70A691AB100EB4311C1F8142976
:1031B00000EB4310D0F8002942F00442C0F8002987
:1031C0009FE7CA68002A96D05A6194E770B49DF8C8
:1031D0000C4064B903339D0807E000EB023303F5AC
:1031E000805351F8046B1E600134AC42F5D30020CB
:1031F00070BC7047F0B583B00B784C78012C2BD0A5
:1032000000EB431303F530642569ED0CED042561F3
:10321000256925F0FF5525F4C01525614D69002D60
:1032200040F0C58025698E68C6F3120635432561D6
:10323000256945F400252561012A00F0CD80CA7872
:10324000012A00F0CF80D3F8002B42F00442C3F8EB
:10325000002B002003B0F0BD4C6984BB00EB43148D
:10326000D4F8105925F0FF5525F4C015C4F81059AD
:10327000D4F8105945F40025C4F81059D4F8105961
:10328000ED0CED04C4F81059012A4CD000EB4313A7
:10329000D3F8004944F00444C3F80049CC78012C29
:1032A0006AD04B69002BD4D0D0F83428097801F0CB
:1032B0000F040121A1400A43C0F83428C9E700EBFC
:1032C0004314D4F81059ED0CED04C4F81059D4F897
:1032D000105925F0FF5525F4C015C4F81059D4F83D
:1032E00010694D698F683D44013DB5FBF7F5474FC7
:1032F00007EAC5453543C4F81059D4F810594E694A
:10330000C6F312063543C4F8105904F51064CD789D
:10331000012DB9D1256925F0C0452561256945F004
:1033200000552561B0E70A691AB100EB4314C4F8EF
:103330001429CA78012A08D000EB4313D3F80029D6
:1033400042F00442C3F8002983E7D0F8082812F4B9
:10335000807F08D100EB4311D1F8002942F00052E0
:10336000C1F80029E8E700EB4311D1F8002942F049
:103370008052C1F80029DFE7D0F8084814F4807FB4
:103380000ED1D3F8004944F00054C3F80049144664
:103390000B46C9681A789B8A0094FFF717FF58E715
:1033A000D3F8004944F08054C3F80049EFE78E6831
:1033B0003544013DB5FBF6F52669144F07EAC547CC
:1033C0003E43266127698E68ADB206FB05F5C5F35D
:1033D00012053D4325612FE7CA68002A3FF42FAF4D
:1033E00062612CE7D0F8082812F4807F06D1D3F868
:1033F000002B42F00052C3F8002B24E7D3F8002B37
:1034000042F08052C3F8002B1DE700BF0000F81FF8
:1034100003329208002393420BD210B400F580547B
:10342000246841F8044B01339342F7D3084610BC9B
:103430007047084670470B784A78012A14D000EB91
:103440004310D0F8002B002A06DB2BB1D0F8003B4C
:1034500023F08043C0F8003BD0F8003B43F4001356
:10346000C0F8003B0020704700EB4310D0F8002963
:10347000002A06DB2BB1D0F8003923F08043C0F8D6
:103480000039D0F8003943F40013C0F80039E9E7F7
:103490000B784A78012A0ED000EB4310D0F8003B9D
:1034A00023F40013C0F8003BCB78023BDBB2012BC6
:1034B00015D90020704700EB4310D0F8003923F4F1
:1034C0000013C0F80039CB78023BDBB2012BF0D8F7
:1034D000D0F8003943F08053C0F80039E9E7D0F85C
:1034E000003B43F08053C0F8003BE2E7D0F80038DF
:1034F00023F4FE63C0F80038D0F80038090101F465
:10350000FE610B43C0F8003800207047D0F8003E41
:1035100023F00303C0F8003ED0F8043823F0020380
:10352000C0F8043800207047D0F8003E23F00303B1
:10353000C0F8003ED0F8043843F00203C0F8043865
:10354000002070474269806910407047D0F81838F1
:1035500000F50060C0691840000C7047D0F81838BA
:1035600000F50060C069184080B2704700EB41115F
:10357000D1F8082B00F5006040691040704710B486
:10358000D0F81048D0F8343801F00F02D340DB01F6
:10359000DBB2234300EB411000F510608068184057
:1035A00010BC7047406900F001007047D0F8003946
:1035B00023F4FF6323F00703C0F80039D0F8043880
:1035C00043F48073C0F804380020704710B4046CD2
:1035D000144B9C4203D9D0F8003B002B16DB00248F
:1035E000C0F8104BD0F8104B44F40024C0F8104B36
:1035F000D0F8104B44F01804C0F8104BD0F8104B22
:1036000044F0C044C0F8104B012902D0002010BC87
:103610007047C0F8142BD0F8003B43F08023C0F86B
:10362000003BF3E70A30544F2223038000487047E1
:103630000800002022230380004870472C0000204F
:10364000222303800048704750000020D0F8BC328D
:1036500000201873704700000A2303800048704759
:103660007400002010B582B0D0F8BC420023ADF841
:1036700006300B7813F0600325D0202B75D14B78E2
:10368000023B092B1BD8DFE803F014091A1A1A1A97
:103690001A1A0F058B782360002069E00122214669
:1036A00000F085FD002063E04B881B0A636000206A
:1036B0005EE00122211D00F07AFD002058E000F0BC
:1036C00032FA032054E04B780B2B4AD8DFE803F0A2
:1036D000065249494949154949492E3D90F89C32BD
:1036E000032B06D102220DF1060100F060FD00203F
:1036F0003EE000F018FA03203AE04B881B0A222B28
:103700000AD0212B0ED1CA88092A28BF09221A49BA
:1037100000F04DFD00202BE0CA884B2A28BF4B2229
:103720001649F5E700F0FFF9032021E090F89C32FC
:10373000032B06D1012204F1080100F038FD00201E
:1037400016E000F0F0F9032012E090F89C32032B11
:1037500003D18B78A36000200AE000F0E4F9032095
:1037600006E000F0E0F9032002E000F0DCF90320BD
:1037700002B010BD0020FBE7CC000020800000203C
:1037800010B50446812101F0DBFF00232387638706
:10379000D4F8BC0220B102F0F7F80023C4F8BC3220
:1037A000002010BD38B50446102002F0E5F888B1BD
:1037B0000546C4F8BC02237C8BB907236387042326
:1037C00003228121204601F0B0FF0123238700203E
:1037D000287338BD0023C4F8BC320220F9E70A235D
:1037E0006387ECE738B5D0F8BC5290F89C42032CC4
:1037F00001D0002038BD2B7B002BFAD113460A469E
:1038000001212973812101F0BBFFF2E7C0B108B5A6
:103810000346D0F8B80210B10020C3F8B802D3F8BC
:10382000CC0210B10020C3F8CC0209B1C3F8B41225
:103830001846012380F89C32027001F0E7FE08BDB3
:103840000320704710B582B00023ADF8063059B19F
:103850000446C4F8B8128B6A0DF106009847C4F804
:10386000CC02002002B010BD0320FBE708B501F038
:1038700054FF08BD08B5D0F8B83213B11B6898479B
:1038800008BD0320FCE708B5D0F8B8320BB15B687F
:103890009847002008BD38B5044600F2AA252846FE
:1038A00000F02DF90123C4F89432B4F8B032C4F812
:1038B000983294F8AA1201F01F03012B0DD03BB1EE
:1038C000022B0FD001F08001204601F041FF03E000
:1038D0002946204600F0DFFA38BD2946204600F090
:1038E00015FBF9E72946204600F044FBF4E710B544
:1038F000044629BB1346D0F89422032A01D00020A5
:1039000029E0D0F85C11D0F8602191420DD8D0F8B0
:10391000B8321B6923B190F89C22032A00D1984742
:10392000204600F061FC002015E0891AC0F85C1107
:103930008A4228BF0A46194600F04EFC00200AE0E1
:103940000A46D0F8B8329B6933B190F89C1203292B
:1039500004D11146984710BD0320FCE70320FAE785
:1039600010B50446002946D11346D0F89422022A05
:1039700005D094F8A032012B39D0002046E0C2696E
:10398000016A8A4213D88A421DD0D4F8B832DB6863
:103990002BB194F89C22032A01D12046984780211C
:1039A000204601F0D5FE204600F029FCE1E7521A3E
:1039B000C261194600F008FC00231A461946204649
:1039C00001F0E6FED5E783699942DED8D0F8982267
:1039D0009342DAD20022114600F0F6FB0021C4F82F
:1039E00098120B460A46204601F0D2FEC1E700209D
:1039F00084F8A0020AE00A46D0F8B8325B6933B115
:103A000090F89C12032904D11146984710BD032059
:103A1000FCE70320FAE770B50446012380F89C32E6
:103A20000023C0F894324360C0F8A432D0F8BC320E
:103A300023B1D0F8B8325B680021984740230022B8
:103A40001146204601F071FE0126A4F8646140256C
:103A5000C4F860512B4600228021204601F065FE0B
:103A6000A6842562002070BD01740020704790F884
:103A70009C3280F89D32042380F89C3200207047ED
:103A800090F89C32042B01D00020704790F89D32B2
:103A900080F89C32F8E708B590F89C32032B01D0EF
:103AA000002008BDD0F8B832DB69002BF8D0984769
:103AB000F6E700207047002070470020704708B5E7
:103AC000012380F89C32D0F8B83213B15B680179D9
:103AD0009847002008BD002302E00133DBB201302B
:103AE0000278002AF9D11846704708B54B88012B97
:103AF00000D008BDC0F8A43200F076FBF9E70B78DF
:103B000003704B7843708B78CA7843EA0223438072
:103B10000B794A7943EA022383808B79CA7943EA95
:103B20000223C380704710B50446802101F010FEC7
:103B30000021204601F00CFE10BD30B583B00446D4
:103B40000D460023ADF806304A88130A013B0E2BC0
:103B500000F2BC80DFE803F0153044BABA9EABBA7D
:103B6000BABABABABABA0800D0F8B432DB6923B12B
:103B70000DF10601007C98470AE02946FFF7D3FFC4
:103B800018E0D0F8B4321B680DF10601007C9847AC
:103B9000EA88002A00F0A380BDF80630002B00F070
:103BA00099809A4228BF1A46ADF806200146204661
:103BB00000F0FDFA03B030BD037C43B9D0F8B83251
:103BC0009B6A0DF10600984702234370E0E7D0F8A6
:103BD000B832DB6A0DF10600984702234370D7E73D
:103BE000D2B2052A52D8DFE802F003101D2A37446A
:103BF000D0F8B4325B6823B10DF10601007C984720
:103C0000C6E72946FFF78FFFD4E7D0F8B4329B68A8
:103C100023B10DF10601007C9847B9E72946FFF76B
:103C200082FFC7E7D0F8B432DB6823B10DF106019B
:103C3000007C9847ACE72946FFF775FFBAE7D0F854
:103C4000B4321B6923B10DF10601007C98479FE750
:103C50002946FFF768FFADE7D0F8B4325B6923B1BE
:103C60000DF10601007C984792E72946FFF75BFFBC
:103C7000A0E7D0F8B4329B6923B10DF10601007CB6
:103C8000984785E72946FFF74EFF93E72946FFF758
:103C90004AFF8FE7037C33B9D0F8B8325B6B0DF184
:103CA0000600984774E72946FFF73DFF82E7037C4B
:103CB00043B9D0F8B8321B6B0DF1060098470723C3
:103CC000437065E72946FFF72EFF73E72946FFF7A4
:103CD0002AFF6FE729462046FFF725FF6AE72046BF
:103CE00000F082FA66E738B504468B88F3B9CB88D2
:103CF000E3B94B887F2B19D803F07F0590F89C32ED
:103D0000032B0CD080F89E52294601F031FD20464D
:103D100000F06AFA35B1022384F89C3209E0FFF71B
:103D200002FF06E0012384F89C3202E02046FFF700
:103D3000FAFE38BD70B504460D4689782E4B1970D1
:103D400001290FD890F89C32022B11D0032B25D0DB
:103D50002946FFF7E8FE284B19782046FFF793FD28
:103D6000032603E02946FFF7DEFE0326304670BD3A
:103D700081B14160FFF77EFD064620B1294620460D
:103D8000FFF7D1FEF2E7204600F02EFA032384F875
:103D90009C32EBE700F028FA0026E7E7C9B1436858
:103DA000994225D0D9B2FFF76EFD134B19786160A7
:103DB0002046FFF75FFD0646B0B129462046FFF7D3
:103DC000B2FE21792046FFF75EFD022384F89C3283
:103DD000CCE7022380F89C324160FFF754FD204677
:103DE00000F002FA0026C1E7204600F0FDF9BDE729
:103DF00000F0FAF90026B9E76403002008B5CB8883
:103E0000012B0BD190F89C329BB1022B09D9032BCB
:103E10000FD10122011D00F0CAF901E0FFF783FE76
:103E200008BD0146002341F8083F012200F0BFF918
:103E3000F6E7FFF778FEF3E708B590F89C32013B10
:103E4000022B12D8CB88022B0CD10123C360D0F8EF
:103E5000A4320BB10323C360022200F10C0100F075
:103E6000A6F908BDFFF75FFEFBE7FFF75CFEF8E78A
:103E700008B590F89C32013B022B09D84B88012BE6
:103E800000D008BD0023C0F8A43200F0ADF9F8E777
:103E9000FFF749FEF5E708B50B7803F06003202B28
:103EA00006D0402B04D043B1FFF73DFE002003E0D5
:103EB000D0F8B8329B68984708BD4B78092B21D8B9
:103EC000DFE803F0141C201820090520100DFFF76F
:103ED00034FE0020F0E7FFF706FF0020ECE7FFF7D5
:103EE00029FFE9E7FFF78AFF0020E5E7FFF7A4FFD6
:103EF0000020E1E7FFF7F9FD0020DDE7FFF7B8FF5D
:103F00000020D9E7FFF70FFE0020D5E770B5054682
:103F10000C460B7803F06003202B07D0402B05D014
:103F200023B1FFF700FE0026304670BD95F89C32A5
:103F3000013B022B18D82379012B0FD8D5F8B832C2
:103F40009B682146284698470646E388002BEBD11C
:103F50000028E9D1284600F047F9E5E72146284640
:103F6000FFF7E1FD0026DFE721462846FFF7DBFDEE
:103F70000026D9E738B505460C468A880B7803F049
:103F80006003202B08D0D1B2402B05D05BB1214675
:103F9000FFF7C9FD002005E0D5F8B8329B6821463F
:103FA0002846984738BD6378012B2FD0002B5ED070
:103FB000032B40F0D98090F89C32022B06D0032BC3
:103FC00015D02146FFF7AFFD0020EBE709B18029AE
:103FD00005D121462846FFF7A6FD0020E2E701F0C3
:103FE000B7FB8021284601F0B3FB0020DAE76388A5
:103FF00023B919B1802901D0E38823B1284600F004
:10400000F3F80020CEE701F0A3FBF7E790F89C322D
:10401000022B06D0032B15D02146FFF784FD00208C
:10402000C0E709B1802905D121462846FFF77BFD6D
:104030000020B7E701F08CFB8021284601F088FBC7
:104040000020AFE76388002B40F0938011F07F0FD2
:104050000AD1284600F0C8F8D5F8B8329B68214646
:104060002846984700209DE701F07AFBF1E790F899
:104070009C32022B06D0032B2AD02146FFF753FD9A
:1040800000208FE709B1802913D112F0800F15D1DC
:1040900001F07F0101EB81018B0003F5A871294438
:1040A000043100240C600222284600F080F82046EB
:1040B00078E72146FFF737FD002073E701F07F0125
:1040C00001EB81018B0003F1100129440431E8E781
:1040D00052B2002A1FDB01F00F0303EB83039800A9
:1040E0002844B0F864312BB3002A29DB01F07F02A9
:1040F00002EB8202930003F5A8742C44043409B146
:10410000802927D10023236002222146284600F07F
:104110004EF8002046E701F00F0303EB83039800FD
:104120002844838C002BDFD121462846FFF7FBFC77
:10413000002037E721462846FFF7F5FC002031E74D
:1041400001F07F0202EB8202930003F110042C4481
:104150000434D4E7284601F08DFA10B1012323601E
:10416000D2E700232360CFE72146FFF7DCFC0020E5
:1041700018E7002016E7C8B170B50D46164604468C
:10418000FFF7A9FC013040003080287003236B70DA
:10419000022307E0EA5401345A1CD2B20021A95488
:1041A0000233DBB22278002AF4D170BD704710B51B
:1041B00013460222C0F894228361C3610A4600219B
:1041C00001F0DEFA002010BD08B513460A460021B2
:1041D00001F0D6FA002008BD08B513460A460021B2
:1041E00001F0D6FA002008BD08B50423C0F89432C7
:1041F00000231A46194601F0C3FA002008BD08B58D
:104200000523C0F8943200231A46194601F0C0FA7B
:10421000002008BD08B530B9064B0022198858683F
:10422000FCF77AFB08BD034B012219885868FCF79C
:1042300073FBF7E76803002008B530B9064B00228E
:1042400019895868FCF768FB08BD034B01221989DE
:104250005868FCF761FBF7E76803002010B582B0EF
:1042600004460020FFF7D6FF04F01F0402A901F85E
:10427000044D0A4C642301222046FDF7EBFF642322
:1042800001220DF105012046FEF7C8F99DF8054011
:104290000120FFF7BFFF204602B010BD74030020CD
:1042A00070B582B004460D4616460020FFF7B2FFF7
:1042B00004F01F0402A901F8044D084C64230122F4
:1042C0002046FDF7C7FF6423324629462046FEF705
:1042D000A5F90120FFF79EFF02B070BD7403002016
:1042E00030B583B004460D460020FFF793FF44F03D
:1042F00020048DF804408DF805506423022201A9A2
:104300000348FDF7A7FF0120FFF784FF03B030BD8E
:104310007403002070B582B004460D461646002096
:10432000FFF778FF44F0200402A901F8044D084C7F
:10433000642301222046FDF78DFF6423324629467F
:104340002046FDF787FF0120FFF764FF02B070BD34
:104350007403002008B5FF21E120FFF7C1FF08BD6D
:1043600008B5FF21E220FFF7BBFF08BD08B5072015
:10437000FFF774FF08BD000008B50020FFF76EFFCF
:1043800040F00301C9B20020FFF7AAFF094BD3E9AF
:104390001A23134307D1FFF7DDFFFFF7E1FF0120E9
:1043A000FFF74AFF08BD052203490A20FFF7B2FFC5
:1043B000F1E700BF68030020D003002008B500200B
:1043C000FFF73AFFFFF7C6FFFFF7CAFF08BD00007F
:1043D00010B582B0CDE90023044620B9154BDDE9C4
:1043E0000001C3E91A01062C1AD8012C1AD901229E
:1043F0006946114B185DFFF78DFF0F4B23440D4AA3
:1044000092F87010187AFFF76BFF0220FFF726FF73
:1044100040B20121A1400143C9B20220FFF760FF71
:1044200002B010BD05226946034B185DFFF772FF0D
:10443000E3E700BF68030020006C000808B501F046
:104440000F0141EA0011C9B20420FFF749FF08BD7E
:1044500008B501467F2828BF7F210520FFF740FFD0
:1044600008BD0000202828BF2020024B83F87000E0
:10447000704700BF68030020014B93F8700070473D
:104480006803002070B582B006460D46FFF7F4FFC2
:104490000446A84217D80020FFF7BCFE02A96123FA
:1044A00001F8013D094D642301222846FDF7D2FEA3
:1044B0006423A2B231462846FEF7B0F80120FFF788
:1044C000A9FE02B070BD2C46E5E700BF74030020D2
:1044D00008B56020FFF7C2FE08BD10B5FFF7D2FF98
:1044E0001720FFF7BBFE00F00104FFF739FFFFF7CD
:1044F000EFFF204610BD08B51D20FFF7AFFE00F00E
:10450000FB011D20FFF7ECFE00211C20FFF7E8FE59
:1045100008BD08B520B900210120FFF7E1FE08BD64
:104520003F210120FFF7DCFEF9E710B50446062025
:10453000FFF794FE00F0F901032C09D0022C0DD0F6
:10454000012C0ED034B1042C04D141F0060101E05D
:1045500041F006010620FFF7C3FE10BD41F0040143
:10456000F8E741F00201F5E738B505460620FFF708
:1045700075FE00F0D704022D0CD0012D0DD0214680
:104580000620FFF7ADFE0620FFF768FEA04207D029
:10459000002038BD44F02004F1E744F00804EEE7C1
:1045A0000120F6E710B504460020FFF757FE00F0A3
:1045B000F3011CB1012C05D041F00C010020FFF7E4
:1045C0008FFE10BD41F00801F8E708B50020FFF7A5
:1045D00045FE00F0FD010020FFF782FE08BD70B52A
:1045E0000646FFF7C3FE00F04003002B14BF012571
:1045F00000250BD0044616B1C0F3420333704021AE
:104600000720FFF76DFE14F0200F01D1284670BD82
:1046100020210720FFF764FEF8E708B50020FFF728
:10462000DEFF08BD70B504460D46202A28BF2022B3
:1046300016460020FFF7EEFD04F00700324629463B
:1046400040F0A800FFF766FE0120FFF7E3FD70BD14
:1046500008B570210720FFF743FE08BD00B583B001
:104660000020FFF7D7FD50238DF8043073238DF819
:1046700005306423022201A90448FDF7EBFD012067
:10468000FFF7C8FD03B05DF804FB00BF7403002012
:1046900008B51D20FFF7E2FD40F00601C9B21D205C
:1046A000FFF71EFE1D20FFF7D9FD48B11C20FFF7C4
:1046B000D5FD40F00301C9B21C20FFF711FE08BD73
:1046C000FFF7CCFF1D20FFF7C9FD40F00601C9B27E
:1046D0001D20FFF705FEE9E708B51D20FFF7BEFD29
:1046E00040F00401C9B21D20FFF7FAFD1D20FFF7BD
:1046F000B5FD48B11C20FFF7B1FD40F03F01C9B244
:104700001C20FFF7EDFD08BDFFF7A8FF1D20FFF7F8
:10471000A5FD40F00401C9B21D20FFF7E1FDE9E766
:1047200070B5A0B007ACC44D0FCD0FC40FCD0FC4F2
:104730000FCD0FC42B6824F8023B1B0C237007A875
:10474000FBF7E6FE0A2382B207A9BC48FEF784F90C
:104750000020FFF783FD10F0080F00F0618210F0D9
:10476000040F00F0518207ACB54D0FCD0FC495E892
:10477000070084E8070007A8FBF7CAFEAF4C0A232E
:1047800082B207A92046FEF767F90120FFF766FD10
:10479000C0F340130393C0F300130293C0F3C003AC
:1047A0000193C0F380030093C0F3400300F00102C3
:1047B000A44907A801F0F0F907A8FBF7A9FE0A230E
:1047C00082B207A92046FEF747F90220FFF746FD0F
:1047D000C0F340130393C0F300130293C0F3C0036C
:1047E0000193C0F380030093C0F3400300F0010283
:1047F000954907A801F0D0F907A8FBF789FE0A231D
:1048000082B207A92046FEF727F90320FFF726FD0D
:1048100000F0030202328D4907A801F0BDF907A894
:10482000FBF776FE0A2382B207A92046FEF714F9A9
:104830000520FFF713FD00F07F02854907A801F06E
:10484000ABF907A8FBF764FE0A2382B207A920464A
:10485000FEF702F90620FFF701FD044610F0080FED
:1048600000F0E58107AD7B4E0FCE0FC596E8030043
:1048700045F8040B25F8021B090C297007A8FBF763
:1048800047FE0A2382B207A96C48FEF7E5F8C4F395
:104890004104002C00F0D881012C00F0DC81022CB6
:1048A00000F0E081032C00F0E78107A8FBF730FE61
:1048B000624C0A2382B207A92046FEF7CDF80522F2
:1048C00005A90A20FFF7ECFC9DF818209DF8173089
:1048D0009DF816109DF815009DF814500295019052
:1048E00000915D4907A801F057F907A8FBF710FEF2
:1048F0000A2382B207A92046FEF7AEF8052205A9D1
:104900000B20FFF7CDFC9DF818209DF817309DF87F
:1049100016109DF815009DF8145002950190009115
:104920004E4907A801F038F907A8FBF7F1FD0A2363
:1049300082B207A92046FEF78FF8012205A90C20B4
:10494000FFF7AEFC9DF81420454907A801F024F9B3
:1049500007A8FBF7DDFD0A2382B207A92046FEF770
:104960007BF8012205A90D20FFF79AFC9DF8142081
:104970003C4907A801F010F907A8FBF7C9FD0A2375
:1049800082B207A92046FEF767F8012205A90E208A
:10499000FFF786FC9DF81420334907A801F0FCF8C6
:1049A00007A8FBF7B5FD0A2382B207A92046FEF748
:1049B00053F8012205A90F20FFF772FC9DF814207F
:1049C0002A4907A801F0E8F807A8FBF7A1FD0A2388
:1049D00082B207A92046FEF73FF8052205A910205C
:1049E000FFF75EFC9DF818209DF817309DF8161013
:1049F0009DF815009DF814500295019000911C49F6
:104A000007A801F0C9F807A8FBF782FD0A2382B2C4
:104A100007A92046FEF720F81120FFF71FFC00F041
:104A20003F02144907A801F0B7F807A8FBF770FD8B
:104A30000A2382B220E000BF346C0008DC030020AF
:104A4000686C0008B46C0008F86C0008446D00083D
:104A5000606D0008746D0008F46D0008246E000895
:104A6000546E00087C6E0008A46E0008CC6E00082E
:104A7000F46E0008206F000807A92046FDF7ECFF40
:104A80001220FFF7EBFB00F03F028A4907A801F074
:104A900083F807A8FBF73CFD0A2382B207A920464A
:104AA000FDF7DAFF1320FFF7D9FB00F03F02824940
:104AB00007A801F071F807A8FBF72AFD0A2382B2C4
:104AC00007A92046FDF7C8FF1420FFF7C7FB00F039
:104AD0003F027A4907A801F05FF807A8FBF718FD25
:104AE0000A2382B207A92046FDF7B6FF1520FFF77B
:104AF000B5FB00F03F02724907A801F04DF807A886
:104B0000FBF706FD0A2382B207A92046FDF7A4FFA2
:104B10001620FFF7A3FB00F03F026A4907A801F047
:104B20003BF807A8FBF7F4FC0A2382B207A920464A
:104B3000FDF792FF1C20FFF791FBC0F34013039396
:104B4000C0F300130293C0F3C0030193C0F38003CA
:104B50000093C0F3400300F001025B4907A801F095
:104B60001BF807A8FBF7D4FC0A2382B207A920464A
:104B7000FDF772FF1D20FFF771FB064610F0040FD2
:104B800000F0818007AC514D0FCD0FC495E80300B4
:104B900044F8040B218007A8FBF7BAFC0A2382B271
:104BA00007A94B48FDF758FF16F0020F78D107AC64
:104BB000484D0FCD0FC495E8070003C424F8022B1D
:104BC000120C227007A8FBF7A3FC414E0A2382B205
:104BD00007A93046FDF740FF07AC3F4D0FCD0FC48E
:104BE0000FCD0FC40FCD0FC42B6824F8023B1B0C54
:104BF000237007A8FBF78CFC0A2382B207A9304672
:104C0000FDF72AFF20B070BD07AC344D0FCD0FC4A7
:104C100095E8070003C424F8022B120C2270AAE5C1
:104C200007AC2F4D0FCD0FC42B682360A3E507AD54
:104C30002C4E0FCE0FC596E8030045F8040B25F85F
:104C4000021B090C297019E607AC274D0FCD0FC4C4
:104C50002B68236029E607AC244D0FCD0FC42B68C9
:104C6000236022E607AC224D0FCD0FC42B6824F839
:104C7000023B1B0C237018E607AC1E4D0FCD0FC472
:104C80002B68238011E607AC1B4D0FCD0FC495E8B0
:104C9000030044F8040B24F8021B090C21707AE786
:104CA00007AC164D0FCD0FC495E8070003C4228052
:104CB00088E700BF3C6F0008586F0008746F000859
:104CC000906F0008AC6F0008C86F000814700008EF
:104CD000DC03002060700008346C0008846C00085D
:104CE000A06C00088C6D0008A46D0008B86D000869
:104CF000CC6D0008E06D00082C70000844700008BE
:104D000082B0F0B583B007460E46154608A941F8B3
:104D1000043F604C582204F10C0000F03DFE676037
:104D2000268025810120FFF775FA0020FFF784FA1D
:104D30000520FBF795FC08210020FFF7D1FA3F2161
:104D40000120FFF7CDFA03210220FFF7C9FA032162
:104D50000846FFF7C5FA03210420FFF7C1FA022134
:104D60000520FFF7BDFA0F210620FFF7B9FA0E2143
:104D70000720FFF7B5FA00210820FFF7B1FA00215C
:104D80000920FFF7ADFAE7248DF804408DF80340C1
:104D90008DF802408DF8014002AD05F8084D05225E
:104DA00029460A20FFF7B6FAC2238DF804308DF8A1
:104DB00003308DF802308DF801308DF80030052277
:104DC00029460B20FFF7A6FAC3210C20FFF788FA2B
:104DD000C4210D20FFF784FAC5210E20FFF780FAC9
:104DE000C6210F20FFF77CFA8DF804408DF80340B0
:104DF0008DF802408DF801408DF8004005222946CB
:104E00001020FFF787FA00211120FFF769FA00212F
:104E10001220FFF765FA00211320FFF761FA002145
:104E20001420FFF75DFA00211520FFF759FA002141
:104E30001620FFF755FAFFF711FC00211C20FFF7A1
:104E40004FFA00211D20FFF74BFAFFF769FC0F21F5
:104E50000846FFF7F3FA0320FFF767FB0120FFF78F
:104E600083FB0220FFF79EFBFFF745FB2020FFF7A7
:104E7000F9FAFFF7EDFB4C20FFF7EAFAFFF76AFAC1
:104E8000FFF76EFAFFF7A1FB03B0BDE8F04002B0F8
:104E9000704700BF6803002084B030B402AC84E8DF
:104EA0000F00074C02AD0FCD0FC40FCD0FC40FCDB7
:104EB0000FC495E80F0084E80F0030BC04B07047C1
:104EC000DC030020F0B58BB0002405940694079411
:104ED000089409940194294B1A6B42F004021A6356
:104EE0001A6B02F004020192019A02941A6B42F0CA
:104EF00080021A631A6B02F080020292029A0394F3
:104F00001A6B42F001021A631A6B02F0010203925B
:104F1000039A04941A6B42F002021A631B6B03F0AB
:104F200002030493049B164F224620213846FBF7C8
:104F3000F3FC144D224630212846FBF7EDFC4FF4DC
:104F400000530593104B0693079405A92846FBF7D9
:104F500005FC20230593012606960794089405A9CD
:104F60003846FBF7FBFB302305930696079408941D
:104F700005A92846FBF7F2FB0BB0F0BD0038024054
:104F800000000240000802400000211008B50C4853
:104F90000C4B03604FF48273436000238360C36053
:104FA000036143614FF4007282612022C261036297
:104FB000436283620A23C362FDF70CF908BD00BF98
:104FC00008070020003C004008B50848084B036073
:104FD0004FF4E133436000238360C36003610C221C
:104FE00042618361C361FDF708FD08BD60070020D1
:104FF00000440040F8B506460F4615461C46FFF72C
:10500000DDF90120FFF785FA2846FFF721FA9DF820
:105010001800FFF727FA32463B462046FFF7D8F93B
:10502000FFF75AFBFFF734FBFFF7A6F9FFF778FB12
:10503000F8BD0000014B1870704700BF000700204A
:10504000044B5870C0F303209870D970C1F303214A
:10505000197170470007002030B58DB00446002359
:105060008DF82F30ADF82C30ADF82A300578437824
:10507000013BDBB2022B98BF022D0CBF012500259E
:105080000DF12F02244900F0A7FD054218D1237825
:105090006578E2780F2D98BF0F2A94BF012500256F
:1050A000032B14BF002505F001050DF12A030BAAFF
:1050B0001A49204600F090FD054215D1002011E06C
:1050C0009DF82F00FFF7B6FF9DF82F30144A2021DE
:1050D00002A800F02DFD0A23202202A91148FDF7A5
:1050E000BBFC01200DB030BDBDF82A10BDF82C006E
:1050F000FFF7A6FFBDF82C30BDF82A2000920A4A1F
:10510000202102A800F014FD0A23202202A905484C
:10511000FDF7A2FC0120E5E7787100088C7100081A
:1051200080710008600700209471000870B5064681
:105130000C460020FFF7D1F90020FFF78DFF054650
:1051400078B9002301221A70224600213046FFF769
:1051500069FA0A23224600210348FDF77DFC284610
:1051600070BD00231B70EFE76007002030B5ADB0C5
:10517000342200211FA800F01AFC00241A941B946A
:105180001C941D941E945C22214603A800F00FFC81
:105190000194204B1A6C42F080521A641B6C03F08D
:1051A00080530193019B02941B4B1A6842F44042C6
:1051B0001A601B6803F440430293029B01231F9370
:1051C0004FF4A0232093022525954FF480032693C6
:1051D00004232793A8232893299507232A932B9503
:1051E0001FA8FCF74DFD0F231A931B951C944FF439
:1051F000A0531D934FF480531E9305211AA8FCF76A
:1052000069F94FF480730393189403A8FCF738FAF4
:105210002DB030BD003802400070004070B596B02F
:10522000FBF7F2F9FFF7A2FFFFF74CFEFFF7AEFE28
:10523000FFF7CAFE00F016F91A4C5422211D6846E9
:1052400000F0AAFB2368202210211748FFF758FD21
:10525000164E6C4606F110050FCD0FC40FCD0FC4CE
:1052600095E80F0084E80F0096E80F00FFF714FEA2
:105270002023009301230A224FF480700021FFF7BE
:10528000B9FEFFF7CAF9044620210120FFF74EFFBF
:10529000002CF6D00028F4D0072205490548FEF777
:1052A000A1FAEEE70807002000080240600700208E
:1052B00000070020300400207047000000B583B0D4
:1052C000002100910C4B5A6C42F480425A645A6C93
:1052D00002F480420092009A01911A6C42F08052CE
:1052E0001A641B6C03F080530193019B0720FBF7AA
:1052F000CBF903B05DF804FB00380240F0B589B08B
:1053000000230393049305930693079302681A4BB3
:105310009A4201D009B0F0BD0024019403F5FE3398
:105320001A6C42F400421A641A6C02F400420192B0
:10533000019A02941A6B42F004021A631B6B03F089
:1053400004030293029B0225039504950327069705
:1053500005230793094E03A93046FBF7FFF94FF4E5
:10536000406303930495059406970623079303A9C6
:105370003046FBF7F3F9CDE7003C0040000802405F
:1053800000B589B000230393049305930693079314
:105390000268154B9A4202D009B05DF804FB002167
:1053A000019103F5FA331A6C42F400321A641A6C54
:1053B00002F400320192019A02911A6B42F001024A
:1053C0001A631B6B03F001030293029B0C230393EC
:1053D00002230493032306930723079303A9034897
:1053E000FBF7BCF9D8E700BF0044004000000240D2
:1053F0007047FEE7FEE7FEE7FEE77047704770473D
:1054000008B5FBF71BF908BD08B50248FBF756FCC9
:1054100008BD00BFA007002008B503460B4A12686C
:1054200042B10A4A106803446A46934206D8074AC2
:10543000136008BD054A06491160F2E700F072FAF0
:105440000C2303604FF0FF30F3E700BF1C04002083
:10545000B00D0020024B4FF000629A60704700BF11
:1054600000ED00E008B500220B490C48FEF7CEF92C
:1054700048B90B490948FEF7E5F938B90748FEF77E
:10548000F5F930B908BDFFF717FFF2E7FFF714FF92
:10549000F4E7FFF711FFF5E7540100203004002086
:1054A000D800002030B589B00023039304930593FE
:1054B000069307930368B3F1A04F01D009B030BD44
:1054C00000250195164C236B43F001032363236BE6
:1054D00003F001030193019B4FF4C0530393022394
:1054E0000493032306930A23079303A90D48FBF7AC
:1054F00035F9636B43F0800363630295636C43F497
:1055000080436364636C03F480430293029B2A46E6
:1055100029464320FBF7CAF84320FBF7FBF8CDE709
:10552000003802400000024008B500F57171D0F863
:105530000404FEF7B0F908BD08B5C1EBC102930041
:105540000344D3F80822D0F80404FEF7D0F908BDCC
:1055500008B5C1EBC102930003449A6CD0F804046F
:10556000FEF7FEF908BD08B5D0F80404FEF793FA7B
:1055700008BD10B50446C3682BB1022B0DD0FFF750
:105580009BFE012100E00021D4F80404FEF76CFA30
:10559000D4F80404FEF73FFA10BD0121F4E700003F
:1055A00010B50446D0F80404FEF761FA2268D2F878
:1055B000003E43F00103C2F8003E236A23B1034AD0
:1055C000136943F00603136110BD00BF00ED00E056
:1055D00008B5D0F80404FEF753FA08BD08B5D0F8B2
:1055E0000404FEF768FA08BD08B5D0F80404FEF715
:1055F00060FA08BD08B5D0F80404FEF75EFA08BDED
:1056000008B5D0F80404FEF75AFA08BD03780BB1C8
:105610000020704710B503461548C0F80434C3F89D
:10562000C4024FF0A0430360062343600222C2601D
:10563000002303618261C36103624362C362036347
:10564000FBF7DAF980B90A4C80212046FBF72BFFE3
:10565000402200212046FBF702FF80220121204644
:10566000FBF7FDFE002010BDFFF726FEEBE700BFB5
:10567000A0070020D0F8C43211F0800F08D101F04B
:105680007F01C1EBC1018A00134493F8FE0170470A
:1056900001F07F01C1EBC1018A00134493F83E0081
:1056A0007047000010B5044611B1012916D010BD95
:1056B000036A5BB92268D2F8003E23F00103C2F806
:1056C000003ED4F80404FEF7DBF9F0E7FFF74EFDE7
:1056D0000C4A136923F006031361EBE70268D2F862
:1056E000003E43F00103C2F8003ED0F80404FEF788
:1056F000BEF9236A002BDAD0024A136943F006038D
:105700001361D4E700ED00E018B1022803D00320B4
:105710007047002070470120704708B5D0F8C402D8
:10572000FBF702FAFFF7F0FF08BD10B51C46134661
:105730002246D0F8C402FBF74AFDFFF7E5FF10BD93
:1057400008B5D0F8C402FBF783FDFFF7DDFF08BD05
:1057500008B5D0F8C402FBF70AFEFFF7D5FF08BD75
:1057600008B5D0F8C402FBF743FEFFF7CDFF08BD34
:1057700008B5D0F8C402FBF716FDFFF7C5FF08BD5A
:1057800008B5D0F8C402FBF7C8FDFFF7BDFF08BDA0
:1057900008B5D0F8C402FBF792FDFFF7B5FF08BDCE
:1057A00012230B80004870471401002004230B8053
:1057B00000487047280100200C230B8000487047E8
:1057C0002C0100200023934216D230B40BE0373472
:1057D00001F8134000015C00013400250D55013330
:1057E000DBB2934206D2040F092CF0D8303401F812
:1057F0001340EFE730BC70477047000038B50B4BE3
:10580000186804331C6804331B68C01800D138BD05
:10581000074D082205F12601FFF7D4FF042205F108
:1058200036012046FFF7CEFFF1E700BF107AFF1FD9
:105830001401002008B51A230B80FFF7DFFF014891
:1058400008BD00BF3801002008B50A4628B1054947
:105850000548FEF790FC034808BD02490248FEF7E0
:105860008AFCF8E7A80B0020A071000810B5044CD2
:105870000A4621460348FEF77EFC204610BD00BFC5
:10588000A80B0020B871000808B50A4628B10549E0
:105890000548FEF770FC034808BD02490248FEF7C0
:1058A0006AFCF8E7A80B0020CC71000808B50A468E
:1058B00028B105490548FEF75EFC034808BD0249CA
:1058C0000248FEF758FCF8E7A80B0020D871000842
:1058D000DFF834D0002103E00C4B5B584350043117
:1058E0000B480C4B42189A42F6D30B4A02E00023B5
:1058F00042F8043B094B9A42F9D3FFF7ABFD00F0A5
:1059000017F8FFF78BFC704700000220B473000803
:10591000000000204403002048030020AC0D0020BC
:10592000FEE70000014B1868704700BF74010020BB
:1059300070B50D4E0D4CA41BA4100025A54209D135
:105940000B4E0C4C01F050F9A41BA4100025A542ED
:1059500005D170BD56F8253098470135EEE756F869
:10596000253098470135F2E7AC730008AC730008A6
:10597000AC730008B0730008024B0146186800F0D1
:105980006DB800BF74010020024B0146186800F09A
:1059900017B800BF7401002010B5431E0A4491429D
:1059A00000D110BD11F8014B03F8014FF7E7024495
:1059B0000346934200D1704703F8011BF9E700004A
:1059C00038B50546002945D051F8043C0C1F002B82
:1059D000B8BFE41800F02CF91F4A1368104633B919
:1059E000636014602846BDE8384000F022B9A34245
:1059F0000CD921686218934204BF1A685B6863601F
:105A000004BF521822600460ECE713465A680AB1DA
:105A1000A242FAD919685818A0420BD12068014453
:105A2000581882421960DDD1106852685A600144EA
:105A30001960D7E702D90C232B60D3E7206821181F
:105A40008A4204BF11685268626004BF091821606D
:105A50005C60C7E738BD00BF2404002070B5CD1CD2
:105A600025F0030508350C2D38BF0C25002D064602
:105A700001DBA94203D90C233360002070BD00F084
:105A8000D7F8214A1468214691B9204C23681BB9E4
:105A9000304600F03DF820602946304600F038F8E6
:105AA000431C24D10C233360304600F0C2F8E4E7F5
:105AB0000B685B1B18D40B2B0FD90B60CD50CC1887
:105AC000304600F0B6F804F10B00231D20F007006B
:105AD000C31AD3D05A42E250D0E78C424B6816BF6B
