:020000040800F2
:1000000000000220316600084160000843600008DB
:1000100045600008476000084960000800000000D3
:100020000000000000000000000000004B6000081D
:100030004D600008000000004F600008516000089B
:1000400081660008816600088166000881660008F4
:1000500081660008816600088166000881660008E4
:1000600081660008816600088166000881660008D4
:1000700081660008816600088166000881660008C4
:1000800081660008816600088166000881660008B4
:1000900081660008816600088166000881660008A4
:1000A0008166000881660008816600088166000894
:1000B0008166000881660008816600088166000884
:1000C0008166000881660008816600088166000874
:1000D0008166000881660008816600088166000864
:1000E0008166000881660008816600088166000854
:1000F0008166000881660008816600088166000844
:100100008166000881660008816600088166000833
:100110008166000881660008816600088166000823
:100120008166000881660008816600088166000813
:1001300081660008000000000000000081660008E1
:100140008166000881660008816600085D6000081D
:1001500081660008816600088166000881660008E3
:1001600081660008816600088166000881660008D3
:1001700081660008816600088166000800000000B2
:100180000000000081660008000000000000000080
:100190008166000800000000000000008166000881
:1001A0000000000000000000000000008166000860
:1001B0008166000881660008816600088166000883
:0401C000816600084C
:1001D00010B5054C237833B9044B13B10448AFF381
:1001E00000800123237010BDD80100200000000012
:1001F0008882000808B5034B1BB103490348AFF3DD
:10020000008008BD00000000DC010020888200089A
:10021000002902D0B0FBF1F0704708B14FF0FF3079
:1002200000F008B80029F8D00246B0FBF1F000FB5E
:1002300011217047704700BF81F0004102E000BF0C
:1002400083F0004330B54FEA41044FEA430594EA96
:10025000050F08BF90EA020F1FBF54EA000C55EAD1
:10026000020C7FEA645C7FEA655C00F0E2804FEAA2
:100270005454D4EB5555B8BF6D420CDD2C4480EA84
:10028000020281EA030382EA000083EA010180EAB4
:10029000020281EA0303362D88BF30BD11F0004F02
:1002A0004FEA01314FF4801C4CEA113102D0404238
:1002B00061EB410113F0004F4FEA03334CEA133373
:1002C00002D0524263EB430394EA050F00F0A7808B
:1002D000A4F10104D5F1200E0DDB02FA0EFC22FA86
:1002E00005F2801841F1000103FA0EF2801843FA7A
:1002F00005F359410EE0A5F120050EF1200E012A6B
:1003000003FA0EFC28BF4CF0020C43FA05F3C018A8
:1003100051EBE37101F0004507D54FF0000EDCF121
:10032000000C7EEB00006EEB0101B1F5801F1BD3CA
:10033000B1F5001F0CD349085FEA30004FEA3C0CCE
:1003400004F101044FEA445212F5800F80F09A80C4
:10035000BCF1004F08BF5FEA500C50F1000041EBC8
:10036000045141EA050130BD5FEA4C0C404141EBCC
:10037000010111F4801FA4F10104E9D191F0000FF3
:1003800004BF01460020B1FA81F308BF2033A3F176
:100390000B03B3F120020CDA0C3208DD02F1140C6D
:1003A000C2F10C0201FA0CF021FA02F10CE002F1A8
:1003B0001402D8BFC2F1200C01FA02F120FA0CFCA1
:1003C000DCBF41EA0C019040E41AA2BF01EB0451EA
:1003D000294330BD6FEA04041F3C1CDA0C340EDCE8
:1003E00004F11404C4F1200220FA04F001FA02F32B
:1003F00040EA030021FA04F345EA030130BDC4F1E9
:100400000C04C4F1200220FA02F001FA04F340EADD
:100410000300294630BD21FA04F0294630BD94F08E
:10042000000F83F4801306BF81F480110134013D75
:100430004EE77FEA645C18BF7FEA655C29D094EAE6
:10044000050F08BF90EA020F05D054EA000C04BF64
:100450001946104630BD91EA030F1EBF002100204F
:1004600030BD5FEA545C05D14000494128BF41F0EE
:10047000004130BD14F580043CBF01F5801130BD52
:1004800001F0004545F0FE4141F470014FF00000DD
:1004900030BD7FEA645C1ABF194610467FEA655C8E
:1004A0001CBF0B46024650EA013406BF52EA033530
:1004B00091EA030F41F4002130BD00BF90F0000F1E
:1004C00004BF0021704730B54FF4806404F132045A
:1004D0004FF000054FF0000150E700BF90F0000F13
:1004E00004BF0021704730B54FF4806404F132043A
:1004F00010F0004548BF40424FF000013EE700BF0A
:1005000042004FEAE2014FEA31014FEA02701FBF99
:1005100012F07F4393F07F4F81F06051704732F0CB
:100520007F4208BF704793F07F4F04BF41F4002122
:10053000704730B54FF4607401F0004521F0004180
:100540001CE700BF50EA010208BF704730B54FF00A
:1005500000050AE050EA010208BF704730B511F00B
:10056000004502D5404261EB41014FF4806404F143
:1005700032045FEA915C3FF4D8AE4FF003025FEAC9
:10058000DC0C18BF03325FEADC0C18BF033202EB4D
:10059000DC02C2F1200300FA03FC20FA02F001FAA7
:1005A00003FE40EA0E0021FA02F11444BDE600BF4A
:1005B00070B54FF0FF0C4CF4E06C1CEA11541DBFF9
:1005C0001CEA135594EA0C0F95EA0C0F00F0DEF8C4
:1005D0002C4481EA030621EA4C5123EA4C5350EAA9
:1005E000013518BF52EA033541F4801143F48013FA
:1005F00038D0A0FB02CE4FF00005E1FB02E506F08B
:100600000042E0FB03E54FF00006E1FB03569CF0DF
:10061000000F18BF4EF0010EA4F1FF04B6F5007FE5
:1006200064F5407404D25FEA4E0E6D4146EB060657
:1006300042EAC62141EA55514FEAC52040EA5E50E0
:100640004FEACE2EB4F1FD0C88BFBCF5E06F1ED88A
:10065000BEF1004F08BF5FEA500E50F1000041EBC1
:10066000045170BD06F0004646EA010140EA02006E
:1006700081EA0301B4EB5C04C2BFD4EB0C0541EA90
:10068000045170BD41F480114FF0000E013C00F3A5
:10069000AB8014F1360FDEBF002001F0004170BDC9
:1006A000C4F10004203C35DA0C341BDC04F11404E2
:1006B000C4F1200500FA05F320FA04F001FA05F26E
:1006C00040EA020001F0004221F0004110EBD3703B
:1006D00021FA04F642EB06015EEA430E08BF20EA67
:1006E000D37070BDC4F10C04C4F1200500FA04F30A
:1006F00020FA05F001FA04F240EA020001F000419C
:1007000010EBD37041F100015EEA430E08BF20EA0E
:10071000D37070BDC4F1200500FA05F24EEA020E56
:1007200020FA04F301FA05F243EA020321FA04F085
:1007300001F0004121FA04F220EA020000EBD3703C
:100740005EEA430E08BF20EAD37070BD94F0000F3C
:100750000FD101F00046400041EB010111F4801F70
:1007600008BF013CF7D041EA060195F0000F18BF21
:10077000704703F00046520043EB030313F4801F5D
:1007800008BF013DF7D043EA0603704794EA0C0F17
:100790000CEA135518BF95EA0C0F0CD050EA41062D
:1007A00018BF52EA4306D1D181EA030101F00041AA
:1007B0004FF0000070BD50EA410606BF10461946D2
:1007C00052EA430619D094EA0C0F02D150EA0136DE
:1007D00013D195EA0C0F05D152EA03361CBF10461F
:1007E00019460AD181EA030101F0004141F0FE41BE
:1007F00041F470014FF0000070BD41F0FE4141F442
:10080000780170BD70B54FF0FF0C4CF4E06C1CEA41
:1008100011541DBF1CEA135594EA0C0F95EA0C0FF6
:1008200000F0A7F8A4EB050481EA030E52EA0335B1
:100830004FEA013100F088804FEA03334FF08055D2
:1008400045EA131343EA12634FEA022245EA1115FF
:1008500045EA10654FEA00260EF000419D4208BFB0
:10086000964244F1FD0404F5407402D25B084FEA5D
:100870003202B61A65EB03055B084FEA32024FF409
:1008800080104FF4002CB6EB020E75EB030E22BF66
:10089000B61A754640EA0C005B084FEA3202B6EB26
:1008A000020E75EB030E22BFB61A754640EA5C00D5
:1008B0005B084FEA3202B6EB020E75EB030E22BF65
:1008C000B61A754640EA9C005B084FEA3202B6EB66
:1008D000020E75EB030E22BFB61A754640EADC0025
:1008E00055EA060E18D04FEA051545EA16754FEA87
:1008F00006164FEAC30343EA52734FEAC2025FEAA5
:100900001C1CC0D111F4801F0BD141EA00014FF033
:1009100000004FF0004CB6E711F4801F04BF014304
:100920000020B4F1FD0C88BFBCF5E06F3FF6AFAE20
:10093000B5EB030C04BFB6EB020C5FEA500C50F1B0
:10094000000041EB045170BD0EF0004E4EEA113133
:1009500014EB5C04C2BFD4EB0C0541EA045170BD3A
:1009600041F480114FF0000E013C90E645EA060E7E
:100970008DE60CEA135594EA0C0F08BF95EA0C0FAC
:100980003FF43BAF94EA0C0F0AD150EA01347FF4F4
:1009900034AF95EA0C0F7FF425AF104619462CE7CB
:1009A00095EA0C0F06D152EA03353FF4FDAE10462E
:1009B000194622E750EA410618BF52EA43067FF47F
:1009C000C5AE50EA41047FF40DAF52EA43057FF40F
:1009D000EBAE12E74FF0FF3C06E000BF4FF0010C1A
:1009E00002E000BF4FF0010C4DF804CD4FEA410C7E
:1009F0007FEA6C5C4FEA430C18BF7FEA6C5C1BD04B
:100A000001B050EA410C0CBF52EA430C91EA030FCB
:100A100002BF90EA020F0020704710F1000F91EA28
:100A2000030F58BF994208BF90422CBFD8176FEAF6
:100A3000E37040F0010070474FEA410C7FEA6C5CC4
:100A400002D150EA013C07D14FEA430C7FEA6C5CCB
:100A5000D6D152EA033CD3D05DF8040B704700BFF7
:100A60008446104662468C461946634600E000BF45
:100A700001B5FFF7B7FF002848BF10F1000F01BD17
:100A80004DF808EDFFF7F4FF0CBF012000205DF8E2
:100A900008FB00BF4DF808EDFFF7EAFF34BF012067
:100AA00000205DF808FB00BF4DF808EDFFF7E0FF00
:100AB00094BF012000205DF808FB00BF4DF808ED51
:100AC000FFF7CEFF94BF012000205DF808FB00BFB8
:100AD0004DF808EDFFF7C4FF34BF012000205DF89A
:100AE00008FB00BF4FEA410212F5001215D211D5E2
:100AF0006FF47873B3EB625212D94FEAC12343F01B
:100B0000004343EA505311F0004F23FA02F018BF9C
:100B1000404270474FF00000704750EA013005D165
:100B200011F0004008BF6FF0004070474FF0000028
:100B3000704700BF4A0011D212F5001211D20DD534
:100B40006FF47873B3EB62520ED44FEAC12343F0D3
:100B5000004343EA505323FA02F070474FF000007D
:100B6000704750EA013002D14FF0FF3070474FF02C
:100B70000000704753B94AB9002908BF00281CBFBC
:100B80004FF0FF314FF0FF30FFF754BBADF1080CD1
:100B90006DE904CE00F006F8DDF804E0DDE902239B
:100BA00004B070472DE9F047089E04468846002BA4
:100BB0004BD18A42154667D9B2FA82F24AB1C2F1E4
:100BC000200701FA02F320FA07F7954047EA0308E5
:100BD00094404FEA154E230CB8FBFEF71FFA85FC34
:100BE0000EFB178843EA084307FB0CF1994209D929
:100BF000EB1807F1FF3080F01B81994240F2188119
:100C0000023F2B445B1AA4B2B3FBFEF00EFB103381
:100C100044EA034400FB0CFCA44509D92C1900F15B
:100C2000FF3380F00781A44540F2048102382C4450
:100C300040EA0740A4EB0C0400271EB1D440002377
:100C4000C6E900433946BDE8F0878B4209D9002E3A
:100C500000F0EB800027C6E9000138463946BDE8C0
:100C6000F087B3FA83F7002F47D18B4202D3824239
:100C700000F2FA80841A61EB030301209846002EEB
:100C8000E0D0C6E90048DDE702B9FFDEB2FA82F241
:100C9000002A40F08F80491B4FEA154E1FFA85F855
:100CA0000127B1FBFEFC230C0EFB1C1143EA0143A0
:100CB00008FB0CF1994207D9EB180CF1FF3002D276
:100CC000994200F2CD808446591AA3B2B1FBFEF0DE
:100CD0000EFB101443EA044408FB00F8A04507D9B2
:100CE0002C1900F1FF3302D2A04500F2B68018465D
:100CF000A4EB080440EA0C409FE7C7F1200CBB407E
:100D000022FA0CFE4EEA030E01FA07F420FA0CF563
:100D100021FA0CF34FEA1E482543B3FBF8F92C0CDB
:100D200008FB19331FFA8EFA44EA034309FB0AF45D
:100D30009C4202FA07F200FA07F10BD91EEB0303FB
:100D400009F1FF3080F087809C4240F28480A9F155
:100D5000020973441B1BADB2B3FBF8F008FB103360
:100D600045EA034400FB0AFAA24508D91EEB040435
:100D700000F1FF336BD2A24569D90238744440EACE
:100D80000940A0FB0289A4EB0A044C45C2464B462D
:100D900054D351D0002E69D0B1EB0A0564EB0304A3
:100DA00004FA0CFCFD40FC404CEA0505C6E9005481
:100DB000002747E7C2F1200320FA03F7954001FA24
:100DC00002F021FA03F34FEA154E3843010CB3FB4E
:100DD000FEF71FFA85F80EFB173341EA034107FBC4
:100DE00008F38B4204FA02F407D9691807F1FF3CB3
:100DF0002FD28B422DD9023F2944CB1A81B2B3FBAB
:100E0000FEF00EFB103341EA034100FB08F38B4276
:100E100007D9691800F1FF3C17D28B4215D9023867
:100E20002944C91A40EA07473BE73746304609E7F5
:100E30000746E7E61846FBE64145ABD2B8EB020AA7
:100E400069EB0E0201381346A4E76046E9E718464D
:100E500095E76746D1E781467CE702382C4447E7AF
:100E6000ACF1020C2B442FE7384608E73746E9E699
:100E7000034613F8012B002AFBD1181A01387047DA
:100E800001F0FF01102A2BDB10F0070F08D010F83B
:100E9000013B013A8B422DD010F0070F42B3F6D13F
:100EA000F0B441EA012141EA014122F007047FF058
:100EB00000070023F0E80256083C85EA010586EAAF
:100EC000010685FA47F5A3FA87F586FA47F6A5FAEB
:100ED00087F68EB9EED1F0BC01F0FF0102F00702F7
:100EE00032B110F8013B013A83EA010313B1F8D1A2
:100EF0000020704701387047002D06BF3546033883
:100F0000073815F0010F07D1013015F4807F02BFBB
:100F1000013015F4C03F0130F0BC0138704700BF0C
:100F200010B50400104B1978FA208000FFF770F913
:100F300001000E4B1868FFF76BF900F0B3F80028BA
:100F40000DD10F2C01D901200AE00130002221002F
:100F5000404200F065F8044B5C60002000E0012096
:100F600010BC02BC0847C046000000201001002051
:100F700010B50E4B1968802292000A431A60196856
:100F80008022D2000A431A601968802252000A4364
:100F90001A60032000F032F80020FFF7C1FF04F0D0
:100FA000B1FF002010BC02BC0847C046003C024014
:100FB000034A1168034B1B785B1813607047C046E7
:100FC000BC02002000000020014B18687047C0469A
:100FD000BC02002070B50400FFF7F6FF0500631C9B
:100FE00002D0054B1B78E418FFF7EEFF401BA04230
:100FF000FAD370BC01BC004700000020074AD36848
:1010000023F4E0631B041B0C000200F4E0601843AF
:1010100040F0BF6040F40030D060704700ED00E069
:1010200030B4174BDB68C3F30223C3F10704042C6D
:1010300028BF04241D1D062D18D9033B4FF0FF3592
:1010400005FA04F421EA0401994005FA03F322EABF
:101050000303194300280BDB0901C9B200F160400A
:1010600000F5614080F8001330BC70470023E5E7CD
:1010700000F00F000901C9B2024B1954F4E700BF98
:1010800000ED00E014ED00E0002807DB00F01F0297
:10109000400901239340024A42F82030704700BFC4
:1010A00000E100E00138B0F1807F0AD2064B5860C1
:1010B000064AF02182F823100020986007221A6067
:1010C00070470120704700BF10E000E000ED00E035
:1010D00000230F2B00F2D180F0B583B039E0062257
:1010E00000E00022AA403A430234644D45F824202F
:1010F000634A1468F24302EA04054F6817F4803F1C
:1011000001D046EA04055E4C2560646802EA0405E5
:101110004F6817F4003F01D046EA0405584C65605B
:10112000A46802EA04054F6817F4801F01D046EA5C
:101130000405534CA560E46822404D6815F4001F77
:1011400001D046EA04024E4CE26001330F2B00F25C
:10115000928001229A400C6804EA0206B242F4D15D
:101160004C68651E012D03D9112C01D0122C12D10F
:1011700085685F000324BC4025EA0405CC68BC40B8
:101180002C438460456825EA02054C68C4F30012CC
:101190009A402A434260C4685F000322BA40D243A7
:1011A00014408D68BD402543C5604C68022C01D0B9
:1011B000122C13D1DD08083550F825E003F00704A0
:1011C0004FEA840C0F2404FA0CF42EEA040E0C6986
:1011D00004FA0CF444EA0E0440F825400468224066
:1011E0004C6804F00304BC40224302604A6812F0D9
:1011F000805FAAD000220192224A546C44F48044B9
:101200005464526C02F480420192019A9C08A51C1D
:101210001A4A52F8257003F0030295000F22AA40E3
:1012200027EA0207184A90423FF45BAF02F580625A
:10123000904216D002F58062904214D002F580628E
:10124000904212D002F58062904210D002F5806286
:1012500090420ED002F5806290423FF440AF0722E8
:1012600040E701223EE702223CE703223AE704225C
:1012700038E7052236E703B0F0BD7047003801407B
:10128000003C01400038024000000240036919425E
:1012900001D1002070470120704712B90904816113
:1012A0007047816170472DE9F04782B00768CA0036
:1012B000521A930003445A6D1B6D9A4257D8B84690
:1012C0009B1AC1EBC104A2000244526C9A4200D3A3
:1012D0001A460C46064602F1030A4FEA9A0A16E03D
:1012E00009F1030A4FEA9A0AE3001B1B9D003544EB
:1012F000A96C337C00931FFA89F3E2B2384602F0FE
:1013000025FCAB6C4B44AB646B6D4B446B6508EBDD
:10131000441303F510639B699BB2534513D3E30059
:101320001B1B9A003244516D136D99420BD253B17D
:101330005B1AC4EBC4018A003244D2F84490994548
:10134000CED39946CCE7E3001B1B98000644326DD0
:10135000736D9A420FD804F00F040121A140D7F811
:10136000344824EA0104C7F83448002000E0012092
:1013700002B0BDE8F0870020FAE7F0B58BB0002896
:1013800000F091800446056890F8BD3323B3032331
:1013900084F8BD33EB6B13F4807F01D1002323610C
:1013A000206802F06BF9254655F8107B6E460FCD8C
:1013B0000FC60FCD0FC695E8030086E80300231D76
:1013C0000ECB384602F098F858B1022384F8BD33AA
:1013D000012528460BB0F0BD80F8BC3304F094FE24
:1013E000D5E70021206802F04FF9002315E0D9006D
:1013F000C81A82002244012082F83D0082F83C3065
:10140000A2F84230002082F83F0050649064CA1A6B
:101410009100214408650133DBB26568AB42E6D335
:10142000002315E0D800C11A8A002244002182F866
:10143000FD1182F8FC3182F8FF11C2F80412C2F8E3
:101440000812C21A90002044C0F810120133DBB217
:101450009D42E7D8254655F8107B6E460FCD0FC646
:101460000FCD0FC695E8030086E80300231D0ECBC1
:10147000384602F04FF9054660B9002384F8383049
:10148000012384F8BD33636A012B08D0206802F081
:101490000BFD9EE7022384F8BD33012599E7204622
:1014A00000F0C5FCF2E7012593E7026890F8BC3331
:1014B000012B19D010B5012380F8BC33836A012BAE
:1014C0000AD00446006802F0D3F8206802F0DEFC7F
:1014D000002084F8BC0310BD8369012BF1D0936B0D
:1014E00043F480339363ECE70220704770B5044601
:1014F0000D460068066C00EB411303F530639A68F3
:101500002169012911D037498E4254D03DB9C5EB2C
:10151000C50293002344D3F81032002B5CD0E9B20B
:10152000204604F043FE002070BD12F0080F09D0E1
:101530002D498E42F7D912F4004FF4D04FF40042F7
:101540009A60F0E712F0200F28D112F0280FEAD1AC
:1015500025498E4202D912F4004F22D1E900491BDD
:101560008A002244D2F804121B69C3F31203C91A79
:10157000C2F81412D2F80412D2F808320B44C2F89E
:10158000083235B9C5EBC50293002344D3F81032B5
:101590005BB1E9B2204604F009FEC4E720229A605C
:1015A000C1E74FF400429A60BDE704F57172012172
:1015B00002F0CCFCEDE712F4004F09D112F0200F3D
:1015C00001D020229A60E9B2204604F0EFFDAAE79C
:1015D0004FF400429A60A6E704F57172002102F010
:1015E000B5FC9CE70A31544F0A30544F38B50446D5
:1015F00003681D6C03EB4111D1F8082B0E4B9D4283
:1016000007D901F5306112F4004F02D04FF40043C6
:101610008B60204604F0BCFD074B9D4202D9236934
:10162000012B01D0002038BD04F571720121206822
:1016300002F08CFCF6E700BF0A30544F2DE9F84F5A
:1016400004460568284602F06DFC08B1BDE8F88F35
:101650002F460646206802F035FC0028F6D02068A8
:1016600002F030FC10F0020F04D02268536903F03E
:1016700002035361206802F025FC10F0100F15D012
:101680002268936923F010039361D5F8208008F055
:101690000F09C8F34343022B00F08580062B00F0AE
:1016A000A5802268936943F010039361206802F0DB
:1016B00009FC10F4002F40F0AD80206802F002FC1D
:1016C00010F4802F40F0F180206802F0FBFB00282E
:1016D000C0F25F81206802F0F5FB10F4006F0AD0C1
:1016E000D5F8083813F0010F40F06D812268536976
:1016F00003F400635361206802F0E4FB10F0006F14
:1017000015D02268536903F00063536194F8F433F1
:10171000002B40F05C81012184F8F41323685B6D99
:10172000C3F38303C4F8F833204604F029FE20688D
:1017300002F0C8FB10F4805F40F04D81206802F099
:10174000C1FB10F4005F40F0AC81206802F0BAFBEE
:1017500010F0080F40F0BD81206802F0B3FB10F4D8
:10176000801F40F0BF81206802F0ACFB10F4001F26
:1017700040F0C281206802F0A5FB10F0804F40F0DD
:10178000C581206802F09EFB10F0040F3FF45EAFAD
:1017900023685D6815F0040F40F0C181226853682A
:1017A0002B43536052E747F6F07318EA030F3FF4F8
:1017B00078AF4FEAC90BABEB09034FEA830AA244A7
:1017C0004FEA1818C8F30A02DAF80812284602F09D
:1017D000DFFAC8F30A08DAF808324344CAF80832D4
:1017E000DAF814324344CAF814325AE7082204F5EE
:1017F0007171284602F0CCFAC8F30A184FEAC903FF
:10180000A3EB09018A002244D2F814324344C2F8FF
:10181000143246E7206802F059FB8046B14617E0D3
:1018200007EB49130122C3F8082B49462046FFF76E
:101830005DFE1DE007EB49130822C3F8082B49465B
:101840002046FFF7D3FE16E009F101094FEA5808D8
:10185000B8F1000F3FF431AF18F0010FF4D05FFA88
:1018600089F1206802F042FB824610F0010FD7D1C7
:101870001AF0080FDED11AF0100F04D007EB49134D
:101880001022C3F8082B1AF0200F04D007EB4913DD
:101890002022C3F8082B1AF4005FD5D007EB4913B8
:1018A0004FF40052C3F8082BCEE7206802F016FB75
:1018B0008046B1462AE05946204604F08BFC1AF0D7
:1018C000080F04D007EB49130822C3F808291AF0BF
:1018D000100F04D007EB49131022C3F808291AF09F
:1018E000400F04D007EB49134022C3F808291AF02F
:1018F000020F04D007EB49130222C3F808291AF09B
:10190000800F41D109F101094FEA5808B8F1000FE1
:101910003FF4DAAE18F0010FF4D05FFA89FB5946B4
:10192000206802F0ECFA824610F0010FC7D009F0EF
:101930000F03012101FA03F2D7F8343823EA020336
:10194000C7F8343807EB4913C3F8081923698B42E9
:10195000B1D14FEAC902A2EB090293002344596CAA
:101960009A6C0A449A64B9F1000FA4D1C9EBC90278
:10197000930023441B6D002B9DD104F5717201214E
:10198000206802F0E3FA96E749462046FFF78BFC11
:10199000B8E7D5F8043823F00103C5F8043894F803
:1019A000F433012B08D0204604F066FC226853690A
:1019B00003F0004353618DE6002184F8F4132046C0
:1019C00004F0DEFCF2E7204604F038FC8EE6204608
:1019D00004F034FCABE605F50068D8F8043023F0D9
:1019E0000103C8F804301021206801F065FE20E0F2
:1019F00007EB46134FF67F31C3F80819D3F80029D7
:101A000022F40012C3F80029D3F8002942F0006242
:101A1000C3F80029C3F8081BD3F8002B22F40012E6
:101A2000C3F8002BD3F8002B42F00062C3F8002B60
:101A300001366368B342DBD8D8F81C3043F0011399
:101A4000C8F81C30236BEBB1D8F8843043F00B039B
:101A5000C8F88430D8F8443043F00B03C8F8443059
:101A6000D5F8003823F4FE63C5F8003804F5717228
:101A7000217C206802F06AFA2268536903F48053DB
:101A800053615BE6D8F8143043F4005343F02B0362
:101A9000C8F81430D8F8103043F00B03C8F81030F1
:101AA000DEE7206802F042FA206801F0F7FEE0600D
:101AB000256800F07FFA227B0146284601F062FD8E
:101AC000204604F0A1FB2268536903F400535361DC
:101AD0003BE6204604F08EFB2268536903F00803BE
:101AE000536139E60021204604F0DAFB226853698D
:101AF00003F48013536136E60021204604F0C6FB50
:101B00002268536903F40013536133E6204604F05E
:101B1000D1FB2268536903F08043536131E62046CC
:101B200004F0D2FB3AE690F8BC33012B0DD010B58F
:101B30000446012380F8BC3380F83810006802F0B6
:101B400095F9002084F8BC0310BD02207047F8B559
:101B500011F0800F28D101F00F06F500AF1BBC007B
:101B6000274604F5FC74044404343E46064400252C
:101B700086F8FD5101F00F012170A260E3706278D8
:101B800002B1E180022B1ED090F8BC33012B1DD096
:101B90000546012380F8BC332146006801F08FFE22
:101BA000002085F8BC03F8BD01F00F06F500AF1B5F
:101BB000BC0027463834044404343E46064401251C
:101BC00086F83D50D6E700232371DDE70220EAE7DF
:101BD00038B511F0800F21D101F00F05EA00541B38
:101BE000A3001C4603F5FC73034404332546054457
:101BF000002285F8FD2101F00F01197090F8BC2337
:101C0000012A1AD00446012280F8BC231946006834
:101C100001F0A0FE002084F8BC0338BD01F00F04E1
:101C2000E200151BAB001D463833034404332C4639
:101C30000444012284F83D20DDE70220EDE770B581
:101C400001F00F05EE00711B8C0004F5FC740444D8
:101C5000211D761BB4000444C4F80822C4F81032D5
:101C60000023C4F8143284F8FD3184F8FC51036970
:101C7000012B06D065B1DAB2006801F07BFF0020CD
:101C800070BDC5EBC506B4000444C4F80C22F1E7EE
:101C9000DAB2006801F0CCFEF1E770B501F00F0593
:101CA000EE00711B8C0038340444211D761BB400F7
:101CB0000444A264236500236365012384F83D3056
:101CC00084F83C500369012B06D05DB1DAB200689C
:101CD00001F050FF002070BDC5EBC506B400044400
:101CE000E264F2E7DAB2006801F0A2FEF2E738B58A
:101CF00001F00F0543689D4236D811F0800F20D1C6
:101D0000CA00541AA3001C4603F5FC7303440433B1
:101D100022460244002182F8FD1101229A701D70B2
:101D200090F8BC23012A21D00446012280F8BC236C
:101D30001946006802F03FF87DB1002084F8BC032A
:101D400013E0EA00511B8B00194638330344043377
:101D50000144012281F83D20DFE704F57172217C06
:101D6000206802F0F3F8E8E7012038BD0220FCE724
:101D700010B501F00F0443689C422CD811F0800F7D
:101D80001DD1E3001A1B91000A4601F5FC710144C4
:101D900004310244002382F8FD3100238B700C7063
:101DA00090F8BC33012B18D00446012380F8BC33D3
:101DB000006802F02DF8002084F8BC030CE0E3007A
:101DC0001A1B91000A4638310144043102440123B0
:101DD00082F83D30E1E7012010BD0220FCE730B47D
:101DE0000468606A29B10D46A36A00EB1340002322
:101DF0000CE040EA0240A06212E003F1400104EB73
:101E00008101496800EB11400133DBB2691E8B424E
:101E1000F3D340EA024005F13F0104EB8101486041
:101E2000002030BC704703685962002070470346A9
:101E300002680121C0F8FC13002083F8F4039369C1
:101E400043F000639361536D43F0805343F0030309
:101E500053657047002800F09E8070B50446504BD3
:101E60001B6803F00F038B4209D2CBB24C4A1370AC
:101E7000136803F00F038B4201D0012070BD23686B
:101E800013F0020F17D013F0040F04D0454A9368E3
:101E900043F4E0539360236813F0080F04D0414AE1
:101EA000936843F4604393603E4A936823F0F003E1
:101EB000A068034393600D46236813F0010F32D0EE
:101EC0006368012B21D09A1E012A25D9354A126850
:101ED00012F0020F61D033498A6822F003021343E3
:101EE0008B60FFF771F806462E4B9B6803F00C03DE
:101EF0006268B3EB820F16D0FFF766F8801B41F2E1
:101F000088339842F0D90320B8E7264A126812F4C1
:101F1000003FE0D10120B1E7224A126812F0007FB1
:101F2000D9D10120AAE71E4B1B6803F00F03AB4277
:101F300009D9EAB21A4B1A701B6803F00F03AB42BF
:101F400001D001209AE7236813F0040F06D0154A48
:101F5000936823F4E053E1680B439360236813F024
:101F6000080F07D00F4A936823F46043216943EABE
:101F7000C103936000F082FA0A4B9B68C3F303131A
:101F8000094AD35CD840094B1860094B1868FEF722
:101F9000C7FF002072E70120704701206EE700BFF5
:101FA000003C02400038024070830008100100200D
:101FB00004000020014B1868704700BF100100208A
:101FC00008B5FFF7F7FF044B9B68C3F38223034A6E
:101FD000D35CD84008BD00BF0038024080830008B1
:101FE00008B5FFF7E7FF044B9B68C3F34233034A8E
:101FF000D35CD84008BD00BF003802408083000891
:10200000F0B583B00446036813F0010F0CD0964A74
:10201000D2F88C3023F0C063816B0B43C2F88C3054
:10202000836B3BB3002600E00026236813F0020F09
:102030000BD08D4AD2F88C3023F0C053E16B0B43A8
:10204000C2F88C30E36B03B90126236813F0040F48
:1020500014D0854AD2F88C3023F44013216B0B4303
:10206000C2F88C30236BB3F5801F05D0002B7BD0DA
:10207000002504E00126D8E70126F7E700252368BC
:1020800013F0080F0ED0784AD2F88C3023F44003B6
:10209000616B0B43C2F88C30636BB3F5800F65D076
:1020A00003B90125236813F0200F61D1236813F0D1
:1020B000100F03D094F858206C4B1A60236813F06B
:1020C000800F08D0684AD2F8943023F44003E16CC2
:1020D0000B43C2F89430236813F0400F08D0624AD3
:1020E000D2F8943023F08063A16C0B43C2F8943093
:1020F000236813F4807F0DD05B4AD2F8943023F02C
:102100000063616D0B43C2F89430636DB3F1006FEF
:1021100000F09580236813F4007F08D0524AD2F86B
:10212000943023F08053616C0B43C2F894302368E1
:1021300013F4806F0CD04C4AD2F8943023F0005343
:10214000216D0B43C2F89430236DB3F1005F78D05A
:10215000002E76D12368B3F5006F72D0002D40F0C9
:102160002281002003B0F0BD012588E7012697E712
:10217000002301933C4B1A6C42F080521A641B6C92
:1021800003F080530193019B394A136843F4807331
:102190001360FEF719FF0746354B1B6813F4807F69
:1021A00006D1FEF711FFC01B0228F5D90320D9E79D
:1021B0002D4B1B6F13F4407312D0226C02F440724B
:1021C0009A420DD0284B1A6F22F4407229490120FF
:1021D0000860002008601A671B6F13F0010F12D10E
:1021E000236C03F44072B2F5407F1DD01E4A936801
:1021F00023F4F81393601C490B6F226CC2F30B029B
:1022000013430B6752E7FEF7DFFE0746164B1B6FC3
:1022100013F0020FE4D1FEF7D7FEC01B41F2883362
:102220009842F3D903209DE70F498A6822F4F812F7
:1022300023F0704323F4407313438B60DBE70125E5
:1022400068E70D4B00221A60FEF7BEFE0646064BFD
:102250001B6813F0006F11D0FEF7B6FE801B02283A
:10226000F5D903207EE700BF00380240E011474265
:1022700000700040400E474268004742236813F058
:10228000010F01D0A26B22B113F0020F15D0E36B46
:102290009BB9774AD2F88400D2F884106368A668A4
:1022A00043EA861300F44030034301F070610B43AE
:1022B000616943EA0173C2F88430236813F0040FA4
:1022C00003D0226BB2F5801F06D013F0080F20D088
:1022D000636BB3F5800F1CD1654AD2F88400D2F845
:1022E00084106368A66843EA861300F44030034311
:1022F000206943EA006301F0E0410B43C2F88430F7
:10230000D2F88C3023F01F03A16A01390B43C2F8C5
:102310008C30236813F4806F03D0236DB3F1005F1A
:1023200028D0236813F4006F11D06368A26843EAD1
:102330008213E2685208013A43EA0243226943EAFF
:102340000263626943EA0273494AC2F88430494B26
:1023500001221A60FEF738FE0646454B1B6813F053
:10236000006F7FF4FBAEFEF72FFE801B0228F4D92E
:102370000320F7E63E48D0F88430C3F301435A1CEB
:10238000D0F884606368A16843EA8113E168490872
:10239000013943EA014343EA426306F0E042134352
:1023A000C0F88430BDE7344B00221A60FEF70CFE03
:1023B00005462F4B1B6813F0005F06D0FEF704FEA6
:1023C000401B0228F5D90320CCE6236813F0040F44
:1023D00001D0226B22B113F0080F1AD0636BC3B97E
:1023E000234AD2F88810A369E06943EA801301F414
:1023F00040310B43616A43EA0163C2F88830D2F886
:102400008C3023F4F853E16A013943EA0123C2F81E
:102410008C30236813F4807F03D0636DB3F1006FB9
:1024200011D0154B01221A60FEF7CEFD0446104B69
:102430001B6813F0005F18D1FEF7C6FD001B0228D1
:10244000F5D903208EE60A48D0F88810A369E2691E
:1024500043EA8213226A5208013A43EA024301F036
:1024600070621343C0F88830DBE700207AE600BFD3
:102470000038024068004742700047422DE9F04BA7
:102480005C4B9B6803F00C03082B07D00C2B5BD034
:10249000042B00F0AD805848BDE8F08B554B5A68CE
:1024A00002F03F025B6813F4800F2AD0514B5B6847
:1024B000C3F388131E4600275C010025E41A65EB70
:1024C0000705A90141EA9461A001001B61EB050128
:1024D000CB0043EA5073C400A01943EB07014B0241
:1024E00043EAD0534402204619460023FEF742FB3C
:1024F000404B5B68C3F3014301335B00B0FBF3F077
:10250000CAE73C4B5B68C3F388131E4600275C0197
:102510000025E41A65EB0705A90141EA9461A001D1
:10252000001B61EB0501CB0043EA5073C400A01906
:1025300043EB07018B0243EA90538402204619467D
:102540000023FEF717FBD3E72A4B5A6802F03F023D
:102550005B6813F4800F28D0264B5B68C3F38813A5
:102560001E4600275C010025E41A65EB0705A9015A
:1025700041EA9461A001001B61EB0501CB0043EA35
:102580005073C400A01943EB07014B0243EAD05338
:102590004402204619460023FEF7ECFA154B5B680F
:1025A000C3F30273B0FBF3F076E7124B5B68C3F33F
:1025B00088131E4600275C010025E41A65EB070519
:1025C000A90141EA9461A001001B61EB0501CB0068
:1025D00043EA5073C400A01943EB07018B0243EA9E
:1025E00090538402204619460023FEF7C3FAD5E72C
:1025F000024851E7003802400024F40000127A003B
:1026000070B582B00446036813F0010F41D0A64BA9
:102610009B6803F00C03042B32D0A34B9B6803F0A0
:102620000C03082B27D0A04B9B6803F00C030C2B4A
:1026300059D06368B3F5803F5BD0B3F5A02F5ED06F
:10264000994B1A6822F480321A601A6822F48022A8
:102650001A606368002B5CD0FEF7B6FC0546924B0F
:102660001B6813F4003F14D1FEF7AEFC401B642836
:10267000F5D903209DE18C4B5B6813F4800FD2D019
:10268000894B1B6813F4003F03D06368002B00F0F4
:102690008D81236813F0020F67D0834B9B6813F082
:1026A0000C0F4AD0804B9B6803F00C03082B3FD0E3
:1026B0007D4B9B6803F00C030C2B48D0E368002B88
:1026C00074D07A4B01221A60FEF77EFC0546764BE9
:1026D0001B6813F0020F60D1FEF776FC401B022846
:1026E000F5D9032065E1704B5B6813F4800FA0D02F
:1026F000C6E76D4A136843F480331360A9E76A4B59
:102700001A6842F480221A601A6842F480321A6011
:102710009FE7FEF759FC0546634B1B6813F4003F27
:10272000B7D0FEF751FC401B6428F5D9032040E1E7
:102730005D4B5B6813F4800FBAD15B4B1B6813F0E1
:10274000020F0AD0E368012B07D0012031E1564B7C
:102750005B6813F4800FB1D1EFE7534A136823F09D
:10276000F803216943EAC1031360236813F0080FDB
:1027700040D0636963B34E4B01221A60FEF724FC1C
:102780000546494B5B6F13F0020F33D1FEF71CFC7B
:10279000401B0228F5D903200BE1434A136823F0BC
:1027A000F803216943EAC1031360DEE73F4B0022CF
:1027B0001A60FEF709FC05463B4B1B6813F0020F3D
:1027C000D3D0FEF701FC401B0228F5D90320F0E02E
:1027D000374B00221A60FEF7F7FB0546324B5B6F62
:1027E00013F0020F06D0FEF7EFFB401B0228F5D9CD
:1027F0000320DEE0236813F0040F79D02A4B1B6C12
:1028000013F0805F33D100230193274B1A6C42F001
:1028100080521A641B6C03F080530193019B0125C5
:10282000244B1B6813F4807F23D0A368012B34D082
:10283000052B41D01C4B1A6F22F001021A671A6F48
:1028400022F004021A67A368002B3FD0FEF7BCFBFE
:102850000646154B1B6F13F0020F48D1FEF7B4FB71
:10286000801B41F288339842F3D90320A1E0002570
:10287000D6E7104A136843F480731360FEF7A4FB95
:1028800006460C4B1B6813F4807FCED1FEF79CFBF1
:10289000801B0228F5D903208BE0034A136F43F015
:1028A00001031367CFE700BF003802400000474232
:1028B000800E474200700040404B1A6F42F0040205
:1028C0001A671A6F42F001021A67BCE7FEF77CFB39
:1028D00006463A4B1B6F13F0020F08D0FEF774FB4D
:1028E000801B41F288339842F3D9032061E0E5B9B7
:1028F000A369002B5CD0314A926802F00C02082ACE
:1029000059D0022B17D02E4B00221A60FEF75CFB29
:1029100004462A4B1B6813F0007F45D0FEF754FB9A
:10292000001B0228F5D9032043E0244A136C23F04E
:1029300080531364DCE7224B00221A60FEF744FB4D
:1029400005461E4B1B6813F0007F06D0FEF73CFBCC
:10295000401B0228F5D903202BE0E369226A1343C8
:10296000626A43EA8213A26A5208013A43EA0243C6
:10297000E26A43EA0263226B43EA02730F4A53603E
:102980000F4B01221A60FEF71FFB04460B4B1B681E
:1029900013F0007F06D1FEF717FB001B0228F5D9C4
:1029A000032006E0002004E0002002E0012000E017
:1029B000002002B070BD0120FBE700BF00380240DC
:1029C00060004742F8B505460F4616461C462B6880
:1029D0009B6837EA03030CBF01230023B34237D0BF
:1029E000B4F1FF3FF3D0FEF7EFFA069BC01AA04206
:1029F00001D2002CEBD12A68536823F0E003536026
:102A00006B68B3F5827F0BD0AB6AB3F5005F14D06F
:102A1000012385F85130002385F85030032018E059
:102A2000AB68B3F5004F02D0B3F5806FECD12A68E4
:102A3000136823F040031360E6E72A68136823F461
:102A4000005313602A68136843F400531360DFE7F0
:102A50000020F8BD30B585B0164C2468164DA5FB96
:102A60000434640D4FF47A7505FB04F40394446850
:102A7000B4F5827F0BD0039BC3B1039B013B03934F
:102A800003689B6813F0800FF5D100230FE00B461D
:102A90000446009200228021FFF794FF034630B1E4
:102AA000636D43F020036365032300E000231846B1
:102AB00005B030BD10010020819F5E1610B582B0B8
:102AC00004464068B0F5827F16D06068B0F5827F1A
:102AD0002ED1A368B3F5806F1BD000920B46002265
:102AE00080212046FFF76EFF034650B3636D43F02D
:102AF00020036365032324E0A368B3F5004F02D0ED
:102B0000B3F5806FE1D12068036823F040030360D0
:102B1000DBE700920B46002201212046FFF752FF1F
:102B2000034670B1636D43F020036365032308E03F
:102B300000920B46002201212046FFF743FF034687
:102B400010B9184602B010BD636D43F020036365F1
:102B50000323F6E700283BD010B504460023836228
:102B600090F85130002B2ED0022384F85130226887
:102B7000136823F0400313606368A2681343E2689C
:102B800013432269134362691343A26902F400727A
:102B90001343E2691343226A1343A16A22680B4379
:102BA0001360638B03F00403616A22680B43536074
:102BB0002268D36923F40063D36100206065012398
:102BC00084F8513010BD80F8503003F0BDF9CBE7E8
:102BD000012070472DE9F04182B090F85040012C5F
:102BE00000F0C3801D46174688460446012380F83E
:102BF0005030FEF7E9F9064694F85130DBB2012B6C
:102C000009D00220012384F85130002384F8503089
:102C100002B0BDE8F081B8F1000F00F09880002FFD
:102C200000F09780032384F8513000236365C4F8D3
:102C30003080A786E786A363A387E3876364236462
:102C4000A368B3F5004F1CD023681A6812F0400F38
:102C500003D11A6842F040021A60E368B3F5006FCE
:102C600015D063680BB1012F49D1226B236812780C
:102C70001A73236B01332363E38E013B9BB2E3861C
:102C80003DE02268136843F480431360DCE7636827
:102C90000BB1012F15D1226B23681288DA60236BE8
:102CA00002332363E38E013B9BB2E38609E0FEF728
:102CB0008BF9801BA84202D3B5F1FF3F4BD1002D09
:102CC0004BD0E38E9BB2002B2CD023689A6812F075
:102CD000020FECD0226B1288DA60236B023323637D
:102CE000E38E013B9BB2E386EBE7FEF76DF9801BB9
:102CF000A84202D3B5F1FF3F31D1002D31D0E38E90
:102D00009BB27BB123689A6812F0020FEDD0226B60
:102D100012781A73236B01332363E38E013B9BB25A
:102D2000E386ECE7324629462046FFF793FE08B1DA
:102D300020236365A36833B901932368DA6801929D
:102D40009B680193019B636D6BB900205AE70120DA
:102D500058E7012056E7032054E7032052E70320F9
:102D600050E703204EE701204CE7022050E72DE911
:102D7000F04383B0DDF8288090F85040012C00F03B
:102D80000B811D4617460E460446012380F850303D
:102D9000FEF71AF9814694F85100C0B26368012821
:102DA00015D0B3F5827F0AD00223012284F8512086
:102DB000002284F85020184603B0BDE8F083A368D1
:102DC000002B40F0DB80042801D00223EDE7002E29
:102DD00000F0D680002F00F0D580002D00F0D480C8
:102DE00094F85130DBB2042B02D0052384F8513023
:102DF00000236365A763E587A5872663E586A58627
:102E00002364636423681A6812F0400F03D11A68C0
:102E100042F040021A60E368B3F5006F10D06368B7
:102E20000BB1012D0AD1226B236812781A73236B20
:102E300001332363E38E013B9BB2E386012569E006
:102E400063680BB1012D0AD1226B23681288DA6006
:102E5000236B02332363E38E013B9BB2E3860125A0
:102E60001BE023689A6812F0010F0DD0E28F92B236
:102E700052B1DA68A36B1A80A36B0233A363E38FAA
:102E8000013B9BB2E3870125FEF79EF8A0EB09000A
:102E9000404502D3B8F1FF3F78D1E38E9BB21BB916
:102EA000E38F9BB2002B52D023689A6812F0020F76
:102EB000D7D0E28E92B2002AD3D0002DD1D0226B8F
:102EC0001288DA60236B02332363E38E013B9BB2EB
:102ED000E3860025C5E723689A6812F0010F0DD03C
:102EE000E28F92B252B1DA68A36B1A70A36B01330E
:102EF000A363E38F013B9BB2E3870125FEF764F8F0
:102F0000A0EB0900404502D3B8F1FF3F40D1B8F132
:102F1000000F3FD0E38E9BB213B9E38F9BB2B3B1E6
:102F200023689A6812F0020FD5D0E28E92B2002A7E
:102F3000D1D0002DCFD0226B12781A73236B0133BE
:102F40002363E38E013B9BB2E3860025C3E74A4639
:102F500041462046FFF77EFD034618B120236365F6
:102F6000012322E7A268002A7FF41FAF01922268A2
:102F7000D168019192680192019A16E7022314E741
:102F8000012312E7012310E701230EE703230CE7D7
:102F900003230AE7032308E702230CE72DE9F041A6
:102FA00082B004460F4690461D464368B3F5827FC3
:102FB00019D094F85030012B00F09F80012384F841
:102FC0005030FEF701F8064694F85130DBB2012B81
:102FD00015D00220012384F85130002384F85030AA
:102FE00002B0BDE8F0818368002BE2D1042380F8B1
:102FF0005130009513460A46FFF7B9FEF0E7002F5F
:103000006DD0B8F1000F6CD0042384F85130002348
:103010006365A763A4F83C80A4F83E802363A3867D
:10302000E38623646364A368B3F5004F0BD0236881
:103030001A6812F0400F03D11A6842F040021A6079
:10304000E36883B12CE02268136823F480431360A3
:10305000EDE7FDF7B9FF801BA84202D3B5F1FF3FB2
:1030600041D1002D41D0E38F9BB2002B2BD02368A0
:103070009A6812F0010FECD0A26B1B7B1370A36B4C
:103080000133A363E38F013B9BB2E387EBE7FDF7DB
:103090009BFF801BA84202D3B5F1FF3F27D145B368
:1030A000E38F9BB27BB123689A6812F0010FEED0D8
:1030B000DA68A36B1A80A36B0233A363E38F013B2F
:1030C0009BB2E387ECE7324629462046FFF7F6FC41
:1030D00008B120236365636D6BB900207AE7012096
:1030E00078E7012076E7032074E7032072E70320E6
:1030F00070E703206EE701206CE7022070E7000014
:103100002DE9F04B04460268136923F44053C1686B
:103110000B43136183680269134342691343C26915
:103120001A430168CB6823F4164323F00C031343BE
:10313000CB600268536923F4407381690B43536188
:10314000C369B3F5004F3BD00368714A934200F066
:10315000AB8002F58062934200F0A680FEF730FF5C
:103160004FF00009061849EB090716EB000B47EB77
:10317000090C4FEACC0343EA5B734FEACB02934658
:103180009C4663689A009B0F10EB0B0049EB0C0107
:10319000FDF7F0FC5F4DA5FB00325109642202FBF4
:1031A000110213013233A5FB03235B0903F0F00284
:1031B00002EB011203F00F03216813448B60A4E0BB
:1031C0000368534A934239D002F58062934235D066
:1031D000FEF7F6FE83464FF0000C06184CEB0C078A
:1031E00016EB000847EB0C094FEAC90343EA587392
:1031F0004FEAC8029046994662680021921841EB56
:1032000001031BEB08004CEB0901FDF7B3FC414D3A
:10321000A5FB00325109642202FB1102D3003233B4
:10322000A5FB03235B095A0002F4F87202EB0112BA
:1032300003F00703216813448B6066E0FEF7D0FEBD
:1032400080464FF00009061849EB090716EB000B02
:1032500047EB090C4FEACC0343EA5B734FEACB021E
:1032600093469C4662680021921841EB010318EBDB
:103270000B0049EB0C01FDF77DFC264DA5FB003250
:103280005109642202FB1102D3003233A5FB032350
:103290005B095A0002F4F87202EB011203F0070313
:1032A000216813448B6030E0FEF79AFE4FF000096E
:1032B000061849EB090716EB000B47EB090C4FEA20
:1032C000CC0343EA5B734FEACB0293469C466368A8
:1032D0009A009B0F10EB0B0049EB0C01FDF74AFC29
:1032E0000C4DA5FB00325109642202FB11021301AF
:1032F0003233A5FB03235B0903F0F00202EB01125A
:1033000003F00F03216813448B60BDE8F08B00BF0E
:10331000001001401F85EB512DE9F04105460F4695
:1033200016469846069C2B681B6837EA03030CBFB9
:1033300001230023B3421DD1B4F1FF3FF3D02CB1E0
:10334000FDF742FEA0EB0800A042ECD92A68D36842
:1033500023F4D073D3602A68536923F001035361C7
:10336000202385F8393085F83A30002385F8383045
:10337000032000E00020BDE8F08158B310B50446FA
:1033800090F839300BB3242384F839302268D3689D
:1033900023F40053D3602046FFF7B2FE226813697E
:1033A00023F4904313612268536923F02A03536185
:1033B0002268D36843F40053D3600020E0632023E5
:1033C00084F8393084F83A3010BD80F8383002F093
:1033D000FFFDD8E7012070472DE9F04383B01E467A
:1033E00090F83930DBB2202B56D104460D4690467A
:1033F000002956D0002A56D090F83830012B54D0EE
:10340000012380F838304FF00009C0F83C902123A8
:1034100080F83930FDF7D8FD0746A4F82480A4F8D9
:10342000268084F8389010E000963B4600228021E8
:103430002046FFF771FF002839D12B882268C3F39B
:10344000080353602369C3B90235E38C9BB2B3B15F
:10345000E38C013B9BB2E384A368B3F5805FE3D0C8
:1034600000963B46002280212046FFF755FF00BB17
:103470002A7823685A600135E7E70135E5E70096C9
:103480003B46002240212046FFF746FF034690B905
:10349000202284F8392000E00223184603B0BDE85A
:1034A000F0830123F9E70123F7E70223F5E703237C
:1034B000F3E70323F1E70323EFE7000000230133E1
:1034C0000C4A934211D80269002AF8DA036943F0E2
:1034D0000103036100230133064A934207D80269BE
:1034E00012F0010FF7D1002070470320704703202E
:1034F000704700BF400D030084B010B5044603A818
:1035000080E80E00089B012B1FD1A36B23F48033AE
:10351000A363E36823F4840323F04003E360E368D8
:1035200023F44013E3600F9B012B09D02046FFF7E3
:10353000C5FF069B012B1BD0BDE8104004B07047AF
:10354000E36843F48013E360F0E7E36843F040038B
:10355000E3602046FFF7B2FF0C9B23B9A36B43F453
:103560008033A363E5E7A36B23F48033A363E0E731
:10357000A36843F00603A360A36843F02003A3609D
:10358000DAE70000022A0AD00921C26822F4705248
:10359000C260C36843EA8123C360002070472A4B9E
:1035A0000B442A4A93423FD9294B0B44294A934260
:1035B0003CD9A1F57403A3F51053274A934237D998
:1035C000A1F18373A3F5E74302F5C332A03293421E
:1035D00030D9224B0B44224A93422DD9214B0B4424
:1035E00002F5922202F57872934227D91E4B0B44C2
:1035F00002F5C32202F52072934221D9A1F1B773DB
:10360000A3F5585302F5B71202F55872934219D92F
:10361000164B0B4402F5122202F5F862934201D9CF
:103620000621B2E70721B0E70F21AEE70E21ACE794
:103630000D21AAE70C21A8E70B21A6E70A21A4E7A0
:103640000921A2E70821A0E7405327FFFF340C001F
:10365000401E1BFF3F420F007F4F120060B6E5FE89
:103660005FE3160000D3CEFEC05BB3FEE05459FE0C
:10367000836843F00103836000207047836823F070
:10368000010383600020704708B5C36823F0C0437E
:10369000C360012909D069B9C36843F08043C3609E
:1036A0003220FDF797FC002008BDC36843F00053AB
:1036B000C360F5E70120F7E7890141F020010161CE
:1036C00000230133054A934205D8026912F0200F06
:1036D000F7D1002070470320704700BF400D030062
:1036E0001023036100230133054A934205D8026980
:1036F00012F0100FF7D1002070470320704700BF71
:10370000400D0300D0F800381943C0F8001800201D
:103710007047000084B02DE9F041044607A880E816
:103720000E002546002306E003F1400204EB82026E
:103730000021516001330E2BF6D9119B23BBD4F825
:10374000043843F00203C4F80438A36B23F40013D5
:10375000A363236843F040032360236843F080039E
:1037600023600023C4F8003E04F50066D4F8003856
:10377000C4F800380C9B012B10D1099B4BB90021D8
:103780002046FFF7BFFF0DE0A36B43F40013A363D4
:10379000E7E701212046FFF7B5FF03E003212046BC
:1037A000FFF7B0FF10212046FFF786FF804608B1E3
:1037B0004FF001082046FFF793FF08B14FF00108D2
:1037C000002333617361F3610AE0C3B94FF0006015
:1037D000C2F8000900220A614FF67F328A60013385
:1037E0000799994210D905EB431202F51061D2F8FE
:1037F00000090028E9DB0020C2F80009EAE74FF0E1
:103800009040C2F80009E5E700230AE0BBB14FF0A1
:103810009047C2F8007B002202614FF67F3282603F
:103820000133994210D905EB431202F53060D2F80A
:10383000007B002FEADB0027C2F8007BEBE74FF0AC
:103840000067C2F8007BE6E7336923F480733361D5
:103850000023A3616FF0804363610A9B1BB9A369D6
:1038600043F01003A361A2690B4B1343A3610D9BAB
:103870001BB1A36943F00803A361119B012B04D082
:103880004046BDE8F04104B07047A36943F080436F
:1038900043F00403A361F3E700383C80D0F8083814
:1038A00013F0060307D0022B07D0062B01D00F2000
:1038B000704702207047002070470220704770B4A4
:1038C0000B784A78012A22D0D0F81C2803F00F0682
:1038D0000124B44042EA0442C0F81C2800EB431023
:1038E000D0F8003B13F4004F0ED1D0F8003B8A68AB
:1038F000C2F30A02C97842EA8142134343F080537B
:1039000043F40043C0F8003B002070BC7047D0F87F
:103910001C4803F00F06B24092B22243C0F81C28A4
:1039200000EB4310D0F8002912F4004FECD1D0F88E
:1039300000298C68C4F30A04C97844EA814444EA43
:103940008353134343F0805343F40043C0F80039DA
:10395000DAE7000030B40B784A78012A24D000EB73
:103960004313D3F8002B002A50DBD0F83C580A78D8
:1039700002F00F02012404FA02F225EA0242C0F822
:103980003C28D0F81C28097801F00F018C4022EA6D
:103990000444C0F81C48D3F8001B234A0A40C3F86B
:1039A000002B002030BC704700EB4313D3F80029F4
:1039B000002A1EDBD0F83C580A7802F00F020124DE
:1039C00004FA02F292B225EA0202C0F83C28D0F8CA
:1039D0001C28097801F00F018C40A4B222EA0404EB
:1039E000C0F81C48D3F80019104A0A40C3F800294F
:1039F000D7E7D3F8002942F00062C3F80029D3F8D2
:103A0000002942F08042C3F80029D3E7D3F8002B05
:103A100042F00062C3F8002BD3F8002B42F0804242
:103A2000C3F8002BA1E700BF0078F3EF007833EC78
:103A300070B40B784C78012C26D000EB431000F5C5
:103A400030631C69E40CE4041C611C6924F0FF541D
:103A500024F4C0141C614C690CB18C684C611C6965
:103A600044F400241C611C698D68C5F312052C43C5
:103A70001C61012A65D0D0F8003B43F00443C0F834
:103A8000003B002070BC70474C696CBB00EB4314DA
:103A9000D4F8105925F0FF5525F4C015C4F8105975
:103AA000D4F8105945F40025C4F81059D4F8105929
:103AB000ED0CED04C4F81059012A33D000EB431388
:103AC000D3F8002942F00442C3F800294B69002BC7
:103AD000D7D0D0F83428097801F00F040121A14093
:103AE0000A43C0F83428CCE700EB431404F5106413
:103AF0002569ED0CED042561256925F0FF5525F4B8
:103B0000C01525614E698D68AE4200D94D612569A9
:103B100045F40025256125694E69C6F31206354333
:103B20002561C9E70A691AB100EB4311C1F81429EC
:103B300000EB4310D0F8002942F00442C0F80029FD
:103B40009FE7CA68002A96D05A6194E770B49DF83E
:103B50000C4064B903339D0807E000EB023303F522
:103B6000805351F8046B1E600134AC42F5D3002041
:103B700070BC7047F0B583B00B784C78012C2BD01B
:103B800000EB431303F530642569ED0CED0425616A
:103B9000256925F0FF5525F4C01525614D69002DD7
:103BA00040F0C58025698E68C6F31206354325614D
:103BB000256945F400252561012A00F0CD80CA78E9
:103BC000012A00F0CF80D3F8002B42F00442C3F862
:103BD000002B002003B0F0BD4C6984BB00EB431404
:103BE000D4F8105925F0FF5525F4C015C4F8105924
:103BF000D4F8105945F40025C4F81059D4F81059D8
:103C0000ED0CED04C4F81059012A4CD000EB43131D
:103C1000D3F8004944F00444C3F80049CC78012C9F
:103C20006AD04B69002BD4D0D0F83428097801F041
:103C30000F040121A1400A43C0F83428C9E700EB72
:103C40004314D4F81059ED0CED04C4F81059D4F80D
:103C5000105925F0FF5525F4C015C4F81059D4F8B3
:103C600010694D698F683D44013DB5FBF7F5474F3D
:103C700007EAC5453543C4F81059D4F810594E69C0
:103C8000C6F312063543C4F8105904F51064CD7814
:103C9000012DB9D1256925F0C0452561256945F07B
:103CA00000552561B0E70A691AB100EB4314C4F866
:103CB0001429CA78012A08D000EB4313D3F800294D
:103CC00042F00442C3F8002983E7D0F8082812F430
:103CD000807F08D100EB4311D1F8002942F0005257
:103CE000C1F80029E8E700EB4311D1F8002942F0C0
:103CF0008052C1F80029DFE7D0F8084814F4807F2B
:103D00000ED1D3F8004944F00054C3F800491446DA
:103D10000B46C9681A789B8A0094FFF717FF58E78B
:103D2000D3F8004944F08054C3F80049EFE78E68A7
:103D30003544013DB5FBF6F52669144F07EAC54742
:103D40003E43266127698E68ADB206FB05F5C5F3D3
:103D500012053D4325612FE7CA68002A3FF42FAFC3
:103D600062612CE7D0F8082812F4807F06D1D3F8DE
:103D7000002B42F00052C3F8002B24E7D3F8002BAD
:103D800042F08052C3F8002B1DE700BF0000F81F6F
:103D900003329208002393420BD210B400F58054F2
:103DA000246841F8044B01339342F7D3084610BC12
:103DB0007047084670470B784A78012A14D000EB08
:103DC0004310D0F8002B002A06DB2BB1D0F8003BC3
:103DD00023F08043C0F8003BD0F8003B43F40013CD
:103DE000C0F8003B0020704700EB4310D0F80029DA
:103DF000002A06DB2BB1D0F8003923F08043C0F84D
:103E00000039D0F8003943F40013C0F80039E9E76D
:103E10000B784A78012A0ED000EB4310D0F8003B13
:103E200023F40013C0F8003BCB78023BDBB2012B3C
:103E300015D90020704700EB4310D0F8003923F467
:103E40000013C0F80039CB78023BDBB2012BF0D86D
:103E5000D0F8003943F08053C0F80039E9E7D0F8D2
:103E6000003B43F08053C0F8003BE2E7D0F8003855
:103E700023F4FE63C0F80038D0F80038090101F4DB
:103E8000FE610B43C0F8003800207047D0F8003EB8
:103E900023F00303C0F8003ED0F8043823F00203F7
:103EA000C0F8043800207047D0F8003E23F0030328
:103EB000C0F8003ED0F8043843F00203C0F80438DC
:103EC000002070474269806910407047D0F8183868
:103ED00000F50060C0691840000C7047D0F8183831
:103EE00000F50060C069184080B2704700EB4111D6
:103EF000D1F8082B00F5006040691040704710B4FD
:103F0000D0F81048D0F8343801F00F02D340DB016C
:103F1000DBB2234300EB411000F5106080681840CD
:103F200010BC7047406900F001007047D0F80039BC
:103F300023F4FF6323F00703C0F80039D0F80438F6
:103F400043F48073C0F804380020704710B4046C48
:103F5000144B9C4203D9D0F8003B002B16DB002405
:103F6000C0F8104BD0F8104B44F40024C0F8104BAC
:103F7000D0F8104B44F01804C0F8104BD0F8104B98
:103F800044F0C044C0F8104B012902D0002010BCFE
:103F90007047C0F8142BD0F8003B43F08023C0F8E2
:103FA000003BF3E70A30544F222303800048704758
:103FB0000800002022230380014824307047C046B7
:103FC0000800002022230380014848307047C04683
:103FD00008000020AF239B00C35800221A73002062
:103FE000704700000A23038001486C307047C046C8
:103FF0000800002010B582B0AF239B00C4586B4668
:104000000022DA800A786023134027D0202B00D0CA
:104010007FE04B78032B12D009D90A2B15D00B2B3C
:1040200018D14B881B061B0E2360002074E0022B66
:1040300010D1211D012200F0A8FE00206CE0012219
:10404000210000F0A2FE002066E04B881B0A63609E
:10405000002061E000F0B3FA03205DE04B780B2B09
:1040600053D89B002F4AD3589F46A7239B00C35C7D
:10407000032B06D102226B46991D00F086FE00201C
:104080004AE000F09CFA032046E04B881B0A222BF2
:104090000ED0212B16D1CB881A1C092B00D909224E
:1040A0001204120C2049443100F06FFE002033E06E
:1040B000CB881A1C4B2B00D94B221204120C1B4923
:1040C0007831F1E700F07BFA032025E0A7239B007D
:1040D000C35C032B06D121000831012200F055FEFC
:1040E000002019E000F06BFA032015E0A7239B00E5
:1040F000C35C032B05D14B881B061B0EA36000205D
:104100000AE000F05CFA032006E000F058FA032011
:1041100002E000F054FA032002B010BC02BC0847D1
:104120000020F9E7A0820008880000200800002095
:1041300010B50400812102F082F9002323876387F0
:10414000AF239B00E058002805D003F085FCAF2387
:104150009B000022E250002010BC02BC084770B552
:104160000400102003F070FC051E15D0AF239B0047
:10417000E050237C002B15D10733638704230322EF
:104180008121200002F04DF90123238700232B73A6
:10419000002070BC02BC0847AF239B000022E25005
:1041A0000220F6E70A236387E8E770B5AF24A4008E
:1041B0000559203C045D032C03D0002070BC02BCD8
:1041C00008472B7B002BF8D101332B7313000A0017
:1041D000812102F060F9F0E710B5002820D0AE236D
:1041E0009B00C358002B03D0AE239B000024C45077
:1041F000B3239B00C358002B03D0B3239B000024A0
:10420000C450002902D0AD239B00C150A7239B00BE
:104210000121C154027002F061F810BC02BC0847D1
:104220000320FAE710B582B004006B460022DA8062
:1042300000290FD0AE239B00C1508B6A6A46901DA7
:1042400000F00AF8B3239B00E050002002B010BC3D
:1042500002BC08470320F9E7184710B502F0D6F86A
:1042600010BC02BC084710B5AE239B00C358002BFE
:1042700005D01B6800F005F810BC02BC08470320FD
:10428000FAE7184710B5AE239B00C358002B02D0A5
:104290005B6800F004F8002010BC02BC0847184717
:1042A00070B50400164BC518280000F074F9A5235A
:1042B0009B000122E2501C33E25A183BE250104BA3
:1042C000E15C1F230B40012B10D0002B07D0022BE9
:1042D00011D07F239943200002F0BCF803E02900AD
:1042E000200000F07BFB70BC02BC084729002000C6
:1042F00000F0B6FBF7E72900200000F0F0FBF2E742
:10430000AA02000010B50400130000292CD1A52238
:1043100092008258032A01D0002032E00200553278
:10432000FF329168D268914211D8AE239B00C358E6
:104330001B69002B06D0A7229200825C032A01D1C0
:1043400000F026F8200000F044FD002019E0891A52
:104350005530FF3081608A4200D90A0019002000E0
:1043600000F02DFD00200CE0AE239B00C3589B699C
:10437000002B09D0A7229200825C032A06D100F00C
:1043800007F810BC02BC08470320FAE70320F8E74F
:10439000184710B50400130000294ED1A522920041
:1043A0008258022A06D0A8239B00E35C012B3ED052
:1043B00000204FE0C269016A8A4216D821D0AE239C
:1043C0009B00E358DB68002B07D0A7229200A25C79
:1043D000032A02D1200000F044F88021200002F0DE
:1043E00039F8200000F003FDDDE7521AC261190020
:1043F00000F0DBFC002300220021200002F056F830
:10440000D1E783699942DAD8A62292008258934272
:10441000D5D20022002100F0C8FCA6239B00002278
:10442000E25000230021200002F040F8BBE7A8235F
:104430009B000022E25400200CE0AE239B00C358F6
:104440005B69002B09D0A7229200825C032A06D167
:1044500000F007F810BC02BC08470320FAE703206D
:10446000F8E7184770B50400A7239B000122C25447
:104470000023A52292008350436010328350AF2363
:104480009B00C358002B06D0AE239B00C3585B682B
:10449000002100F01AF8402300220021200001F042
:1044A000C0FF0126B2235B00E6524025043BE550E5
:1044B000213BFF3B00228021200001F0B2FFA684B7
:1044C0002562002070BC02BC084718470174002018
:1044D00070470000A7239B00C15C034A815404225B
:1044E000C25400207047C0469D020000A7239B00D5
:1044F000C35C042B01D000207047024BC25C013B1F
:10450000C254F8E79D02000010B5A7239B00C35CCE
:10451000032B03D0002010BC02BC0847AE239B0035
:10452000C358DB69002BF5D000F001F8F2E718471B
:1045300000207047002070470020704710B5A72367
:104540009B000122C2541C33C358002B05D05B686A
:1045500042681106090E00F004F8002010BC02BCED
:10456000084718470300002003E001300006000E52
:1045700001331A78002AF8D1704710B54B88012B07
:1045800002D010BC01BC0047A9239B000122C250ED
:1045900000F01FFCF5E70B7803704B7843708A78C6
:1045A000CB781B02134343800A794B791B021343D8
:1045B00083808A79CB791B021343C380704710B57F
:1045C0000400802101F046FF0021200001F042FF9D
:1045D00010BC01BC0047000030B583B004000D00E2
:1045E0006B460022DA804A88130A0F2B00D9DCE0E0
:1045F0009B007549CB589F46AD239B00C358DB6990
:10460000002B05D0007C6A46911D00F0E1F80CE01B
:104610002900FFF7D4FF1DE0AD239B00C3581B68A2
:10462000007C6A46911D00F0D3F8EB88002B00D186
:10463000C5E06A46D188002900D1BBE01A1C8B4234
:1046400000D90A1C1204120C6B46DA80010020000B
:1046500000F09BFB03B030BC01BC0047037C002B87
:104660000AD1AE239B00C3589B6A6A46901D00F096
:10467000AFF802234370D8E7AE239B00C358DB6A30
:104680006A46901D00F0A4F802234370CDE712069D
:10469000120E052A63D892004C4B9B589F46AD23BF
:1046A0009B00C3585B68002B05D0007C6A46911DB7
:1046B00000F08EF8B9E72900FFF781FFCAE7AD23C4
:1046C0009B00C3589B68002B05D0007C6A46911D57
:1046D00000F07EF8A9E72900FFF771FFBAE7AD23E4
:1046E0009B00C358DB68002B05D0007C6A46911DF7
:1046F00000F06EF899E72900FFF761FFAAE7AD2304
:104700009B00C3581B69002B05D0007C6A46911D95
:1047100000F05EF889E72900FFF751FF9AE7AD2323
:104720009B00C3585B69002B05D0007C6A46911D35
:1047300000F04EF879E72900FFF741FF8AE7AD2343
:104740009B00C3589B69002B05D0007C6A46911DD5
:1047500000F03EF869E72900FFF731FF7AE729000A
:10476000FFF72DFF76E7037C002B08D1AE239B00DB
:10477000C3585B6B6A46901D00F02AF855E7290084
:10478000FFF71DFF66E7037C002B0AD1AE239B00D9
:10479000C3581B6B6A46901D00F01AF8072343703C
:1047A00043E72900FFF70BFF54E729002000FFF73C
:1047B00006FF4FE729002000FFF701FF4AE720002E
:1047C00000F007FB46E7C046D082000810830008CF
:1047D0001847C04670B504008B88002B25D1CB88C4
:1047E000002B22D14B887F2B1FD81B061B0E7F2549
:1047F0001D40A7239B00C35C032B0ED00E4BC5545A
:10480000290001F03DFE200000F0E3FA002D07D062
:10481000A7239B000222E2540AE0FFF7D0FE07E044
:10482000A7239B000122E25402E02000FFF7C7FE0D
:1048300070BC01BC0047C0469E02000070B5050078
:104840000C0049880906090E344B1970012910D84B
:10485000A7239B00C35C022B13D0032B29D021007C
:10486000FFF7ADFE2D4B19782800FFF70BFD03264F
:1048700003E02100FFF7A3FE0326300070BC02BC5A
:104880000847002911D04160FFF7EDFC061E04D057
:1048900021002800FFF793FEEFE7280000F099FAC7
:1048A000A7239B000322EA54E7E700F092FA0026D0
:1048B000E3E700291DD0436899422AD01906090E62
:1048C000FFF7E0FC154B197869602800FFF7CBFC77
:1048D000061E1AD021002800FFF771FE6B6819062A
:1048E000090E2800FFF7CEFCA7239B000222EA5402
:1048F000C3E7A7239B000222C2544160FFF7C2FC1A
:10490000280000F066FA0026B7E7280000F061FAF8
:10491000B3E700F05EFA0026AFE7C046F4010020DE
:1049200010B5CB88012B0DD1A7239B00C35C002BB6
:1049300015D0022B0BD9032B11D1011D012200F040
:1049400024FA01E0FFF73BFE10BC01BC0047002346
:10495000836001000831012200F017FAF4E7FFF745
:104960002EFEF1E710B5A7239B00C35C013B1B069D
:104970001B0E022B16D8CB88022B10D10123C3604B
:10498000A9239B00C358002B01D00323C36001005F
:104990000C31022200F0F9F910BC01BC0047FFF70E
:1049A0000EFEF9E7FFF70BFEF6E710B5A7239B0015
:1049B000C35C013B1B061B0E022B0CD84B88012B42
:1049C00002D010BC01BC0047A9239B000022C250AA
:1049D00000F0FFF9F5E7FFF7F2FDF2E710B50A780E
:1049E00060231340202B07D0402B05D0002B0CD088
:1049F000FFF7E5FD002005E0AE239B00C3589B6850
:104A000000F02CF810BC02BC08474B78092B1ED8CC
:104A10009B00114AD3589F46FFF7DEFD0020F1E7C7
:104A2000FFF7D8FE0020EDE7FFF708FFEAE7FFF702
:104A300077FF0020E6E7FFF795FF0020E2E7FFF7AA
:104A40009CFD0020DEE7FFF7B0FF0020DAE7FFF76C
:104A5000B6FD0020D6E7C046288300081847C046A8
:104A600070B504000D000A7860231340202B0AD093
:104A7000402B08D0002B06D0FFF7A1FD0026300008
:104A800070BC02BC0847A7239B00E35C013B1B06EC
:104A90001B0E022B1CD8AB881B061B0E012B11D83A
:104AA000AE239B00E3589B682900200000F016F815
:104AB0000600EB88002BE2D10028E0D1200000F0B6
:104AC00088F9DCE729002000FFF779FD0026D6E70A
:104AD00029002000FFF773FD0026D0E7184770B5C6
:104AE00005000C008A881106090E20786023034017
:104AF000202B09D0402B07D0002B10D021002800FC
:104B0000FFF75DFD002007E0AE239B00EB589B689C
:104B10002100280000F017F970BC02BC0847637838
:104B2000012B41D0002B7BD0032B00D003E1A72326
:104B30009B00EB5C022B07D0032B1DD0210028002B
:104B4000FFF73DFD0020E7E70A00531E9A410B00E6
:104B5000803B581E8341134208D0280001F07AFCA4
:104B60008021280001F076FC0020D5E721002800F4
:104B7000FFF725FD0020CFE76388002B0BD10A004B
:104B8000531E9A410B00803B581E8341134202D0B2
:104B9000E388002B04D0280000F01BF90020BBE7BD
:104BA000280001F057FCF6E7A7239B00EB5C022BE3
:104BB00007D0032B1DD021002800FFF700FD0020A7
:104BC000AAE70A00531E9A410B00803B581E8341FE
:104BD000134208D0280001F03DFC8021280001F09C
:104BE00039FC002098E721002800FFF7E8FC0020AE
:104BF00092E76388002B00D0A3E04B060CD128007D
:104C000000F0E7F8AE239B00EB589B6821002800DA
:104C100000F099F800207FE7280001F026FCEEE77D
:104C2000A7239B00EB5C022B07D0032B30D0210085
:104C30002800FFF7C4FC00206EE70800431E9841DF
:104C40000B00803B5E1EB341034212D1130616D403
:104C50007F230B409900C9188B005133FF33E918AB
:104C6000043100230B600222280000F08EF800209F
:104C700052E721002800FFF7A2FC00204CE77F2329
:104C80000B409900C9188B001033E9180431E8E78C
:104C90001206121626D40F230B409800C01883006A
:104CA000EB186533FF331B88002B2AD0002A2EDB3C
:104CB0007F230B409A00D21893005133FF33EB1837
:104CC0001C1D4B424B410A00803A50424241134363
:104CD00026D00023236002222100280000F055F88E
:104CE000002019E70F230B409800C0188300EB1831
:104CF0009B8C002BDAD121002800FFF760FC0020FC
:104D00000AE721002800FFF75AFC002004E77F2370
:104D10000B409A00D21893001033EB181C1DD0E7FB
:104D2000280001F015FB002802D001232360D2E700
:104D300000232360CFE721002800FFF740FC00207C
:104D4000EAE60020E8E6184770B504000D001600FA
:104D5000002817D0FFF706FC013040003080287093
:104D600003236B70013B0AE0EA5401345A1C12061B
:104D7000120EAA180021117002331B061B0E227896
:104D8000002AF1D170BC01BC004710B51300A52268
:104D90009200022484508361C3610A00002101F063
:104DA0007AFB002010BC02BC084710B513000A00B3
:104DB000002101F070FB002010BC02BC084710B5B8
:104DC00013000A00002101F071FB002010BC02BC9E
:104DD000084710B5A5239B000422C25000230022DF
:104DE000002101F058FB002010BC02BC084710B5A0
:104DF000A5239B000522C25000230022002101F0C0
:104E000055FB002010BC02BC0847000008B530B9B3
:104E1000064B002219885868FCF73FFA08BD034B7F
:104E2000012219885868FCF738FAF7E7F8010020E2
:104E300008B530B9064B002219895868FCF72DFADD
:104E400008BD034B012219895868FCF726FAF7E7D9
:104E5000F801002010B582B004460020FFF7D6FF0D
:104E600004F01F0402A901F8044D0A4C6423012236
:104E70002046FDF7AFFE642301220DF10501204617
:104E8000FEF78CF89DF805400120FFF7BFFF204694
:104E900002B010BD0402002070B582B004460D4679
:104EA00016460020FFF7B2FF04F01F0402A901F824
:104EB000044D084C642301222046FDF78BFE642339
:104EC000324629462046FEF769F80120FFF79EFF8B
:104ED00002B070BD0402002030B583B004460D4618
:104EE0000020FFF793FF44F020048DF804408DF874
:104EF00005506423022201A90348FDF76BFE01203F
:104F0000FFF784FF03B030BD0402002070B582B00B
:104F100004460D4616460020FFF778FF44F02004B3
:104F200002A901F8044D084C642301222046FDF734
:104F300051FE6423324629462046FDF74BFE0120F0
:104F4000FFF764FF02B070BD0402002070B582B0AC
:104F500005460E460020FFF759FF02A9A02301F8DD
:104F6000013D084C642301222046FDF733FE6423F3
:104F7000324629462046FDF72DFE0120FFF746FF69
:104F800002B070BD0402002008B5FF21E120FFF748
:104F9000A3FF08BD08B5FF21E220FFF79DFF08BD74
:104FA00008B50720FFF756FF08BD08B50020FFF73A
:104FB0003FFFFFF7E9FFFFF7EDFF08BD10B582B037
:104FC00002AC64E90201052221460A20FFF79EFF98
:104FD000052221461020FFF799FF054B93F870102A
:104FE000202928BF20211120FFF776FF02B010BD35
:104FF000F801002008B501F00F0141EA0011C9B223
:105000000420FFF769FF08BD08B501467F2828BFC7
:105010007F210520FFF760FF08BD0000202828BF82
:105020002020024B83F87000704700BFF801002079
:10503000014B93F870007047F801002070B582B002
:1050400006460D46FFF7F4FF0446A84217D8002095
:10505000FFF7DCFE02A9612301F8013D094D64233D
:1050600001222846FDF7B6FD6423A2B23146284648
:10507000FDF794FF0120FFF7C9FE02B070BD2C467A
:10508000E5E700BF0402002008B56020FFF7E2FE5C
:1050900008BD10B5FFF7D2FF1720FFF7DBFE00F0C9
:1050A0000104FFF777FFFFF7EFFF204610BD08B5BB
:1050B0001D20FFF7CFFE00F0FB011D20FFF70CFFC6
:1050C00000211C20FFF708FF08BD08B520B900210A
:1050D0000120FFF701FF08BD3F210120FFF7FCFE83
:1050E000F9E710B504460620FFF7B4FE00F0F90119
:1050F000032C09D0022C0DD0012C0ED034B1042C7D
:1051000004D141F0060101E041F006010620FFF75D
:10511000E3FE10BD41F00401F8E741F00201F5E7BC
:1051200038B505460620FFF795FE00F0D704022D9E
:105130000CD0012D0DD021460620FFF7CDFE062014
:10514000FFF788FEA04207D0002038BD44F02004BD
:10515000F1E744F00804EEE70120F6E710B5044655
:105160000020FFF777FE00F0F3011CB1012C05D001
:1051700041F00C010020FFF7AFFE10BD41F0080127
:10518000F8E708B50020FFF765FE00F0FD010020FC
:10519000FFF7A2FE08BD70B50646FFF701FF00F05D
:1051A0004003002B14BF012500250BD0044616B187
:1051B000C0F34203337040210720FFF78DFE14F047
:1051C000200F01D1284670BD20210720FFF784FE63
:1051D000F8E708B50020FFF7DEFF08BD38B5044644
:1051E0000D460020FFF724FE0020FFF733FE20F0DD
:1051F000010141F0020101F0FE010020FFF76CFE09
:105200000120FFF715FE29462046FFF79FFE0120EB
:10521000FFF70EFE0020FFF70BFE38BDF8B5054680
:105220000F461646FFF7BCFE044600232B70702184
:105230000720FFF751FEC4F340132B70C4F3001393
:105240003B70C4F380143470F8BD08B5702107209A
:10525000FFF742FE08BD000030B583B004460D469E
:10526000FFF7F3FF29462046FFF7B8FFFBF7ACFE38
:10527000044601220DF107010820FFF70DFEFFF79C
:105280008FFE10F0300F04D1FBF79EFE001B0928A3
:10529000EFD90D4C04F171020DF105010DF106007D
:1052A000FFF7BCFF9DF8065094F8713033B9FFF753
:1052B00090FFFFF769FE284603B030BDFFF7E4FE1C
:1052C00084F87200F3E700BFF801002000B583B056
:1052D0000020FFF79BFD50238DF8043073238DF8D9
:1052E00005306423022201A90448FDF773FC012064
:1052F000FFF78CFD03B05DF804FB00BF0402002043
:1053000008B51D20FFF7A6FD40F00601C9B21D201B
:10531000FFF7E2FD1D20FFF79DFD48B11C20FFF7C0
:1053200099FD40F00301C9B21C20FFF7D5FD08BD6F
:10533000FFF7CCFF1D20FFF78DFD40F00601C9B23D
:105340001D20FFF7C9FDE9E708B51D20FFF782FD25
:1053500040F00401C9B21D20FFF7BEFD1D20FFF77C
:1053600079FD48B11C20FFF775FD40F03F01C9B23F
:105370001C20FFF7B1FD08BDFFF7A8FF1D20FFF7B8
:1053800069FD40F00401C9B21D20FFF7A5FDE9E762
:1053900070B5A0B007ACC44D0FCD0FC40FCD0FC476
:1053A0000FCD0FC42B6824F8023B1B0C237007A8F9
:1053B000FBF75EFD0A2382B207A9BC48FEF70CF892
:1053C0000020FFF747FD10F0080F00F0618210F099
:1053D000040F00F0518207ACB54D0FCD0FC495E816
:1053E000070084E8070007A8FBF742FDAF4C0A233B
:1053F00082B207A92046FDF7EFFF0120FFF72AFD43
:10540000C0F340130393C0F300130293C0F3C0032F
:105410000193C0F380030093C0F3400300F0010246
:10542000A44907A802F0ECFB07A8FBF721FD0A231B
:1054300082B207A92046FDF7CFFF0220FFF70AFD41
:10544000C0F340130393C0F300130293C0F3C003EF
:105450000193C0F380030093C0F3400300F0010206
:10546000954907A802F0CCFB07A8FBF701FD0A232A
:1054700082B207A92046FDF7AFFF0320FFF7EAFC41
:1054800000F0030202328D4907A802F0B9FB07A819
:10549000FBF7EEFC0A2382B207A92046FDF79CFF2A
:1054A0000520FFF7D7FC00F07F02854907A802F02E
:1054B000A7FB07A8FBF7DCFC0A2382B207A920465A
:1054C000FDF78AFF0620FFF7C5FC044610F0080F21
:1054D00000F0E58107AD7B4E0FCE0FC596E80300C7
:1054E00045F8040B25F8021B090C297007A8FBF7E7
:1054F000BFFC0A2382B207A96C48FDF76DFFC4F315
:105500004104002C00F0D881012C00F0DC81022C39
:1055100000F0E081032C00F0E78107A8FBF7A8FC6E
:10552000624C0A2382B207A92046FDF755FF0522E7
:1055300005A90A20FFF7B0FC9DF818209DF8173048
:105540009DF816109DF815009DF8145002950190D5
:1055500000915D4907A802F053FB07A8FBF788FC00
:105560000A2382B207A92046FDF736FF052205A9C6
:105570000B20FFF791FC9DF818209DF817309DF83F
:1055800016109DF815009DF8145002950190009199
:105590004E4907A802F034FB07A8FBF769FC0A2371
:1055A00082B207A92046FDF717FF012205A90C20AA
:1055B000FFF772FC9DF81420454907A802F020FB74
:1055C00007A8FBF755FC0A2382B207A92046FDF77E
:1055D00003FF012205A90D20FFF75EFC9DF81420B2
:1055E0003C4907A802F00CFB07A8FBF741FC0A2383
:1055F00082B207A92046FDF7EFFE012205A90E2081
:10560000FFF74AFC9DF81420334907A802F0F8FA86
:1056100007A8FBF72DFC0A2382B207A92046FDF755
:10562000DBFE012205A90F20FFF736FC9DF81420B0
:105630002A4907A802F0E4FA07A8FBF719FC0A2395
:1056400082B207A92046FDF7C7FE052205A9102052
:10565000FFF722FC9DF818209DF817309DF81610D2
:105660009DF815009DF814500295019000911C4979
:1056700007A802F0C5FA07A8FBF7FAFB0A2382B2D3
:1056800007A92046FDF7A8FE1120FFF7E3FB00F075
:105690003F02144907A802F0B3FA07A8FBF7E8FB9A
:1056A0000A2382B220E000BF888300086C02002039
:1056B000BC830008088400084C8400089884000813
:1056C000B4840008C884000848850008788500086C
:1056D000A8850008D0850008F88500082086000805
:1056E000488600087486000807A92046FDF774FE66
:1056F0001220FFF7AFFB00F03F028A4907A802F033
:105700007FFA07A8FBF7B4FB0A2382B207A9204659
:10571000FDF762FE1320FFF79DFB00F03F02824978
:1057200007A802F06DFA07A8FBF7A2FB0A2382B2D2
:1057300007A92046FDF750FE1420FFF78BFB00F071
:105740003F027A4907A802F05BFA07A8FBF790FB33
:105750000A2382B207A92046FDF73EFE1520FFF777
:1057600079FB00F03F02724907A802F049FA07A846
:10577000FBF77EFB0A2382B207A92046FDF72CFE29
:105780001620FFF767FB00F03F026A4907A802F006
:1057900037FA07A8FBF76CFB0A2382B207A9204659
:1057A000FDF71AFE1C20FFF755FBC0F340130393CF
:1057B000C0F300130293C0F3C0030193C0F380034E
:1057C0000093C0F3400300F001025B4907A802F018
:1057D00017FA07A8FBF74CFB0A2382B207A9204659
:1057E000FDF7FAFD1D20FFF735FB064610F0040F0C
:1057F00000F0818007AC514D0FCD0FC495E8030038
:1058000044F8040B218007A8FBF732FB0A2382B27D
:1058100007A94B48FDF7E0FD16F0020F78D107AC61
:10582000484D0FCD0FC495E8070003C424F8022BA0
:10583000120C227007A8FBF71BFB414E0A2382B211
:1058400007A93046FDF7C8FD07AC3F4D0FCD0FC48B
:105850000FCD0FC40FCD0FC42B6824F8023B1B0CD7
:10586000237007A8FBF704FB0A2382B207A930467E
:10587000FDF7B2FD20B070BD07AC344D0FCD0FC4A5
:1058800095E8070003C424F8022B120C2270AAE545
:1058900007AC2F4D0FCD0FC42B682360A3E507ADD8
:1058A0002C4E0FCE0FC596E8030045F8040B25F8E3
:1058B000021B090C297019E607AC274D0FCD0FC448
:1058C0002B68236029E607AC244D0FCD0FC42B684D
:1058D000236022E607AC224D0FCD0FC42B6824F8BD
:1058E000023B1B0C237018E607AC1E4D0FCD0FC4F6
:1058F0002B68238011E607AC1B4D0FCD0FC495E834
:10590000030044F8040B24F8021B090C21707AE709
:1059100007AC164D0FCD0FC495E8070003C42280D5
:1059200088E700BF90860008AC860008C88600089B
:10593000E4860008008700081C87000868870008C4
:105940006C020020B487000888830008D883000810
:10595000F4830008E0840008F88400080C8500083F
:105960002085000834850008808700089887000893
:1059700082B0F0B583B007460E46154608A941F837
:10598000043F604C582204F10C0002F06DF867608F
:10599000268025810120FFF739FA0020FFF748FA19
:1059A0000520FBF717FB08210020FFF795FA3F21A0
:1059B0000120FFF791FA03210220FFF78DFA03215E
:1059C0000846FFF789FA03210420FFF785FA022130
:1059D0000520FFF781FA0F210620FFF77DFA0E213F
:1059E0000720FFF779FA00210820FFF775FA002158
:1059F0000920FFF771FAE7248DF804408DF8034081
:105A00008DF802408DF8014002AD05F8084D0522E1
:105A100029460A20FFF77AFAC2238DF804308DF860
:105A200003308DF802308DF801308DF800300522FA
:105A300029460B20FFF76AFAC3210C20FFF74CFA26
:105A4000C4210D20FFF748FAC5210E20FFF744FAC4
:105A5000C6210F20FFF740FA8DF804408DF803406F
:105A60008DF802408DF801408DF80040052229464E
:105A70001020FFF74BFA00211120FFF72DFA00212B
:105A80001220FFF729FA00211320FFF725FA002141
:105A90001420FFF721FA00211520FFF71DFA00213D
:105AA0001620FFF719FAFFF711FC00211C20FFF761
:105AB00013FA00211D20FFF70FFAFFF769FC0F21F1
:105AC0000846FFF797FA0320FFF70BFB0120FFF7CB
:105AD00027FB0220FFF742FBFFF7E9FA2020FFF740
