:020000040800F2
:1000000000000220F9530008194F00081B4F000898
:100010001D4F00081F4F0008214F0008000000007E
:10002000000000000000000000000000234F000856
:10003000254F000800000000274F0008294F000846
:10004000495400084954000849540008495400081C
:10005000495400084954000849540008495400080C
:1000600049540008495400084954000849540008FC
:1000700049540008495400084954000849540008EC
:1000800049540008495400084954000849540008DC
:1000900049540008495400084954000849540008CC
:1000A00049540008495400084954000849540008BC
:1000B00049540008495400084954000849540008AC
:1000C000495400084954000849540008495400089C
:1000D000495400084954000849540008495400088C
:1000E000495400084954000849540008495400087C
:1000F000495400084954000849540008495400086C
:10010000495400084954000849540008495400085B
:10011000495400084954000849540008495400084B
:10012000495400084954000849540008495400083B
:100130004954000800000000000000004954000875
:10014000495400084954000849540008314F000838
:10015000495400084954000849540008495400080B
:1001600049540008495400084954000849540008FB
:100170004954000849540008495400080000000090
:1001800000000000495400080000000000000000CA
:100190004954000800000000000000004954000815
:1001A00000000000000000000000000049540008AA
:1001B00049540008495400084954000849540008AB
:0401C0004954000896
:1001D00010B5054C237833B9044B13B10448AFF381
:1001E00000800123237010BDD80100200000000012
:1001F000E05C000808B5034B1BB103490348AFF3AB
:10020000008008BD00000000DC010020E05C000868
:1002100053B94AB9002908BF00281CBF4FF0FF316D
:100220004FF0FF3000F072B9ADF1080C6DE904CE6B
:1002300000F006F8DDF804E0DDE9022304B07047C1
:100240002DE9F047089E04468846002B4BD18A4290
:10025000154667D9B2FA82F24AB1C2F1200701FA13
:1002600002F320FA07F7954047EA030894404FEA63
:10027000154E230CB8FBFEF71FFA85FC0EFB178802
:1002800043EA084307FB0CF1994209D9EB1807F13F
:10029000FF3080F01B81994240F21881023F2B44CD
:1002A0005B1AA4B2B3FBFEF00EFB103344EA034426
:1002B00000FB0CFCA44509D92C1900F1FF3380F098
:1002C0000781A44540F2048102382C4440EA0740EB
:1002D000A4EB0C0400271EB1D4400023C6E9004360
:1002E0003946BDE8F0878B4209D9002E00F0EB803B
:1002F0000027C6E9000138463946BDE8F087B3FA61
:1003000083F7002F47D18B4202D3824200F2FA805A
:10031000841A61EB030301209846002EE0D0C6E961
:100320000048DDE702B9FFDEB2FA82F2002A40F0AF
:100330008F80491B4FEA154E1FFA85F80127B1FB44
:10034000FEFC230C0EFB1C1143EA014308FB0CF1DD
:10035000994207D9EB180CF1FF3002D2994200F212
:10036000CD808446591AA3B2B1FBFEF00EFB1014E7
:1003700043EA044408FB00F8A04507D92C1900F112
:10038000FF3302D2A04500F2B6801846A4EB080461
:1003900040EA0C409FE7C7F1200CBB4022FA0CFE5C
:1003A0004EEA030E01FA07F420FA0CF521FA0CF3D9
:1003B0004FEA1E482543B3FBF8F92C0C08FB193310
:1003C0001FFA8EFA44EA034309FB0AF49C4202FA3C
:1003D00007F200FA07F10BD91EEB030309F1FF3016
:1003E00080F087809C4240F28480A9F10209734426
:1003F0001B1BADB2B3FBF8F008FB103345EA034416
:1004000000FB0AFAA24508D91EEB040400F1FF33F1
:100410006BD2A24569D90238744440EA0940A0FB76
:100420000289A4EB0A044C45C2464B4654D351D032
:10043000002E69D0B1EB0A0564EB030404FA0CFC4E
:10044000FD40FC404CEA0505C6E90054002747E79B
:10045000C2F1200320FA03F7954001FA02F021FAD5
:1004600003F34FEA154E3843010CB3FBFEF71FFAB6
:1004700085F80EFB173341EA034107FB08F38B4273
:1004800004FA02F407D9691807F1FF3C2FD28B4216
:100490002DD9023F2944CB1A81B2B3FBFEF00EFBEB
:1004A000103341EA034100FB08F38B4207D9691876
:1004B00000F1FF3C17D28B4215D902382944C91AE2
:1004C00040EA07473BE73746304609E70746E7E695
:1004D0001846FBE64145ABD2B8EB020A69EB0E02C7
:1004E00001381346A4E76046E9E7184695E76746F2
:1004F000D1E781467CE702382C4447E7ACF1020C97
:100500002B442FE7384608E73746E9E6704700BF37
:10051000034613F8012B002AFBD1181A0138704743
:1005200001F0FF01102A2BDB10F0070F08D010F8A4
:10053000013B013A8B422DD010F0070F42B3F6D1A8
:10054000F0B441EA012141EA014122F007047FF0C1
:1005500000070023F0E80256083C85EA010586EA18
:10056000010685FA47F5A3FA87F586FA47F6A5FA54
:1005700087F68EB9EED1F0BC01F0FF0102F0070260
:1005800032B110F8013B013A83EA010313B1F8D10B
:100590000020704701387047002D06BF35460338EC
:1005A000073815F0010F07D1013015F4807F02BF25
:1005B000013015F4C03F0130F0BC0138704700BF76
:1005C00010B504460E4B18784FF47A73B3FBF0F372
:1005D0000C4A1068B0FBF3F000F0AAF868B90F2CD1
:1005E00001D901200AE0002221464FF0FF3000F03F
:1005F0005DF8034B5C60002000E0012010BD00BFEF
:10060000000000201001002008B50B4B1A6842F4CE
:1006100000721A601A6842F480621A601A6842F422
:1006200080721A60032000F02FF80020FFF7C8FF47
:1006300004F010FC002008BD003C0240034A116891
:10064000034B1B780B441360704700BFBC020020B3
:1006500000000020014B1868704700BFBC0200205A
:1006600038B50446FFF7F6FF0546B4F1FF3F02D068
:10067000044B1B781C44FFF7EDFF401BA042FAD34C
:1006800038BD00BF00000020074AD36823F4E063B0
:100690001B041B0C000200F4E060184340F0BF6034
:1006A00040F40030D060704700ED00E030B4174BEC
:1006B000DB68C3F30223C3F10704042C28BF04241E
:1006C0001D1D062D18D9033B4FF0FF3505FA04F424
:1006D00021EA0401994005FA03F322EA03031943CE
:1006E00000280BDB0901C9B200F1604000F5614050
:1006F00080F8001330BC70470023E5E700F00F00DE
:100700000901C9B2024B1954F4E700BF00ED00E043
:1007100014ED00E0002807DB00F01F024009012370
:100720009340024A42F82030704700BF00E100E0E9
:100730000138B0F1807F0AD2064B5860064AF0219A
:1007400082F823100020986007221A607047012069
:10075000704700BF10E000E000ED00E000230F2B29
:1007600000F2D180F0B583B039E0062200E000222B
:10077000AA403A430234644D45F82420634A146881
:10078000F24302EA04054F6817F4803F01D046EABD
:1007900004055E4C2560646802EA04054F6817F49E
:1007A000003F01D046EA0405584C6560A46802EA9F
:1007B00004054F6817F4801F01D046EA0405534C26
:1007C000A560E46822404D6815F4001F01D046EA98
:1007D00004024E4CE26001330F2B00F292800122A2
:1007E0009A400C6804EA0206B242F4D14C68651ED5
:1007F000012D03D9112C01D0122C12D185685F0074
:100800000324BC4025EA0405CC68BC402C4384602A
:10081000456825EA02054C68C4F300129A402A4351
:100820004260C4685F000322BA40D24314408D681E
:10083000BD402543C5604C68022C01D0122C13D159
:10084000DD08083550F825E003F007044FEA840C72
:100850000F2404FA0CF42EEA040E0C6904FA0CF4CA
:1008600044EA0E0440F82540046822404C6804F035
:100870000304BC40224302604A6812F0805FAAD0A1
:1008800000220192224A546C44F480445464526C15
:1008900002F480420192019A9C08A51C1A4A52F85F
:1008A000257003F0030295000F22AA4027EA0207F1
:1008B000184A90423FF45BAF02F58062904216D036
:1008C00002F58062904214D002F58062904212D00C
:1008D00002F58062904210D002F5806290420ED004
:1008E00002F5806290423FF440AF072240E70122C8
:1008F0003EE702223CE703223AE7042238E70522DA
:1009000036E703B0F0BD704700380140003C0140BD
:10091000003802400000024012B9090481617047AA
:10092000816170472DE9F04782B00768CA00521A0A
:10093000930003445A6D1B6D9A4257D8B8469B1AD0
:10094000C1EBC104A2000244526C9A4200D31A4681
:100950000C46064602F1030A4FEA9A0A16E009F12C
:10096000030A4FEA9A0AE3001B1B9D003544A96C59
:10097000337C00931FFA89F3E2B2384602F0CAFAD8
:10098000AB6C4B44AB646B6D4B446B6508EB441331
:1009900003F510639B699BB2534513D3E3001B1B04
:1009A0009A003244516D136D99420BD253B15B1AC8
:1009B000C4EBC4018A003244D2F844909945CED3A6
:1009C0009946CCE7E3001B1B98000644326D736D1B
:1009D0009A420FD804F00F040121A140D7F83448FF
:1009E00024EA0104C7F83448002000E0012002B0E6
:1009F000BDE8F0870020FAE7F0B58BB0002800F0E2
:100A000091800446056890F8BD3323B3032384F82E
:100A1000BD33EB6B13F4807F01D100232361206889
:100A200002F010F8254655F8107B6E460FCD0FC624
:100A30000FCD0FC695E8030086E80300231D0ECBFB
:100A4000384601F03DFF58B1022384F8BD3301253B
:100A500028460BB0F0BD80F8BC3304F0B7FAD5E7F8
:100A60000021206801F0F4FF002315E0D900C81A26
:100A700082002244012082F83D0082F83C30A2F836
:100A80004230002082F83F0050649064CA1A9100FE
:100A9000214408650133DBB26568AB42E6D300232D
:100AA00015E0D800C11A8A002244002182F8FD1105
:100AB00082F8FC3182F8FF11C2F80412C2F8081261
:100AC000C21A90002044C0F810120133DBB29D42DC
:100AD000E7D8254655F8107B6E460FCD0FC60FCDD3
:100AE0000FC695E8030086E80300231D0ECB3846A9
:100AF00001F0F4FF054660B9002384F83830012383
:100B000084F8BD33636A012B08D0206802F0B0FB83
:100B10009EE7022384F8BD33012599E7204600F0C3
:100B2000C6FCF2E7012593E7026890F8BC33012B7D
:100B300019D010B5012380F8BC33836A012B0AD089
:100B40000446006801F078FF206802F083FB002073
:100B500084F8BC0310BD8369012BF1D0936B43F47F
:100B600080339363ECE702207047000070B50446C1
:100B70000D460068066C00EB411303F530639A687C
:100B80002169012911D037498E4254D03DB9C5EBB6
:100B9000C50293002344D3F81032002B5CD0E9B295
:100BA000204604F05DFA002070BD12F0080F09D055
:100BB0002D498E42F7D912F4004FF4D04FF4004281
:100BC0009A60F0E712F0200F28D112F0280FEAD136
:100BD00025498E4202D912F4004F22D1E900491B67
:100BE0008A002244D2F804121B69C3F31203C91A03
:100BF000C2F81412D2F80412D2F808320B44C2F828
:100C0000083235B9C5EBC50293002344D3F810323E
:100C10005BB1E9B2204604F023FAC4E720229A60CF
:100C2000C1E74FF400429A60BDE704F571720121FB
:100C300002F070FBEDE712F4004F09D112F0200F23
:100C400001D020229A60E9B2204604F009FAAAE70E
:100C50004FF400429A60A6E704F57172002102F099
:100C600059FB9CE70A31544F0A30544F38B50446BB
:100C700003681D6C03EB4111D1F8082B0E4B9D420C
:100C800007D901F5306112F4004F02D04FF4004350
:100C90008B60204604F0DCF9074B9D4202D92369A2
:100CA000012B01D0002038BD04F5717201212068AC
:100CB00002F030FBF6E700BF0A30544F2DE9F84F41
:100CC00004460568284602F011FB08B1BDE8F88F1C
:100CD0002F460646206802F0D9FA0028F6D0206890
:100CE00002F0D4FA10F0020F04D02268536903F026
:100CF00002035361206802F0C9FA10F0100F15D0FA
:100D00002268936923F010039361D5F8208008F0DE
:100D10000F09C8F34343022B00F08580062B00F037
:100D2000A5802268936943F010039361206802F064
:100D3000ADFA10F4002F40F0AD80206802F0A6FA62
:100D400010F4802F40F0F180206802F09FFA002814
:100D5000C0F25F81206802F099FA10F4006F0AD0A7
:100D6000D5F8083813F0010F40F06D8122685369FF
:100D700003F400635361206802F088FA10F0006FFA
:100D800015D02268536903F00063536194F8F4337B
:100D9000002B40F05C81012184F8F41323685B6D23
:100DA000C3F38303C4F8F833204604F00FFA206835
:100DB00002F06CFA10F4805F40F04D81206802F080
:100DC00065FA10F4005F40F0AC81206802F05EFA32
:100DD00010F0080F40F0BD81206802F057FA10F4BF
:100DE000801F40F0BF81206802F050FA10F4001F0D
:100DF00040F0C281206802F049FA10F0804F40F0C4
:100E0000C581206802F042FA10F0040F3FF45EAF93
:100E100023685D6815F0040F40F0C18122685368B3
:100E20002B43536052E747F6F07318EA030F3FF481
:100E300078AF4FEAC90BABEB09034FEA830AA24430
:100E40004FEA1818C8F30A02DAF80812284602F026
:100E500083F9C8F30A08DAF808324344CAF80832BA
:100E6000DAF814324344CAF814325AE7082204F577
:100E70007171284602F070F9C8F30A184FEAC903E5
:100E8000A3EB09018A002244D2F814324344C2F889
:100E9000143246E7206802F0FDF98046B14617E0BB
:100EA00007EB49130122C3F8082B49462046FFF7F8
:100EB0005DFE1DE007EB49130822C3F8082B4946E5
:100EC0002046FFF7D3FE16E009F101094FEA580862
:100ED000B8F1000F3FF431AF18F0010FF4D05FFA12
:100EE00089F1206802F0E6F9824610F0010FD7D1AF
:100EF0001AF0080FDED11AF0100F04D007EB4913D7
:100F00001022C3F8082B1AF0200F04D007EB491366
:100F10002022C3F8082B1AF4005FD5D007EB491341
:100F20004FF40052C3F8082BCEE7206802F0BAF95C
:100F30008046B1462AE05946204604F09DF81AF052
:100F4000080F04D007EB49130822C3F808291AF048
:100F5000100F04D007EB49131022C3F808291AF028
:100F6000400F04D007EB49134022C3F808291AF0B8
:100F7000020F04D007EB49130222C3F808291AF024
:100F8000800F41D109F101094FEA5808B8F1000F6B
:100F90003FF4DAAE18F0010FF4D05FFA89FB59463E
:100FA000206802F090F9824610F0010FC7D009F0D6
:100FB0000F03012101FA03F2D7F8343823EA0203C0
:100FC000C7F8343807EB4913C3F8081923698B4273
:100FD000B1D14FEAC902A2EB090293002344596C34
:100FE0009A6C0A449A64B9F1000FA4D1C9EBC90202
:100FF000930023441B6D002B9DD104F571720121D8
:10100000206802F087F996E749462046FFF78AFCF8
:10101000B8E7D5F8043823F00103C5F8043894F88C
:10102000F433012B08D0204604F066F82268536997
:1010300003F0004353618DE6002184F8F413204649
:1010400004F0C4F8F2E7204604F03EF88EE62046AD
:1010500004F03AF8ABE605F50068D8F8043023F060
:101060000103C8F804301021206801F009FD20E0D8
:1010700007EB46134FF67F31C3F80819D3F8002960
:1010800022F40012C3F80029D3F8002942F00062CC
:10109000C3F80029C3F8081BD3F8002B22F4001270
:1010A000C3F8002BD3F8002B42F00062C3F8002BEA
:1010B00001366368B342DBD8D8F81C3043F0011323
:1010C000C8F81C30236BEBB1D8F8843043F00B0325
:1010D000C8F88430D8F8443043F00B03C8F84430E3
:1010E000D5F8003823F4FE63C5F8003804F57172B2
:1010F000217C206802F00EF92268536903F48053C2
:1011000053615BE6D8F8143043F4005343F02B03EB
:10111000C8F81430D8F8103043F00B03C8F810307A
:10112000DEE7206802F0E6F8206801F09BFDE06051
:10113000256800F07FFA227B0146284601F006FC74
:10114000204603F0AAFF2268536903F40053536159
:101150003BE6204603F09BFF2268536903F0080337
:10116000536139E60021204603F0D2FF226853691B
:1011700003F48013536136E60021204603F0C2FFDA
:101180002268536903F40013536133E6204603F0E9
:10119000C5FF2268536903F08043536131E620465E
:1011A00003F0C2FF3AE690F8BC33012B0DD010B526
:1011B0000446012380F8BC3380F83810006802F040
:1011C00039F8002084F8BC0310BD02207047F8B540
:1011D00011F0800F28D101F00F06F500AF1BBC0005
:1011E000274604F5FC74044404343E4606440025B6
:1011F00086F8FD5101F00F012170A260E370627862
:1012000002B1E180022B1ED090F8BC33012B1DD01F
:101210000546012380F8BC332146006801F033FD08
:10122000002085F8BC03F8BD01F00F06F500AF1BE8
:10123000BC0027463834044404343E4606440125A5
:1012400086F83D50D6E700232371DDE70220EAE768
:1012500038B511F0800F21D101F00F05EA00541BC1
:10126000A3001C4603F5FC730344043325460544E0
:10127000002285F8FD2101F00F01197090F8BC23C0
:10128000012A1AD00446012280F8BC2319460068BE
:1012900001F044FD002084F8BC0338BD01F00F04C8
:1012A000E200151BAB001D463833034404332C46C3
:1012B0000444012284F83D20DDE70220EDE770B50B
:1012C00001F00F05EE00711B8C0004F5FC74044462
:1012D000211D761BB4000444C4F80822C4F810325F
:1012E0000023C4F8143284F8FD3184F8FC510369FA
:1012F000012B06D065B1DAB2006801F01FFE0020B4
:1013000070BDC5EBC506B4000444C4F80C22F1E777
:10131000DAB2006801F070FDF1E770B501F00F0579
:10132000EE00711B8C0038340444211D761BB40080
:101330000444A264236500236365012384F83D30DF
:1013400084F83C500369012B06D05DB1DAB2006825
:1013500001F0F4FD002070BDC5EBC506B4000444E7
:10136000E264F2E7DAB2006801F046FDF2E738B570
:1013700001F00F0543689D4236D811F0800F20D14F
:10138000CA00541AA3001C4603F5FC73034404333B
:1013900022460244002182F8FD1101229A701D703C
:1013A00090F8BC23012A21D00446012280F8BC23F6
:1013B0001946006801F0E3FE7DB1002084F8BC030B
:1013C00013E0EA00511B8B00194638330344043301
:1013D0000144012281F83D20DFE704F57172217C90
:1013E000206801F097FFE8E7012038BD0220FCE704
:1013F00010B501F00F0443689C422CD811F0800F07
:101400001DD1E3001A1B91000A4601F5FC7101444D
:1014100004310244002382F8FD3100238B700C70EC
:1014200090F8BC33012B18D00446012380F8BC335C
:10143000006801F0D1FE002084F8BC030CE0E3005A
:101440001A1B91000A463831014404310244012339
:1014500082F83D30E1E7012010BD0220FCE730B406
:101460000468606A29B10D46A36A00EB13400023AB
:101470000CE040EA0240A06212E003F1400104EBFC
:101480008101496800EB11400133DBB2691E8B42D8
:10149000F3D340EA024005F13F0104EB81014860CB
:1014A000002030BC70470368596200207047034633
:1014B00002680121C0F8FC13002083F8F40393694B
:1014C00043F000639361536D43F0805343F0030393
:1014D00053657047002800F09E8070B50446504B5D
:1014E0001B6803F00F038B4209D2CBB24C4A137036
:1014F000136803F00F038B4201D0012070BD2368F5
:1015000013F0020F17D013F0040F04D0454A93686C
:1015100043F4E0539360236813F0080F04D0414A6A
:10152000936843F4604393603E4A936823F0F0036A
:10153000A068034393600D46236813F0010F32D077
:101540006368012B21D09A1E012A25D9354A1268D9
:1015500012F0020F61D033498A6822F0030213436C
:101560008B60FFF777F806462E4B9B6803F00C0361
:101570006268B3EB820F16D0FFF76CF8801B41F264
:1015800088339842F0D90320B8E7264A126812F44B
:10159000003FE0D10120B1E7224A126812F0007F3B
:1015A000D9D10120AAE71E4B1B6803F00F03AB4201
:1015B00009D9EAB21A4B1A701B6803F00F03AB4249
:1015C00001D001209AE7236813F0040F06D0154AD2
:1015D000936823F4E053E1680B439360236813F0AE
:1015E000080F07D00F4A936823F46043216943EA48
:1015F000C103936000F062FA0A4B9B68C3F30313C4
:10160000094AD35CD840094B1860094B1868FEF7AB
:10161000D7FF002072E70120704701206EE700BF6E
:10162000003C024000380240085D00081001002024
:1016300004000020014B1868704700BF1001002013
:10164000F0B583B00446036813F0010F0CD0964A3E
:10165000D2F88C3023F0C063816B0B43C2F88C301E
:10166000836B3BB3002600E00026236813F0020FD3
:101670000BD08D4AD2F88C3023F0C053E16B0B4372
:10168000C2F88C30E36B03B90126236813F0040F12
:1016900014D0854AD2F88C3023F44013216B0B43CD
:1016A000C2F88C30236BB3F5801F05D0002B7BD0A4
:1016B000002504E00126D8E70126F7E70025236886
:1016C00013F0080F0ED0784AD2F88C3023F4400380
:1016D000616B0B43C2F88C30636BB3F5800F65D040
:1016E00003B90125236813F0200F61D1236813F09B
:1016F000100F03D094F858206C4B1A60236813F035
:10170000800F08D0684AD2F8943023F44003E16C8B
:101710000B43C2F89430236813F0400F08D0624A9C
:10172000D2F8943023F08063A16C0B43C2F894305C
:10173000236813F4807F0DD05B4AD2F8943023F0F5
:101740000063616D0B43C2F89430636DB3F1006FB9
:1017500000F09580236813F4007F08D0524AD2F835
:10176000943023F08053616C0B43C2F894302368AB
:1017700013F4806F0CD04C4AD2F8943023F000530D
:10178000216D0B43C2F89430236DB3F1005F78D024
:10179000002E76D12368B3F5006F72D0002D40F093
:1017A0002281002003B0F0BD012588E7012697E7DC
:1017B000002301933C4B1A6C42F080521A641B6C5C
:1017C00003F080530193019B394A136843F48073FB
:1017D0001360FEF73FFF0746354B1B6813F4807F0D
:1017E00006D1FEF737FFC01B0228F5D90320D9E741
:1017F0002D4B1B6F13F4407312D0226C02F4407215
:101800009A420DD0284B1A6F22F4407229490120C8
:101810000860002008601A671B6F13F0010F12D1D7
:10182000236C03F44072B2F5407F1DD01E4A9368CA
:1018300023F4F81393601C490B6F226CC2F30B0264
:1018400013430B6752E7FEF705FF0746164B1B6F66
:1018500013F0020FE4D1FEF7FDFEC01B41F2883306
:101860009842F3D903209DE70F498A6822F4F812C1
:1018700023F0704323F4407313438B60DBE70125AF
:1018800068E70D4B00221A60FEF7E4FE0646064BA1
:101890001B6813F0006F11D0FEF7DCFE801B0228DE
:1018A000F5D903207EE700BF00380240E01147422F
:1018B00000700040400E474268004742236813F022
:1018C000010F01D0A26B22B113F0020F15D0E36B10
:1018D0009BB9774AD2F88400D2F884106368A6686E
:1018E00043EA861300F44030034301F070610B4378
:1018F000616943EA0173C2F88430236813F0040F6E
:1019000003D0226BB2F5801F06D013F0080F20D051
:10191000636BB3F5800F1CD1654AD2F88400D2F80E
:1019200084106368A66843EA861300F440300343DA
:10193000206943EA006301F0E0410B43C2F88430C0
:10194000D2F88C3023F01F03A16A01390B43C2F88F
:101950008C30236813F4806F03D0236DB3F1005FE4
:1019600028D0236813F4006F11D06368A26843EA9B
:101970008213E2685208013A43EA0243226943EAC9
:101980000263626943EA0273494AC2F88430494BF0
:1019900001221A60FEF75EFE0646454B1B6813F0F7
:1019A000006F7FF4FBAEFEF755FE801B0228F4D9D2
:1019B0000320F7E63E48D0F88430C3F301435A1CB5
:1019C000D0F884606368A16843EA8113E16849083C
:1019D000013943EA014343EA426306F0E04213431C
:1019E000C0F88430BDE7344B00221A60FEF732FEA7
:1019F00005462F4B1B6813F0005F06D0FEF72AFE4A
:101A0000401B0228F5D90320CCE6236813F0040F0D
:101A100001D0226B22B113F0080F1AD0636BC3B947
:101A2000234AD2F88810A369E06943EA801301F4DD
:101A300040310B43616A43EA0163C2F88830D2F84F
:101A40008C3023F4F853E16A013943EA0123C2F8E8
:101A50008C30236813F4807F03D0636DB3F1006F83
:101A600011D0154B01221A60FEF7F4FD0446104B0D
:101A70001B6813F0005F18D1FEF7ECFD001B022875
:101A8000F5D903208EE60A48D0F88810A369E269E8
:101A900043EA8213226A5208013A43EA024301F000
:101AA00070621343C0F88830DBE700207AE600BF9D
:101AB0000038024068004742700047422DE9F04B71
:101AC0005C4B9B6803F00C03082B07D00C2B5BD0FE
:101AD000042B00F0AD805848BDE8F08B554B5A6898
:101AE00002F03F025B6813F4800F2AD0514B5B6811
:101AF000C3F388131E4600275C010025E41A65EB3A
:101B00000705A90141EA9461A001001B61EB0501F1
:101B1000CB0043EA5073C400A01943EB07014B020A
:101B200043EAD0534402204619460023FEF770FBD7
:101B3000404B5B68C3F3014301335B00B0FBF3F040
:101B4000CAE73C4B5B68C3F388131E4600275C0161
:101B50000025E41A65EB0705A90141EA9461A0019B
:101B6000001B61EB0501CB0043EA5073C400A019D0
:101B700043EB07018B0243EA905384022046194647
:101B80000023FEF745FBD3E72A4B5A6802F03F02D9
:101B90005B6813F4800F28D0264B5B68C3F388136F
:101BA0001E4600275C010025E41A65EB0705A90124
:101BB00041EA9461A001001B61EB0501CB0043EAFF
:101BC0005073C400A01943EB07014B0243EAD05302
:101BD0004402204619460023FEF71AFB154B5B68AA
:101BE000C3F30273B0FBF3F076E7124B5B68C3F309
:101BF00088131E4600275C010025E41A65EB0705E3
:101C0000A90141EA9461A001001B61EB0501CB0031
:101C100043EA5073C400A01943EB07018B0243EA67
:101C200090538402204619460023FEF7F1FAD5E7C7
:101C3000024851E7003802400024F40000127A0004
:101C400070B582B00446036813F0010F41D0A64B73
:101C50009B6803F00C03042B32D0A34B9B6803F06A
:101C60000C03082B27D0A04B9B6803F00C030C2B14
:101C700059D06368B3F5803F5BD0B3F5A02F5ED039
:101C8000994B1A6822F480321A601A6822F4802272
:101C90001A606368002B5CD0FEF7DCFC0546924BB3
:101CA0001B6813F4003F14D1FEF7D4FC401B6428DA
:101CB000F5D903209DE18C4B5B6813F4800FD2D0E3
:101CC000894B1B6813F4003F03D06368002B00F0BE
:101CD0008D81236813F0020F67D0834B9B6813F04C
:101CE0000C0F4AD0804B9B6803F00C03082B3FD0AD
:101CF0007D4B9B6803F00C030C2B48D0E368002B52
:101D000074D07A4B01221A60FEF7A4FC0546764B8C
:101D10001B6813F0020F60D1FEF79CFC401B0228E9
:101D2000F5D9032065E1704B5B6813F4800FA0D0F8
:101D3000C6E76D4A136843F480331360A9E76A4B22
:101D40001A6842F480221A601A6842F480321A60DB
:101D50009FE7FEF77FFC0546634B1B6813F4003FCB
:101D6000B7D0FEF777FC401B6428F5D9032040E18B
:101D70005D4B5B6813F4800FBAD15B4B1B6813F0AB
:101D8000020F0AD0E368012B07D0012031E1564B46
:101D90005B6813F4800FB1D1EFE7534A136823F067
:101DA000F803216943EAC1031360236813F0080FA5
:101DB00040D0636963B34E4B01221A60FEF74AFCC0
:101DC0000546494B5B6F13F0020F33D1FEF742FC1F
:101DD000401B0228F5D903200BE1434A136823F086
:101DE000F803216943EAC1031360DEE73F4B002299
:101DF0001A60FEF72FFC05463B4B1B6813F0020FE1
:101E0000D3D0FEF727FC401B0228F5D90320F0E0D1
:101E1000374B00221A60FEF71DFC0546324B5B6F04
:101E200013F0020F06D0FEF715FC401B0228F5D96F
:101E30000320DEE0236813F0040F79D02A4B1B6CDB
:101E400013F0805F33D100230193274B1A6C42F0CB
:101E500080521A641B6C03F080530193019B01258F
:101E6000244B1B6813F4807F23D0A368012B34D04C
:101E7000052B41D01C4B1A6F22F001021A671A6F12
:101E800022F004021A67A368002B3FD0FEF7E2FBA2
:101E90000646154B1B6F13F0020F48D1FEF7DAFB15
:101EA000801B41F288339842F3D90320A1E000253A
:101EB000D6E7104A136843F480731360FEF7CAFB39
:101EC00006460C4B1B6813F4807FCED1FEF7C2FB95
:101ED000801B0228F5D903208BE0034A136F43F0DF
:101EE00001031367CFE700BF0038024000004742FC
:101EF000800E474200700040404B1A6F42F00402CF
:101F00001A671A6F42F001021A67BCE7FEF7A2FBDC
:101F100006463A4B1B6F13F0020F08D0FEF79AFBF0
:101F2000801B41F288339842F3D9032061E0E5B980
:101F3000A369002B5CD0314A926802F00C02082A97
:101F400059D0022B17D02E4B00221A60FEF782FBCD
:101F500004462A4B1B6813F0007F45D0FEF77AFB3E
:101F6000001B0228F5D9032043E0244A136C23F018
:101F700080531364DCE7224B00221A60FEF76AFBF1
:101F800005461E4B1B6813F0007F06D0FEF762FB70
:101F9000401B0228F5D903202BE0E369226A134392
:101FA000626A43EA8213A26A5208013A43EA024390
:101FB000E26A43EA0263226B43EA02730F4A536008
:101FC0000F4B01221A60FEF745FB04460B4B1B68C2
:101FD00013F0007F06D1FEF73DFB001B0228F5D968
:101FE000032006E0002004E0002002E0012000E0E1
:101FF000002002B070BD0120FBE700BF00380240A6
:1020000060004742F8B505460F4616461C462B6849
:102010009B6837EA03030CBF01230023B34237D088
:10202000B4F1FF3FF3D0FEF715FB069BC01AA042A8
:1020300001D2002CEBD12A68536823F0E0035360EF
:102040006B68B3F5827F0BD0AB6AB3F5005F14D039
:10205000012385F85130002385F85030032018E023
:10206000AB68B3F5004F02D0B3F5806FECD12A68AE
:10207000136823F040031360E6E72A68136823F42B
:10208000005313602A68136843F400531360DFE7BA
:102090000020F8BD30B585B0164C2468164DA5FB60
:1020A0000434640D4FF47A7505FB04F4039444681A
:1020B000B4F5827F0BD0039BC3B1039B013B039319
:1020C00003689B6813F0800FF5D100230FE00B46E7
:1020D0000446009200228021FFF794FF034630B1AE
:1020E000636D43F020036365032300E0002318467B
:1020F00005B030BD10010020819F5E1610B582B082
:1021000004464068B0F5827F16D06068B0F5827FE3
:102110002ED1A368B3F5806F1BD000920B4600222E
:1021200080212046FFF76EFF034650B3636D43F0F6
:1021300020036365032324E0A368B3F5004F02D0B6
:10214000B3F5806FE1D12068036823F0400303609A
:10215000DBE700920B46002201212046FFF752FFE9
:10216000034670B1636D43F020036365032308E009
:1021700000920B46002201212046FFF743FF034651
:1021800010B9184602B010BD636D43F020036365BB
:102190000323F6E700283BD010B5044600238362F2
:1021A00090F85130002B2ED0022384F85130226851
:1021B000136823F0400313606368A2681343E26866
:1021C00013432269134362691343A26902F4007244
:1021D0001343E2691343226A1343A16A22680B4343
:1021E0001360638B03F00403616A22680B4353603E
:1021F0002268D36923F40063D36100206065012362
:1022000084F8513010BD80F8503002F043FECBE727
:10221000012070472DE9F04182B090F85040012C28
:1022200000F0C3801D46174688460446012380F807
:102230005030FEF70FFA064694F85130DBB2012B0E
:1022400009D00220012384F85130002384F8503053
:1022500002B0BDE8F081B8F1000F00F09880002FC7
:1022600000F09780032384F8513000236365C4F89D
:102270003080A786E786A363A387E387636423642C
:10228000A368B3F5004F1CD023681A6812F0400F02
:1022900003D11A6842F040021A60E368B3F5006F98
:1022A00015D063680BB1012F49D1226B23681278D6
:1022B0001A73236B01332363E38E013B9BB2E386E6
:1022C0003DE02268136843F480431360DCE76368F1
:1022D0000BB1012F15D1226B23681288DA60236BB2
:1022E00002332363E38E013B9BB2E38609E0FEF7F2
:1022F000B1F9801BA84202D3B5F1FF3F4BD1002DAD
:102300004BD0E38E9BB2002B2CD023689A6812F03E
:10231000020FECD0226B1288DA60236B0233236346
:10232000E38E013B9BB2E386EBE7FEF793F9801B5C
:10233000A84202D3B5F1FF3F31D1002D31D0E38E59
:102340009BB27BB123689A6812F0020FEDD0226B2A
:1023500012781A73236B01332363E38E013B9BB224
:10236000E386ECE7324629462046FFF793FE08B1A4
:1023700020236365A36833B901932368DA68019267
:102380009B680193019B636D6BB900205AE70120A4
:1023900058E7012056E7032054E7032052E70320C3
:1023A00050E703204EE701204CE7022050E72DE9DB
:1023B000F04383B0DDF8288090F85040012C00F005
:1023C0000B811D4617460E460446012380F8503007
:1023D000FEF740F9814694F85100C0B263680128C5
:1023E00015D0B3F5827F0AD00223012284F8512050
:1023F000002284F85020184603B0BDE8F083A3689B
:10240000002B40F0DB80042801D00223EDE7002EF2
:1024100000F0D680002F00F0D580002D00F0D48091
:1024200094F85130DBB2042B02D0052384F85130EC
:1024300000236365A763E587A5872663E586A586F0
:102440002364636423681A6812F0400F03D11A688A
:1024500042F040021A60E368B3F5006F10D0636881
:102460000BB1012D0AD1226B236812781A73236BEA
:1024700001332363E38E013B9BB2E386012569E0D0
:1024800063680BB1012D0AD1226B23681288DA60D0
:10249000236B02332363E38E013B9BB2E38601256A
:1024A0001BE023689A6812F0010F0DD0E28F92B200
:1024B00052B1DA68A36B1A80A36B0233A363E38F74
:1024C000013B9BB2E3870125FEF7C4F8A0EB0900AE
:1024D000404502D3B8F1FF3F78D1E38E9BB21BB9E0
:1024E000E38F9BB2002B52D023689A6812F0020F40
:1024F000D7D0E28E92B2002AD3D0002DD1D0226B59
:102500001288DA60236B02332363E38E013B9BB2B4
:10251000E3860025C5E723689A6812F0010F0DD005
:10252000E28F92B252B1DA68A36B1A70A36B0133D7
:10253000A363E38F013B9BB2E3870125FEF78AF893
:10254000A0EB0900404502D3B8F1FF3F40D1B8F1FC
:10255000000F3FD0E38E9BB213B9E38F9BB2B3B1B0
:1025600023689A6812F0020FD5D0E28E92B2002A48
:10257000D1D0002DCFD0226B12781A73236B013388
:102580002363E38E013B9BB2E3860025C3E74A4603
:1025900041462046FFF77EFD034618B120236365C0
:1025A000012322E7A268002A7FF41FAF019222686C
:1025B000D168019192680192019A16E7022314E70B
:1025C000012312E7012310E701230EE703230CE7A1
:1025D00003230AE7032308E702230CE72DE9F04170
:1025E00082B004460F4690461D464368B3F5827F8D
:1025F00019D094F85030012B00F09F80012384F80B
:102600005030FEF727F8064694F85130DBB2012B24
:1026100015D00220012384F85130002384F8503073
:1026200002B0BDE8F0818368002BE2D1042380F87A
:102630005130009513460A46FFF7B9FEF0E7002F28
:102640006DD0B8F1000F6CD0042384F85130002312
:102650006365A763A4F83C80A4F83E802363A38647
:10266000E38623646364A368B3F5004F0BD023684B
:102670001A6812F0400F03D11A6842F040021A6043
:10268000E36883B12CE02268136823F4804313606D
:10269000EDE7FDF7DFFF801BA84202D3B5F1FF3F56
:1026A00041D1002D41D0E38F9BB2002B2BD023686A
:1026B0009A6812F0010FECD0A26B1B7B1370A36B16
:1026C0000133A363E38F013B9BB2E387EBE7FDF7A5
:1026D000C1FF801BA84202D3B5F1FF3F27D145B30C
:1026E000E38F9BB27BB123689A6812F0010FEED0A2
:1026F000DA68A36B1A80A36B0233A363E38F013BF9
:102700009BB2E387ECE7324629462046FFF7F6FC0A
:1027100008B120236365636D6BB900207AE701205F
:1027200078E7012076E7032074E7032072E70320AF
:1027300070E703206EE701206CE7022070E72DE9C7
:10274000F04105460F4616469846069C2B681B68C6
:1027500037EA03030CBF01230023B3421DD1B4F1B8
:10276000FF3FF3D02CB1FDF775FFA0EB0800A042AE
:10277000ECD92A68D36823F4D073D3602A685369EC
:1027800023F001035361202385F8393085F83A306E
:10279000002385F83830032000E00020BDE8F081F8
:1027A0002DE9F04383B01E4690F83930DBB2202B80
:1027B00056D104460D469046002956D0002A56D0E0
:1027C00090F83830012B54D0012380F838304FF086
:1027D0000009C0F83C90212380F83930FDF73AFF1A
:1027E0000746A4F82480A4F8268084F8389010E0E6
:1027F00000963B46002280212046FFF7A0FF0028DC
:1028000039D12B882268C3F3080353602369C3B905
:102810000235E38C9BB2B3B1E38C013B9BB2E38402
:10282000A368B3F5805FE3D000963B460022802189
:102830002046FFF784FF00BB2A7823685A600135E1
:10284000E7E70135E5E700963B46002240212046B8
:10285000FFF775FF034690B9202284F8392000E085
:102860000223184603B0BDE8F0830123F9E70123F2
:10287000F7E70223F5E70323F3E70323F1E7032355
:10288000EFE70000002301330C4A934211D802699C
:10289000002AF8DA036943F00103036100230133DE
:1028A000064A934207D8026912F0010FF7D10020BF
:1028B0007047032070470320704700BF400D03009E
:1028C00084B010B5044603A880E80E00089B012BD5
:1028D0001FD1A36B23F48033A363E36823F4840341
:1028E00023F04003E360E36823F44013E3600F9BAD
:1028F000012B09D02046FFF7C5FF069B012B1BD0FB
:10290000BDE8104004B07047E36843F48013E3600F
:10291000F0E7E36843F04003E3602046FFF7B2FFCF
:102920000C9B23B9A36B43F48033A363E5E7A36B4C
:1029300023F48033A363E0E7A36843F00603A360B6
:10294000A36843F02003A360DAE70000022A0AD05C
:102950000921C26822F47052C260C36843EA81232D
:10296000C360002070472A4B0B442A4A93423FD948
:10297000294B0B44294A93423CD9A1F57403A3F592
:102980001053274A934237D9A1F18373A3F5E74344
:1029900002F5C332A032934230D9224B0B44224A73
:1029A00093422DD9214B0B4402F5922202F5787205
:1029B000934227D91E4B0B4402F5C32202F5207225
:1029C000934221D9A1F1B773A3F5585302F5B71279
:1029D00002F55872934219D9164B0B4402F5122294
:1029E00002F5F862934201D90621B2E70721B0E768
:1029F0000F21AEE70E21ACE70D21AAE70C21A8E7D5
:102A00000B21A6E70A21A4E70921A2E70821A0E7F4
:102A1000405327FFFF340C00401E1BFF3F420F00B6
:102A20007F4F120060B6E5FE5FE3160000D3CEFED6
:102A3000C05BB3FEE05459FE836843F0010383603A
:102A400000207047836823F00103836000207047F3
:102A500008B5C36823F0C043C360012909D069B930
:102A6000C36843F08043C3603220FDF7F9FD0020C6
:102A700008BDC36843F00053C360F5E70120F7E7E2
:102A8000890141F02001016100230133054A93428D
:102A900005D8026912F0200FF7D1002070470320FB
:102AA000704700BF400D0300102303610023013372
:102AB000054A934205D8026912F0100FF7D10020A1
:102AC00070470320704700BF400D0300D0F8003866
:102AD0001943C0F8001800207047000084B02DE9A9
:102AE000F041044607A880E80E002546002306E0D2
:102AF00003F1400204EB82020021516001330E2BEE
:102B0000F6D9119B23BBD4F8043843F00203C4F870
:102B10000438A36B23F40013A363236843F040033A
:102B20002360236843F0800323600023C4F8003E41
:102B300004F50066D4F80038C4F800380C9B012B6B
:102B400010D1099B4BB900212046FFF7BFFF0DE0D4
:102B5000A36B43F40013A363E7E701212046FFF7CB
:102B6000B5FF03E003212046FFF7B0FF1021204608
:102B7000FFF786FF804608B14FF001082046FFF7B7
:102B800093FF08B14FF00108002333617361F361D3
:102B90000AE0C3B94FF00060C2F8000900220A61E0
:102BA0004FF67F328A6001330799994210D905EBBD
:102BB000431202F51061D2F800090028E9DB002079
:102BC000C2F80009EAE74FF09040C2F80009E5E7D3
:102BD00000230AE0BBB14FF09047C2F8007B00220F
:102BE00002614FF67F3282600133994210D905EBC2
:102BF000431202F53060D2F8007B002FEADB002799
:102C0000C2F8007BEBE74FF00067C2F8007BE6E715
:102C1000336923F4807333610023A3616FF0804331
:102C200063610A9B1BB9A36943F01003A361A26906
:102C30000B4B1343A3610D9B1BB1A36943F0080326
:102C4000A361119B012B04D04046BDE8F04104B0C4
:102C50007047A36943F0804343F00403A361F3E7A3
:102C600000383C80D0F8083813F0060307D0022B58
:102C700007D0062B01D00F2070470220704700209C
:102C800070470220704770B40B784A78012A22D02E
:102C9000D0F81C2803F00F060124B44042EA044295
:102CA000C0F81C2800EB4310D0F8003B13F4004F91
:102CB0000ED1D0F8003B8A68C2F30A02C97842EA12
:102CC0008142134343F0805343F40043C0F8003B78
:102CD000002070BC7047D0F81C4803F00F06B240CB
:102CE00092B22243C0F81C2800EB4310D0F8002910
:102CF00012F4004FECD1D0F800298C68C4F30A0418
:102D0000C97844EA814444EA8353134343F080532F
:102D100043F40043C0F80039DAE7000030B40B7820
:102D20004A78012A24D000EB4313D3F8002B002A61
:102D300050DBD0F83C580A7802F00F02012404FA64
:102D400002F225EA0242C0F83C28D0F81C28097893
:102D500001F00F018C4022EA0444C0F81C48D3F86B
:102D6000001B234A0A40C3F8002B002030BC7047E8
:102D700000EB4313D3F80029002A1EDBD0F83C589F
:102D80000A7802F00F02012404FA02F292B225EA54
:102D90000202C0F83C28D0F81C28097801F00F0185
:102DA0008C40A4B222EA0404C0F81C48D3F80019ED
:102DB000104A0A40C3F80029D7E7D3F8002942F0A7
:102DC0000062C3F80029D3F8002942F08042C3F81A
:102DD0000029D3E7D3F8002B42F00062C3F8002BA0
:102DE000D3F8002B42F08042C3F8002BA1E700BFCC
:102DF0000078F3EF007833EC70B40B784C78012C4A
:102E000026D000EB431000F530631C69E40CE404A9
:102E10001C611C6924F0FF5424F4C0141C614C692B
:102E20000CB18C684C611C6944F400241C611C6961
:102E30008D68C5F312052C431C61012A65D0D0F8BA
:102E4000003B43F00443C0F8003B002070BC7047D7
:102E50004C696CBB00EB4314D4F8105925F0FF55B6
:102E600025F4C015C4F81059D4F8105945F40025BC
:102E7000C4F81059D4F81059ED0CED04C4F81059E9
:102E8000012A33D000EB4313D3F8002942F0044267
:102E9000C3F800294B69002BD7D0D0F83428097823
:102EA00001F00F040121A1400A43C0F83428CCE707
:102EB00000EB431404F510642569ED0CED04256165
:102EC000256925F0FF5525F4C01525614E698D68EB
:102ED000AE4200D94D61256945F40025256125697B
:102EE0004E69C6F3120635432561C9E70A691AB16E
:102EF00000EB4311C1F8142900EB4310D0F800296E
:102F000042F00442C0F800299FE7CA68002A96D020
:102F10005A6194E770B49DF80C4064B903339D087E
:102F200007E000EB023303F5805351F8046B1E6099
:102F30000134AC42F5D3002070BC7047F0B583B0CB
:102F40000B784C78012C2BD000EB431303F5306445
:102F50002569ED0CED042561256925F0FF5525F463
:102F6000C01525614D69002D40F0C58025698E682A
:102F7000C6F3120635432561256945F40025256110
:102F8000012A00F0CD80CA78012A00F0CF80D3F862
:102F9000002B42F00442C3F8002B002003B0F0BD28
:102FA0004C6984BB00EB4314D4F8105925F0FF554D
:102FB00025F4C015C4F81059D4F8105945F400256B
:102FC000C4F81059D4F81059ED0CED04C4F8105998
:102FD000012A4CD000EB4313D3F8004944F00444D9
:102FE000C3F80049CC78012C6AD04B69002BD4D0AF
:102FF000D0F83428097801F00F040121A1400A43D8
:10300000C0F83428C9E700EB4314D4F81059ED0C8C
:10301000ED04C4F81059D4F8105925F0FF5525F4E3
:10302000C015C4F81059D4F810694D698F683D4433
:10303000013DB5FBF7F5474F07EAC5453543C4F8F1
:103040001059D4F810594E69C6F312063543C4F826
:10305000105904F51064CD78012DB9D1256925F0FA
:10306000C0452561256945F000552561B0E70A692D
:103070001AB100EB4314C4F81429CA78012A08D005
:1030800000EB4313D3F8002942F00442C3F80029AF
:1030900083E7D0F8082812F4807F08D100EB4311B1
:1030A000D1F8002942F00052C1F80029E8E700EB0E
:1030B0004311D1F8002942F08052C1F80029DFE71E
:1030C000D0F8084814F4807F0ED1D3F8004944F0BA
:1030D0000054C3F8004914460B46C9681A789B8A05
:1030E0000094FFF717FF58E7D3F8004944F08054E5
:1030F000C3F80049EFE78E683544013DB5FBF6F5AE
:103100002669144F07EAC5473E43266127698E6842
:10311000ADB206FB05F5C5F312053D4325612FE76A
:10312000CA68002A3FF42FAF62612CE7D0F8082864
:1031300012F4807F06D1D3F8002B42F00052C3F87E
:10314000002B24E7D3F8002B42F08052C3F8002B69
:103150001DE700BF0000F81F0332920800239342CE
:103160000BD210B400F58054246841F8044B0133AD
:103170009342F7D3084610BC7047084670470B7857
:103180004A78012A14D000EB4310D0F8002B002A13
:1031900006DB2BB1D0F8003B23F08043C0F8003BA6
:1031A000D0F8003B43F40013C0F8003B0020704708
:1031B00000EB4310D0F80029002A06DB2BB1D0F831
:1031C000003923F08043C0F80039D0F8003943F4C7
:1031D0000013C0F80039E9E70B784A78012A0ED0CD
:1031E00000EB4310D0F8003B23F40013C0F8003B81
:1031F000CB78023BDBB2012B15D90020704700EBE6
:103200004310D0F8003923F40013C0F80039CB780C
:10321000023BDBB2012BF0D8D0F8003943F08053E9
:10322000C0F80039E9E7D0F8003B43F08053C0F81C
:10323000003BE2E7D0F8003823F4FE63C0F8003822
:10324000D0F80038090101F4FE610B43C0F80038E2
:1032500000207047D0F8003E23F00303C0F8003E82
:10326000D0F8043823F00203C0F804380020704777
:10327000D0F8003E23F00303C0F8003ED0F8043835
:1032800043F00203C0F804380020704742698069A7
:1032900010407047D0F8183800F50060C069184039
:1032A000000C7047D0F8183800F50060C06918406D
:1032B00080B2704700EB4111D1F8082B00F5006097
:1032C00040691040704710B4D0F81048D0F8343836
:1032D00001F00F02D340DB01DBB2234300EB4110CE
:1032E00000F510608068184010BC7047406900F01D
:1032F00001007047D0F8003923F4FF6323F007037F
:10330000C0F80039D0F8043843F48073C0F80438AA
:103310000020704710B4046C144B9C4203D9D0F8C1
:10332000003B002B16DB0024C0F8104BD0F8104BEC
:1033300044F40024C0F8104BD0F8104B44F01804AB
:10334000C0F8104BD0F8104B44F0C044C0F8104BFC
:10335000012902D0002010BC7047C0F8142BD0F80F
:10336000003B43F08023C0F8003BF3E70A30544FA2
:103370002223038000487047080000202223038096
:10338000004870472C00002022230380004870472B
:1033900050000020D0F8BC320020187370470000A5
:1033A0000A230380004870477400002010B582B0E3
:1033B000D0F8BC420023ADF806300B7813F0600360
:1033C00025D0202B75D14B78023B092B1BD8DFE889
:1033D00003F014091A1A1A1A1A1A0F058B782360A7
:1033E000002069E00122214600F085FD002063E015
:1033F0004B881B0A636000205EE00122211D00F063
:103400007AFD002058E000F032FA032054E04B78B7
:103410000B2B4AD8DFE803F00652494949491549C0
:1034200049492E3D90F89C32032B06D102220DF122
:10343000060100F060FD00203EE000F018FA0320D5
:103440003AE04B881B0A222B0AD0212B0ED1CA88C6
:10345000092A28BF09221A4900F04DFD00202BE05F
:10346000CA884B2A28BF4B221649F5E700F0FFF91E
:10347000032021E090F89C32032B06D1012204F1B5
:10348000080100F038FD002016E000F0F0F90320FC
:1034900012E090F89C32032B03D18B78A3600020BC
:1034A0000AE000F0E4F9032006E000F0E0F9032070
:1034B00002E000F0DCF9032002B010BD0020FBE7C1
:1034C000CC0000208000002010B50446812101F0CE
:1034D000CBFE002323876387D4F8BC0220B101F020
:1034E000E7FF0023C4F8BC32002010BD38B5044605
:1034F000102001F0D5FF88B10546C4F8BC02237C3A
:103500008BB907236387042303228121204601F01E
:10351000A0FE012323870020287338BD0023C4F8B0
:10352000BC320220F9E70A236387ECE738B5D0F80C
:10353000BC5290F89C42032C01D0002038BD2B7B5C
:10354000002BFAD113460A4601212973812101F08B
:10355000ABFEF2E7C0B108B50346D0F8B80210B12F
:103560000020C3F8B802D3F8CC0210B10020C3F891
:10357000CC0209B1C3F8B4121846012380F89C327A
:10358000027001F0D7FD08BD0320704710B582B06E
:103590000023ADF8063059B10446C4F8B8128B6A5E
:1035A0000DF106009847C4F8CC02002002B010BD0F
:1035B0000320FBE708B501F044FE08BD08B5D0F8CC
:1035C000B83213B11B68984708BD0320FCE708B563
:1035D000D0F8B8320BB15B689847002008BD38B509
:1035E000044600F2AA25284600F02DF90123C4F86C
:1035F0009432B4F8B032C4F8983294F8AA1201F0B8
:103600001F03012B0DD03BB1022B0FD001F0800125
:10361000204601F031FE03E02946204600F0DFFAA3
:1036200038BD2946204600F015FBF9E7294620461B
:1036300000F044FBF4E710B5044629BB1346D0F86C
:103640009422032A01D0002029E0D0F85C11D0F8A0
:10365000602191420DD8D0F8B8321B6923B190F89F
:103660009C22032A00D19847204600F061FC0020EC
:1036700015E0891AC0F85C118A4228BF0A4619462B
:1036800000F04EFC00200AE00A46D0F8B8329B69F0
:1036900033B190F89C12032904D11146984710BD0C
:1036A0000320FCE70320FAE710B50446002946D1C1
:1036B0001346D0F89422022A05D094F8A032012BA8
:1036C00039D0002046E0C269016A8A4213D88A4292
:1036D0001DD0D4F8B832DB682BB194F89C22032AB1
:1036E00001D1204698478021204601F0C5FD2046A3
:1036F00000F029FCE1E7521AC261194600F008FC0B
:1037000000231A461946204601F0D6FDD5E7836905
:103710009942DED8D0F898229342DAD2002211469C
:1037200000F0F6FB0021C4F898120B460A4620462A
:1037300001F0C2FDC1E7002084F8A0020AE00A46B9
:10374000D0F8B8325B6933B190F89C12032904D1E8
:103750001146984710BD0320FCE70320FAE770B537
:103760000446012380F89C320023C0F89432436061
:10377000C0F8A432D0F8BC3223B1D0F8B8325B68BC
:1037800000219847402300221146204601F061FDA8
:103790000126A4F864614025C4F860512B4600223C
:1037A0008021204601F055FDA6842562002070BDD1
:1037B00001740020704790F89C3280F89D320423F9
:1037C00080F89C320020704790F89C32042B01D086
:1037D0000020704790F89D3280F89C32F8E708B5D9
:1037E00090F89C32032B01D0002008BDD0F8B832ED
:1037F000DB69002BF8D09847F6E7002070470020DF
:1038000070470020704708B5012380F89C32D0F83B
:10381000B83213B15B6801799847002008BD0023D6
:1038200002E00133DBB201300278002AF9D11846F8
:10383000704708B54B88012B00D008BDC0F8A432F2
:1038400000F076FBF9E70B7803704B7843708B78C8
:10385000CA7843EA022343800B794A7943EA022378
:1038600083808B79CA7943EA0223C380704710B5FD
:103870000446802101F000FD0021204601F0FCFCFF
:1038800010BD30B583B004460D460023ADF80630B8
:103890004A88130A013B0E2B00F2BC80DFE803F0DC
:1038A000153044BABA9EABBABABABABABABA0800B4
:1038B000D0F8B432DB6923B10DF10601007C9847E2
:1038C0000AE02946FFF7D3FF18E0D0F8B4321B68AE
:1038D0000DF10601007C9847EA88002A00F0A380D9
:1038E000BDF80630002B00F099809A4228BF1A4696
:1038F000ADF806200146204600F0FDFA03B030BDC9
:10390000037C43B9D0F8B8329B6A0DF106009847A2
:1039100002234370E0E7D0F8B832DB6A0DF106000D
:10392000984702234370D7E7D2B2052A52D8DFE87E
:1039300002F003101D2A3744D0F8B4325B6823B17B
:103940000DF10601007C9847C6E72946FFF78FFF77
:10395000D4E7D0F8B4329B6823B10DF10601007CA6
:103960009847B9E72946FFF782FFC7E7D0F8B43296
:10397000DB6823B10DF10601007C9847ACE72946CE
:10398000FFF775FFBAE7D0F8B4321B6923B10DF128
:103990000601007C98479FE72946FFF768FFADE7DF
:1039A000D0F8B4325B6923B10DF10601007C984771
:1039B00092E72946FFF75BFFA0E7D0F8B4329B6996
:1039C00023B10DF10601007C984785E72946FFF7F2
:1039D0004EFF93E72946FFF74AFF8FE7037C33B991
:1039E000D0F8B8325B6B0DF10600984774E72946B2
:1039F000FFF73DFF82E7037C43B9D0F8B8321B6B79
:103A00000DF1060098470723437065E72946FFF745
:103A10002EFF73E72946FFF72AFF6FE72946204666
:103A2000FFF725FF6AE7204600F082FA66E738B51F
:103A300004468B88F3B9CB88E3B94B887F2B19D820
:103A400003F07F0590F89C32032B0CD080F89E5237
:103A5000294601F021FC204600F06AFA35B1022324
:103A600084F89C3209E0FFF702FF06E0012384F8A6
:103A70009C3202E02046FFF7FAFE38BD70B50446DE
:103A80000D4689782E4B197001290FD890F89C3279
:103A9000022B11D0032B25D02946FFF7E8FE284B37
:103AA00019782046FFF793FD032603E02946FFF728
:103AB000DEFE0326304670BD81B14160FFF77EFD1A
:103AC000064620B129462046FFF7D1FEF2E7204600
:103AD00000F02EFA032384F89C32EBE700F028FA7A
:103AE0000026E7E7C9B14368994225D0D9B2FFF76C
:103AF0006EFD134B197861602046FFF75FFD0646A7
:103B0000B0B129462046FFF7B2FE21792046FFF7E3
:103B10005EFD022384F89C32CCE7022380F89C32BD
:103B20004160FFF754FD204600F002FA0026C1E78D
:103B3000204600F0FDF9BDE700F0FAF90026B9E7EC
:103B4000F401002008B5CB88012B0BD190F89C32F2
:103B50009BB1022B09D9032B0FD10122011D00F0CB
:103B6000CAF901E0FFF783FE08BD0146002341F8D2
:103B7000083F012200F0BFF9F6E7FFF778FEF3E710
:103B800008B590F89C32013B022B12D8CB88022B4F
:103B90000CD10123C360D0F8A4320BB10323C3605E
:103BA000022200F10C0100F0A6F908BDFFF75FFE4C
:103BB000FBE7FFF75CFEF8E708B590F89C32013BA5
:103BC000022B09D84B88012B00D008BD0023C0F878
:103BD000A43200F0ADF9F8E7FFF749FEF5E708B5C4
:103BE0000B7803F06003202B06D0402B04D043B1A8
:103BF000FFF73DFE002003E0D0F8B8329B689847FD
:103C000008BD4B78092B21D8DFE803F0141C2018DD
:103C100020090520100DFFF734FE0020F0E7FFF724
:103C200006FF0020ECE7FFF729FFE9E7FFF78AFF2F
:103C30000020E5E7FFF7A4FF0020E1E7FFF7F9FD2B
:103C40000020DDE7FFF7B8FF0020D9E7FFF70FFE00
:103C50000020D5E770B505460C460B7803F06003ED
:103C6000202B07D0402B05D023B1FFF700FE002604
:103C7000304670BD95F89C32013B022B18D8237951
:103C8000012B0FD8D5F8B8329B68214628469847B3
:103C90000646E388002BEBD10028E9D1284600F046
:103CA00047F9E5E721462846FFF7E1FD0026DFE773
:103CB00021462846FFF7DBFD0026D9E738B5054643
:103CC0000C468A880B7803F06003202B08D0D1B211
:103CD000402B05D05BB12146FFF7C9FD002005E070
:103CE000D5F8B8329B6821462846984738BD637896
:103CF000012B2FD0002B5ED0032B40F0D98090F801
:103D00009C32022B06D0032B15D02146FFF7AFFDC6
:103D10000020EBE709B1802905D121462846FFF7AD
:103D2000A6FD0020E2E701F0A7FA8021284601F075
:103D3000A3FA0020DAE7638823B919B1802901D0FA
:103D4000E38823B1284600F0F3F80020CEE701F025
:103D500093FAF7E790F89C32022B06D0032B15D08C
:103D60002146FFF784FD0020C0E709B1802905D175
:103D700021462846FFF77BFD0020B7E701F07CFADB
:103D80008021284601F078FA0020AFE76388002BF5
:103D900040F0938011F07F0F0AD1284600F0C8F858
:103DA000D5F8B8329B6821462846984700209DE701
:103DB00001F06AFAF1E790F89C32022B06D0032B4F
:103DC0002AD02146FFF753FD00208FE709B1802953
:103DD00013D112F0800F15D101F07F0101EB8101A9
:103DE0008B0003F5A8712944043100240C600222E1
:103DF000284600F080F8204678E72146FFF737FD97
:103E0000002073E701F07F0101EB81018B0003F1DA
:103E1000100129440431E8E752B2002A1FDB01F007
:103E20000F0303EB830398002844B0F864312BB3ED
:103E3000002A29DB01F07F0202EB8202930003F5E6
:103E4000A8742C44043409B1802927D100232360AD
:103E500002222146284600F04EF8002046E701F0F5
:103E60000F0303EB830398002844838C002BDFD1DE
:103E700021462846FFF7FBFC002037E7214628466D
:103E8000FFF7F5FC002031E701F07F0202EB820230
:103E9000930003F110042C440434D4E7284601F0C5
:103EA0007DF910B101232360D2E700232360CFE71F
:103EB0002146FFF7DCFC002018E7002016E7C8B118
:103EC00070B50D4616460446FFF7A9FC01304000C8
:103ED0003080287003236B70022307E0EA5401341A
:103EE0005A1CD2B20021A9540233DBB22278002A34
:103EF000F4D170BD704710B513460222C0F8942269
:103F00008361C3610A46002101F0CEF9002010BD93
:103F100008B513460A46002101F0C6F9002008BD85
:103F200008B513460A46002101F0C6F9002008BD75
:103F300008B50423C0F8943200231A46194601F04C
:103F4000B3F9002008BD08B50523C0F8943200235A
:103F50001A46194601F0B0F9002008BD08B530B97D
:103F6000064B002219885868FCF7D6FC08BD034BA5
:103F7000012219885868FCF7CFFCF7E7F801002008
:103F800008B530B9064B002219895868FCF7C4FC03
:103F900008BD034B012219895868FCF7BDFCF7E7FF
:103FA000F801002010B582B004460020FFF7D6FFCC
:103FB00004F01F0402A901F8044D0A4C64230122F5
:103FC0002046FEF727F9642301220DF10501204662
:103FD000FEF704FB9DF805400120FFF7BFFF2046D8
:103FE00002B010BD0402002070B582B004460D4638
:103FF00016460020FFF7B2FF04F01F0402A901F8E3
:10400000044D084C642301222046FEF703F9642383
:10401000324629462046FEF7E1FA0120FFF79EFFCF
:1040200002B070BD0402002030B583B004460D46D6
:104030000020FFF793FF44F020048DF804408DF832
:1040400005506423022201A90348FEF7E3F801208A
:10405000FFF784FF03B030BD0402002070B582B0CA
:1040600004460D4616460020FFF778FF44F0200472
:1040700002A901F8044D084C642301222046FEF7F2
:10408000C9F86423324629462046FEF7C3F80120CA
:10409000FFF764FF02B070BD0402002008B5FF21E5
:1040A000E120FFF7C1FF08BD08B5FF21E220FFF7BF
:1040B000BBFF08BD08B50720FFF774FF08BD00006F
:1040C00008B50020FFF76EFF40F00301C9B20020E1
:1040D000FFF7AAFF094BD3E91A23134307D1FFF7D0
:1040E000DDFFFFF7E1FF0120FFF74AFF08BD0522D2
:1040F00003490A20FFF7B2FFF1E700BFF8010020F3
:104100006002002008B50020FFF73AFFFFF7C6FF66
:10411000FFF7CAFF08BD000010B582B0CDE900234B
:10412000044620B9154BDDE90001C3E91A01062C4C
:104130001AD8012C1AD901226946114B185DFFF7D4
:104140008DFF0F4B23440D4A92F87010187AFFF739
:104150006BFF0220FFF726FF40B20121A14001437F
:10416000C9B20220FFF760FF02B010BD0522694608
:10417000034B185DFFF772FFE3E700BFF801002073
:10418000F85C000808B501F00F0141EA0011C9B25E
:104190000420FFF749FF08BD08B501467F2828BF66
:1041A0007F210520FFF740FF08BD0000202828BF21
:1041B0002020024B83F87000704700BFF8010020F8
:1041C000014B93F870007047F801002070B582B081
:1041D00006460D46FFF7F4FF0446A84217D8002014
:1041E000FFF7BCFE02A9612301F8013D094D6423DC
:1041F00001222846FEF70EF86423A2B23146284673
:10420000FEF7ECF90120FFF7A9FE02B070BD2C46C5
:10421000E5E700BF0402002008B56020FFF7C2FEFA
:1042200008BD10B5FFF7D2FF1720FFF7BBFE00F067
:104230000104FFF739FFFFF7EFFF204610BD08B577
:104240001D20FFF7AFFE00F0FB011D20FFF7ECFE85
:1042500000211C20FFF7E8FE08BD08B520B90021A9
:104260000120FFF7E1FE08BD3F210120FFF7DCFE42
:10427000F9E710B504460620FFF794FE00F0F901B7
:10428000032C09D0022C0DD0012C0ED034B1042CFB
:1042900004D141F0060101E041F006010620FFF7DC
:1042A000C3FE10BD41F00401F8E741F00201F5E75B
:1042B00038B505460620FFF775FE00F0D704022D3D
:1042C0000CD0012D0DD021460620FFF7ADFE0620B3
:1042D000FFF768FEA04207D0002038BD44F020045C
:1042E000F1E744F00804EEE70120F6E710B50446D4
:1042F0000020FFF757FE00F0F3011CB1012C05D0A0
:1043000041F00C010020FFF78FFE10BD41F00801C5
:10431000F8E708B50020FFF745FE00F0FD0100209A
:10432000FFF782FE08BD70B50646FFF7C3FE00F03A
:104330004003002B14BF012500250BD0044616B105
:10434000C0F34203337040210720FFF76DFE14F0E5
:10435000200F01D1284670BD20210720FFF764FE01
:10436000F8E708B50020FFF7DEFF08BD08B57021AB
:104370000720FFF759FE08BD00B583B00020FFF706
:10438000EDFD50238DF8043073238DF80530642340
:10439000022201A90448FDF73DFF0120FFF7DEFDE1
:1043A00003B05DF804FB00BF0402002070B5A0B0AC
:1043B00007ACC44D0FCD0FC40FCD0FC40FCD0FC42C
:1043C0002B6824F8023B1B0C237007A8FCF7A0F80D
:1043D0000A2382B207A9BC48FEF7E2F90020FFF7E2
:1043E000E1FD10F0080F00F0618210F0040F00F002
:1043F000518207ACB54D0FCD0FC495E8070084E896
:10440000070007A8FCF784F8AF4C0A2382B207A97B
:104410002046FEF7C5F90120FFF7C4FDC0F34013A5
:104420000393C0F300130293C0F3C0030193C0F3DE
:1044300080030093C0F3400300F00102A44907A8E1
:1044400001F00AF907A8FCF763F80A2382B207A96A
:104450002046FEF7A5F90220FFF7A4FDC0F34013A4
:104460000393C0F300130293C0F3C0030193C0F39E
:1044700080030093C0F3400300F00102954907A8B0
:1044800001F0EAF807A8FCF743F80A2382B207A96B
:104490002046FEF785F90320FFF784FD00F00302B4
:1044A00002328D4907A801F0D7F807A8FCF730F8C9
:1044B0000A2382B207A92046FEF772F90520FFF70A
:1044C00071FD00F07F02854907A801F0C5F807A833
:1044D000FCF71EF80A2382B207A92046FEF760F90E
:1044E0000620FFF75FFD044610F0080F00F0E5819D
:1044F00007AD7B4E0FCE0FC596E8030045F8040BC1
:1045000025F8021B090C297007A8FCF701F80A23FB
:1045100082B207A96C48FEF743F9C4F34104002CAA
:1045200000F0D881012C00F0DC81022C00F0E08149
:10453000032C00F0E78107A8FBF7EAFF624C0A238F
:1045400082B207A92046FEF72BF9052205A90A2009
:10455000FFF74AFD9DF818209DF817309DF81610BA
:104560009DF815009DF814500295019000915D4949
:1045700007A801F071F807A8FBF7CAFF0A2382B267
:1045800007A92046FEF70CF9052205A90B20FFF725
:104590002BFD9DF818209DF817309DF816109DF8FA
:1045A00015009DF814500295019000914E4907A8FE
:1045B00001F052F807A8FBF7ABFF0A2382B207A964
:1045C0002046FEF7EDF8012205A90C20FFF70CFDAF
:1045D0009DF81420454907A801F03EF807A8FBF70D
:1045E00097FF0A2382B207A92046FEF7D9F80122D5
:1045F00005A90D20FFF7F8FC9DF814203C4907A8F9
:1046000001F02AF807A8FBF783FF0A2382B207A963
:104610002046FEF7C5F8012205A90E20FFF7E4FCAD
:104620009DF81420334907A801F016F807A8FBF7F6
:104630006FFF0A2382B207A92046FEF7B1F80122D4
:1046400005A90F20FFF7D0FC9DF814202A4907A8E0
:1046500001F002F807A8FBF75BFF0A2382B207A963
:104660002046FEF79DF8052205A91020FFF7BCFCA7
:104670009DF818209DF817309DF816109DF815002C
:104680009DF814500295019000911C4907A800F074
:10469000E3FF07A8FBF73CFF0A2382B207A92046E5
:1046A000FEF77EF81120FFF77DFC00F03F02144971
:1046B00007A800F0D1FF07A8FBF72AFF0A2382B260
:1046C00020E000BF205D00086C020020545D00085F
:1046D000A05D0008E45D0008305E00084C5E000844
:1046E000605E0008E05E0008105F0008405F0008A0
:1046F000685F0008905F0008B85F0008E05F00088E
:104700000C60000807A92046FEF74AF81220FFF7C0
:1047100049FC00F03F028A4907A800F09DFF07A866
:10472000FBF7F6FE0A2382B207A92046FEF738F807
:104730001320FFF737FC00F03F02824907A800F082
:104740008BFF07A8FBF7E4FE0A2382B207A92046E5
:10475000FEF726F81420FFF725FC00F03F027A4907
:1047600007A800F079FF07A8FBF7D2FE0A2382B260
:1047700007A92046FEF714F81520FFF713FC00F0F8
:104780003F02724907A800F067FF07A8FBF7C0FEC9
:104790000A2382B207A92046FEF702F81620FFF787
:1047A00001FC00F03F026A4907A800F055FF07A886
:1047B000FBF7AEFE0A2382B207A92046FDF7F0FF01
:1047C0001C20FFF7EFFBC0F340130393C0F300136B
:1047D0000293C0F3C0030193C0F380030093C0F3BE
:1047E000400300F001025B4907A800F035FF07A86D
:1047F000FBF78EFE0A2382B207A92046FDF7D0FF01
:104800001D20FFF7CFFB064610F0040F00F081805B
:1048100007AC514D0FCD0FC495E8030044F8040BCD
:10482000218007A8FBF774FE0A2382B207A94B4830
:10483000FDF7B6FF16F0020F78D107AC484D0FCD4B
:104840000FC495E8070003C424F8022B120C227051
:1048500007A8FBF75DFE414E0A2382B207A9304646
:10486000FDF79EFF07AC3F4D0FCD0FC40FCD0FC41A
:104870000FCD0FC42B6824F8023B1B0C237007A834
:10488000FBF746FE0A2382B207A93046FDF788FFF0
:1048900020B070BD07AC344D0FCD0FC495E80700B4
:1048A00003C424F8022B120C2270AAE507AC2F4D8A
:1048B0000FCD0FC42B682360A3E507AD2C4E0FCEA0
:1048C0000FC596E8030045F8040B25F8021B090CF8
:1048D000297019E607AC274D0FCD0FC42B68236054
:1048E00029E607AC244D0FCD0FC42B68236022E6C8
:1048F00007AC224D0FCD0FC42B6824F8023B1B0CD4
:10490000237018E607AC1E4D0FCD0FC42B68238013
:1049100011E607AC1B4D0FCD0FC495E8030044F81A
:10492000040B24F8021B090C21707AE707AC164D22
:104930000FCD0FC495E8070003C4228088E700BFAD
:104940002860000844600008606000087C6000087F
:1049500098600008B4600008006100086C02002044
:104960004C610008205D0008705D00088C5D000847
:10497000785E0008905E0008A45E0008B85E00083B
:10498000CC5E0008186100083061000882B0F0B504
:1049900083B007460E46154608A941F8043F604C0F
:1049A000582204F10C0000F08BFD67602680258101
:1049B0000120FFF7D3FA0020FFF7E2FA0520FBF70A
:1049C0004FFE08210020FFF72FFB3F210120FFF7BA
:1049D0002BFB03210220FFF727FB03210846FFF7EB
:1049E00023FB03210420FFF71FFB02210520FFF713
:1049F0001BFB0F210620FFF717FB0E210720FFF7F7
:104A000013FB00210820FFF70FFB00210920FFF70F
:104A10000BFBE7248DF804408DF803408DF802402D
:104A20008DF8014002AD05F8084D052229460A20FF
:104A3000FFF714FBC2238DF804308DF803308DF896
:104A400002308DF801308DF80030052229460B2008
:104A5000FFF704FBC3210C20FFF7E6FAC4210D2069
:104A6000FFF7E2FAC5210E20FFF7DEFAC6210F207C
:104A7000FFF7DAFA8DF804408DF803408DF8024014
:104A80008DF801408DF80040052229461020FFF7DF
:104A9000E5FA00211120FFF7C7FA00211220FFF7E5
:104AA000C3FA00211320FFF7BFFA00211420FFF7FB
:104AB000BBFA00211520FFF7B7FA00211620FFF7F7
:104AC000B3FAFFF759FC00211C20FFF7ADFA0021D3
:104AD0001D20FFF7A9FAFFF769FC0F210846FFF731
:104AE00051FB0320FFF7C5FB0120FFF7E1FB02208C
:104AF000FFF7FCFBFFF7A3FB2020FFF757FBFFF7B7
:104B000035FC4C20FFF748FBFFF7C8FAFFF7CCFA5B
:104B1000FFF7FFFB03B0BDE8F04002B0704700BFF5
:104B2000F8010020F0B58BB000240594069407949A
:104B3000089409940194294B1A6B42F004021A63F9
:104B40001A6B02F004020192019A02941A6B42F06D
:104B500080021A631A6B02F080020292029A039496
:104B60001A6B42F001021A631A6B02F001020392FF
:104B7000039A04941A6B42F002021A631B6B03F04F
:104B800002030493049B164F224620213846FBF76C
:104B9000C3FE144D224630212846FBF7BDFE4FF4DC
:104BA00000530593104B0693079405A92846FBF77D
:104BB000D5FD20230593012606960794089405A9A0
:104BC0003846FBF7CBFD30230593069607940894EF
:104BD00005A92846FBF7C2FD0BB0F0BD0038024026
:104BE00000000240000802400000211008B50C48F7
:104BF0000C4B03604FF48273436000238360C360F7
:104C0000036143614FF4007282612022C26103623A
:104C1000436283620A23C362FDF7BCFA08BD00BF8A
:104C200098050020003C0040F8B506460F461546A2
:104C30001C46FFF767FA0120FFF70FFB2846FFF736
:104C4000ABFA9DF81800FFF7B1FA32463B46204612
:104C5000FFF762FA0220FFF72BFBFFF731FAF8BDEE
:104C6000014B1870704700BF90050020014B597030
:104C70009870704790050020014BD97018717047EB
:104C80009005002010B50378012B0AD00446022BB2
:104C90000CD0032B0FD0042B12D0052B15D00020E5
:104CA00010BD0120FFF7DCFF0120F9E70220FFF72C
:104CB000D7FF0120F4E70020FFF7D2FF0120EFE744
:104CC0000020FFF7CDFF0120EAE740780F280DD83C
:104CD000E3780F2B01D90020E2E7A178FFF7C6FFA8
:104CE0002179E078FFF7C8FF0120D9E70020D7E756
:104CF00080B500AFCB1D03F4FC73ADEB030D68462C
:104D0000FFF78FFA6846FFF7BDFFBD4680BD000084
:104D100030B5ADB0342200211FA800F0DCFB002428
:104D20001A941B941C941D941E945C22214603A883
:104D300000F0D1FB0194204B1A6C42F080521A64AF
:104D40001B6C03F080530193019B02941B4B1A6868
:104D500042F440421A601B6803F440430293029BF2
:104D600001231F934FF4A0232093022525954FF490
:104D70008003269304232793A823289329950723A8
:104D80002A932B951FA8FCF75BFF0F231A931B9503
:104D90001C944FF4A0531D934FF480531E93052190
:104DA0001AA8FCF797FB4FF480730393189403A899
:104DB000FCF746FC2DB030BD0038024000700040CA
:104DC00000B597B0FBF720FCFFF7A2FFFFF7AAFEA4
:104DD000FFF70CFF00F0DAF8194C5422211D684649
:104DE00000F06EFB2368202210211648FFF7CEFD4D
:104DF00005230093012378220FA1D1E90001FFF7D9
:104E000013FF114B00221A705A709A70DA701A71DF
:104E10005A719A71FFF7A5FA0028FBD005210120ED
:104E2000FFF766FF0028F5D0072207490748FEF77D
:104E30007DFBEFE7AFF30080AA44332211000000AE
:104E4000980500200008024090050020C0020020C4
:104E50007047000000B583B0002100910C4B5A6CE4
:104E600042F480425A645A6C02F480420092009AE2
:104E700001911A6C42F080521A641B6C03F080534B
:104E80000193019B0720FBF7FFFB03B05DF804FBD8
:104E900000380240F0B589B00023039304930593D2
:104EA0000693079302681A4B9A4201D009B0F0BDED
:104EB0000024019403F5FE331A6C42F400421A6494
:104EC0001A6C02F400420192019A02941A6B42F0A9
:104ED00004021A631B6B03F004030293029B022576
:104EE000039504950327069705230793094E03A905
:104EF0003046FBF733FC4FF440630393049505946D
:104F000006970623079303A93046FBF727FCCDE756
:104F1000003C0040000802407047FEE7FEE7FEE765
:104F2000FEE770477047704708B5FBF787FB08BD81
:104F300008B50248FBF7C2FE08BD00BF30060020DE
:104F400008B503460B4A126842B10A4A1068034486
:104F50006A46934206D8074A136008BD054A0649C7
:104F60001160F2E700F072FA0C2303604FF0FF309B
:104F7000F3E700BFAC020020400C0020024B4FF0D2
:104F800000629A60704700BF00ED00E008B50022A3
:104F90000B490C48FEF7DEFA48B90B490948FEF701
:104FA000F5FA38B90748FEF705FB30B908BDFFF739
:104FB0004FFFF2E7FFF74CFFF4E7FFF749FFF5E794
:104FC00054010020C0020020D800002030B589B074
:104FD0000023039304930593069307930368B3F1A7
:104FE000A04F01D009B030BD00250195164C236BB0
:104FF00043F001032363236B03F001030193019B3F
:105000004FF4C053039302230493032306930A230C
:10501000079303A90D48FBF7A1FB636B43F08003E3
:1050200063630295636C43F480436364636C03F4CD
:1050300080430293029B2A4629464320FBF736FB16
:105040004320FBF767FBCDE7003802400000024039
:1050500008B500F57171D0F80404FEF7C0FA08BD78
:1050600008B5C1EBC10293000344D3F80822D0F87D
:105070000404FEF7E0FA08BD08B5C1EBC1029300D5
:1050800003449A6CD0F80404FEF70EFB08BD08B583
:10509000D0F80404FEF7A3FB08BD10B50446C368AE
:1050A0002BB1022B0DD0FFF7D3FE012100E0002130
:1050B000D4F80404FEF77CFBD4F80404FEF74FFB9D
:1050C00010BD0121F4E7000010B50446D0F8040437
:1050D000FEF771FB2268D2F8003E43F00103C2F8EC
:1050E000003E236A23B1034A136943F006031361A8
:1050F00010BD00BF00ED00E008B5D0F80404FEF7D5
:1051000063FB08BD08B5D0F80404FEF778FB08BDC2
:1051100008B5D0F80404FEF770FB08BD08B5D0F858
:105120000404FEF76EFB08BD08B5D0F80404FEF7D2
:105130006AFB08BD03780BB10020704710B5034629
:105140001548C0F80434C3F8C4024FF0A04303600C
:10515000062343600222C260002303618261C361AF
:1051600003624362C3620363FBF746FC80B90A4CE7
:1051700080212046FCF797F9402200212046FCF7C9
:105180006EF9802201212046FCF769F9002010BD4C
:10519000FFF75EFEEBE700BF30060020D0F8C43218
:1051A00011F0800F08D101F07F01C1EBC1018A002D
:1051B000134493F8FE01704701F07F01C1EBC10178
:1051C0008A00134493F83E007047000010B504466F
:1051D00011B1012916D010BD036A5BB92268D2F85B
:1051E000003E23F00103C2F8003ED4F80404FEF7A9
:1051F000EBFAF0E7FFF78CFD0C4A136923F0060386
:105200001361EBE70268D2F8003E43F00103C2F8F5
:10521000003ED0F80404FEF7CEFA236A002BDAD061
:10522000024A136943F006031361D4E700ED00E07E
:1052300018B1022803D003207047002070470120D6
:10524000704708B5D0F8C402FBF76EFCFFF7F0FF1B
:1052500008BD10B51C4613462246D0F8C402FBF721
:10526000B6FFFFF7E5FF10BD08B5D0F8C402FBF7A5
:10527000EFFFFFF7DDFF08BD08B5D0F8C402FCF76B
:1052800076F8FFF7D5FF08BD08B5D0F8C402FCF7E3
:10529000AFF8FFF7CDFF08BD08B5D0F8C402FBF7A3
:1052A00082FFFFF7C5FF08BD08B5D0F8C402FCF7C0
:1052B00034F8FFF7BDFF08BD08B5D0F8C402FBF70E
:1052C000FEFFFFF7B5FF08BD12230B8000487047B3
:1052D0001401002004230B8000487047280100209F
:1052E0000C230B80004870472C01002000239342C0
:1052F00016D230B40BE0373401F8134000015C00E3
:10530000013400250D550133DBB2934206D2040F60
:10531000092CF0D8303401F81340EFE730BC704767
:105320007047000038B50B4B186804331C68043311
:105330001B68C01800D138BD074D082205F12601B1
:10534000FFF7D4FF042205F136012046FFF7CEFF18
:10535000F1E700BF107AFF1F1401002008B51A23DF
:105360000B80FFF7DFFF014808BD00BF38010020B8
:1053700008B50A4628B105490548FEF7A0FD0348CF
:1053800008BD02490248FEF79AFDF8E7380A0020F6
:105390006462000810B5044C0A4621460348FEF733
:1053A0008EFD204610BD00BF380A00207C62000838
:1053B00008B50A4628B105490548FEF780FD0348AF
:1053C00008BD02490248FEF77AFDF8E7380A0020D6
:1053D0009062000808B50A4628B105490548FEF75D
:1053E0006EFD034808BD02490248FEF768FDF8E774
:1053F000380A00209C620008DFF834D0002103E066
:105400000C4B5B58435004310B480C4B42189A42EA
:10541000F6D30B4A02E0002342F8043B094B9A42C0
:10542000F9D3FFF7ABFD00F017F8FFF7C9FC7047A1
:1054300000000220F062000800000020D8010020D7
:10544000D80100203C0C0020FEE70000014B18684A
:10545000704700BF7401002070B50D4E0D4CA41BA9
:10546000A4100025A54209D10B4E0C4C00F038FCCD
:10547000A41BA4100025A54205D170BD56F8253007
:1054800098470135EEE756F8253098470135F2E7A1
:10549000E8620008E8620008E8620008EC620008C0
:1054A000024B0146186800F06DB800BF740100207F
:1054B000024B0146186800F017B800BF74010020C5
:1054C00010B5431E0A44914200D110BD11F8014BA2
:1054D00003F8014FF7E702440346934200D17047B7
:1054E00003F8011BF9E7000038B50546002945D04F
:1054F00051F8043C0C1F002BB8BFE41800F0CCF8A6
:105500001F4A1368104633B9636014602846BDE82B
:10551000384000F0C2B8A3420CD921686218934207
:1055200004BF1A685B68636004BF5218226004609D
:10553000ECE713465A680AB1A242FAD9196858181A
:10554000A0420BD120680144581882421960DDD175
:10555000106852685A6001441960D7E702D90C23D9
:105560002B60D3E7206821188A4204BF1168526873
:10557000626004BF091821605C60C7E738BD00BFE6
:10558000B402002070B5CD1C25F0030508350C2DA4
:1055900038BF0C25002D064601DBA94203D90C2398
:1055A0003360002070BD00F077F8214A146821466E
:1055B00091B9204C23681BB9304600F03DF82060BB
:1055C0002946304600F038F8431C24D10C233360C0
:1055D000304600F062F8E4E70B685B1B18D40B2B35
:1055E0000FD90B60CD50CC18304600F056F804F1BE
:1055F0000B00231D20F00700C31AD3D05A42E250FB
:10560000D0E78C424B6816BF636013600C46EBE733
:105610000C464968CCE7C41C24F00304A04205D022
:10562000211A304600F008F80130CFD02560DBE7C2
:10563000B4020020B802002038B5064C002305460D
:1056400008462360FFF77CFC431C02D1236803B1AA
:105650002B6038BD380C00200EB400B59CB01DABDB
:10566000029006906FF000410948079104910949A2
:1056700053F8042B05910068019302A900F068F823
:10568000029B00221A701CB05DF804EB03B0704757
:10569000740100200802FFFF704770472DE9F047B2
:1056A0008E689E4282460C469046994637D88A8933
:1056B00012F4906F31D0256809696F1A6569022369
:1056C00005EB450595FBF3F509F101033B449D42CC
:1056D00038BF1D46530530D52946FFF753FF064610
:1056E00050B90C23CAF80030A38943F04003A381CA
:1056F0004FF0FF30BDE8F0873A462169FFF7E0FE42
:10570000A38923F4906343F08003A381266165613C
:105710003E44ED1B2660A5604E464E4500D94E46E0
:1057200032464146206800F093FAA3689B1BA360B1
:1057300023681E4426600020DCE72A4600F0A1FA18
:1057400006460028E2D121695046FFF7CDFEC8E7A2
:105750002DE9F04F1D468B891F069DB080460C46F3
:1057600016460FD50B696BB94021FFF70BFF206080
:10577000206128B90C23C8F800304FF0FF30C8E092
:10578000402363610023099320238DF829303023BF
:105790008DF82A3003954FF0010B37463D4615F83A
:1057A000013B0BB1252B3ED1B7EB060A0BD053467C
:1057B000324621464046FFF771FF013000F0A480D9
:1057C000099B534409933B78002B00F09D800023F4
:1057D0004FF0FF32CDE90523049307938DF8533042
:1057E0001A932F46052217F8011B5048FAF798FE26
:1057F000049BD0B9D90644BF20228DF853201A0744
:1058000044BF2B228DF853202A782A2A15D0079AD4
:105810002F4600200A25394611F8013B303B092B61
:105820004DD9B8B10FE02F46B8E7404A801A0BFABD
:1058300000F0184304903D46D3E7039A111D126807
:105840000391002A01DB079204E0524243F0020375
:10585000079204933B782E2B0CD17B782A2B33D1E3
:10586000039B1A1D1B680392002BB8BF4FF0FF3338
:10587000023705932E4D397803222846FAF750FE59
:1058800038B14023401B03FA00F0049B0343013767
:105890000493397827488DF8281006227E1CFAF7E1
:1058A0003FFE002838D0244B13BB039B073323F063
:1058B000070308330393099B4B4409936DE705FBEA
:1058C000023201200F46A6E700230137059319464F
:1058D0000A25384610F8012B303A092A03D9002B43
:1058E000C8D00591C6E705FB012101230746F0E773
:1058F00003AB00932246114B04A94046AFF300804E
:10590000B0F1FF3F8146D6D1A3895B063FF535AFA5
:1059100009981DB0BDE8F08F03AB00932246074BFA
:1059200004A9404600F082F8EAE700BFAC62000834
:10593000B2620008B6620008000000009D56000830
:105940002DE9F04791461F468A680B69DDF82080F3
:105950009342B8BF1346C9F8003091F84320064679
:105960000C4612B10133C9F800302368990642BFD2
:10597000D9F800300233C9F80030256815F0060563
:1059800007D104F1190AE368D9F800209B1AAB4249
:1059900028DC94F843302268003318BF01239206B4
:1059A0002DD404F1430239463046C047013020D09F
:1059B0002368E568D9F8002003F00603042B08BF2C
:1059C000AD1AA36822690CBF25EAE575002593424C
:1059D000C4BF9B1AED184FF000091A344D451AD177
:1059E000002008E00123524639463046C0470130C6
:1059F00003D14FF0FF30BDE8F0870135C3E7E11870
:105A00005A1C302081F84300224494F8451082F853
:105A100043100233C5E70123224639463046C047CA
:105A20000130E6D009F10109D8E700002DE9F04383
:105A300001F1430C0C46097E85B06E2917460646D7
:105A400098460C9A00F0B38022D8632936D00AD841
:105A5000002900F0B980582900F0838004F1420544
:105A600084F8421032E0642901D06929F6D1206817
:105A70001368050603F104012AD51B681160002B89
:105A800003DA2D225B4284F843206F480A2239E072
:105A9000732900F09D8008D86F2920D07029DDD1AE
:105AA000236843F02003236003E0752917D0782989
:105AB000D4D1782384F84530644855E01368191D23
:105AC0001B68116004F1420584F8423001238CE028
:105AD0001B68116010F0400F18BF1BB2CFE71368AE
