:020000040800F2
:1000000000000220E54B00080547000807470008EC
:10001000094700080B4700080D47000800000000D2
:100020000000000000000000000000000F47000872
:10003000114700080000000013470008154700089A
:10004000354C0008354C0008354C0008354C00088C
:10005000354C0008354C0008354C0008354C00087C
:10006000354C0008354C0008354C0008354C00086C
:10007000354C0008354C0008354C0008354C00085C
:10008000354C0008354C0008354C0008354C00084C
:10009000354C0008354C0008354C0008354C00083C
:1000A000354C0008354C0008354C0008354C00082C
:1000B000354C0008354C0008354C0008354C00081C
:1000C000354C0008354C0008354C0008354C00080C
:1000D000354C0008354C0008354C0008354C0008FC
:1000E000354C0008354C0008354C0008354C0008EC
:1000F000354C0008354C0008354C0008354C0008DC
:10010000354C0008354C0008354C0008354C0008CB
:10011000354C0008354C0008354C0008354C0008BB
:10012000354C0008354C0008354C0008354C0008AB
:10013000354C00080000000000000000354C0008AD
:10014000354C0008354C0008354C00081D470008A8
:10015000354C0008354C0008354C0008354C00087B
:10016000354C0008354C0008354C0008354C00086B
:10017000354C0008354C0008354C000800000000E4
:1001800000000000354C00080000000000000000E6
:10019000354C00080000000000000000354C00084D
:1001A000000000000000000000000000354C0008C6
:1001B000354C0008354C0008354C0008354C00081B
:0401C000354C0008B2
:1001C80010B5054C237833B9044B13B10448AFF389
:1001D80000800123237010BDD8010020000000001A
:1001E800A461000808B5034B1BB103490348AFF3EA
:1001F800008008BD00000000DC010020A4610008A8
:1002080081F0004102E000BF83F0004330B54FEABF
:1002180041044FEA430594EA050F08BF90EA020F2C
:100228001FBF54EA000C55EA020C7FEA645C7FEABF
:10023800655C00F0E2804FEA5454D4EB5555B8BFE2
:100248006D420CDD2C4480EA020281EA030382EA53
:10025800000083EA010180EA020281EA0303362DE5
:1002680088BF30BD11F0004F4FEA01314FF4801CB8
:100278004CEA113102D0404261EB410113F0004FCA
:100288004FEA03334CEA133302D0524263EB430381
:1002980094EA050F00F0A780A4F10104D5F1200E1F
:1002A8000DDB02FA0EFC22FA05F2801841F100017A
:1002B80003FA0EF2801843FA05F359410EE0A5F14E
:1002C80020050EF1200E012A03FA0EFC28BF4CF07F
:1002D800020C43FA05F3C01851EBE37101F0004535
:1002E80007D54FF0000EDCF1000C7EEB00006EEB42
:1002F8000101B1F5801F1BD3B1F5001F0CD34908CC
:100308005FEA30004FEA3C0C04F101044FEA445222
:1003180012F5800F80F09A80BCF1004F08BF5FEAA9
:10032800500C50F1000041EB045141EA050130BD89
:100338005FEA4C0C404141EB010111F4801FA4F12C
:100348000104E9D191F0000F04BF01460020B1FA81
:1003580081F308BF2033A3F10B03B3F120020CDAB9
:100368000C3208DD02F1140CC2F10C0201FA0CF097
:1003780021FA02F10CE002F11402D8BFC2F1200CFC
:1003880001FA02F120FA0CFCDCBF41EA0C019040B2
:10039800E41AA2BF01EB0451294330BD6FEA0404FB
:1003A8001F3C1CDA0C340EDC04F11404C4F12002E6
:1003B80020FA04F001FA02F340EA030021FA04F3F8
:1003C80045EA030130BDC4F10C04C4F1200220FA4F
:1003D80002F001FA04F340EA0300294630BD21FA8D
:1003E80004F0294630BD94F0000F83F4801306BF53
:1003F80081F480110134013D4EE77FEA645C18BF47
:100408007FEA655C29D094EA050F08BF90EA020FDD
:1004180005D054EA000C04BF1946104630BD91EAD5
:10042800030F1EBF0021002030BD5FEA545C05D1D8
:100438004000494128BF41F0004130BD14F5800417
:100448003CBF01F5801130BD01F0004545F0FE418B
:1004580041F470014FF0000030BD7FEA645C1ABFC0
:10046800194610467FEA655C1CBF0B46024650EAF7
:10047800013406BF52EA033591EA030F41F4002123
:1004880030BD00BF90F0000F04BF0021704730B5A9
:100498004FF4806404F132044FF000054FF000017E
:1004A80050E700BF90F0000F04BF0021704730B53F
:1004B8004FF4806404F1320410F0004548BF404214
:1004C8004FF000013EE700BF42004FEAE2014FEA69
:1004D80031014FEA02701FBF12F07F4393F07F4F44
:1004E80081F06051704732F07F4208BF704793F047
:1004F8007F4F04BF41F40021704730B54FF460745A
:1005080001F0004521F000411CE700BF50EA01025C
:1005180008BF704730B54FF000050AE050EA010205
:1005280008BF704730B511F0004502D5404261EB75
:1005380041014FF4806404F132045FEA915C3FF4B6
:10054800D8AE4FF003025FEADC0C18BF03325FEA53
:10055800DC0C18BF033202EBDC02C2F1200300FA04
:1005680003FC20FA02F001FA03FE40EA0E0021FA29
:1005780002F11444BDE600BF70B54FF0FF0C4CF417
:10058800E06C1CEA11541DBF1CEA135594EA0C0FC9
:1005980095EA0C0F00F0DEF82C4481EA030621EA04
:1005A8004C5123EA4C5350EA013518BF52EA03353F
:1005B80041F4801143F4801338D0A0FB02CE4FF0F1
:1005C8000005E1FB02E506F00042E0FB03E54FF021
:1005D8000006E1FB03569CF0000F18BF4EF0010E19
:1005E800A4F1FF04B6F5007F64F5407404D25FEA15
:1005F8004E0E6D4146EB060642EAC62141EA5551C8
:100608004FEAC52040EA5E504FEACE2EB4F1FD0C09
:1006180088BFBCF5E06F1ED8BEF1004F08BF5FEA87
:10062800500E50F1000041EB045170BD06F0004639
:1006380046EA010140EA020081EA0301B4EB5C04E6
:10064800C2BFD4EB0C0541EA045170BD41F48011DE
:100658004FF0000E013C00F3AB8014F1360FDEBF03
:10066800002001F0004170BDC4F10004203C35DADF
:100678000C341BDC04F11404C4F1200500FA05F362
:1006880020FA04F001FA05F240EA020001F0004203
:1006980021F0004110EBD37021FA04F642EB060179
:1006A8005EEA430E08BF20EAD37070BDC4F10C04A3
:1006B800C4F1200500FA04F320FA05F001FA04F267
:1006C80040EA020001F0004110EBD37041F1000153
:1006D8005EEA430E08BF20EAD37070BDC4F120055E
:1006E80000FA05F24EEA020E20FA04F301FA05F2C6
:1006F80043EA020321FA04F001F0004121FA04F26E
:1007080020EA020000EBD3705EEA430E08BF20EA3D
:10071800D37070BD94F0000F0FD101F00046400077
:1007280041EB010111F4801F08BF013CF7D041EAF9
:10073800060195F0000F18BF704703F000465200FD
:1007480043EB030313F4801F08BF013DF7D043EACE
:100758000603704794EA0C0F0CEA135518BF95EA84
:100768000C0F0CD050EA410618BF52EA4306D1D10B
:1007780081EA030101F000414FF0000070BD50EA2A
:10078800410606BF1046194652EA430619D094EAB4
:100798000C0F02D150EA013613D195EA0C0F05D19E
:1007A80052EA03361CBF104619460AD181EA0301F2
:1007B80001F0004141F0FE4141F470014FF00000AA
:1007C80070BD41F0FE4141F4780170BD70B54FF045
:1007D800FF0C4CF4E06C1CEA11541DBF1CEA1355C5
:1007E80094EA0C0F95EA0C0F00F0A7F8A4EB0504A7
:1007F80081EA030E52EA03354FEA013100F088809E
:100808004FEA03334FF0805545EA131343EA126366
:100818004FEA022245EA111545EA10654FEA00261B
:100828000EF000419D4208BF964244F1FD0404F5D4
:10083800407402D25B084FEA3202B61A65EB030530
:100848005B084FEA32024FF480104FF4002CB6EBED
:10085800020E75EB030E22BFB61A754640EA0C006D
:100868005B084FEA3202B6EB020E75EB030E22BFAD
:10087800B61A754640EA5C005B084FEA3202B6EBEE
:10088800020E75EB030E22BFB61A754640EA9C00AD
:100898005B084FEA3202B6EB020E75EB030E22BF7D
:1008A800B61A754640EADC0055EA060E18D04FEA3B
:1008B800051545EA16754FEA06164FEAC30343EADB
:1008C80052734FEAC2025FEA1C1CC0D111F4801FA8
:1008D8000BD141EA00014FF000004FF0004CB6E7A1
:1008E80011F4801F04BF01430020B4F1FD0C88BF40
:1008F800BCF5E06F3FF6AFAEB5EB030C04BFB6EB4B
:10090800020C5FEA500C50F1000041EB045170BD3D
:100918000EF0004E4EEA113114EB5C04C2BFD4EB6A
:100928000C0541EA045170BD41F480114FF0000EEE
:10093800013C90E645EA060E8DE60CEA135594EA6A
:100948000C0F08BF95EA0C0F3FF43BAF94EA0C0F6D
:100958000AD150EA01347FF434AF95EA0C0F7FF4E2
:1009680025AF104619462CE795EA0C0F06D152EA36
:1009780003353FF4FDAE1046194622E750EA41061A
:1009880018BF52EA43067FF4C5AE50EA41047FF42B
:100998000DAF52EA43057FF4EBAE12E74FF0FF3C90
:1009A80006E000BF4FF0010C02E000BF4FF0010C61
:1009B8004DF804CD4FEA410C7FEA6C5C4FEA430CDA
:1009C80018BF7FEA6C5C1BD001B050EA410C0CBF29
:1009D80052EA430C91EA030F02BF90EA020F00208B
:1009E800704710F1000F91EA030F58BF994208BFF2
:1009F80090422CBFD8176FEAE37040F001007047AF
:100A08004FEA410C7FEA6C5C02D150EA013C07D105
:100A18004FEA430C7FEA6C5CD6D152EA033CD3D050
:100A28005DF8040B704700BF8446104662468C464A
:100A38001946634600E000BF01B5FFF7B7FF00287D
:100A480048BF10F1000F01BD4DF808EDFFF7F4FFA6
:100A58000CBF012000205DF808FB00BF4DF808ED31
:100A6800FFF7EAFF34BF012000205DF808FB00BF54
:100A78004DF808EDFFF7E0FF94BF012000205DF876
:100A880008FB00BF4DF808EDFFF7CEFF94BF01202B
:100A980000205DF808FB00BF4DF808EDFFF7C4FF24
:100AA80034BF012000205DF808FB00BF4FEA410277
:100AB80012F5001215D211D56FF47873B3EB6252A8
:100AC80012D94FEAC12343F0004343EA505311F0CF
:100AD800004F23FA02F018BF404270474FF0000061
:100AE800704750EA013005D111F0004008BF6FF09F
:100AF800004070474FF00000704700BF4A0011D215
:100B080012F5001211D20DD56FF47873B3EB62525F
:100B18000ED44FEAC12343F0004343EA505323FA6B
:100B280002F070474FF00000704750EA013002D1E0
:100B38004FF0FF3070474FF00000704753B94AB983
:100B4800002908BF00281CBF4FF0FF314FF0FF30CD
:100B580000F072B9ADF1080C6DE904CE00F006F8AA
:100B6800DDF804E0DDE9022304B070472DE9F04721
:100B7800089E04468846002B4BD18A42154667D901
:100B8800B2FA82F24AB1C2F1200701FA02F320FA5E
:100B980007F7954047EA030894404FEA154E230C9F
:100BA800B8FBFEF71FFA85FC0EFB178843EA0843DB
:100BB80007FB0CF1994209D9EB1807F1FF3080F0D7
:100BC8001B81994240F21881023F2B445B1AA4B260
:100BD800B3FBFEF00EFB103344EA034400FB0CFCAD
:100BE800A44509D92C1900F1FF3380F00781A445E9
:100BF80040F2048102382C4440EA0740A4EB0C047C
:100C080000271EB1D4400023C6E900433946BDE899
:100C1800F0878B4209D9002E00F0EB800027C6E947
:100C2800000138463946BDE8F087B3FA83F7002F4C
:100C380047D18B4202D3824200F2FA80841A61EBD8
:100C4800030301209846002EE0D0C6E90048DDE7FE
:100C580002B9FFDEB2FA82F2002A40F08F80491B07
:100C68004FEA154E1FFA85F80127B1FBFEFC230C4D
:100C78000EFB1C1143EA014308FB0CF1994207D90A
:100C8800EB180CF1FF3002D2994200F2CD80844675
:100C9800591AA3B2B1FBFEF00EFB101443EA044448
:100CA80008FB00F8A04507D92C1900F1FF3302D240
:100CB800A04500F2B6801846A4EB080440EA0C40B0
:100CC8009FE7C7F1200CBB4022FA0CFE4EEA030E48
:100CD80001FA07F420FA0CF521FA0CF34FEA1E4842
:100CE8002543B3FBF8F92C0C08FB19331FFA8EFACD
:100CF80044EA034309FB0AF49C4202FA07F200FAA9
:100D080007F10BD91EEB030309F1FF3080F0878050
:100D18009C4240F28480A9F1020973441B1BADB2C6
:100D2800B3FBF8F008FB103345EA034400FB0AFA6A
:100D3800A24508D91EEB040400F1FF336BD2A2458B
:100D480069D90238744440EA0940A0FB0289A4EB3F
:100D58000A044C45C2464B4654D351D0002E69D0A4
:100D6800B1EB0A0564EB030404FA0CFCFD40FC40FB
:100D78004CEA0505C6E90054002747E7C2F12003FD
:100D880020FA03F7954001FA02F021FA03F34FEA3B
:100D9800154E3843010CB3FBFEF71FFA85F80EFB1E
:100DA800173341EA034107FB08F38B4204FA02F4C4
:100DB80007D9691807F1FF3C2FD28B422DD9023F82
:100DC8002944CB1A81B2B3FBFEF00EFB103341EA83
:100DD800034100FB08F38B4207D9691800F1FF3C77
:100DE80017D28B4215D902382944C91A40EA074755
:100DF8003BE73746304609E70746E7E61846FBE68D
:100E08004145ABD2B8EB020A69EB0E020138134632
:100E1800A4E76046E9E7184695E76746D1E78146C3
:100E28007CE702382C4447E7ACF1020C2B442FE74F
:100E3800384608E73746E9E6704700BF10B504466C
:100E48000E4B18784FF47A73B3FBF0F30C4A106822
:100E5800B0FBF3F000F0AAF868B90F2C01D9012013
:100E68000AE0002221464FF0FF3000F05DF8034B06
:100E78005C60002000E0012010BD00BF00000020E1
:100E88001001002008B50B4B1A6842F400721A6072
:100E98001A6842F480621A601A6842F480721A6012
:100EA800032000F02FF80020FFF7C8FF03F08CFBA9
:100EB800002008BD003C0240034A1168034B1B7820
:100EC8000B441360704700BF080200200000002098
:100ED800014B1868704700BF0802002038B5044667
:100EE800FFF7F6FF0546B4F1FF3F02D0044B1B782D
:100EF8001C44FFF7EDFF401BA042FAD338BD00BFEA
:100F080000000020074AD36823F4E0631B041B0C8D
:100F1800000200F4E060184340F0BF6040F4003085
:100F2800D060704700ED00E030B4174BDB68C3F3C6
:100F38000223C3F10704042C28BF04241D1D062D19
:100F480018D9033B4FF0FF3505FA04F421EA0401F0
:100F5800994005FA03F322EA0303194300280BDB3F
:100F68000901C9B200F1604000F5614080F8001342
:100F780030BC70470023E5E700F00F000901C9B253
:100F8800024B1954F4E700BF00ED00E014ED00E057
:100F9800002807DB00F01F02400901239340024AA2
:100FA80042F82030704700BF00E100E00138B0F19E
:100FB800807F0AD2064B5860064AF02182F8231037
:100FC8000020986007221A6070470120704700BF10
:100FD80010E000E000ED00E000230F2B00F2D180CC
:100FE800F0B583B039E0062200E00022AA403A4377
:100FF8000234644D45F82420634A1468F24302EA37
:1010080004054F6817F4803F01D046EA04055E4C9A
:101018002560646802EA04054F6817F4003F01D0B0
:1010280046EA0405584C6560A46802EA04054F685E
:1010380017F4801F01D046EA0405534CA560E46804
:1010480022404D6815F4001F01D046EA04024E4CB8
:10105800E26001330F2B00F2928001229A400C6863
:1010680004EA0206B242F4D14C68651E012D03D988
:10107800112C01D0122C12D185685F000324BC40CA
:1010880025EA0405CC68BC402C438460456825EA01
:1010980002054C68C4F300129A402A434260C468AF
:1010A8005F000322BA40D24314408D68BD402543F7
:1010B800C5604C68022C01D0122C13D1DD0808350C
:1010C80050F825E003F007044FEA840C0F2404FAD3
:1010D8000CF42EEA040E0C6904FA0CF444EA0E042B
:1010E80040F82540046822404C6804F00304BC40E2
:1010F800224302604A6812F0805FAAD0002201925F
:10110800224A546C44F480445464526C02F4804281
:101118000192019A9C08A51C1A4A52F8257003F0FE
:10112800030295000F22AA4027EA0207184A9042B4
:101138003FF45BAF02F58062904216D002F5806200
:10114800904214D002F58062904212D002F580627B
:10115800904210D002F5806290420ED002F5806273
:1011680090423FF440AF072240E701223EE70222C7
:101178003CE703223AE7042238E7052236E703B0C2
:10118800F0BD704700380140003C01400038024083
:10119800000002400369194201D100207047012074
:1011A800704712B9090481617047816170472DE960
:1011B800F04782B00768CA00521A930003445A6D78
:1011C8001B6D9A4257D8B8469B1AC1EBC104A200BE
:1011D8000244526C9A4200D31A460C46064602F163
:1011E800030A4FEA9A0A16E009F1030A4FEA9A0A33
:1011F800E3001B1B9D003544A96C337C00931FFA48
:1012080089F3E2B2384602F025F8AB6C4B44AB6484
:101218006B6D4B446B6508EB441303F510639B69D6
:101228009BB2534513D3E3001B1B9A003244516D04
:10123800136D99420BD253B15B1AC4EBC4018A00F7
:101248003244D2F844909945CED39946CCE7E3008E
:101258001B1B98000644326D736D9A420FD804F038
:101268000F040121A140D7F8344824EA0104C7F843
:101278003448002000E0012002B0BDE8F0870020DB
:10128800FAE7F0B58BB0002800F0918004460568B5
:1012980090F8BD3323B3032384F8BD33EB6B13F409
:1012A800807F01D100232361206801F06BFD254672
:1012B80055F8107B6E460FCD0FC60FCD0FC695E8BB
:1012C800030086E80300231D0ECB384601F098FC86
:1012D80058B1022384F8BD33012528460BB0F0BD70
:1012E80080F8BC3303F064FAD5E70021206801F0E8
:1012F8004FFD002315E0D900C81A820022440120BE
:1013080082F83D0082F83C30A2F84230002082F892
:101318003F0050649064CA1A910021440865013363
:10132800DBB26568AB42E6D3002315E0D800C11AEA
:101338008A002244002182F8FD1182F8FC3182F8EB
:10134800FF11C2F80412C2F80812C21A9000204411
:10135800C0F810120133DBB29D42E7D8254655F894
:10136800107B6E460FCD0FC60FCD0FC695E8030054
:1013780086E80300231D0ECB384601F04FFD0546D5
:1013880060B9002384F83830012384F8BD33636AD8
:10139800012B08D0206802F00BF99EE7022384F89D
:1013A800BD33012599E7204600F0C5FCF2E7012589
:1013B80093E7026890F8BC33012B19D010B50123CC
:1013C80080F8BC33836A012B0AD00446006801F018
:1013D800D3FC206802F0DEF8002084F8BC0310BDBE
:1013E8008369012BF1D0936B43F480339363ECE76B
:1013F8000220704770B504460D460068066C00EB85
:10140800411303F530639A682169012911D03749DE
:101418008E4254D03DB9C5EBC50293002344D3F89E
:101428001032002B5CD0E9B2204603F00BFA002002
:1014380070BD12F0080F09D02D498E42F7D912F469
:10144800004FF4D04FF400429A60F0E712F0200FFA
:1014580028D112F0280FEAD125498E4202D912F478
:10146800004F22D1E900491B8A002244D2F8041215
:101478001B69C3F31203C91AC2F81412D2F8041272
:10148800D2F808320B44C2F8083235B9C5EBC502A8
:1014980093002344D3F810325BB1E9B2204603F03D
:1014A800D1F9C4E720229A60C1E74FF400429A605C
:1014B800BDE704F57172012102F0CCF8EDE712F4F2
:1014C800004F09D112F0200F01D020229A60E9B212
:1014D800204603F0B7F9AAE74FF400429A60A6E75E
:1014E80004F57172002102F0B5F89CE70A31544FF7
:1014F8000A30544F38B5044603681D6C03EB41119C
:10150800D1F8082B0E4B9D4207D901F5306112F432
:10151800004F02D04FF400438B60204603F08AF955
:10152800074B9D4202D92369012B01D0002038BD09
:1015380004F571720121206802F08CF8F6E700BF0B
:101548000A30544F2DE9F84F04460568284602F042
:101558006DF808B1BDE8F88F2F460646206802F0FE
:1015680035F80028F6D0206802F030F810F0020FA5
:1015780004D02268536903F002035361206802F023
:1015880025F810F0100F15D02268936923F0100386
:101598009361D5F8208008F00F09C8F34343022B64
:1015A80000F08580062B00F0A5802268936943F03F
:1015B80010039361206802F009F810F4002F40F03E
:1015C800AD80206802F002F810F4802F40F0F1801E
:1015D800206801F0FBFF0028C0F25F81206801F05D
:1015E800F5FF10F4006F0AD0D5F8083813F0010F92
:1015F80040F06D812268536903F4006353612068E9
:1016080001F0E4FF10F0006F15D02268536903F071
:101618000063536194F8F433002B40F05C8101219E
:1016280084F8F41323685B6DC3F38303C4F8F833B9
:10163800204603F0BDF9206801F0C8FF10F4805F70
:1016480040F04D81206801F0C1FF10F4005F40F0C8
:10165800AC81206801F0BAFF10F0080F40F0BD819E
:10166800206801F0B3FF10F4801F40F0BF812068AC
:1016780001F0ACFF10F4001F40F0C281206801F0B7
:10168800A5FF10F0804F40F0C581206801F09EFF53
:1016980010F0040F3FF45EAF23685D6815F0040F87
:1016A80040F0C181226853682B43536052E747F6E4
:1016B800F07318EA030F3FF478AF4FEAC90BABEBAE
:1016C80009034FEA830AA2444FEA1818C8F30A022A
:1016D800DAF80812284601F0DFFEC8F30A08DAF83B
:1016E80008324344CAF80832DAF814324344CAF8D4
:1016F80014325AE7082204F57171284601F0CCFE2D
:10170800C8F30A184FEAC903A3EB09018A00224467
:10171800D2F814324344C2F8143246E7206801F084
:1017280059FF8046B14617E007EB49130122C3F879
:10173800082B49462046FFF75DFE1DE007EB4913DD
:101748000822C3F8082B49462046FFF7D3FE16E0C7
:1017580009F101094FEA5808B8F1000F3FF431AF19
:1017680018F0010FF4D05FFA89F1206801F042FF08
:10177800824610F0010FD7D11AF0080FDED11AF007
:10178800100F04D007EB49131022C3F8082B1AF0E6
:10179800200F04D007EB49132022C3F8082B1AF4B2
:1017A800005FD5D007EB49134FF40052C3F8082B5C
:1017B800CEE7206801F016FF8046B1462AE0594678
:1017C800204603F04BF81AF0080F04D007EB491332
:1017D8000822C3F808291AF0100F04D007EB4913A0
:1017E8001022C3F808291AF0400F04D007EB491358
:1017F8004022C3F808291AF0020F04D007EB491356
:101808000222C3F808291AF0800F41D109F1010911
:101818004FEA5808B8F1000F3FF4DAAE18F0010F9C
:10182800F4D05FFA89FB5946206801F0ECFE824645
:1018380010F0010FC7D009F00F03012101FA03F2DC
:10184800D7F8343823EA0203C7F8343807EB4913CA
:10185800C3F8081923698B42B1D14FEAC902A2EB38
:10186800090293002344596C9A6C0A449A64B9F1AA
:10187800000FA4D1C9EBC902930023441B6D002BB0
:101888009DD104F571720121206801F0E3FE96E70D
:1018980049462046FFF78BFCB8E7D5F8043823F013
:1018A8000103C5F8043894F8F433012B08D0204616
:1018B80003F014F82268536903F0004353618DE67E
:1018C800002184F8F413204603F072F8F2E720466A
:1018D80002F0ECFF8EE6204602F0E8FFABE605F5E5
:1018E8000068D8F8043023F00103C8F80430102148
:1018F800206801F065FA20E007EB46134FF67F31C8
:10190800C3F80819D3F8002922F40012C3F80029F3
:10191800D3F8002942F00062C3F80029C3F8081B75
:10192800D3F8002B22F40012C3F8002BD3F8002BB5
:1019380042F00062C3F8002B01366368B342DBD87B
:10194800D8F81C3043F00113C8F81C30236BEBB1F6
:10195800D8F8843043F00B03C8F88430D8F8443002
:1019680043F00B03C8F84430D5F8003823F4FE637D
:10197800C5F8003804F57172217C206801F06AFE10
:101988002268536903F4805353615BE6D8F8143036
:1019980043F4005343F02B03C8F81430D8F8103040
:1019A80043F00B03C8F81030DEE7206801F042FE70
:1019B800206801F0F7FAE060256800F07FFA227BE2
:1019C8000146284601F062F9204602F058FF2268D5
:1019D800536903F4005353613BE6204602F049FF84
:1019E8002268536903F00803536139E60021204651
:1019F80002F080FF2268536903F48013536136E6CE
:101A08000021204602F070FF2268536903F4001396
:101A1800536133E6204602F073FF2268536903F0EE
:101A28008043536131E6204602F070FF3AE690F8B1
:101A3800BC33012B0DD010B50446012380F8BC330C
:101A480080F83810006801F095FD002084F8BC0388
:101A580010BD02207047F8B511F0800F28D101F0B1
:101A68000F06F500AF1BBC00274604F5FC740444C0
:101A780004343E460644002586F8FD5101F00F0166
:101A88002170A260E370627802B1E180022B1ED05F
:101A980090F8BC33012B1DD00546012380F8BC33D8
:101AA8002146006801F08FFA002085F8BC03F8BDD4
:101AB80001F00F06F500AF1BBC002746383404447C
:101AC80004343E460644012586F83D50D6E70023F7
:101AD8002371DDE70220EAE738B511F0800F21D144
:101AE80001F00F05EA00541BA3001C4603F5FC7324
:101AF8000344043325460544002285F8FD2101F0FE
:101B08000F01197090F8BC23012A1AD0044601224B
:101B180080F8BC231946006801F0A0FA002084F878
:101B2800BC0338BD01F00F04E200151BAB001D46D5
:101B38003833034404332C460444012284F83D20FE
:101B4800DDE70220EDE770B501F00F05EE00711B2F
:101B58008C0004F5FC740444211D761BB400044475
:101B6800C4F80822C4F810320023C4F8143284F8E8
:101B7800FD3184F8FC510369012B06D065B1DAB256
:101B8800006801F07BFB002070BDC5EBC506B40002
:101B98000444C4F80C22F1E7DAB2006801F0CCFA88
:101BA800F1E770B501F00F05EE00711B8C003834B9
:101BB8000444211D761BB4000444A2642365002359
:101BC8006365012384F83D3084F83C500369012B98
:101BD80006D05DB1DAB2006801F050FB002070BD9C
:101BE800C5EBC506B4000444E264F2E7DAB2006863
:101BF80001F0A2FAF2E738B501F00F0543689D42FB
:101C080036D811F0800F20D1CA00541AA3001C4600
:101C180003F5FC730344043322460244002182F88E
:101C2800FD1101229A701D7090F8BC23012A21D061
:101C38000446012280F8BC231946006801F03FFCE5
:101C48007DB1002084F8BC0313E0EA00511B8B002F
:101C580019463833034404330144012281F83D20F6
:101C6800DFE704F57172217C206801F0F3FCE8E7F6
:101C7800012038BD0220FCE710B501F00F044368CD
:101C88009C422CD811F0800F1DD1E3001A1B910043
:101C98000A4601F5FC71014404310244002382F82C
:101CA800FD3100238B700C7090F8BC33012B18D0D9
:101CB8000446012380F8BC33006801F02DFC0020A5
:101CC80084F8BC030CE0E3001A1B91000A46383183
:101CD800014404310244012382F83D30E1E7012048
:101CE80010BD0220FCE730B40468606A29B10D46D3
:101CF800A36A00EB134000230CE040EA0240A06214
:101D080012E003F1400104EB8101496800EB114046
:101D18000133DBB2691E8B42F3D340EA024005F17E
:101D28003F0104EB81014860002030BC7047036824
:101D3800596200207047034602680121C0F8FC136D
:101D4800002083F8F403936943F000639361536DB3
:101D580043F0805343F0030353657047002800F0B5
:101D68009E8070B50446504B1B6803F00F038B42EE
:101D780009D2CBB24C4A1370136803F00F038B429D
:101D880001D0012070BD236813F0020F17D013F0A3
:101D9800040F04D0454A936843F4E05393602368E2
:101DA80013F0080F04D0414A936843F460439360EA
:101DB8003E4A936823F0F003A068034393600D46FE
:101DC800236813F0010F32D06368012B21D09A1ECB
:101DD800012A25D9354A126812F0020F61D0334919
:101DE8008A6822F0030213438B60FFF771F80646F6
:101DF8002E4B9B6803F00C036268B3EB820F16D07E
:101E0800FFF766F8801B41F288339842F0D9032027
:101E1800B8E7264A126812F4003FE0D10120B1E782
:101E2800224A126812F0007FD9D10120AAE71E4B7E
:101E38001B6803F00F03AB4209D9EAB21A4B1A70B8
:101E48001B6803F00F03AB4201D001209AE7236817
:101E580013F0040F06D0154A936823F4E053E168A1
:101E68000B439360236813F0080F07D00F4A936859
:101E780023F46043216943EAC103936000F082FAC6
:101E88000A4B9B68C3F30313094AD35CD840094B38
:101E98001860094B1868FEF7D1FF002072E701208F
:101EA800704701206EE700BF003C02400038024046
:101EB800C06100081001002004000020014B1868D0
:101EC800704700BF1001002008B5FFF7F7FF044B6B
:101ED8009B68C3F38223034AD35CD84008BD00BF84
:101EE80000380240D061000808B5FFF7E7FF044B4F
:101EF8009B68C3F34233034AD35CD84008BD00BF94
:101F080000380240D0610008F0B583B00446036889
:101F180013F0010F0CD0964AD2F88C3023F0C0632E
:101F2800816B0B43C2F88C30836B3BB3002600E017
:101F38000026236813F0020F0BD08D4AD2F88C309C
:101F480023F0C053E16B0B43C2F88C30E36B03B949
:101F58000126236813F0040F14D0854AD2F88C3078
:101F680023F44013216B0B43C2F88C30236BB3F579
:101F7800801F05D0002B7BD0002504E00126D8E780
:101F88000126F7E70025236813F0080F0ED0784ADA
:101F9800D2F88C3023F44003616B0B43C2F88C30C9
:101FA800636BB3F5800F65D003B90125236813F07F
:101FB800200F61D1236813F0100F03D094F8582034
:101FC8006C4B1A60236813F0800F08D0684AD2F867
:101FD800943023F44003E16C0B43C2F89430236837
:101FE80013F0400F08D0624AD2F8943023F080638F
:101FF800A16C0B43C2F89430236813F4807F0DD092
:102008005B4AD2F8943023F00063616D0B43C2F849
:102018009430636DB3F1006F00F09580236813F47A
:10202800007F08D0524AD2F8943023F08053616C74
:102038000B43C2F89430236813F4806F0CD04C4AD9
:10204800D2F8943023F00053216D0B43C2F894303A
:10205800236DB3F1005F78D0002E76D12368B3F5F5
:10206800006F72D0002D40F02281002003B0F0BD37
:10207800012588E7012697E7002301933C4B1A6C5A
:1020880042F080521A641B6C03F080530193019B49
:10209800394A136843F480731360FEF719FF074643
:1020A800354B1B6813F4807F06D1FEF711FFC01B68
:1020B8000228F5D90320D9E72D4B1B6F13F4407381
:1020C80012D0226C02F440729A420DD0284B1A6F3B
:1020D80022F44072294901200860002008601A672C
:1020E8001B6F13F0010F12D1236C03F44072B2F589
:1020F800407F1DD01E4A936823F4F81393601C494F
:102108000B6F226CC2F30B0213430B6752E7FEF707
:10211800DFFE0746164B1B6F13F0020FE4D1FEF7E4
:10212800D7FEC01B41F288339842F3D903209DE7BC
:102138000F498A6822F4F81223F0704323F440739D
:1021480013438B60DBE7012568E70D4B00221A601B
:10215800FEF7BEFE0646064B1B6813F0006F11D053
:10216800FEF7B6FE801B0228F5D903207EE700BFE4
:1021780000380240E011474200700040400E4742DC
:1021880068004742236813F0010F01D0A26B22B107
:1021980013F0020F15D0E36B9BB9774AD2F884008D
:1021A800D2F884106368A66843EA861300F44030C6
:1021B800034301F070610B43616943EA0173C2F89C
:1021C8008430236813F0040F03D0226BB2F5801F0C
:1021D80006D013F0080F20D0636BB3F5800F1CD125
:1021E800654AD2F88400D2F884106368A66843EA86
:1021F800861300F440300343206943EA006301F08A
:10220800E0410B43C2F88430D2F88C3023F01F032E
:10221800A16A01390B43C2F88C30236813F4806F2C
:1022280003D0236DB3F1005F28D0236813F4006F47
:1022380011D06368A26843EA8213E2685208013A3F
:1022480043EA0243226943EA0263626943EA02738A
:10225800494AC2F88430494B01221A60FEF738FE19
:102268000646454B1B6813F0006F7FF4FBAEFEF784
:102278002FFE801B0228F4D90320F7E63E48D0F849
:102288008430C3F301435A1CD0F884606368A168A2
:1022980043EA8113E1684908013943EA014343EA03
:1022A800426306F0E0421343C0F88430BDE7344B84
:1022B80000221A60FEF70CFE05462F4B1B6813F030
:1022C800005F06D0FEF704FE401B0228F5D9032064
:1022D800CCE6236813F0040F01D0226B22B113F06F
:1022E800080F1AD0636BC3B9234AD2F88810A369C0
:1022F800E06943EA801301F440310B43616A43EA21
:102308000163C2F88830D2F88C3023F4F853E16ABC
:10231800013943EA0123C2F88C30236813F4807F23
:1023280003D0636DB3F1006F11D0154B01221A6011
:10233800FEF7CEFD0446104B1B6813F0005F18D162
:10234800FEF7C6FD001B0228F5D903208EE60A48D1
:10235800D0F88810A369E26943EA8213226A520816
:10236800013A43EA024301F070621343C0F888302F
:10237800DBE700207AE600BF0038024068004742E9
:10238800700047422DE9F04B5C4B9B6803F00C034F
:10239800082B07D00C2B5BD0042B00F0AD805848DD
:1023A800BDE8F08B554B5A6802F03F025B6813F4A6
:1023B800800F2AD0514B5B68C3F388131E46002751
:1023C8005C010025E41A65EB0705A90141EA94615F
:1023D800A001001B61EB0501CB0043EA5073C40068
:1023E800A01943EB07014B0243EAD05344022046AD
:1023F80019460023FEF7A2FB404B5B68C3F3014379
:1024080001335B00B0FBF3F0CAE73C4B5B68C3F3F6
:1024180088131E4600275C010025E41A65EB0705B2
:10242800A90141EA9461A001001B61EB0501CB0001
:1024380043EA5073C400A01943EB07018B0243EA37
:1024480090538402204619460023FEF777FBD3E712
:102458002A4B5A6802F03F025B6813F4800F28D0B9
:10246800264B5B68C3F388131E4600275C010025D2
:10247800E41A65EB0705A90141EA9461A001001B74
:1024880061EB0501CB0043EA5073C400A01943EB8C
:1024980007014B0243EAD053440220461946002361
:1024A800FEF74CFB154B5B68C3F30273B0FBF3F00C
:1024B80076E7124B5B68C3F388131E4600275C015E
:1024C8000025E41A65EB0705A90141EA9461A0011A
:1024D800001B61EB0501CB0043EA5073C400A0194F
:1024E80043EB07018B0243EA9053840220461946C6
:1024F8000023FEF723FBD5E7024851E700380240E6
:102508000024F40000127A0070B582B00446036813
:1025180013F0010F41D0A64B9B6803F00C03042B6A
:1025280032D0A34B9B6803F00C03082B27D0A04B99
:102538009B6803F00C030C2B59D06368B3F5803FFC
:102548005BD0B3F5A02F5ED0994B1A6822F4803285
:102558001A601A6822F480221A606368002B5CD023
:10256800FEF7B6FC0546924B1B6813F4003F14D1E6
:10257800FEF7AEFC401B6428F5D903209DE18C4B87
:102588005B6813F4800FD2D0894B1B6813F4003FAB
:1025980003D06368002B00F08D81236813F0020FCD
:1025A80067D0834B9B6813F00C0F4AD0804B9B6815
:1025B80003F00C03082B3FD07D4B9B6803F00C0302
:1025C8000C2B48D0E368002B74D07A4B01221A6098
:1025D800FEF77EFC0546764B1B6813F0020F60D1B0
:1025E800FEF776FC401B0228F5D9032065E1704B05
:1025F8005B6813F4800FA0D0C6E76D4A136843F4F4
:1026080080331360A9E76A4B1A6842F480221A6083
:102618001A6842F480321A609FE7FEF759FC0546B3
:10262800634B1B6813F4003FB7D0FEF751FC401B07
:102638006428F5D9032040E15D4B5B6813F4800FF3
:10264800BAD15B4B1B6813F0020F0AD0E368012B69
:1026580007D0012031E1564B5B6813F4800FB1D1EC
:10266800EFE7534A136823F0F803216943EAC103EB
:102678001360236813F0080F40D0636963B34E4BAF
:1026880001221A60FEF724FC0546494B5B6F13F0E4
:10269800020F33D1FEF71CFC401B0228F5D903209A
:1026A8000BE1434A136823F0F803216943EAC103A5
:1026B8001360DEE73F4B00221A60FEF709FC05466F
:1026C8003B4B1B6813F0020FD3D0FEF701FC401BF5
:1026D8000228F5D90320F0E0374B00221A60FEF7F4
:1026E800F7FB0546324B5B6F13F0020F06D0FEF77F
:1026F800EFFB401B0228F5D90320DEE0236813F026
:10270800040F79D02A4B1B6C13F0805F33D1002360
:102718000193274B1A6C42F080521A641B6C03F029
:1027280080530193019B0125244B1B6813F4807F80
:1027380023D0A368012B34D0052B41D01C4B1A6F32
:1027480022F001021A671A6F22F004021A67A368BE
:10275800002B3FD0FEF7BCFB0646154B1B6F13F052
:10276800020F48D1FEF7B4FB801B41F28833984230
:10277800F3D90320A1E00025D6E7104A136843F4F3
:1027880080731360FEF7A4FB06460C4B1B6813F41A
:10279800807FCED1FEF79CFB801B0228F5D9032051
:1027A8008BE0034A136F43F001031367CFE700BFC1
:1027B8000038024000004742800E47420070004047
:1027C800404B1A6F42F004021A671A6F42F0010276
:1027D8001A67BCE7FEF77CFB06463A4B1B6F13F003
:1027E800020F08D0FEF774FB801B41F28833984231
:1027F800F3D9032061E0E5B9A369002B5CD0314A25
:10280800926802F00C02082A59D0022B17D02E4BDE
:1028180000221A60FEF75CFB04462A4B1B6813F083
:10282800007F45D0FEF754FB001B0228F5D9032092
:1028380043E0244A136C23F080531364DCE7224BF3
:1028480000221A60FEF744FB05461E4B1B6813F076
:10285800007F06D0FEF73CFB401B0228F5D9032079
:102868002BE0E369226A1343626A43EA8213A26A8D
:102878005208013A43EA0243E26A43EA0263226BDE
:1028880043EA02730F4A53600F4B01221A60FEF7A6
:102898001FFB04460B4B1B6813F0007F06D1FEF7A5
:1028A80017FB001B0228F5D9032006E0002004E0EE
:1028B800002002E0012000E0002002B070BD0120ED
:1028C800FBE700BF003802406000474200283BD0C9
:1028D80010B504460023836290F85130002B2ED0A7
:1028E800022384F851302268136823F040031360F0
:1028F8006368A2681343E268134322691343626959
:102908001343A26902F400721343E2691343226A73
:102918001343A16A22680B431360638B03F004031B
:10292800616A22680B4353602268D36923F4006309
:10293800D36100206065012384F8513010BD80F810
:10294800503001F061FECBE7012070472DE9F04BD4
:1029580004460268136923F44053C1680B431361AA
:1029680083680269134342691343C2691A430168C1
:10297800CB6823F4164323F00C031343CB6002689F
:10298800536923F4407381690B435361C369B3F5F9
:10299800004F3BD00368714A934200F0AB8002F5C8
:1029A8008062934200F0A680FFF78EFA4FF000098C
:1029B800061849EB090716EB000B47EB090C4FEA21
:1029C800CC0343EA5B734FEACB0293469C466368A9
:1029D8009A009B0F10EB0B0049EB0C01FEF7AEF8C9
:1029E8005F4DA5FB00325109642202FB110213015D
:1029F8003233A5FB03235B0903F0F00202EB01125B
:102A080003F00F03216813448B60A4E00368534A62
:102A1800934239D002F58062934235D0FFF754FAD9
:102A280083464FF0000C06184CEB0C0716EB000819
:102A380047EB0C094FEAC90343EA58734FEAC80247
:102A48009046994662680021921841EB01031BEBFE
:102A580008004CEB0901FEF771F8414DA5FB003267
:102A68005109642202FB1102D3003233A5FB032370
:102A78005B095A0002F4F87202EB011203F0070333
:102A8800216813448B6066E0FFF72EFA80464FF00A
:102A98000009061849EB090716EB000B47EB090C70
:102AA8004FEACC0343EA5B734FEACB0293469C465A
:102AB80062680021921841EB010318EB0B0049EB07
:102AC8000C01FEF73BF8264DA5FB003251096422A4
:102AD80002FB1102D3003233A5FB03235B095A0022
:102AE80002F4F87202EB011203F0070321681344A1
:102AF8008B6030E0FFF7F8F94FF00009061849EB52
:102B0800090716EB000B47EB090C4FEACC0343EA25
:102B18005B734FEACB0293469C4663689A009B0F0F
:102B280010EB0B0049EB0C01FEF708F80C4DA5FB68
:102B380000325109642202FB110213013233A5FB52
:102B480003235B0903F0F00202EB011203F00F0309
:102B5800216813448B60BDE8F08B00BF0010014072
:102B68001F85EB5158B310B5044690F839300BB3B4
:102B7800242384F839302268D36823F40053D360BF
:102B88002046FFF7E3FE2268136923F4904313619C
:102B98002268536923F02A0353612268D36843F4F7
:102BA8000053D3600020E063202384F8393084F890
:102BB8003A3010BD80F8383001F068FDD8E70120C0
:102BC80070470000002301330C4A934211D8026970
:102BD800002AF8DA036943F0010303610023013393
:102BE800064A934207D8026912F0010FF7D1002074
:102BF8007047032070470320704700BF400D030053
:102C080084B010B5044603A880E80E00089B012B89
:102C18001FD1A36B23F48033A363E36823F48403F5
:102C280023F04003E360E36823F44013E3600F9B61
:102C3800012B09D02046FFF7C5FF069B012B1BD0AF
:102C4800BDE8104004B07047E36843F48013E360C4
:102C5800F0E7E36843F04003E3602046FFF7B2FF84
:102C68000C9B23B9A36B43F48033A363E5E7A36B01
:102C780023F48033A363E0E7A36843F00603A3606B
:102C8800A36843F02003A360DAE70000022A0AD011
:102C98000921C26822F47052C260C36843EA8123E2
:102CA800C360002070472A4B0B442A4A93423FD9FD
:102CB800294B0B44294A93423CD9A1F57403A3F547
:102CC8001053274A934237D9A1F18373A3F5E743F9
:102CD80002F5C332A032934230D9224B0B44224A28
:102CE80093422DD9214B0B4402F5922202F57872BA
:102CF800934227D91E4B0B4402F5C32202F52072DA
:102D0800934221D9A1F1B773A3F5585302F5B7122D
:102D180002F55872934219D9164B0B4402F5122248
:102D280002F5F862934201D90621B2E70721B0E71C
:102D38000F21AEE70E21ACE70D21AAE70C21A8E789
:102D48000B21A6E70A21A4E70921A2E70821A0E7A9
:102D5800405327FFFF340C00401E1BFF3F420F006B
:102D68007F4F120060B6E5FE5FE3160000D3CEFE8B
:102D7800C05BB3FEE05459FE836843F001038360EF
:102D880000207047836823F00103836000207047A8
:102D980008B5C36823F0C043C360012909D069B9E5
:102DA800C36843F08043C3603220FEF797F80020E1
:102DB80008BDC36843F00053C360F5E70120F7E797
:102DC800890141F02001016100230133054A934242
:102DD80005D8026912F0200FF7D1002070470320B0
:102DE800704700BF400D0300102303610023013327
:102DF800054A934205D8026912F0100FF7D1002056
:102E080070470320704700BF400D0300D0F800381A
:102E18001943C0F8001800207047000084B02DE95D
:102E2800F041044607A880E80E002546002306E086
:102E380003F1400204EB82020021516001330E2BA2
:102E4800F6D9119B23BBD4F8043843F00203C4F825
:102E58000438A36B23F40013A363236843F04003EF
:102E68002360236843F0800323600023C4F8003EF6
:102E780004F50066D4F80038C4F800380C9B012B20
:102E880010D1099B4BB900212046FFF7BFFF0DE089
:102E9800A36B43F40013A363E7E701212046FFF780
:102EA800B5FF03E003212046FFF7B0FF10212046BD
:102EB800FFF786FF804608B14FF001082046FFF76C
:102EC80093FF08B14FF00108002333617361F36188
:102ED8000AE0C3B94FF00060C2F8000900220A6195
:102EE8004FF67F328A6001330799994210D905EB72
:102EF800431202F51061D2F800090028E9DB00202E
:102F0800C2F80009EAE74FF09040C2F80009E5E787
:102F180000230AE0BBB14FF09047C2F8007B0022C3
:102F280002614FF67F3282600133994210D905EB76
:102F3800431202F53060D2F8007B002FEADB00274D
:102F4800C2F8007BEBE74FF00067C2F8007BE6E7CA
:102F5800336923F4807333610023A3616FF08043E6
:102F680063610A9B1BB9A36943F01003A361A269BB
:102F78000B4B1343A3610D9B1BB1A36943F00803DB
:102F8800A361119B012B04D04046BDE8F04104B079
:102F98007047A36943F0804343F00403A361F3E758
:102FA80000383C80D0F8083813F0060307D0022B0D
:102FB80007D0062B01D00F20704702207047002051
:102FC80070470220704770B40B784A78012A22D0E3
:102FD800D0F81C2803F00F060124B44042EA04424A
:102FE800C0F81C2800EB4310D0F8003B13F4004F46
:102FF8000ED1D0F8003B8A68C2F30A02C97842EAC7
:103008008142134343F0805343F40043C0F8003B2C
:10301800002070BC7047D0F81C4803F00F06B2407F
:1030280092B22243C0F81C2800EB4310D0F80029C4
:1030380012F4004FECD1D0F800298C68C4F30A04CC
:10304800C97844EA814444EA8353134343F08053E4
:1030580043F40043C0F80039DAE7000030B40B78D5
:103068004A78012A24D000EB4313D3F8002B002A16
:1030780050DBD0F83C580A7802F00F02012404FA19
:1030880002F225EA0242C0F83C28D0F81C28097848
:1030980001F00F018C4022EA0444C0F81C48D3F820
:1030A800001B234A0A40C3F8002B002030BC70479D
:1030B80000EB4313D3F80029002A1EDBD0F83C5854
:1030C8000A7802F00F02012404FA02F292B225EA09
:1030D8000202C0F83C28D0F81C28097801F00F013A
:1030E8008C40A4B222EA0404C0F81C48D3F80019A2
:1030F800104A0A40C3F80029D7E7D3F8002942F05C
:103108000062C3F80029D3F8002942F08042C3F8CE
:103118000029D3E7D3F8002B42F00062C3F8002B54
:10312800D3F8002B42F08042C3F8002BA1E700BF80
:103138000078F3EF007833EC70B40B784C78012CFE
:1031480026D000EB431000F530631C69E40CE4045E
:103158001C611C6924F0FF5424F4C0141C614C69E0
:103168000CB18C684C611C6944F400241C611C6916
:103178008D68C5F312052C431C61012A65D0D0F86F
:10318800003B43F00443C0F8003B002070BC70478C
:103198004C696CBB00EB4314D4F8105925F0FF556B
:1031A80025F4C015C4F81059D4F8105945F4002571
:1031B800C4F81059D4F81059ED0CED04C4F810599E
:1031C800012A33D000EB4313D3F8002942F004421C
:1031D800C3F800294B69002BD7D0D0F834280978D8
:1031E80001F00F040121A1400A43C0F83428CCE7BC
:1031F80000EB431404F510642569ED0CED0425611A
:10320800256925F0FF5525F4C01525614E698D689F
:10321800AE4200D94D61256945F40025256125692F
:103228004E69C6F3120635432561C9E70A691AB122
:1032380000EB4311C1F8142900EB4310D0F8002922
:1032480042F00442C0F800299FE7CA68002A96D0D5
:103258005A6194E770B49DF80C4064B903339D0833
:1032680007E000EB023303F5805351F8046B1E604E
:103278000134AC42F5D3002070BC7047F0B583B080
:103288000B784C78012C2BD000EB431303F53064FA
:103298002569ED0CED042561256925F0FF5525F418
:1032A800C01525614D69002D40F0C58025698E68DF
:1032B800C6F3120635432561256945F400252561C5
:1032C800012A00F0CD80CA78012A00F0CF80D3F817
:1032D800002B42F00442C3F8002B002003B0F0BDDD
:1032E8004C6984BB00EB4314D4F8105925F0FF5502
:1032F80025F4C015C4F81059D4F8105945F4002520
:10330800C4F81059D4F81059ED0CED04C4F810594C
:10331800012A4CD000EB4313D3F8004944F004448D
:10332800C3F80049CC78012C6AD04B69002BD4D063
:10333800D0F83428097801F00F040121A1400A438C
:10334800C0F83428C9E700EB4314D4F81059ED0C41
:10335800ED04C4F81059D4F8105925F0FF5525F498
:10336800C015C4F81059D4F810694D698F683D44E8
:10337800013DB5FBF7F5474F07EAC5453543C4F8A6
:103388001059D4F810594E69C6F312063543C4F8DB
:10339800105904F51064CD78012DB9D1256925F0AF
:1033A800C0452561256945F000552561B0E70A69E2
:1033B8001AB100EB4314C4F81429CA78012A08D0BA
:1033C80000EB4313D3F8002942F00442C3F8002964
:1033D80083E7D0F8082812F4807F08D100EB431166
:1033E800D1F8002942F00052C1F80029E8E700EBC3
:1033F8004311D1F8002942F08052C1F80029DFE7D3
:10340800D0F8084814F4807F0ED1D3F8004944F06E
:103418000054C3F8004914460B46C9681A789B8AB9
:103428000094FFF717FF58E7D3F8004944F0805499
:10343800C3F80049EFE78E683544013DB5FBF6F562
:103448002669144F07EAC5473E43266127698E68F7
:10345800ADB206FB05F5C5F312053D4325612FE71F
:10346800CA68002A3FF42FAF62612CE7D0F8082819
:1034780012F4807F06D1D3F8002B42F00052C3F833
:10348800002B24E7D3F8002B42F08052C3F8002B1E
:103498001DE700BF0000F81F033292080023934283
:1034A8000BD210B400F58054246841F8044B013362
:1034B8009342F7D3084610BC7047084670470B780C
:1034C8004A78012A14D000EB4310D0F8002B002AC8
:1034D80006DB2BB1D0F8003B23F08043C0F8003B5B
:1034E800D0F8003B43F40013C0F8003B00207047BD
:1034F80000EB4310D0F80029002A06DB2BB1D0F8E6
:10350800003923F08043C0F80039D0F8003943F47B
:103518000013C0F80039E9E70B784A78012A0ED081
:1035280000EB4310D0F8003B23F40013C0F8003B35
:10353800CB78023BDBB2012B15D90020704700EB9A
:103548004310D0F8003923F40013C0F80039CB78C1
:10355800023BDBB2012BF0D8D0F8003943F080539E
:10356800C0F80039E9E7D0F8003B43F08053C0F8D1
:10357800003BE2E7D0F8003823F4FE63C0F80038D7
:10358800D0F80038090101F4FE610B43C0F8003897
:1035980000207047D0F8003E23F00303C0F8003E37
:1035A800D0F8043823F00203C0F80438002070472C
:1035B800D0F8003E23F00303C0F8003ED0F80438EA
:1035C80043F00203C0F8043800207047426980695C
:1035D80010407047D0F8183800F50060C0691840EE
:1035E800000C7047D0F8183800F50060C069184022
:1035F80080B2704700EB4111D1F8082B00F500604C
:1036080040691040704710B4D0F81048D0F83438EA
:1036180001F00F02D340DB01DBB2234300EB411082
:1036280000F510608068184010BC7047406900F0D1
:1036380001007047D0F8003923F4FF6323F0070333
:10364800C0F80039D0F8043843F48073C0F804385F
:103658000020704710B4046C144B9C4203D9D0F876
:10366800003B002B16DB0024C0F8104BD0F8104BA1
:1036780044F40024C0F8104BD0F8104B44F0180460
:10368800C0F8104BD0F8104B44F0C044C0F8104BB1
:10369800012902D0002010BC7047C0F8142BD0F8C4
:1036A800003B43F08023C0F8003BF3E70A30544F57
:1036B800222303800048704708000020222303804B
:1036C800004870472C0000202223038000487047E0
:1036D80050000020D0F8BC3200201873704700005A
:1036E8000A230380004870477400002010B582B098
:1036F800D0F8BC420023ADF806300B7813F0600315
:1037080025D0202B75D14B78023B092B1BD8DFE83D
:1037180003F014091A1A1A1A1A1A0F058B7823605B
:10372800002069E00122214600F085FD002063E0C9
:103738004B881B0A636000205EE00122211D00F017
:103748007AFD002058E000F032FA032054E04B786C
:103758000B2B4AD8DFE803F0065249494949154975
:1037680049492E3D90F89C32032B06D102220DF1D7
:10377800060100F060FD00203EE000F018FA03208A
:103788003AE04B881B0A222B0AD0212B0ED1CA887B
:10379800092A28BF09221A4900F04DFD00202BE014
:1037A800CA884B2A28BF4B221649F5E700F0FFF9D3
:1037B800032021E090F89C32032B06D1012204F16A
:1037C800080100F038FD002016E000F0F0F90320B1
:1037D80012E090F89C32032B03D18B78A360002071
:1037E8000AE000F0E4F9032006E000F0E0F9032025
:1037F80002E000F0DCF9032002B010BD0020FBE776
:10380800CC0000208000002010B50446812101F082
:103818001DF9002323876387D4F8BC0220B102F086
:10382800F3FB0023C4F8BC32002010BD38B50446B1
:10383800102002F0E1FB88B10546C4F8BC02237CE5
:103848008BB907236387042303228121204601F0D3
:10385800F2F8012323870020287338BD0023C4F819
:10386800BC320220F9E70A236387ECE738B5D0F8C1
:10387800BC5290F89C42032C01D0002038BD2B7B11
:10388800002BFAD113460A4601212973812101F040
:10389800FDF8F2E7C0B108B50346D0F8B80210B198
:1038A8000020C3F8B802D3F8CC0210B10020C3F846
:1038B800CC0209B1C3F8B4121846012380F89C322F
:1038C800027001F029F808BD0320704710B582B0D6
:1038D8000023ADF8063059B10446C4F8B8128B6A13
:1038E8000DF106009847C4F8CC02002002B010BDC4
:1038F8000320FBE708B501F096F808BD08B5D0F835
:10390800B83213B11B68984708BD0320FCE708B517
:10391800D0F8B8320BB15B689847002008BD38B5BD
:10392800044600F2AA25284600F02DF90123C4F820
:103938009432B4F8B032C4F8983294F8AA1201F06C
:103948001F03012B0DD03BB1022B0FD001F08001DA
:10395800204601F083F803E02946204600F0DFFA0C
:1039680038BD2946204600F015FBF9E729462046D0
:1039780000F044FBF4E710B5044629BB1346D0F821
:103988009422032A01D0002029E0D0F85C11D0F855
:10399800602191420DD8D0F8B8321B6923B190F854
:1039A8009C22032A00D19847204600F061FC0020A1
:1039B80015E0891AC0F85C118A4228BF0A461946E0
:1039C80000F04EFC00200AE00A46D0F8B8329B69A5
:1039D80033B190F89C12032904D11146984710BDC1
:1039E8000320FCE70320FAE710B50446002946D176
:1039F8001346D0F89422022A05D094F8A032012B5D
:103A080039D0002046E0C269016A8A4213D88A4246
:103A18001DD0D4F8B832DB682BB194F89C22032A65
:103A280001D1204698478021204601F017F820460A
:103A380000F029FCE1E7521AC261194600F008FCBF
:103A480000231A461946204601F028F8D5E783696D
:103A58009942DED8D0F898229342DAD20022114651
:103A680000F0F6FB0021C4F898120B460A462046DF
:103A780001F014F8C1E7002084F8A0020AE00A4621
:103A8800D0F8B8325B6933B190F89C12032904D19D
:103A98001146984710BD0320FCE70320FAE770B5EC
:103AA8000446012380F89C320023C0F89432436016
:103AB800C0F8A432D0F8BC3223B1D0F8B8325B6871
:103AC80000219847402300221146204600F0B3FF0A
:103AD8000126A4F864614025C4F860512B460022F1
:103AE8008021204600F0A7FFA6842562002070BD33
:103AF80001740020704790F89C3280F89D320423AE
:103B080080F89C320020704790F89C32042B01D03A
:103B18000020704790F89D3280F89C32F8E708B58D
:103B280090F89C32032B01D0002008BDD0F8B832A1
:103B3800DB69002BF8D09847F6E700207047002093
:103B480070470020704708B5012380F89C32D0F8F0
:103B5800B83213B15B6801799847002008BD00238B
:103B680002E00133DBB201300278002AF9D11846AD
:103B7800704708B54B88012B00D008BDC0F8A432A7
:103B880000F076FBF9E70B7803704B7843708B787D
:103B9800CA7843EA022343800B794A7943EA02232D
:103BA80083808B79CA7943EA0223C380704710B5B2
:103BB8000446802100F052FF0021204600F04EFF0D
:103BC80010BD30B583B004460D460023ADF806306D
:103BD8004A88130A013B0E2B00F2BC80DFE803F091
:103BE800153044BABA9EABBABABABABABABA080069
:103BF800D0F8B432DB6923B10DF10601007C984797
:103C08000AE02946FFF7D3FF18E0D0F8B4321B6862
:103C18000DF10601007C9847EA88002A00F0A3808D
:103C2800BDF80630002B00F099809A4228BF1A464A
:103C3800ADF806200146204600F0FDFA03B030BD7D
:103C4800037C43B9D0F8B8329B6A0DF10600984757
:103C580002234370E0E7D0F8B832DB6A0DF10600C2
:103C6800984702234370D7E7D2B2052A52D8DFE833
:103C780002F003101D2A3744D0F8B4325B6823B130
:103C88000DF10601007C9847C6E72946FFF78FFF2C
:103C9800D4E7D0F8B4329B6823B10DF10601007C5B
:103CA8009847B9E72946FFF782FFC7E7D0F8B4324B
:103CB800DB6823B10DF10601007C9847ACE7294683
:103CC800FFF775FFBAE7D0F8B4321B6923B10DF1DD
:103CD8000601007C98479FE72946FFF768FFADE794
:103CE800D0F8B4325B6923B10DF10601007C984726
:103CF80092E72946FFF75BFFA0E7D0F8B4329B694B
:103D080023B10DF10601007C984785E72946FFF7A6
:103D18004EFF93E72946FFF74AFF8FE7037C33B945
:103D2800D0F8B8325B6B0DF10600984774E7294666
:103D3800FFF73DFF82E7037C43B9D0F8B8321B6B2D
:103D48000DF1060098470723437065E72946FFF7FA
:103D58002EFF73E72946FFF72AFF6FE7294620461B
:103D6800FFF725FF6AE7204600F082FA66E738B5D4
:103D780004468B88F3B9CB88E3B94B887F2B19D8D5
:103D880003F07F0590F89C32032B0CD080F89E52EC
:103D9800294600F073FE204600F06AFA35B1022386
:103DA80084F89C3209E0FFF702FF06E0012384F85B
:103DB8009C3202E02046FFF7FAFE38BD70B5044693
:103DC8000D4689782E4B197001290FD890F89C322E
:103DD800022B11D0032B25D02946FFF7E8FE284BEC
:103DE80019782046FFF793FD032603E02946FFF7DD
:103DF800DEFE0326304670BD81B14160FFF77EFDCF
:103E0800064620B129462046FFF7D1FEF2E72046B4
:103E180000F02EFA032384F89C32EBE700F028FA2E
:103E28000026E7E7C9B14368994225D0D9B2FFF720
:103E38006EFD134B197861602046FFF75FFD06465B
:103E4800B0B129462046FFF7B2FE21792046FFF798
:103E58005EFD022384F89C32CCE7022380F89C3272
:103E68004160FFF754FD204600F002FA0026C1E742
:103E7800204600F0FDF9BDE700F0FAF90026B9E7A1
:103E8800F401002008B5CB88012B0BD190F89C32A7
:103E98009BB1022B09D9032B0FD10122011D00F080
:103EA800CAF901E0FFF783FE08BD0146002341F887
:103EB800083F012200F0BFF9F6E7FFF778FEF3E7C5
:103EC80008B590F89C32013B022B12D8CB88022B04
:103ED8000CD10123C360D0F8A4320BB10323C36013
:103EE800022200F10C0100F0A6F908BDFFF75FFE01
:103EF800FBE7FFF75CFEF8E708B590F89C32013B5A
:103F0800022B09D84B88012B00D008BD0023C0F82C
:103F1800A43200F0ADF9F8E7FFF749FEF5E708B578
:103F28000B7803F06003202B06D0402B04D043B15C
:103F3800FFF73DFE002003E0D0F8B8329B689847B1
:103F480008BD4B78092B21D8DFE803F0141C201892
:103F580020090520100DFFF734FE0020F0E7FFF7D9
:103F680006FF0020ECE7FFF729FFE9E7FFF78AFFE4
:103F78000020E5E7FFF7A4FF0020E1E7FFF7F9FDE0
:103F88000020DDE7FFF7B8FF0020D9E7FFF70FFEB5
:103F98000020D5E770B505460C460B7803F06003A2
:103FA800202B07D0402B05D023B1FFF700FE0026B9
:103FB800304670BD95F89C32013B022B18D8237906
:103FC800012B0FD8D5F8B8329B6821462846984768
:103FD8000646E388002BEBD10028E9D1284600F0FB
:103FE80047F9E5E721462846FFF7E1FD0026DFE728
:103FF80021462846FFF7DBFD0026D9E738B50546F8
:104008000C468A880B7803F06003202B08D0D1B2C5
:10401800402B05D05BB12146FFF7C9FD002005E024
:10402800D5F8B8329B6821462846984738BD63784A
:10403800012B2FD0002B5ED0032B40F0D98090F8B5
:104048009C32022B06D0032B15D02146FFF7AFFD7B
:104058000020EBE709B1802905D121462846FFF762
:10406800A6FD0020E2E700F0F9FC8021284600F0D8
:10407800F5FC0020DAE7638823B919B1802901D05B
:10408800E38823B1284600F0F3F80020CEE700F0DB
:10409800E5FCF7E790F89C32022B06D0032B15D0ED
:1040A8002146FFF784FD0020C0E709B1802905D12A
:1040B80021462846FFF77BFD0020B7E700F0CEFC3D
:1040C8008021284600F0CAFC0020AFE76388002B57
:1040D80040F0938011F07F0F0AD1284600F0C8F80D
:1040E800D5F8B8329B6821462846984700209DE7B6
:1040F80000F0BCFCF1E790F89C32022B06D0032BB1
:104108002AD02146FFF753FD00208FE709B1802907
:1041180013D112F0800F15D101F07F0101EB81015D
:104128008B0003F5A8712944043100240C60022295
:10413800284600F080F8204678E72146FFF737FD4B
:10414800002073E701F07F0101EB81018B0003F18F
:10415800100129440431E8E752B2002A1FDB01F0BC
:104168000F0303EB830398002844B0F864312BB3A2
:10417800002A29DB01F07F0202EB8202930003F59B
:10418800A8742C44043409B1802927D10023236062
:1041980002222146284600F04EF8002046E701F0AA
:1041A8000F0303EB830398002844838C002BDFD193
:1041B80021462846FFF7FBFC002037E72146284622
:1041C800FFF7F5FC002031E701F07F0202EB8202E5
:1041D800930003F110042C440434D4E7284600F07B
:1041E800CFFB10B101232360D2E700232360CFE780
:1041F8002146FFF7DCFC002018E7002016E7C8B1CD
:1042080070B50D4616460446FFF7A9FC013040007C
:104218003080287003236B70022307E0EA540134CE
:104228005A1CD2B20021A9540233DBB22278002AE8
:10423800F4D170BD704710B513460222C0F894221D
:104248008361C3610A46002100F020FC002010BDF4
:1042580008B513460A46002100F018FC002008BDE6
:1042680008B513460A46002100F018FC002008BDD6
:1042780008B50423C0F8943200231A46194600F002
:1042880005FC002008BD08B50523C0F894320023BA
:104298001A46194600F002FC002008BD2DE9F0413D
:1042A8008AB000240594069407940894099400940D
:1042B800374B1A6B42F004021A631A6B02F00402BD
:1042C8000092009A01941A6B42F080021A631A6BEA
:1042D80002F080020192019A02941A6B42F00102E4
:1042E8001A631A6B02F001020292029A03941A6B83
:1042F80042F008021A631A6B02F008020392039A4A
:1043080004941A6B42F002021A631B6B03F0020357
:104318000493049BDFF88880224620214046FCF75E
:1043280040FF1C4E22464FF480513046FCF739FFBF
:10433800194F224604213846FCF733FF4FF4005347
:104348000593164B0693079405A93046FCF744FEDF
:1043580020230593012506950794089405A940464E
:10436800FCF73AFE4FF4805305930695079408949A
:1043780005A93046FCF730FE0423059306950794FB
:10438800089405A93846FCF727FE0AB0BDE8F08175
:104398000038024000080240000C024000002110D2
:1043A8000000024008B50C480C4B03604FF48273C0
:1043B800436000238360C360036143614FF400726C
:1043C80082612022C2610362436283620A23C3625C
:1043D800FEF77CFA08BD00BFE4040020003C004062
:1043E80008B50848084B03604FF4E13343600023E5
:1043F8008360C36003610C2242618361C361FEF77D
:10440800B1FB08BD3C0500200044004030B5ADB00C
:10441800342200211FA801F0FFFD00241A941B94E8
:104428001C941D941E945C22214603A801F0F4FDFF
:104438000194204B1A6C42F080521A641B6C03F0F2
:1044480080530193019B02941B4B1A6842F440422B
:104458001A601B6803F440430293029B01231F93D5
:104468004FF4A0232093022525954FF4800326932B
:1044780004232793A8232893299507232A932B9568
:104488001FA8FEF741F80F231A931B951C944FF4AD
:10449800A0531D934FF480531E9305211AA8FDF7CE
:1044A8005DFC4FF480730393189403A8FDF72CFD6B
:1044B8002DB030BD00380240007000400000000000
:1044C80070B5FCF7DFFCFFF7A1FFFFF7E7FEFFF78A
:1044D80069FFFFF785FF00F04BF9374B01221A708F
:1044E80000225A709A70DA701A715A719A714FF4E0
:1044F80000513248FCF74EFE0128F8D043E0204630
:10450800294600F095FB22A3D3E90023FCF734F8F1
:1045180021A3D3E90023FBF779FEFCF7EFFA86B273
:104528002046294600F0CEFB1DA3D3E90023FCF763
:1045380023F819A3D3E90023FBF768FEFCF7DEFA9A
:1045480080B21D494E70C6F303268E70C870C0F342
:104558000320087107221A48FFF788F90420FCF79E
:10456800BDFC11A3D3E9002320462946FBF74EFEE4
:1045780004460D460EA3D3E9002320462946FCF73E
:1045880077FA0028BBD100240025F3E7AFF30080B9
:104598000000000070FE78400000000000FE9F4010
:1045A80000000000C0FE83407B14AE47E17A843FE0
:1045B800182D4454FB211940DC0400200008024057
:1045C8000C0200207047000000B583B00021009164
:1045D8000C4B5A6C42F480425A645A6C02F4804282
:1045E8000092009A01911A6C42F080521A641B6C76
:1045F80003F080530193019B0720FCF783FC03B071
:104608005DF804FB00380240F0B589B0002303933D
:10461800049305930693079302681A4B9A4201D0B4
:1046280009B0F0BD0024019403F5FE331A6C42F47E
:1046380000421A641A6C02F400420192019A029430
:104648001A6B42F004021A631B6B03F00403029313
:10465800029B0225039504950327069705230793D4
:10466800094E03A93046FCF7B7FC4FF440630393A7
:104678000495059406970623079303A93046FCF78B
:10468800ABFCCDE7003C00400008024000B589B013
:104698000023039304930593069307930268154B2D
:1046A8009A4202D009B05DF804FB0021019103F59C
:1046B800FA331A6C42F400321A641A6C02F40032AB
:1046C8000192019A02911A6B42F001021A631B6B64
:1046D80003F001030293029B0C2303930223049328
:1046E800032306930723079303A90348FCF774FCE5
:1046F800D8E700BF00440040000002407047FEE7D2
:10470800FEE7FEE7FEE770477047704708B5FCF71D
:10471800D3FB08BD08B50248FCF714FF08BD00BF6D
:104728007C05002008B503460B4A126842B10A4AC4
:10473800106803446A46934206D8074A136008BDC6
:10474800054A06491160F2E701F02CFC0C230360CE
:104758004FF0FF30F3E700BFF8010020880B00207E
:10476800024B4FF000629A60704700BF00ED00E016
:1047780008B500220B490C48FFF78CF848B90B49DB
:104788000948FFF7A3F838B90748FFF7B3F830B975
:1047980008BDFFF717FFF2E7FFF714FFF4E7FFF78D
:1047A80011FFF5E7540100200C020020D80000207A
:1047B80030B589B0002303930493059306930793B8
:1047C8000368B3F1A04F01D009B030BD00250195B1
:1047D800164C236B43F001032363236B03F001039F
:1047E8000193019B4FF4C0530393022304930323C3
:1047F80006930A23079303A90D48FCF7EDFB636BA7
:1048080043F0800363630295636C43F480436364FD
:10481800636C03F480430293029B2A462946432093
:10482800FCF782FB4320FCF7B3FBCDE700380240DE
:104838000000024008B500F57171D0F80404FFF7D4
:104848006EF808BD08B5C1EBC10293000344D3F864
:104858000822D0F80404FFF78EF808BD08B5C1EBAC
:10486800C102930003449A6CD0F80404FFF7BCF823
:1048780008BD08B5D0F80404FFF751F908BD10B514
:104888000446C3682BB1022B0DD0FFF79BFE012114
:1048980000E00021D4F80404FFF72AF9D4F804044E
:1048A800FFF7FDF810BD0121F4E7000010B504463C
:1048B800D0F80404FFF71FF92268D2F8003E43F04D
:1048C8000103C2F8003E236A23B1034A136943F087
:1048D8000603136110BD00BF00ED00E008B5D0F875
:1048E8000404FFF711F908BD08B5D0F80404FFF770
:1048F80026F908BD08B5D0F80404FFF71EF908BD6D
:1049080008B5D0F80404FFF71CF908BD08B5D0F8BD
:104918000404FFF718F908BD03780BB100207047AD
:1049280010B503461548C0F80434C3F8C4024FF064
:10493800A0430360062343600222C2600023036190
:104948008261C36103624362C3620363FCF799FC3B
:1049580080B90A4C80212046FDF7E9F94022002160
:104968002046FDF7C0F9802201212046FDF7BBF95A
:10497800002010BDFFF726FEEBE700BF7C050020F6
:10498800D0F8C43211F0800F08D101F07F01C1EBDB
:10499800C1018A00134493F8FE01704701F07F01BA
:1049A800C1EBC1018A00134493F83E007047000030
:1049B80010B5044611B1012916D010BD036A5BB9C0
:1049C8002268D2F8003E23F00103C2F8003ED4F872
:1049D8000404FFF799F8F0E7FFF718FD0C4A13698C
:1049E80023F006031361EBE70268D2F8003E43F0B8
:1049F8000103C2F8003ED0F80404FFF77CF8236AEC
:104A0800002BDAD0024A136943F006031361D4E796
:104A180000ED00E018B1022803D003207047002001
:104A280070470120704708B5D0F8C402FCF7C1FCF4
:104A3800FFF7F0FF08BD10B51C4613462246D0F814
:104A4800C402FDF708F8FFF7E5FF10BD08B5D0F878
:104A5800C402FDF741F8FFF7DDFF08BD08B5D0F83F
:104A6800C402FDF7C8F8FFF7D5FF08BD08B5D0F8B0
:104A7800C402FDF701F9FFF7CDFF08BD08B5D0F86E
:104A8800C402FCF7D4FFFFF7C5FF08BD08B5D0F88E
:104A9800C402FDF786F8FFF7BDFF08BD08B5D0F8DA
:104AA800C402FDF750F8FFF7B5FF08BD12230B80CD
:104AB800004870471401002004230B800048704709
:104AC800280100200C230B80004870472C0100208F
:104AD8000023934216D230B40BE0373401F8134068
:104AE80000015C00013400250D550133DBB293420F
:104AF80006D2040F092CF0D8303401F81340EFE740
:104B080030BC70477047000038B50B4B1868043349
:104B18001C6804331B68C01800D138BD074D082233
:104B280005F12601FFF7D4FF042205F136012046DE
:104B3800FFF7CEFFF1E700BF107AFF1F1401002036
:104B480008B51A230B80FFF7DFFF014808BD00BF37
:104B58003801002008B50A4628B105490548FFF77D
:104B68004EFB034808BD02490248FFF748FBF8E737
:104B780084090020D861000810B5044C0A46214673
:104B88000348FFF73CFB204610BD00BF8409002006
:104B9800F061000808B50A4628B105490548FFF73D
:104BA8002EFB034808BD02490248FFF728FBF8E737
:104BB800840900200462000808B50A4628B105499E
:104BC8000548FFF71CFB034808BD02490248FFF7E8
:104BD80016FBF8E78409002010620008DFF834D0DB
:104BE800002103E00C4B5B58435004310B480C4B3D
:104BF80042189A42F6D30B4A02E0002342F8043BDB
:104C0800094B9A42F9D3FFF7ABFD01F0D1F9FFF751
:104C180057FC7047000002200864000800000020CC
:104C2800D8010020D8010020880B0020FEE70000F2
:104C380030B5224A21F00043934287B01BDD204A59
:104C4800934205DD02460B46FBF7DEFA07B030BD9E
:104C580002AA00F07DF800F00303012B11D0022B0B
:104C680022D0D3B10124DDE90423DDE90201009457
:104C780000F0D2FFEAE70022002300F089FA07B02B
:104C880030BDDDE904450093DDE9020122462B46EB
:104C980000F0C2FF01F10041D8E7DDE90423DDE9B6
:104CA800020100F075FAD1E7DDE90423DDE902012C
:104CB80000F06EFA01F10041C8E700BFFB21E93FAF
:104CC800FFFFEF7F30B51F4A21F00043934287B0C2
:104CD8001BDD1D4A934205DD02460B46FBF794FA9D
:104CE80007B030BD02AA00F033F800F00300012835
:104CF800DDE9042311D002281BD098B1DDE90201B7
:104D080000F046FA01F10041EAE70023009300228F
:104D1800002300F081FF07B030BDDDE9020100F09B
:104D280037FADDE70124DDE90201009400F074FFA1
:104D3800D6E70124DDE90201009400F06DFF01F1DE
:104D48000041CDE7FB21E93FFFFFEF7F00000000B6
:104D58002DE9F04FC84E21F00047B7428FB00B46FF
:104D680040F38F809246C54A97420C4626DC0029BC
:104D7800B7A3D3E9002340F38F80FBF745FAC04B74
:104D88009F4204460D4600F04681B3A3D3E90023B1
:104D9800FBF73AFA02460B46CAE9002320462946A1
:104DA800FBF732FAACA3D3E90023FBF72DFA012570
:104DB800CAE9020128460FB0BDE8F08FB14A974210
:104DC80040F38980B04A974200F31C813D15A5F253
:104DD8001645A7EB055319461F460646FBF766FE20
:104DE800FBF760FB8046894602460B46304639464B
:104DF800CDE90889FBF708FA0022A44BFBF7BCFBB6
:104E080089468046FBF752FEFBF74CFB02460B46F1
:104E180006460F4640464946CDE90A67FBF7F4F9CE
:104E280000229A4BFBF7A8FB00220023CDE90C01D6
:104E3800FBF70AFE002800F05D8100233046394662
:104E48000022FBF701FE002814BF01230223904A29
:104E5800019202212A46009108A8514600F0BCFAA6
:104E6800002C054614DADAF80420DAF80C3002F1DE
:104E7800004203F100434542CAF80420CAF80C3046
:104E880006E0C2E9000100250024C2E90245002528
:104E980028460FB0BDE8F08FFBF7B8F9784B9F4272
:104EA80004460D4600F008816BA3D3E90023FBF705
:104EB800ADF902460B46CAE9002329462046FBF70E
:104EC800A3F965A3D3E90023FBF7A0F94FF0FF3559
:104ED800CAE90201DCE700F055FF61A3D3E900232A
:104EE80080468946FBF748FB00226A4BFBF78EF9A0
:104EF800FBF7DCFD0546FBF7D5FA55A3D3E90023FC
:104F0800CDE90401FBF738FB02460B46404649460B
:104F1800FBF77AF950A3D3E90023CDE90201DDE9D3
:104F28000401FBF729FB1F2D8046894602460B46E4
:104F3800DDE9020140F3B080FBF766F983460E46CF
:104F48003F15C6F30A53FB1A102B40F3B08046A353
:104F5800D3E90023DDE90401FBF70EFB804689460F
:104F680002460B46DDE90201FBF74EF902460B4605
:104F7800DDE90201CDE90623FBF746F942464B4637
:104F8800FBF742F93AA3D3E9002380468946DDE9D5
:104F98000401FBF7F1FA42464B46FBF735F90B469D
:104FA800024680468946DDE90601FBF72DF9C1F383
:104FB8000A53FF1A312F83460E4600F39D8002469E
:104FC8000B46CAE90023DDE90623CDE902235A4648
:104FD8003346DDE90201FBF717F942464B46FBF77A
:104FE80013F9002C02460B46CAE90223BFF650AF5C
:104FF80006F1004601F10041CAE900B6CAE902011A
:105008006D4245E70246FBF7FFF80025CAE90201B1
:10501800CAE900013CE714A3D3E90023FBF7F4F83D
:1050280013A3D3E900230D460446FBF7EDF8024627
:105038000B46CAE9002329462046FBF7E5F80CA3EE
:10504800D3E90023FBF7E0F80125CAE902011FE7CD
:1050580000004054FB21F93F3163621A61B4D03D2E
:1050680083C8C96D305FE43F0000601A61B4D03D69
:105078007370032E8A19A33BFB21E93F7BD90240B9
:10508800FB21F93FFB213941FFFFEF7F0000704111
:10509800A06200080000E03FFBF7B6F83A4B6A1E32
:1050A800834653F82230BB420E463FF449AF5A4676
:1050B8003346CAE900238AE72BA3D3E90023FBF789
:1050C800A5F82BA3D3E900230D460446FBF79EF869
:1050D80002460B46CAE9002329462046FBF794F806
:1050E80023A3D3E90023FBF791F84FF0FF35CAE972
:1050F8000201CDE60323AAE61FA3D3E90023DDE9D5
:105108000401FBF739FADDE9068906460F4602462F
:105118000B4640464946FBF777F802460B464046A1
:105128004946CDE90223FBF76FF832463B46FBF7C9
:105138006BF813A3D3E9002306460F46DDE9040103
:10514800FBF71AFA32463B46FBF75EF802460B4677
:1051580080468946DDE90201FBF756F883460E468C
:10516800A5E700BFAFF300800000601A61B4D03D2E
:105178007370032E8A19A33B0000002E8A19A33BE3
:10518800C14920259A837B3920620008000000006D
:105198002DE9F04F21F00046B6F1795F85B00C4655
:1051A80092469B4605466BDAFBF780FC002800F028
:1051B800E2802A46234628462146FBF7DDF974A3F8
:1051C800D3E9002380468946FBF7D6F972A3D3E9D1
:1051D8000023FBF71BF842464B46FBF7CDF970A3BB
:1051E800D3E90023FBF710F842464B46FBF7C4F916
:1051F8006DA3D3E90023FBF709F842464B46FBF7BA
:10520800BBF96BA3D3E90023FAF7FEFF42464B46EE
:10521800FBF7B2F968A3D3E90023FAF7F7FF424690
:105228004B46FBF7A9F9CDE900010022644B404643
:105238004946FBF7A1F9DDE9002306460F4640463B
:105248004946FBF799F95246804689465B46284607
:105258002146FBF791F902460B4640464946FAF7C4
:10526800D3FF02460B4630463946FAF7CDFF0246D1
:105278000B4600205349FAF7C7FF05B0BDE8F08F89
:1052880002460B46FBF778F941A3D3E90023804691
:105298008946FBF771F940A3D3E90023FAF7B6FF73
:1052A80042464B46FBF768F93DA3D3E90023FAF7DA
:1052B800ABFF42464B46FBF75FF93BA3D3E900231C
:1052C800FAF7A4FF42464B46FBF756F938A3D3E951
:1052D8000023FAF799FF42464B46FBF74DF936A3F0
:1052E800D3E90023FAF792FF4B464246FBF744F90D
:1052F800354B9E42CDE9000197DD344B9E424FF07D
:1053080000023DDCA6F5001300202E4916461F4674
:10531800FAF77AFFCDE902010022294B40464946B7
:10532800FBF72AF932463B46FAF76EFFDDE9002320
:1053380006460F4640464946FBF71EF95246804648
:1053480089465B4628462146FBF716F902460B4676
:1053580040464946FAF758FF02460B46304639465A
:10536800FAF752FF02460B46DDE90201FAF74CFF55
:1053780005B0BDE8F08F1349002005B0BDE8F08FF7
:10538800134B144FCDE902230026C5E7AFF3008085
:10539800D43888BEE9FAA8BDC4B1B4BD9EEE213E9A
:1053A800AD529C804F7E923E9015CB19A001FA3EDB
:1053B8007751C1166CC1563F4C5555555555A53FAB
:1053C8000000E03F0000F03F3233D33F0000E93FE8
:1053D8000000E73F0000D23F2DE9F04FADF5197D01
:1053E800BE4CA29EBE4D54F826700793D41E85FB72
:1053F8000465E417C4EBA50424EAE4741D46631CA1
:10540800A3EB8303013D02EBC30305937B190994C6
:105418000497019506460B91A4EB05041BD423447D
:105428005D1C20AF4FF000084FF00009DDF88CA29A
:1054380008E05AF82400FBF735F80134AC42E7E8F5
:10544800020108D0002CF4DA013440464946AC4247
:10545800E7E80201F6D1049B002BC0F2B083079B5A
:10546800A6F10802DB001146039220AA02EB030909
:10547800029301EB0308049B72AA02EBC30B0DF520
:10548800E07A019B002BC0F29581039C4D460026D3
:10549800002775E90223F4E90201FBF76DF80246DB
:1054A8000B4630463946FAF7B1FE444506460F46E4
:1054B800EFD1EAE80267DA4509F10809E1D1DDE947
:1054C8000204049920448B0082460BA8A3F1080229
:1054D800C31808930CAB13440A938B4698AB03EBA1
:1054E800CB03BBF1000F53E9284529DD70AB03EB73
:1054F800CB080DF1300900227A4B20462946FBF7EC
:105508003BF8FBF7D3FAFAF7CDFF0022764B0646B5
:105518000F46FBF731F802460B4620462946FAF7B4
:1055280073FEFBF7C3FA78E9022349F8040B3946FE
:105538003046FAF76BFE70AB984504460D46DAD153
:10554800DDF81490204629464A4600F0A5FC0022C2
:105558004FF07F5304460D46FBF70EF800F018FC99
:105568000022624BFBF708F802460B462046294604
:10557800FAF74AFE0D460446FBF798FA8046FAF712
:1055880091FF0B46024629462046FAF73DFE4B4658
:10559800002B06460F4640F3E1800BF1FF320CA9C1
:1055A800C9F1180351F8225045FA03F101FA03F33F
:1055B8000CA8EB1A40F82230C9F11705884443FAC1
:1055C80005F5002D2CDDBBF1000F08F1010840F3B3
:1055D80094820C9C002C40F0A780BBF1010F0AD0EC
:1055E8000CA9012251F8044F531C002C40F09E8056
:1055F8009B451A46F6D1059B002B0EDD012B00F0CA
:105608009C81022B09D10BF1FF320CAB0CA953F88A
:105618002230C3F3150341F82230022D00F0AF8089
:105628000022002330463946FBF70EFA002800F026
:105638006682049B0BF1FF394B4510DC0BF180436C
:105648000CAA013B089802EB8303002253F80419C3
:10565800834242EA0102F9D1002A40F0B580049B56
:105668000CAA013B52F82330002B40F0A1800A9A83
:10567800012352F8041901330029FAD05B440BF1D5
:1056880001099945069349DC099A079909EB02082B
:1056980001EB0B0508F1804802EB030BA39B08F113
:1056A800FF3803EB880870AB03EBC909A39B20A95B
:1056B80003EB8B0301EBC505029358F8040FFAF7C7
:1056C800F1FE019B002BC5E9000105F1080B28DB61
:1056D800083D039C002600270CE000BFE863000893
:1056E800ABAAAA2A0000703E0000704100002040CA
:1056F80075E80201F4E90223FAF73EFF02460B4679
:1057080030463946FAF782FD544506460F46EFD132
:10571800029B9845E9E802675D46CED1DDF818B0EE
:10572800DCE600260027F3E7012300220CA9C4F1D8
:1057380080749B4541F822400EDD51F8232001EB8F
:105748008B0001EB83036FF07F4100E01A688A1A2F
:1057580043F8042B8342F9D101244CE706D10BF11D
:10576800FF330CAA52F82350ED152AE70022BE4B4E
:10577800FBF788F9002840F0B981054650E7324622
:105788003B460020B949FAF73FFD06460F46002C74
:105798003FF446AF059AB549002000F07DFB02466C
:1057A8000B4630463946FAF72FFD06460F4637E7CF
:1057B800012363E700260027EAE80267DA4509F1D2
:1057C80008097FF45EAE7AE60CAB059A53F82930E7
:1057D800183ACDE9068505926BB909F18043013B7A
:1057E8000CA901EB830353F8041909F1FF39183A9E
:1057F8000029F8D00592059A9C49002000F04CFB3E
:10580800B9F1000F04460D46C0F2E0814FEAC90322
:1058180070AA02EB030808930CAB03EB8906DFF8C8
:1058280050B208F1080704364FF0000A56F8040D84
:10583800FAF738FE22462B46FAF79EFE5B4667E9E2
:105848000201524620462946FAF796FE0CAB9E42C4
:1058580004460D46EAD148AB03930193CDF8149062
:1058680009F10103DDF810900293C3464FF0000AD6
:10587800B9F1000FC0F23781DFF8F8815D4678A3EF
:10588800D3E9002300260027002403E0544510DC58
:10589800F8E80223F5E80201FAF76EFE02460B4625
:1058A80030463946FAF7B2FC0134A14506460F46A0
:1058B800ECDA019BE3E802670193029B0AF1010A13
:1058C8009A45ABF1080BD3D1A29BDDF81490032BBA
:1058D8002CD8DFE813F0E800D300D3003F00079B83
:1058E80000200146002B40F043810D460B460B99E2
:1058F8000446C1E9004503990246D1E90001FAF7D7
:1059080083FCB9F1000F0CDD039D0124F5E90223A6
:105918000134FAF77BFCA145F8DA079B002B40F02D
:1059280037810B460B990246C1E90223069B03F017
:1059380007000DF5197DBDE8F08F0BF1FF320CABB8
:105948000CA953F82230C3F3160341F8223064E659
:1059580048AB0393B9F1000F40F35581039ACDF892
:1059680008904FEAC90302EB0308D8E900AB01939A
:10597800914658E9026752465B4630463946FAF77F
:1059880045FC04460D4602460B4630463946FAF7B2
:105998003BFC52465B46FAF739FCC8E9000168E966
:1059A8000245C145A246AB46E3D1DDF80890B9F1FE
:1059B800010F40F32881019B039A1344D3E9006740
:1059C80001939A460DF5947B5AE9028932463B4683
:1059D80040464946FAF71AFC04460D4602460B466D
:1059E80040464946FAF710FC32463B46FAF70EFCA9
:1059F800CAE900016AE90245D34526462F46E3D1A4
:105A08000399019C002301F11005083419461E462C
:105A1800304674E90223FAF7F9FBA5420346F6D1AA
:105A28000A460399D1E9008CD1E902E907990029CE
:105A380000F0B1800B9C2361069BC4F800800CF138
:105A4800004009F1004102F10042606003F00700E4
:105A5800E1606261C4F808E00DF5197DBDE8F08FDA
:105A680000000040FB21F93F0000E03F0000F03F4C
:105A78000000703EB063000848AB0393B9F1000F13
:105A8800FFF62DAF039F002007EBC9060836014635
:105A980076E90223FAF7BAFBB742F9D1079B002B44
:105AA8003FF423AF64E0089C039D083400222C4493
:105AB80011461646304674E90223FAF7A7FBA542B9
:105AC8000246F6D10B46079909B103F1004319467E
