:020000040800F2
:100000000000022061400008753B0008773B0008B3
:10001000793B00087B3B00087D3B000800000000A6
:100020000000000000000000000000007F3B00080E
:10003000813B000800000000833B0008853B00086E
:10004000B1400008B1400008B1400008B1400008CC
:10005000B1400008B1400008B1400008B1400008BC
:10006000B1400008B1400008B1400008B1400008AC
:10007000B1400008B1400008B1400008B14000089C
:10008000B1400008B1400008B1400008B14000088C
:10009000B1400008B1400008B1400008B14000087C
:1000A000B1400008B1400008B1400008B14000086C
:1000B000B1400008B1400008B1400008B14000085C
:1000C000B1400008B1400008B1400008B14000084C
:1000D000B1400008B1400008B1400008B14000083C
:1000E000B1400008B1400008B1400008B14000082C
:1000F000B1400008B1400008B1400008B14000081C
:10010000B1400008B1400008B1400008B14000080B
:10011000B1400008B1400008B1400008B1400008FB
:10012000B1400008B1400008B1400008B1400008EB
:10013000B14000080000000000000000B1400008CD
:10014000B1400008B1400008B14000088D3B0008F4
:10015000B1400008B1400008B1400008B1400008BB
:10016000B1400008B1400008B1400008B1400008AB
:10017000B1400008B1400008B14000080000000094
:1001800000000000B1400008000000000000000076
:10019000B14000080000000000000000B14000086D
:1001A000000000000000000000000000B140000856
:1001B000B1400008B1400008B1400008B14000085B
:0401C000B140000842
:1001C40010B5054C237833B9044B13B10448AFF38D
:1001D40000800123237010BDD8010020000000001E
:1001E400AC42000808B5034B1BB103490348AFF305
:1001F400008008BD00000000DC010020AC420008C3
:1002040053B94AB9002908BF00281CBF4FF0FF3179
:100214004FF0FF3000F072B9ADF1080C6DE904CE77
:1002240000F006F8DDF804E0DDE9022304B07047CD
:100234002DE9F047089E04468846002B4BD18A429C
:10024400154667D9B2FA82F24AB1C2F1200701FA1F
:1002540002F320FA07F7954047EA030894404FEA6F
:10026400154E230CB8FBFEF71FFA85FC0EFB17880E
:1002740043EA084307FB0CF1994209D9EB1807F14B
:10028400FF3080F01B81994240F21881023F2B44D9
:100294005B1AA4B2B3FBFEF00EFB103344EA034432
:1002A40000FB0CFCA44509D92C1900F1FF3380F0A4
:1002B4000781A44540F2048102382C4440EA0740F7
:1002C400A4EB0C0400271EB1D4400023C6E900436C
:1002D4003946BDE8F0878B4209D9002E00F0EB8047
:1002E4000027C6E9000138463946BDE8F087B3FA6D
:1002F40083F7002F47D18B4202D3824200F2FA8067
:10030400841A61EB030301209846002EE0D0C6E96D
:100314000048DDE702B9FFDEB2FA82F2002A40F0BB
:100324008F80491B4FEA154E1FFA85F80127B1FB50
:10033400FEFC230C0EFB1C1143EA014308FB0CF1E9
:10034400994207D9EB180CF1FF3002D2994200F21E
:10035400CD808446591AA3B2B1FBFEF00EFB1014F3
:1003640043EA044408FB00F8A04507D92C1900F11E
:10037400FF3302D2A04500F2B6801846A4EB08046D
:1003840040EA0C409FE7C7F1200CBB4022FA0CFE68
:100394004EEA030E01FA07F420FA0CF521FA0CF3E5
:1003A4004FEA1E482543B3FBF8F92C0C08FB19331C
:1003B4001FFA8EFA44EA034309FB0AF49C4202FA48
:1003C40007F200FA07F10BD91EEB030309F1FF3022
:1003D40080F087809C4240F28480A9F10209734432
:1003E4001B1BADB2B3FBF8F008FB103345EA034422
:1003F40000FB0AFAA24508D91EEB040400F1FF33FE
:100404006BD2A24569D90238744440EA0940A0FB82
:100414000289A4EB0A044C45C2464B4654D351D03E
:10042400002E69D0B1EB0A0564EB030404FA0CFC5A
:10043400FD40FC404CEA0505C6E90054002747E7A7
:10044400C2F1200320FA03F7954001FA02F021FAE1
:1004540003F34FEA154E3843010CB3FBFEF71FFAC2
:1004640085F80EFB173341EA034107FB08F38B427F
:1004740004FA02F407D9691807F1FF3C2FD28B4222
:100484002DD9023F2944CB1A81B2B3FBFEF00EFBF7
:10049400103341EA034100FB08F38B4207D9691882
:1004A40000F1FF3C17D28B4215D902382944C91AEE
:1004B40040EA07473BE73746304609E70746E7E6A1
:1004C4001846FBE64145ABD2B8EB020A69EB0E02D3
:1004D40001381346A4E76046E9E7184695E76746FE
:1004E400D1E781467CE702382C4447E7ACF1020CA3
:1004F4002B442FE7384608E73746E9E6704700BF44
:1005040010B504460E4B18784FF47A73B3FBF0F32E
:100514000C4A1068B0FBF3F000F0AAF868B90F2C8D
:1005240001D901200AE0002221464FF0FF3000F0FB
:100534005DF8034B5C60002000E0012010BD00BFAB
:10054400000000201001002008B50B4B1A6842F48B
:1005540000721A601A6842F480621A601A6842F4DF
:1005640080721A60032000F02FF80020FFF7C8FF04
:1005740003F0A6FA002008BD003C0240034A1168BB
:10058400034B1B780B441360704700BF0802002024
:1005940000000020014B1868704700BF08020020CB
:1005A40038B50446FFF7F6FF0546B4F1FF3F02D025
:1005B400044B1B781C44FFF7EDFF401BA042FAD309
:1005C40038BD00BF00000020074AD36823F4E0636D
:1005D4001B041B0C000200F4E060184340F0BF60F1
:1005E40040F40030D060704700ED00E030B4174BA9
:1005F400DB68C3F30223C3F10704042C28BF0424DB
:100604001D1D062D18D9033B4FF0FF3505FA04F4E0
:1006140021EA0401994005FA03F322EA030319438A
:1006240000280BDB0901C9B200F1604000F561400C
:1006340080F8001330BC70470023E5E700F00F009A
:100644000901C9B2024B1954F4E700BF00ED00E000
:1006540014ED00E0002807DB00F01F02400901232D
:100664009340024A42F82030704700BF00E100E0A6
:100674000138B0F1807F0AD2064B5860064AF02157
:1006840082F823100020986007221A607047012026
:10069400704700BF10E000E000ED00E000230F2BE6
:1006A40000F2D180F0B583B039E0062200E00022E8
:1006B400AA403A430234644D45F82420634A14683E
:1006C400F24302EA04054F6817F4803F01D046EA7A
:1006D40004055E4C2560646802EA04054F6817F45B
:1006E400003F01D046EA0405584C6560A46802EA5C
:1006F40004054F6817F4801F01D046EA0405534CE3
:10070400A560E46822404D6815F4001F01D046EA54
:1007140004024E4CE26001330F2B00F2928001225E
:100724009A400C6804EA0206B242F4D14C68651E91
:10073400012D03D9112C01D0122C12D185685F0030
:100744000324BC4025EA0405CC68BC402C438460E7
:10075400456825EA02054C68C4F300129A402A430E
:100764004260C4685F000322BA40D24314408D68DB
:10077400BD402543C5604C68022C01D0122C13D116
:10078400DD08083550F825E003F007044FEA840C2F
:100794000F2404FA0CF42EEA040E0C6904FA0CF487
:1007A40044EA0E0440F82540046822404C6804F0F2
:1007B4000304BC40224302604A6812F0805FAAD05E
:1007C40000220192224A546C44F480445464526CD2
:1007D40002F480420192019A9C08A51C1A4A52F81C
:1007E400257003F0030295000F22AA4027EA0207AE
:1007F400184A90423FF45BAF02F58062904216D0F3
:1008040002F58062904214D002F58062904212D0C8
:1008140002F58062904210D002F5806290420ED0C0
:1008240002F5806290423FF440AF072240E7012284
:100834003EE702223CE703223AE7042238E7052296
:1008440036E703B0F0BD704700380140003C01407A
:1008540000380240000002400369194201D100201F
:1008640070470120704712B90904816170478161A2
:1008740070472DE9F04782B00768CA00521A930006
:1008840003445A6D1B6D9A4257D8B8469B1AC1EB64
:10089400C104A2000244526C9A4200D31A460C4688
:1008A400064602F1030A4FEA9A0A16E009F1030A1E
:1008B4004FEA9A0AE3001B1B9D003544A96C337C64
:1008C40000931FFA89F3E2B2384601F0E5FFAB6CFE
:1008D4004B44AB646B6D4B446B6508EB441303F5FD
:1008E40010639B699BB2534513D3E3001B1B9A000F
:1008F4003244516D136D99420BD253B15B1AC4EB60
:10090400C4018A003244D2F844909945CED3994622
:10091400CCE7E3001B1B98000644326D736D9A42CA
:100924000FD804F00F040121A140D7F8344824EA79
:100934000104C7F83448002000E0012002B0BDE8FB
:10094400F0870020FAE7F0B58BB0002800F0918022
:100954000446056890F8BD3323B3032384F8BD33FC
:10096400EB6B13F4807F01D100232361206801F035
:100974002BFD254655F8107B6E460FCD0FC60FCDC7
:100984000FC695E8030086E80300231D0ECB384606
:1009940001F058FC58B1022384F8BD3301252846E0
:1009A4000BB0F0BD80F8BC3303F042F9D5E7002169
:1009B400206801F00FFD002315E0D900C81A820059
:1009C4002244012082F83D0082F83C30A2F84230F3
:1009D400002082F83F0050649064CA1A91002144B8
:1009E40008650133DBB26568AB42E6D3002315E04A
:1009F400D800C11A8A002244002182F8FD1182F82D
:100A0400FC3182F8FF11C2F80412C2F80812C21AAB
:100A140090002044C0F810120133DBB29D42E7D8A5
:100A2400254655F8107B6E460FCD0FC60FCD0FC669
:100A340095E8030086E80300231D0ECB384601F039
:100A44000FFD054660B9002384F83830012384F88B
:100A5400BD33636A012B08D0206802F0CCF89EE70E
:100A6400022384F8BD33012599E7204600F0C5FC34
:100A7400F2E7012593E7026890F8BC33012B19D003
:100A840010B5012380F8BC33836A012B0AD00446D5
:100A9400006801F093FC206802F09FF8002084F8BD
:100AA400BC0310BD8369012BF1D0936B43F48033F5
:100AB4009363ECE70220704770B504460D46006866
:100AC400066C00EB411303F530639A682169012930
:100AD40011D037498E4254D03DB9C5EBC5029300BD
:100AE4002344D3F81032002B5CD0E9B2204603F043
:100AF400E9F8002070BD12F0080F09D02D498E428C
:100B0400F7D912F4004FF4D04FF400429A60F0E7A2
:100B140012F0200F28D112F0280FEAD125498E4275
:100B240002D912F4004F22D1E900491B8A00224461
:100B3400D2F804121B69C3F31203C91AC2F81412BF
:100B4400D2F80412D2F808320B44C2F8083235B98C
:100B5400C5EBC50293002344D3F810325BB1E9B26C
:100B6400204603F0AFF8C4E720229A60C1E74FF4AF
:100B740000429A60BDE704F57172012102F08EF81B
:100B8400EDE712F4004F09D112F0200F01D020221A
:100B94009A60E9B2204603F095F8AAE74FF40042C0
:100BA4009A60A6E704F57172002102F077F89CE7D9
:100BB4000A31544F0A30544F38B5044603681D6C4B
:100BC40003EB4111D1F8082B0E4B9D4207D901F5D7
:100BD400306112F4004F02D04FF400438B60204682
:100BE40003F068F8074B9D4202D92369012B01D019
:100BF400002038BD04F571720121206802F04EF81E
:100C0400F6E700BF0A30544F2DE9F84F0446056853
:100C1400284602F02FF808B1BDE8F88F2F460646A3
:100C2400206801F0F6FF0028F6D0206801F0F1FFFB
:100C340010F0020F04D02268536903F002035361D9
:100C4400206801F0E6FF10F0100F15D022689369B8
:100C540023F010039361D5F8208008F00F09C8F33E
:100C64004343022B00F08580062B00F0A580226808
:100C7400936943F010039361206801F0CAFF10F4F4
:100C8400002F40F0AD80206801F0C3FF10F4802FE6
:100C940040F0F180206801F0BCFF0028C0F25F81C1
:100CA400206801F0B6FF10F4006F0AD0D5F80838B8
:100CB40013F0010F40F06D812268536903F400635F
:100CC4005361206801F0A5FF10F0006F15D0226871
:100CD400536903F00063536194F8F433002B40F03C
:100CE4005C81012184F8F41323685B6DC3F38303EF
:100CF400C4F8F833204603F09BF8206801F089FF1C
:100D040010F4805F40F04D81206801F082FF10F400
:100D1400005F40F0AC81206801F07BFF10F0080F09
:100D240040F0BD81206801F074FF10F4801F40F092
:100D3400BF81206801F06DFF10F4001F40F0C281F4
:100D4400206801F066FF10F0804F40F0C5812068F4
:100D540001F05FFF10F0040F3FF45EAF23685D689D
:100D640015F0040F40F0C181226853682B4353608F
:100D740052E747F6F07318EA030F3FF478AF4FEAEF
:100D8400C90BABEB09034FEA830AA2444FEA1818D4
:100D9400C8F30A02DAF80812284601F09FFEC8F3E5
:100DA4000A08DAF808324344CAF80832DAF8143286
:100DB4004344CAF814325AE7082204F571712846EC
:100DC40001F08CFEC8F30A184FEAC903A3EB09012A
:100DD4008A002244D2F814324344C2F8143246E75B
:100DE400206801F01AFF8046B14617E007EB49136B
:100DF4000122C3F8082B49462046FFF75DFE1DE09B
:100E040007EB49130822C3F8082B49462046FFF78D
:100E1400D3FE16E009F101094FEA5808B8F1000FB2
:100E24003FF431AF18F0010FF4D05FFA89F1206874
:100E340001F003FF824610F0010FD7D11AF0080F1A
:100E4400DED11AF0100F04D007EB49131022C3F8B7
:100E5400082B1AF0200F04D007EB49132022C3F803
:100E6400082B1AF4005FD5D007EB49134FF4005256
:100E7400C3F8082BCEE7206801F0D7FE8046B146C0
:100E84002AE05946204602F029FF1AF0080F04D040
:100E940007EB49130822C3F808291AF0100F04D0ED
:100EA40007EB49131022C3F808291AF0400F04D0A5
:100EB40007EB49134022C3F808291AF0020F04D0A3
:100EC40007EB49130222C3F808291AF0800F41D115
:100ED40009F101094FEA5808B8F1000F3FF4DAAEFE
:100EE40018F0010FF4D05FFA89FB5946206801F02D
:100EF400ADFE824610F0010FC7D009F00F030121A7
:100F040001FA03F2D7F8343823EA0203C7F8343875
:100F140007EB4913C3F8081923698B42B1D14FEA8F
:100F2400C902A2EB090293002344596C9A6C0A4447
:100F34009A64B9F1000FA4D1C9EBC9029300234408
:100F44001B6D002B9DD104F571720121206801F005
:100F5400A5FE96E749462046FFF78BFCB8E7D5F88F
:100F6400043823F00103C5F8043894F8F433012B52
:100F740008D0204602F0F2FE2268536903F00043D1
:100F840053618DE6002184F8F413204602F050FFEB
:100F9400F2E7204602F0CAFE8EE6204602F0C6FEC4
:100FA400ABE605F50068D8F8043023F00103C8F86F
:100FB40004301021206801F025FA20E007EB4613E5
:100FC4004FF67F31C3F80819D3F8002922F4001230
:100FD400C3F80029D3F8002942F00062C3F80029BD
:100FE400C3F8081BD3F8002B22F40012C3F8002B1B
:100FF400D3F8002B42F00062C3F8002B013663687B
:10100400B342DBD8D8F81C3043F00113C8F81C30C5
:10101400236BEBB1D8F8843043F00B03C8F8843069
:10102400D8F8443043F00B03C8F84430D5F80038FE
:1010340023F4FE63C5F8003804F57172217C20683E
:1010440001F02CFE2268536903F4805353615BE67C
:10105400D8F8143043F4005343F02B03C8F8143089
:10106400D8F8103043F00B03C8F81030DEE72068DE
:1010740001F004FE206801F0B7FAE060256800F092
:101084007FFA227B0146284601F022F9204602F02D
:1010940036FE2268536903F4005353613BE620464D
:1010A40002F027FE2268536903F00803536139E60E
:1010B4000021204602F05EFE2268536903F4801387
:1010C400536136E60021204602F04EFE2268536941
:1010D40003F40013536133E6204602F051FE226804
:1010E400536903F08043536131E6204602F04EFE1B
:1010F4003AE690F8BC33012B0DD010B50446012319
:1011040080F8BC3380F83810006801F056FD0020E8
:1011140084F8BC0310BD02207047F8B511F0800FAD
:1011240028D101F00F06F500AF1BBC00274604F5DB
:10113400FC74044404343E460644002586F8FD51FC
:1011440001F00F012170A260E370627802B1E180C6
:10115400022B1ED090F8BC33012B1DD00546012371
:1011640080F8BC332146006801F04FFA002085F86E
:10117400BC03F8BD01F00F06F500AF1BBC00274609
:101184003834044404343E460644012586F83D5070
:10119400D6E700232371DDE70220EAE738B511F032
:1011A400800F21D101F00F05EA00541BA3001C4657
:1011B40003F5FC730344043325460544002285F8F3
:1011C400FD2101F00F01197090F8BC23012A1AD0F7
:1011D4000446012280F8BC231946006801F060FA35
:1011E400002084F8BC0338BD01F00F04E200151B95
:1011F400AB001D463833034404332C460444012217
:1012040084F83D20DDE70220EDE770B501F00F051D
:10121400EE00711B8C0004F5FC740444211D761B44
:10122400B4000444C4F80822C4F810320023C4F8FB
:10123400143284F8FD3184F8FC510369012B06D083
:1012440065B1DAB2006801F03BFB002070BDC5EB6C
:10125400C506B4000444C4F80C22F1E7DAB200680D
:1012640001F08CFAF1E770B501F00F05EE00711B87
:101274008C0038340444211D761BB4000444A26459
:10128400236500236365012384F83D3084F83C50D2
:101294000369012B06D05DB1DAB2006801F010FBDE
:1012A400002070BDC5EBC506B4000444E264F2E757
:1012B400DAB2006801F062FAF2E738B501F00F051E
:1012C40043689D4236D811F0800F20D1CA00541AC9
:1012D400A3001C4603F5FC73034404332246024472
:1012E400002182F8FD1101229A701D7090F8BC2330
:1012F400012A21D00446012280F8BC231946006843
:1013040001F000FC7DB1002084F8BC0313E0EA0086
:10131400511B8B0019463833034404330144012222
:1013240081F83D20DFE704F57172217C206801F02B
:10133400B5FCE8E7012038BD0220FCE710B501F058
:101344000F0443689C422CD811F0800F1DD1E30098
:101354001A1B91000A4601F5FC7101440431024450
:10136400002382F8FD3100238B700C7090F8BC339D
:10137400012B18D00446012380F8BC33006801F027
:10138400EEFB002084F8BC030CE0E3001A1B910080
:101394000A463831014404310244012382F83D30C5
:1013A400E1E7012010BD0220FCE730B40468606A64
:1013B40029B10D46A36A00EB134000230CE040EA78
:1013C4000240A06212E003F1400104EB810149688C
:1013D40000EB11400133DBB2691E8B42F3D340EAC8
:1013E400024005F13F0104EB81014860002030BC5C
:1013F4007047036859620020704703460268012160
:10140400C0F8FC13002083F8F403936943F00063ED
:101414009361536D43F0805343F003035365704766
:10142400002800F09E8070B50446504B1B6803F002
:101434000F038B4209D2CBB24C4A1370136803F0EA
:101444000F038B4201D0012070BD236813F0020FFB
:1014540017D013F0040F04D0454A936843F4E053C3
:101464009360236813F0080F04D0414A936843F44F
:10147400604393603E4A936823F0F003A0680343FB
:1014840093600D46236813F0010F32D06368012B7B
:1014940021D09A1E012A25D9354A126812F0020F6A
:1014A40061D033498A6822F0030213438B60FFF74B
:1014B40071F806462E4B9B6803F00C036268B3EB8D
:1014C400820F16D0FFF766F8801B41F288339842EA
:1014D400F0D90320B8E7264A126812F4003FE0D19D
:1014E4000120B1E7224A126812F0007FD9D101200D
:1014F400AAE71E4B1B6803F00F03AB4209D9EAB2FB
:101504001A4B1A701B6803F00F03AB4201D0012081
:101514009AE7236813F0040F06D0154A936823F45E
:10152400E053E1680B439360236813F0080F07D07E
:101534000F4A936823F46043216943EAC10393602B
:1015440000F082FA0A4B9B68C3F30313094AD35C85
:10155400D840094B1860094B1868FEF7D1FF0020EA
:1015640072E70120704701206EE700BF003C024093
:1015740000380240C442000810010020040000208A
:10158400014B1868704700BF1001002008B5FFF731
:10159400F7FF044B9B68C3F38223034AD35CD84010
:1015A40008BD00BF00380240D442000808B5FFF768
:1015B400E7FF044B9B68C3F34233034AD35CD84030
:1015C40008BD00BF00380240D4420008F0B583B023
:1015D4000446036813F0010F0CD0964AD2F88C30FD
:1015E40023F0C063816B0B43C2F88C30836B3BB335
:1015F400002600E00026236813F0020F0BD08D4A6A
:10160400D2F88C3023F0C053E16B0B43C2F88C301A
:10161400E36B03B90126236813F0040F14D0854A41
:10162400D2F88C3023F44013216B0B43C2F88C3076
:10163400236BB3F5801F05D0002B7BD0002504E07D
:101644000126D8E70126F7E70025236813F0080FE1
:101654000ED0784AD2F88C3023F44003616B0B43EC
:10166400C2F88C30636BB3F5800F65D003B90125E4
:10167400236813F0200F61D1236813F0100F03D0F7
:1016840094F858206C4B1A60236813F0800F08D02C
:10169400684AD2F8943023F44003E16C0B43C2F857
:1016A4009430236813F0400F08D0624AD2F8943083
:1016B40023F08063A16C0B43C2F89430236813F4C5
:1016C400807F0DD05B4AD2F8943023F00063616DC3
:1016D4000B43C2F89430636DB3F1006F00F0958052
:1016E400236813F4007F08D0524AD2F8943023F0D0
:1016F4008053616C0B43C2F89430236813F4806FF9
:101704000CD04C4AD2F8943023F00053216D0B4393
:10171400C2F89430236DB3F1005F78D0002E76D1F7
:101724002368B3F5006F72D0002D40F022810020B1
:1017340003B0F0BD012588E7012697E70023019354
:101744003C4B1A6C42F080521A641B6C03F08053B9
:101754000193019B394A136843F480731360FEF7C5
:1017640019FF0746354B1B6813F4807F06D1FEF73B
:1017740011FFC01B0228F5D90320D9E72D4B1B6F9D
:1017840013F4407312D0226C02F440729A420DD0CA
:10179400284B1A6F22F44072294901200860002066
:1017A40008601A671B6F13F0010F12D1236C03F446
:1017B4004072B2F5407F1DD01E4A936823F4F8139B
:1017C40093601C490B6F226CC2F30B0213430B672B
:1017D40052E7FEF7DFFE0746164B1B6F13F0020FAE
:1017E400E4D1FEF7D7FEC01B41F288339842F3D907
:1017F40003209DE70F498A6822F4F81223F070430E
:1018040023F4407313438B60DBE7012568E70D4B3A
:1018140000221A60FEF7BEFE0646064B1B6813F054
:10182400006F11D0FEF7B6FE801B0228F5D9032005
:101834007EE700BF00380240E011474200700040DC
:10184400400E474268004742236813F0010F01D05D
:10185400A26B22B113F0020F15D0E36B9BB9774A48
:10186400D2F88400D2F884106368A66843EA861329
:1018740000F44030034301F070610B43616943EAB3
:101884000173C2F88430236813F0040F03D0226B71
:10189400B2F5801F06D013F0080F20D0636BB3F5A8
:1018A400800F1CD1654AD2F88400D2F88410636892
:1018B400A66843EA861300F440300343206943EAF0
:1018C400006301F0E0410B43C2F88430D2F88C305D
:1018D40023F01F03A16A01390B43C2F88C3023683B
:1018E40013F4806F03D0236DB3F1005F28D0236815
:1018F40013F4006F11D06368A26843EA8213E268AC
:101904005208013A43EA0243226943EA02636269E4
:1019140043EA0273494AC2F88430494B01221A60EF
:10192400FEF738FE0646454B1B6813F0006F7FF444
:10193400FBAEFEF72FFE801B0228F4D90320F7E646
:101944003E48D0F88430C3F301435A1CD0F8846075
:101954006368A16843EA8113E1684908013943EAED
:10196400014343EA426306F0E0421343C0F8843083
:10197400BDE7344B00221A60FEF70CFE05462F4BE0
:101984001B6813F0005F06D0FEF704FE401B02281C
:10199400F5D90320CCE6236813F0040F01D0226BA1
:1019A40022B113F0080F1AD0636BC3B9234AD2F8DB
:1019B4008810A369E06943EA801301F440310B43C2
:1019C400616A43EA0163C2F88830D2F88C3023F4A8
:1019D400F853E16A013943EA0123C2F88C302368E1
:1019E40013F4807F03D0636DB3F1006F11D0154BF6
:1019F40001221A60FEF7CEFD0446104B1B6813F05B
:101A0400005F18D1FEF7C6FD001B0228F5D903209C
:101A14008EE60A48D0F88810A369E26943EA821383
:101A2400226A5208013A43EA024301F07062134306
:101A3400C0F88830DBE700207AE600BF00380240B7
:101A440068004742700047422DE9F04B5C4B9B68AD
:101A540003F00C03082B07D00C2B5BD0042B00F0F5
:101A6400AD805848BDE8F08B554B5A6802F03F02F0
:101A74005B6813F4800F2AD0514B5B68C3F388135F
:101A84001E4600275C010025E41A65EB0705A90141
:101A940041EA9461A001001B61EB0501CB0043EA1C
:101AA4005073C400A01943EB07014B0243EAD0531F
:101AB4004402204619460023FEF7A2FB404B5B6814
:101AC400C3F3014301335B00B0FBF3F0CAE73C4BC3
:101AD4005B68C3F388131E4600275C010025E41AE3
:101AE40065EB0705A90141EA9461A001001B61EBC4
:101AF4000501CB0043EA5073C400A01943EB07016E
:101B04008B0243EA90538402204619460023FEF7D1
:101B140077FBD3E72A4B5A6802F03F025B6813F461
:101B2400800F28D0264B5B68C3F388131E4600271A
:101B34005C010025E41A65EB0705A90141EA9461FB
:101B4400A001001B61EB0501CB0043EA5073C40004
:101B5400A01943EB07014B0243EAD0534402204649
:101B640019460023FEF74CFB154B5B68C3F3027365
:101B7400B0FBF3F076E7124B5B68C3F388131E46A1
:101B840000275C010025E41A65EB0705A90141EA79
:101B94009461A001001B61EB0501CB0043EA507383
:101BA400C400A01943EB07018B0243EA905384025B
:101BB400204619460023FEF723FBD5E7024851E7E8
:101BC400003802400024F40000127A0070B582B09C
:101BD4000446036813F0010F41D0A64B9B6803F041
:101BE4000C03042B32D0A34B9B6803F00C03082B8B
:101BF40027D0A04B9B6803F00C030C2B59D06368CF
:101C0400B3F5803F5BD0B3F5A02F5ED0994B1A6833
:101C140022F480321A601A6822F480221A606368FF
:101C2400002B5CD0FEF7B6FC0546924B1B6813F400
:101C3400003F14D1FEF7AEFC401B6428F5D9032005
:101C44009DE18C4B5B6813F4800FD2D0894B1B68E9
:101C540013F4003F03D06368002B00F08D812368E8
:101C640013F0020F67D0834B9B6813F00C0F4AD01C
:101C7400804B9B6803F00C03082B3FD07D4B9B6883
:101C840003F00C030C2B48D0E368002B74D07A4B80
:101C940001221A60FEF77EFC0546764B1B6813F0A2
:101CA400020F60D1FEF776FC401B0228F5D9032011
:101CB40065E1704B5B6813F4800FA0D0C6E76D4AF2
:101CC400136843F480331360A9E76A4B1A6842F43B
:101CD40080221A601A6842F480321A609FE7FEF785
:101CE40059FC0546634B1B6813F4003FB7D0FEF75D
:101CF40051FC401B6428F5D9032040E15D4B5B682F
:101D040013F4800FBAD15B4B1B6813F0020F0AD097
:101D1400E368012B07D0012031E1564B5B6813F4D3
:101D2400800FB1D1EFE7534A136823F0F803216918
:101D340043EAC1031360236813F0080F40D06369BA
:101D440063B34E4B01221A60FEF724FC0546494B4F
:101D54005B6F13F0020F33D1FEF71CFC401B02280B
:101D6400F5D903200BE1434A136823F0F8032169F2
:101D740043EAC1031360DEE73F4B00221A60FEF71B
:101D840009FC05463B4B1B6813F0020FD3D0FEF74A
:101D940001FC401B0228F5D90320F0E0374B002258
:101DA4001A60FEF7F7FB0546324B5B6F13F0020F28
:101DB40006D0FEF7EFFB401B0228F5D90320DEE036
:101DC400236813F0040F79D02A4B1B6C13F0805F47
:101DD40033D100230193274B1A6C42F080521A64CA
:101DE4001B6C03F080530193019B0125244B1B685A
:101DF40013F4807F23D0A368012B34D0052B41D06A
:101E04001C4B1A6F22F001021A671A6F22F00402A7
:101E14001A67A368002B3FD0FEF7BCFB0646154BA0
:101E24001B6F13F0020F48D1FEF7B4FB801B41F285
:101E340088339842F3D90320A1E00025D6E7104A5D
:101E4400136843F480731360FEF7A4FB06460C4B3F
:101E54001B6813F4807FCED1FEF79CFB801B022805
:101E6400F5D903208BE0034A136F43F00103136792
:101E7400CFE700BF0038024000004742800E4742CF
:101E840000700040404B1A6F42F004021A671A6F48
:101E940042F001021A67BCE7FEF77CFB06463A4BA8
:101EA4001B6F13F0020F08D0FEF774FB801B41F286
:101EB40088339842F3D9032061E0E5B9A369002B84
:101EC4005CD0314A926802F00C02082A59D0022BE5
:101ED40017D02E4B00221A60FEF75CFB04462A4BF7
:101EE4001B6813F0007F45D0FEF754FB001B02284B
:101EF400F5D9032043E0244A136C23F08053136480
:101F0400DCE7224B00221A60FEF744FB05461E4B19
:101F14001B6813F0007F06D0FEF73CFB401B022831
:101F2400F5D903202BE0E369226A1343626A43EA8A
:101F34008213A26A5208013A43EA0243E26A43EA7C
:101F44000263226B43EA02730F4A53600F4B012270
:101F54001A60FEF71FFB04460B4B1B6813F0007F4F
:101F640006D1FEF717FB001B0228F5D9032006E073
:101F7400002004E0002002E0012000E0002002B084
:101F840070BD0120FBE700BF0038024060004742FB
:101F94002DE9F04B04460268136923F44053C168E9
:101FA4000B43136183680269134342691343C26993
:101FB4001A430168CB6823F4164323F00C0313433C
:101FC400CB600268536923F4407381690B43536106
:101FD400C369B3F5004F3BD00368714A934200F0E4
:101FE400AB8002F58062934200F0A680FFF7CEFA40
:101FF4004FF00009061849EB090716EB000B47EBF5
:10200400090C4FEACC0343EA5B734FEACB029346D5
:102014009C4663689A009B0F10EB0B0049EB0C0184
:10202400FEF7EEF85F4DA5FB00325109642202FB76
:10203400110213013233A5FB03235B0903F0F00201
:1020440002EB011203F00F03216813448B60A4E038
:102054000368534A934239D002F58062934235D0E3
:10206400FFF794FA83464FF0000C06184CEB0C076C
:1020740016EB000847EB0C094FEAC90343EA58730F
:102084004FEAC8029046994662680021921841EBD3
:1020940001031BEB08004CEB0901FEF7B1F8414DBD
:1020A400A5FB00325109642202FB1102D300323332
:1020B400A5FB03235B095A0002F4F87202EB011238
:1020C40003F00703216813448B6066E0FFF76EFAA0
:1020D40080464FF00009061849EB090716EB000B80
:1020E40047EB090C4FEACC0343EA5B734FEACB029C
:1020F40093469C4662680021921841EB010318EB59
:102104000B0049EB0C01FEF77BF8264DA5FB0032D2
:102114005109642202FB1102D3003233A5FB0323CD
:102124005B095A0002F4F87202EB011203F0070390
:10213400216813448B6030E0FFF738FA4FF0000950
:10214400061849EB090716EB000B47EB090C4FEA9D
:10215400CC0343EA5B734FEACB0293469C46636825
:102164009A009B0F10EB0B0049EB0C01FEF748F8AB
:102174000C4DA5FB00325109642202FB110213012C
:102184003233A5FB03235B0903F0F00202EB0112D7
:1021940003F00F03216813448B60BDE8F08B00BF8C
:1021A400001001401F85EB5158B310B5044690F858
:1021B40039300BB3242384F839302268D36823F4EC
:1021C4000053D3602046FFF7E3FE2268136923F42B
:1021D400904313612268536923F02A0353612268F0
:1021E400D36843F40053D3600020E063202384F8D1
:1021F400393084F83A3010BD80F8383001F080FC72
:10220400D8E7012070470000002301330C4A9342B1
:1022140011D80269002AF8DA036943F00103036163
:1022240000230133064A934207D8026912F0010FD2
:10223400F7D100207047032070470320704700BF88
:10224400400D030084B010B5044603A880E80E00D6
:10225400089B012B1FD1A36B23F48033A363E36892
:1022640023F4840323F04003E360E36823F440137E
:10227400E3600F9B012B09D02046FFF7C5FF069BA7
:10228400012B1BD0BDE8104004B07047E36843F451
:102294008013E360F0E7E36843F04003E360204623
:1022A400FFF7B2FF0C9B23B9A36B43F48033A36302
:1022B400E5E7A36B23F48033A363E0E7A36843F06B
:1022C4000603A360A36843F02003A360DAE70000D9
:1022D400022A0AD00921C26822F47052C260C3687B
:1022E40043EA8123C360002070472A4B0B442A4AE7
:1022F40093423FD9294B0B44294A93423CD9A1F537
:102304007403A3F51053274A934237D9A1F1837379
:10231400A3F5E74302F5C332A032934230D9224BEE
:102324000B44224A93422DD9214B0B4402F59222AD
:1023340002F57872934227D91E4B0B4402F5C3224F
:1023440002F52072934221D9A1F1B773A3F5585332
:1023540002F5B71202F55872934219D9164B0B4481
:1023640002F5122202F5F862934201D90621B2E77E
:102374000721B0E70F21AEE70E21ACE70D21AAE754
:102384000C21A8E70B21A6E70A21A4E70921A2E76B
:102394000821A0E7405327FFFF340C00401E1BFF19
:1023A4003F420F007F4F120060B6E5FE5FE3160068
:1023B40000D3CEFEC05BB3FEE05459FE836843F005
:1023C4000103836000207047836823F00103836066
:1023D4000020704708B5C36823F0C043C3600129D7
:1023E40009D069B9C36843F08043C3603220FEF763
:1023F400D7F8002008BDC36843F00053C360F5E775
:102404000120F7E7890141F0200101610023013334
:10241400054A934205D8026912F0200FF7D1002033
:1024240070470320704700BF400D03001023036171
:1024340000230133054A934205D8026912F0100FB4
:10244400F7D1002070470320704700BF400D030000
:10245400D0F800381943C0F8001800207047000075
:1024640084B02DE9F041044607A880E80E00254613
:10247400002306E003F1400204EB820200215160D4
:1024840001330E2BF6D9119B23BBD4F8043843F047
:102494000203C4F80438A36B23F40013A363236872
:1024A40043F040032360236843F080032360002348
:1024B400C4F8003E04F50066D4F80038C4F80038C7
:1024C4000C9B012B10D1099B4BB900212046FFF72F
:1024D400BFFF0DE0A36B43F40013A363E7E70121FF
:1024E4002046FFF7B5FF03E003212046FFF7B0FFC6
:1024F40010212046FFF786FF804608B14FF00108FF
:102504002046FFF793FF08B14FF001080023336121
:102514007361F3610AE0C3B94FF00060C2F80009C7
:1025240000220A614FF67F328A600133079999428B
:1025340010D905EB431202F51061D2F80009002806
:10254400E9DB0020C2F80009EAE74FF09040C2F846
:102554000009E5E700230AE0BBB14FF09047C2F859
:10256400007B002202614FF67F3282600133994280
:1025740010D905EB431202F53060D2F8007B002F2E
:10258400EADB0027C2F8007BEBE74FF00067C2F8F4
:10259400007BE6E7336923F4807333610023A3618E
:1025A4006FF0804363610A9B1BB9A36943F0100376
:1025B400A361A2690B4B1343A3610D9B1BB1A369D8
:1025C40043F00803A361119B012B04D04046BDE8EE
:1025D400F04104B07047A36943F0804343F004031F
:1025E400A361F3E700383C80D0F8083813F0060301
:1025F40007D0022B07D0062B01D00F2070470220F2
:102604007047002070470220704770B40B784A78F6
:10261400012A22D0D0F81C2803F00F060124B4406C
:1026240042EA0442C0F81C2800EB4310D0F8003BF7
:1026340013F4004F0ED1D0F8003B8A68C2F30A02AB
:10264400C97842EA8142134343F0805343F4004380
:10265400C0F8003B002070BC7047D0F81C4803F061
:102664000F06B24092B22243C0F81C2800EB43107C
:10267400D0F8002912F4004FECD1D0F800298C686E
:10268400C4F30A04C97844EA814444EA83531343F3
:1026940043F0805343F40043C0F80039DAE7000004
:1026A40030B40B784A78012A24D000EB4313D3F8D2
:1026B400002B002A50DBD0F83C580A7802F00F02B5
:1026C400012404FA02F225EA0242C0F83C28D0F8B8
:1026D4001C28097801F00F018C4022EA0444C0F858
:1026E4001C48D3F8001B234A0A40C3F8002B0020DF
:1026F40030BC704700EB4313D3F80029002A1EDBDB
:10270400D0F83C580A7802F00F02012404FA02F2CD
:1027140092B225EA0202C0F83C28D0F81C280978B5
:1027240001F00F018C40A4B222EA0404C0F81C4852
:10273400D3F80019104A0A40C3F80029D7E7D3F8A0
:10274400002942F00062C3F80029D3F8002942F0BE
:102754008042C3F80029D3E7D3F8002B42F000628B
:10276400C3F8002BD3F8002B42F08042C3F8002BAF
:10277400A1E700BF0078F3EF007833EC70B40B7876
:102784004C78012C26D000EB431000F530631C6913
:10279400E40CE4041C611C6924F0FF5424F4C01408
:1027A4001C614C690CB18C684C611C6944F40024B4
:1027B4001C611C698D68C5F312052C431C61012A38
:1027C40065D0D0F8003B43F00443C0F8003B002040
:1027D40070BC70474C696CBB00EB4314D4F81059BF
:1027E40025F0FF5525F4C015C4F81059D4F8105934
:1027F40045F40025C4F81059D4F81059ED0CED0433
:10280400C4F81059012A33D000EB4313D3F800293C
:1028140042F00442C3F800294B69002BD7D0D0F80A
:102824003428097801F00F040121A1400A43C0F8BB
:102834003428CCE700EB431404F510642569ED0C4F
:10284400ED042561256925F0FF5525F4C0152561A2
:102854004E698D68AE4200D94D61256945F4002565
:10286400256125694E69C6F3120635432561C9E71A
:102874000A691AB100EB4311C1F8142900EB4310A3
:10288400D0F8002942F00442C0F800299FE7CA6842
:10289400002A96D05A6194E770B49DF80C4064B94C
:1028A40003339D0807E000EB023303F5805351F82E
:1028B400046B1E600134AC42F5D3002070BC704739
:1028C400F0B583B00B784C78012C2BD000EB43137C
:1028D40003F530642569ED0CED042561256925F0C7
:1028E400FF5525F4C01525614D69002D40F0C580C4
:1028F40025698E68C6F3120635432561256945F4BA
:1029040000252561012A00F0CD80CA78012A00F053
:10291400CF80D3F8002B42F00442C3F8002B0020F0
:1029240003B0F0BD4C6984BB00EB4314D4F81059D8
:1029340025F0FF5525F4C015C4F81059D4F81059E2
:1029440045F40025C4F81059D4F81059ED0CED04E1
:10295400C4F81059012A4CD000EB4313D3F80049B2
:1029640044F00444C3F80049CC78012C6AD04B6984
:10297400002BD4D0D0F83428097801F00F040121B9
:10298400A1400A43C0F83428C9E700EB4314D4F843
:102994001059ED0CED04C4F81059D4F8105925F071
:1029A400FF5525F4C015C4F81059D4F810694D69C1
:1029B4008F683D44013DB5FBF7F5474F07EAC54530
:1029C4003543C4F81059D4F810594E69C6F31206A9
:1029D4003543C4F8105904F51064CD78012DB9D1EC
:1029E400256925F0C0452561256945F00055256117
:1029F400B0E70A691AB100EB4314C4F81429CA7881
:102A0400012A08D000EB4313D3F8002942F0044212
:102A1400C3F8002983E7D0F8082812F4807F08D18E
:102A240000EB4311D1F8002942F00052C1F800290B
:102A3400E8E700EB4311D1F8002942F08052C1F8D5
:102A44000029DFE7D0F8084814F4807F0ED1D3F8CA
:102A5400004944F00054C3F8004914460B46C968C1
:102A64001A789B8A0094FFF717FF58E7D3F80049B8
:102A740044F08054C3F80049EFE78E683544013DC3
:102A8400B5FBF6F52669144F07EAC5473E432661B0
:102A940027698E68ADB206FB05F5C5F312053D4303
:102AA40025612FE7CA68002A3FF42FAF62612CE743
:102AB400D0F8082812F4807F06D1D3F8002B42F016
:102AC4000052C3F8002B24E7D3F8002B42F08052C5
:102AD400C3F8002B1DE700BF0000F81F0332920863
:102AE400002393420CD210B400F58054246841F8BA
:102AF400044B01339342F7D308465DF8044B704707
:102B0400084670470B784A78012A14D000EB43102A
:102B1400D0F8002B002A06DB2BB1D0F8003B23F0C1
:102B24008043C0F8003BD0F8003B43F40013C0F8E6
:102B3400003B0020704700EB4310D0F80029002A26
:102B440006DB2BB1D0F8003923F08043C0F80039FC
:102B5400D0F8003943F40013C0F80039E9E70B78E2
:102B64004A78012A0ED000EB4310D0F8003B23F43E
:102B74000013C0F8003BCB78023BDBB2012B15D924
:102B84000020704700EB4310D0F8003923F4001301
:102B9400C0F80039CB78023BDBB2012BF0D8D0F877
:102BA400003943F08053C0F80039E9E7D0F8003B1E
:102BB40043F08053C0F8003BE2E7D0F8003823F438
:102BC400FE63C0F80038D0F80038090101F4FE6152
:102BD4000B43C0F8003800207047D0F8003E23F0C3
:102BE4000303C0F8003ED0F8043823F00203C0F811
:102BF400043800207047D0F8003E23F00303C0F8E7
:102C0400003ED0F8043843F00203C0F80438002032
:102C140070474269806910407047D0F8183800F551
:102C24000060C0691840000C7047D0F8183800F5EF
:102C34000060C069184080B2704700EB4111D1F8C0
:102C4400082B00F5006040691040704710B4D0F8BC
:102C54001048D0F8343801F00F02D340DB01DBB266
:102C6400234300EB411000F51060806818405DF8C4
:102C7400044B7047406900F001007047D0F80039F8
:102C840023F4FF6323F00703C0F80039D0F80438B5
:102C940043F48073C0F804380020704710B4046C07
:102CA400154B9C4203D9D0F8003B002B16DB0024C3
:102CB400C0F8104BD0F8104B44F40024C0F8104B6B
:102CC400D0F8104B44F01804C0F8104BD0F8104B57
:102CD40044F0C044C0F8104B012903D000205DF833
:102CE400044B7047C0F8142BD0F8003B43F080230A
:102CF400C0F8003BF2E700BF0A30544F22230380A0
:102D040000487047080000202223038000487047D1
:102D14002C0000202223038000487047500000202C
:102D2400D0F8BC3200201873704700000A230380D7
:102D3400004870477400002010B582B0D0F8BC423F
:102D44000023ADF806300B7813F0600325D0202B58
:102D540075D14B78023B092B1BD8DFE803F014092B
:102D64001A1A1A1A1A1A0F058B782360002069E0C0
:102D74000122214600F085FD002063E04B881B0AF8
:102D8400636000205EE00122211D00F07AFD002036
:102D940058E000F032FA032054E04B780B2B4AD869
:102DA400DFE803F0065249494949154949492E3D8E
:102DB40090F89C32032B06D102220DF1060100F09B
:102DC40060FD00203EE000F018FA03203AE04B8852
:102DD4001B0A222B0AD0212B0ED1CA88092A28BF0C
:102DE40009221A4900F04DFD00202BE0CA884A2A26
:102DF40028BF4A221649F5E700F0FFF9032021E035
:102E040090F89C32032B06D1012204F1080100F052
:102E140038FD002016E000F0F0F9032012E090F8ED
:102E24009C32032B03D18B78A36000200AE000F0CE
:102E3400E4F9032006E000F0E0F9032002E000F0EA
:102E4400DCF9032002B010BD0020FBE7CC00002019
:102E54008000002010B50446812101F037F80023DA
:102E640023876387D4F8BC0220B101F053F900230F
:102E7400C4F8BC32002010BD38B50446102001F05F
:102E840041F988B10546C4F8BC02237C8BB90723F9
:102E94006387042303228121204601F00CF80123D7
:102EA40023870020287338BD0023C4F8BC320220D5
:102EB400F9E70A236387ECE738B5D0F8BC5290F8F9
:102EC4009C42032C01D0002038BD2B7B002BFAD16F
:102ED40013460A4601212973812101F017F8F2E70C
:102EE400C0B108B50346D0F8B80210B10020C3F849
:102EF400B802D3F8CC0210B10020C3F8CC0209B157
:102F0400C3F8B4121846012380F89C32027000F012
:102F140043FF08BD0320704710B582B00023ADF80D
:102F2400063059B10446C4F8B8128B6A0DF1060094
:102F34009847C4F8CC02002002B010BD0320FBE780
:102F440008B500F0B0FF08BD08B5D0F8B83213B129
:102F54001B68984708BD0320FCE708B5D0F8B832D1
:102F64000BB15B689847002008BD38B5044600F2F1
:102F7400AA25284600F02DF90123C4F89432B4F8A8
:102F8400B032C4F8983294F8AA1201F01F03012B4E
:102F94000DD03BB1022B0FD001F08001204600F090
:102FA4009DFF03E02946204600F0DFFA38BD29469C
:102FB400204600F015FBF9E72946204600F044FBC3
:102FC400F4E710B5044629BB1346D0F89422032A2B
:102FD40001D0002029E0D0F85C11D0F860219142A2
:102FE4000DD8D0F8B8321B6923B190F89C22032A7B
:102FF40000D19847204600F061FC002015E0891AB2
:10300400C0F85C118A4228BF0A46194600F04EFCFB
:1030140000200AE00A46D0F8B8329B6933B190F830
:103024009C12032904D11146984710BD0320FCE7E4
:103034000320FAE710B50446002946D11346D0F818
:103044009422022A05D094F8A032012B39D0002012
:1030540046E0C269016A8A4213D88A421DD0D4F874
:10306400B832DB682BB194F89C22032A01D12046A4
:1030740098478021204600F031FF204600F029FCCB
:10308400E1E7521AC261194600F008FC00231A460F
:103094001946204600F042FFD5E783699942DED8FD
:1030A400D0F898229342DAD20022114600F0F6FBBF
:1030B4000021C4F898120B460A46204600F02EFF61
:1030C400C1E7002084F8A0020AE00A46D0F8B8322A
:1030D4005B6933B190F89C12032904D111469847D7
:1030E40010BD0320FCE70320FAE770B50446012372
:1030F40080F89C320023C0F894324360C0F8A432B4
:10310400D0F8BC3223B1D0F8B8325B6800219847BC
:10311400402300221146204600F0CDFE0126A4F8EB
:1031240064614025C4F860512B460022802120466A
:1031340000F0C1FEA6842562002070BD0174002049
:10314400704790F89C3280F89D32042380F89C32BA
:103154000020704790F89C32042B01D00020704767
:1031640090F89D3280F89C32F8E708B590F89C32CC
:10317400032B01D0002008BDD0F8B832DB69002B46
:10318400F8D09847F6E700207047002070470020E9
:10319400704708B5012380F89C32D0F8B83213B1D7
:1031A4005B6801799847002008BD002302E00133E1
:1031B400DBB201300278002AF9D11846704708B50D
:1031C4004B88012B00D008BDC0F8A43200F076FB78
:1031D400F9E70B7803704B7843708B78CA7843EA2D
:1031E400022343800B794A7943EA022383808B7953
:1031F400CA7943EA0223C380704710B5044680218C
:1032040000F06CFE0021204600F068FE10BD30B5D1
:1032140083B004460D460023ADF806304A88130AED
:10322400013B0E2B00F2BC80DFE803F0153044BAFA
:10323400BA9EABBABABABABABABA0800D0F8B432BB
:10324400DB6923B10DF10601007C98470AE02946A9
:10325400FFF7D3FF18E0D0F8B4321B680DF1060174
:10326400007C9847EA88002A00F0A380BDF8063065
:10327400002B00F099809A4228BF1A46ADF8062028
:103284000146204600F0FDFA03B030BD037C43B98B
:10329400D0F8B8329B6A0DF10600984702234370B8
:1032A400E0E7D0F8B832DB6A0DF106009847022354
:1032B4004370D7E7D2B2052A52D8DFE802F00310F0
:1032C4001D2A3744D0F8B4325B6823B10DF10601EE
:1032D400007C9847C6E72946FFF78FFFD4E7D0F86C
:1032E400B4329B6823B10DF10601007C9847B9E71D
:1032F4002946FFF782FFC7E7D0F8B432DB6823B171
:103304000DF10601007C9847ACE72946FFF775FFED
:10331400BAE7D0F8B4321B6923B10DF10601007C81
:1033240098479FE72946FFF768FFADE7D0F8B43226
:103334005B6923B10DF10601007C984792E72946A9
:10334400FFF75BFFA0E7D0F8B4329B6923B10DF11E
:103354000601007C984785E72946FFF74EFF93E76F
:103364002946FFF74AFF8FE7037C33B9D0F8B83218
:103374005B6B0DF10600984774E72946FFF73DFFA4
:1033840082E7037C43B9D0F8B8321B6B0DF1060019
:1033940098470723437065E72946FFF72EFF73E735
:1033A4002946FFF72AFF6FE729462046FFF725FF46
:1033B4006AE7204600F082FA66E738B504468B884F
:1033C400F3B9CB88E3B94B887F2B19D803F07F0579
:1033D40090F89C32032B0CD080F89E52294600F0C2
:1033E4008DFD204600F06AFA35B1022384F89C3240
:1033F40009E0FFF702FF06E0012384F89C3202E0B3
:103404002046FFF7FAFE38BD70B504460D468978AC
:103414002E4B197001290FD890F89C32022B11D031
:10342400032B25D02946FFF7E8FE284B19782046C0
:10343400FFF793FD032603E02946FFF7DEFE03268C
:10344400304670BD81B14160FFF77EFD064620B174
:1034540029462046FFF7D1FEF2E7204600F02EFA77
:10346400032384F89C32EBE700F028FA0026E7E710
:10347400C9B14368994225D0D9B2FFF76EFD134B09
:10348400197861602046FFF75FFD0646B0B1294612
:103494002046FFF7B2FE21792046FFF75EFD0223A6
:1034A40084F89C32CCE7022380F89C324160FFF719
:1034B40054FD204600F002FA0026C1E7204600F041
:1034C400FDF9BDE700F0FAF90026B9E7F4010020A0
:1034D40008B5CB88012B0BD190F89C329BB1022B01
:1034E40009D9032B0FD10122011D00F0CAF901E013
:1034F400FFF783FE08BD0146002341F8083F01227F
:1035040000F0BFF9F6E7FFF778FEF3E708B590F8A7
:103514009C32013B022B12D8CB88022B0CD1012305
:10352400C360D0F8A4320BB10323C360022200F1BC
:103534000C0100F0A6F908BDFFF75FFEFBE7FFF7FB
:103544005CFEF8E708B590F89C32013B022B09D8E1
:103554004B88012B00D008BD0023C0F8A43200F032
:10356400ADF9F8E7FFF749FEF5E708B50B7803F086
:103574006003202B06D0402B04D043B1FFF73DFE5F
:10358400002003E0D0F8B8329B68984708BD4B7818
:10359400092B21D8DFE803F0141C2018200905208A
:1035A400100DFFF734FE0020F0E7FFF706FF0020C0
:1035B400ECE7FFF729FFE9E7FFF78AFF0020E5E7DB
:1035C400FFF7A4FF0020E1E7FFF7F9FD0020DDE7A6
:1035D400FFF7B8FF0020D9E7FFF70FFE0020D5E77B
:1035E40070B505460C460B7803F06003202B07D01A
:1035F400402B05D023B1FFF700FE0026304670BDF6
:1036040095F89C32013B022B18D82379012B0FD853
:10361400D5F8B8329B682146284698470646E38881
:10362400002BEBD10028E9D1284600F047F9E5E763
:1036340021462846FFF7E1FD0026DFE7214628461C
:10364400FFF7DBFD0026D9E738B505460C468A8826
:103654000B7803F06003202B08D0D1B2402B05D0A7
:103664005BB12146FFF7C9FD002005E0D5F8B8326B
:103674009B6821462846984738BD6378012B2FD094
:10368400002B5ED0032B40F0D98090F89C32022BA3
:1036940006D0032B15D02146FFF7AFFD0020EBE742
:1036A40009B1802905D121462846FFF7A6FD00204F
:1036B400E2E700F013FC8021284600F00FFC002014
:1036C400DAE7638823B919B1802901D0E38823B1EB
:1036D400284600F0F3F80020CEE700F0FFFBF7E700
:1036E40090F89C32022B06D0032B15D02146FFF70D
:1036F40084FD0020C0E709B1802905D12146284670
:10370400FFF77BFD0020B7E700F0E8FB80212846A7
:1037140000F0E4FB0020AFE76388002B40F09380C7
:1037240011F07F0F0AD1284600F0C8F8D5F8B83256
:103734009B6821462846984700209DE700F0D6FB69
:10374400F1E790F89C32022B06D0032B2AD02146B5
:10375400FFF753FD00208FE709B1802913D112F040
:10376400800F15D101F07F0101EB81018B0003F57E
:10377400A8712944043100240C600222284600F078
:1037840080F8204678E72146FFF737FD002073E7ED
:1037940001F07F0101EB81018B0003F11001294449
:1037A4000431E8E752B2002A1FDB01F00F0303EBF8
:1037B400830398002844B0F864312BB3002A29DB32
:1037C40001F07F0202EB8202930003F5A8742C44FB
:1037D400043409B1802927D1002323600222214621
:1037E400284600F04EF8002046E701F00F0303EBF3
:1037F400830398002844838C002BDFD1214628467C
:10380400FFF7FBFC002037E721462846FFF7F5FCCD
:10381400002031E701F07F0202EB8202930003F102
:1038240010042C440434D4E7284600F0E9FA10B11B
:1038340001232360D2E700232360CFE72146FFF76B
:10384400DCFC002018E7002016E7C8B170B50D466F
:1038540016460446FFF7A9FC01304000308028706A
:1038640003236B70022307E0EA5401345A1CD2B2DA
:103874000021A9540233DBB22278002AF4D170BDAE
:10388400704710B513460222C0F894228361C361C5
:103894000A46002100F03AFB002010BD08B513468B
:1038A4000A46002100F032FB002008BD08B513468B
:1038B4000A46002100F032FB002008BD08B50423AD
:1038C400C0F8943200231A46194600F01FFB00206A
:1038D40008BD08B50523C0F8943200231A461946DA
:1038E40000F01CFB002008BD30B58BB0002405940B
:1038F40006940794089409940194214B1A6B42F09E
:1039040004021A631A6B02F004020192019A0294EF
:103914001A6B42F080021A631A6B02F08002029260
:10392400029A03941A6B42F001021A631A6B02F0B2
:1039340001020392039A04941A6B42F002021A637E
:103944001B6B03F002030493049B0E4D22462021BB
:103954002846FCF788FF4FF4005305930694079418
:1039640005A90948FCF79AFE202305930123069331
:103974000794089405A92846FCF790FE0BB030BDC7
:1039840000380240000002400008024008B5084820
:10399400084B03604FF4E133436000238360C3604A
:1039A40003610C2242618361C361FEF7FDFB08BD24
:1039B400E00400200044004030B5ADB034220021C2
:1039C4001FA800F0AFFB00241A941B941C941D94B0
:1039D4001E945C22214603A800F0A4FB0194204B12
:1039E4001A6C42F080521A641B6C03F080530193EA
:1039F400019B02941B4B1A6842F440421A601B68F4
:103A040003F440430293029B01231F934FF4A0232A
:103A14002093022525954FF48003269304232793AE
:103A2400A8232893299507232A932B951FA8FEF7EB
:103A3400CDF80F231A931B951C944FF4A0531D9398
:103A44004FF480531E9305211AA8FDF7E9FC4FF4A7
:103A540080730393189403A8FDF7B8FD2DB030BD0F
:103A6400003802400070004008B5FCF76DFDFFF718
:103A7400A3FFFFF739FFFFF789FF00F0B9F800F063
:103A8400B7F80B4B00221A705A700A219970DA7039
:103A94004FF400510748FCF7DFFE0128F8D0042258
:103AA40003490548FFF708FA1420FCF779FDEFE70E
:103AB400DC040020000802400C02002070470000D3
:103AC40000B583B0002100910C4B5A6C42F4804243
:103AD4005A645A6C02F480420092009A01911A6C62
:103AE40042F080521A641B6C03F080530193019BD3
:103AF4000720FCF769FD03B05DF804FB00380240C1
:103B040000B589B0002303930493059306930793A8
:103B14000268154B9A4202D009B05DF804FB0021FB
:103B2400019103F5FA331A6C42F400321A641A6CE8
:103B340002F400320192019A02911A6B42F00102DE
:103B44001A631B6B03F001030293029B0C23039380
:103B540002230493032306930723079303A903482B
:103B6400FCF79CFDD8E700BF004400400000024081
:103B74007047FEE7FEE7FEE7FEE7704770477047D1
:103B840008B5FCF7FBFC08BD08B50248FDF73CF896
:103B940008BD00BF2005002008B503460B4A126883
:103BA40042B10A4A106803446A46934206D8074A57
:103BB400136008BD054A06491160F2E700F078FA7F
:103BC4000C2303604FF0FF30F3E700BFF80100203F
:103BD400300B0020054BD3F8882042F47002C3F860
:103BE40088204FF000629A60704700BF00ED00E04B
:103BF40008B500220B490C48FFF772F948B90B4984
:103C04000948FFF789F938B90748FFF799F930B936
:103C140008BDFFF753FFF2E7FFF750FFF4E7FFF7A4
:103C24004DFFF5E7540100200C020020D8000020CD
:103C340030B589B000230393049305930693079347
:103C44000368B3F1A04F01D009B030BD0025019540
:103C5400164C236B43F001032363236B03F001032E
:103C64000193019B4FF4C053039302230493032352
:103C740006930A23079303A90D48FCF70FFD636B12
:103C840043F0800363630295636C43F4804363648D
:103C9400636C03F480430293029B2A462946432023
:103CA400FCF7A4FC4320FCF7D5FCCDE70038024028
:103CB4000000024008B500F57171D0F80404FFF764
:103CC40054F908BD08B5C1EBC10293000344D3F80D
:103CD4000822D0F80404FFF774F908BD08B5C1EB55
:103CE400C102930003449A6CD0F80404FFF7A2F9CC
:103CF40008BD08B5D0F80404FFF737FA08BD10B5BD
:103D04000446C3682BB1022B0DD0FFF7D7FE012167
:103D140000E00021D4F80404FFF710FAD4F80404F6
:103D2400FFF7E3F910BD0121F4E7000010B50446E4
:103D3400D0F80404FFF705FA2268D2F8003E43F0F5
:103D44000103C2F8003E236A23B1034A136943F016
:103D54000603136110BD00BF00ED00E008B5D0F804
:103D64000404FFF7F7F908BD08B5D0F80404FFF719
:103D74000CFA08BD08B5D0F80404FFF704FA08BD2E
:103D840008B5D0F80404FFF702FA08BD08B5D0F866
:103D94000404FFF7FEF908BD03780BB10020704757
:103DA40010B503461548C0F80434C3F8C4024FF0F4
:103DB400A0430360062343600222C2600023036120
:103DC4008261C36103624362C3620363FCF7BBFDA8
:103DD40080B90A4C80212046FDF70BFB40220021CC
:103DE4002046FDF7E2FA802201212046FDF7DDFAA4
:103DF400002010BDFFF762FEEBE700BF20050020A6
:103E0400D0F8C43211F0800F08D101F07F01C1EB6A
:103E1400C1018A00134493F8FE01704701F07F0149
:103E2400C1EBC1018A00134493F83E0070470000BF
:103E340010B5044611B1012916D010BD036A5BB94F
:103E44002268D2F8003E23F00103C2F8003ED4F801
:103E54000404FFF77FF9F0E7FFF7AEFD0C4A13699E
:103E640023F006031361EBE70268D2F8003E43F047
:103E74000103C2F8003ED0F80404FFF762F9236A94
:103E8400002BDAD0024A136943F006031361D4E726
:103E940000ED00E018B1022803D003207047002091
:103EA40070470120704708B5D0F8C402FCF7E3FD61
:103EB400FFF7F0FF08BD10B51C4613462246D0F8A4
:103EC400C402FDF72AF9FFF7E5FF10BD08B5D0F8E5
:103ED400C402FDF763F9FFF7DDFF08BD08B5D0F8AC
:103EE400C402FDF7EAF9FFF7D5FF08BD08B5D0F81D
:103EF400C402FDF723FAFFF7CDFF08BD08B5D0F8DB
:103F0400C402FDF7F6F8FFF7C5FF08BD08B5D0F801
:103F1400C402FDF7A8F9FFF7BDFF08BD08B5D0F846
:103F2400C402FDF772F9FFF7B5FF08BD12230B8039
:103F3400004870471401002004230B800048704798
:103F4400280100200C230B80004870472C0100201E
:103F54000023934216D230B40BE0373401F81340F7
:103F640000015C00013400250D550133DBB293429E
:103F740006D2040F092CF0D8303401F81340EFE7CF
:103F840030BC70477047000038B50B4B18680433D9
:103F94001C6804331B68C01800D138BD074D0822C3
:103FA40005F12601FFF7D4FF042205F1360120466E
:103FB400FFF7CEFFF1E700BF107AFF1F14010020C6
:103FC40008B51A230B80FFF7DFFF014808BD00BFC7
:103FD4003801002008B50A4628B105490548FFF70D
:103FE40034FC034808BD02490248FFF72EFCF8E7F9
:103FF40028090020DC42000810B5044C0A4621467A
:104004000348FFF722FC204610BD00BF280900200A
:10401400F442000808B50A4628B105490548FFF7E7
:1040240014FC034808BD02490248FFF70EFCF8E7F8
:10403400280900200843000808B50A4628B10549A4
:104044000548FFF702FC034808BD02490248FFF790
:10405400FCFBF8E72809002014430008DFF834D0FB
:10406400002103E00C4B5B58435004310B480C4BCC
:1040740042189A42F6D30B4A02E0002342F8043B6A
:10408400094B9A42F9D3FFF7A5FD00F017F8FFF7A3
:10409400EBFC7047000002203443000800000020BD
:1040A400D8010020D80100202C0B0020FEE70000DE
:1040B400014B1868704700BF7401002070B50D4EA5
:1040C4000D4CA41BA4100025A54209D10B4E0C4C89
:1040D40000F0EAF8A41BA4100025A54205D170BD88
:1040E40056F8253098470135EEE756F825309847BD
:1040F4000135F2E72C4300082C4300082C43000848
:1041040030430008024B0146186800F061B800BF54
:1041140074010020024B0146186800F00BB800BF80
:104124007401002002440346934200D1704703F80F
:10413400011BF9E738B50546002945D051F8043C80
:104144000C1F002BB8BFE41800F0ACF81F4A13682A
:10415400104633B9636014602846BDE8384000F067
:10416400A2B8A3420CD921686218934204BF1A680A
:104174005B68636004BF521822600460ECE7134676
:104184005A680AB1A242FAD919685818A0420BD148
:1041940020680144581882421960DDD110685268C1
:1041A4005A6001441960D7E702D90C232B60D3E786
:1041B400206821188A4204BF11685268626004BFF3
:1041C400091821605C60C7E738BD00BF0002002009
:1041D40070B5CD1C25F0030508350C2D38BF0C2512
:1041E400002D064601DBA94203D90C2333600020CD
:1041F40070BD00F057F8214A1468214691B9204C4B
:1042040023681BB9304600F03DF82060294630464B
:1042140000F038F8431C24D10C233360304600F0FE
:1042240042F8E4E70B685B1B18D40B2B0FD90B6027
:10423400CD50CC18304600F036F804F10B00231DA5
:1042440020F00700C31AD3D05A42E250D0E78C4280
:104254004B6816BF636013600C46EBE70C46496875
:10426400CCE7C41C24F00304A04205D0211A304634
:1042740000F008F80130CFD02560DBE70002002011
:104284000402002038B5064C002305460846236086
:10429400FFF782FC431C02D1236803B12B6038BDB5
:1042A400280B002070477047F8B500BFF8BC08BC65
:1042B4009E467047F8B500BFF8BC08BC9E467047E0
:1042C40000000000000000000102030406070809C2
:1042D400000000000102030453544D33322048759A
:1042E4006D616E20696E74657266616365000000BD
:1042F40053544D6963726F656C656374726F6E6954
:104304006373000048494420436F6E666967000088
:1043140048494420496E7465726661636500000013
:0843240010BFFF7F0100000043
:04432C00E90100089B
:04433000C5010008BB
:10433400010000001000000009022200010100E059
:1043440032090400000103010200092111010001E6
:10435400224A000705810304000A00000902220022
:10436400010100E0320904000001030102000921F7
:1043740011010001224A000705810304000700001F
:1043840009022200010100E03209040000010301D6
:104394000200092111010001224A000705810304DA
:1043A400000A00000A0600020000004001000000AC
:1043B40005010902A1010901A10005091901290347
:1043C400150025019503750181029501750581018B
:1043D40005010930093109381581257F75089503D0
:1043E4008106C0093C05FF090115002501750195E9
:1043F40002B12275069501B101C000000921110125
:104404000001224A000000007D2E0008592E0008F9
:104414003D2D00080000000000000000252D0008CC
:104424000000000000000000000000000000000088
:104434000D2D0008012D0008192D0008312D00084C
:104444000024F400120101020000004083042B57F1
:10445400000201020301000004030904050F0C001B
:1044640001071002020000001A030000000000000F
:104474000000000000000000000000000000000038
:1044840000000000313F00083D3F0008FD3F0008E8
:10449400D93F0008C53F0008194000083D40000806
:1044A400493F0008780100200000000000000000DF
:1044B40000000000000000000000000000000000F8
:1044C40000000000000000000000000000000000E8
:1044D40000000000000000000000000000000000D8
:1044E40000000000000000000000000000000000C8
:1044F40000000000000000000000000000000000B8
:084504000000000000000000AF
:04000005080040614E
:00000001FF
