:020000040800F2
:1000000000000520854100082D4100082F4100080F
:10001000314100083341000835410008000000006C
:100020000000000000000000000000003741000850
:1000300039410008000000003B4100083D41000834
:10004000D5410008D5410008D5410008D541000838
:10005000D5410008D5410008D5410008D541000828
:10006000D5410008D5410008D5410008D541000818
:10007000D5410008D5410008D5410008D541000808
:10008000D5410008D5410008D5410008D5410008F8
:10009000D5410008D5410008D5410008D5410008E8
:1000A000D5410008D5410008D5410008D5410008D8
:1000B000D5410008D5410008D5410008D5410008C8
:1000C000D5410008D5410008D5410008D5410008B8
:1000D000D5410008D5410008D5410008D5410008A8
:1000E000D5410008D5410008D5410008D541000898
:1000F000D5410008D5410008D5410008D541000888
:10010000D5410008D5410008D5410008D541000877
:10011000D5410008D5410008D5410008D541000867
:10012000D5410008D5410008D5410008D541000857
:10013000D5410008D5410008D5410008D541000847
:10014000D5410008D5410008D5410008D541000837
:10015000D5410008D5410008D5410008D541000827
:10016000D5410008D5410008D5410008D541000817
:10017000D5410008D5410008D54100080000000025
:10018000D5410008D5410008D5410008D5410008F7
:10019000D5410008D5410008D5410008D5410008E7
:1001A000D5410008D5410008D5410008D5410008D7
:1001B000D5410008D5410008D5410008D5410008C7
:0801C000D5410008D5410008FB
:1001D00010B5054C237833B9044B13B10448AFF381
:1001E00000800123237010BD70000020000000007B
:1001F0004C4A000808B5034B1BB103490348AFF351
:10020000008008BD00000000740000204C4A000877
:1002100053B94AB9002908BF00281CBF4FF0FF316D
:100220004FF0FF3000F072B9ADF1080C6DE904CE6B
:1002300000F006F8DDF804E0DDE9022304B07047C1
:100240002DE9F047089E04468846002B4BD18A4290
:10025000154667D9B2FA82F24AB1C2F1200701FA13
:1002600002F320FA07F7954047EA030894404FEA63
:10027000154E230CB8FBFEF71FFA85FC0EFB178802
:1002800043EA084307FB0CF1994209D9EB1807F13F
:10029000FF3080F01B81994240F21881023F2B44CD
:1002A0005B1AA4B2B3FBFEF00EFB103344EA034426
:1002B00000FB0CFCA44509D92C1900F1FF3380F098
:1002C0000781A44540F2048102382C4440EA0740EB
:1002D000A4EB0C0400271EB1D4400023C6E9004360
:1002E0003946BDE8F0878B4209D9002E00F0EB803B
:1002F0000027C6E9000138463946BDE8F087B3FA61
:1003000083F7002F47D18B4202D3824200F2FA805A
:10031000841A61EB030301209846002EE0D0C6E961
:100320000048DDE702B9FFDEB2FA82F2002A40F0AF
:100330008F80491B4FEA154E1FFA85F80127B1FB44
:10034000FEFC230C0EFB1C1143EA014308FB0CF1DD
:10035000994207D9EB180CF1FF3002D2994200F212
:10036000CD808446591AA3B2B1FBFEF00EFB1014E7
:1003700043EA044408FB00F8A04507D92C1900F112
:10038000FF3302D2A04500F2B6801846A4EB080461
:1003900040EA0C409FE7C7F1200CBB4022FA0CFE5C
:1003A0004EEA030E01FA07F420FA0CF521FA0CF3D9
:1003B0004FEA1E482543B3FBF8F92C0C08FB193310
:1003C0001FFA8EFA44EA034309FB0AF49C4202FA3C
:1003D00007F200FA07F10BD91EEB030309F1FF3016
:1003E00080F087809C4240F28480A9F10209734426
:1003F0001B1BADB2B3FBF8F008FB103345EA034416
:1004000000FB0AFAA24508D91EEB040400F1FF33F1
:100410006BD2A24569D90238744440EA0940A0FB76
:100420000289A4EB0A044C45C2464B4654D351D032
:10043000002E69D0B1EB0A0564EB030404FA0CFC4E
:10044000FD40FC404CEA0505C6E90054002747E79B
:10045000C2F1200320FA03F7954001FA02F021FAD5
:1004600003F34FEA154E3843010CB3FBFEF71FFAB6
:1004700085F80EFB173341EA034107FB08F38B4273
:1004800004FA02F407D9691807F1FF3C2FD28B4216
:100490002DD9023F2944CB1A81B2B3FBFEF00EFBEB
:1004A000103341EA034100FB08F38B4207D9691876
:1004B00000F1FF3C17D28B4215D902382944C91AE2
:1004C00040EA07473BE73746304609E70746E7E695
:1004D0001846FBE64145ABD2B8EB020A69EB0E02C7
:1004E00001381346A4E76046E9E7184695E76746F2
:1004F000D1E781467CE702382C4447E7ACF1020C97
:100500002B442FE7384608E73746E9E6704700BF37
:10051000034613F8012B002AFBD1181A0138704743
:1005200001F0FF01102A2BDB10F0070F08D010F8A4
:10053000013B013A8B422DD010F0070F42B3F6D1A8
:10054000F0B441EA012141EA014122F007047FF0C1
:1005500000070023F0E80256083C85EA010586EA18
:10056000010685FA47F5A3FA87F586FA47F6A5FA54
:1005700087F68EB9EED1F0BC01F0FF0102F0070260
:1005800032B110F8013B013A83EA010313B1F8D10B
:100590000020704701387047002D06BF35460338EC
:1005A000073815F0010F07D1013015F4807F02BF25
:1005B000013015F4C03F0130F0BC0138704700BF76
:1005C00010B504460E4B18784FF47A73B3FBF0F372
:1005D0000C4A1068B0FBF3F000F08CF868B90F2CEF
:1005E00001D901200AE0002221464FF0FF3000F03F
:1005F0004FF8034B5C60002000E0012010BD00BFFD
:10060000000000200800002008B5032000F02EF8AC
:100610000020FFF7D5FF03F01FFC002008BD0000FD
:10062000034A1168034B1B780B441360704700BFEB
:10063000A001002000000020014B1868704700BF97
:10064000A001002038B50446FFF7F6FF0546B4F1D7
:10065000FF3F02D0044B1B781C44FFF7EDFF401B0B
:10066000A042FAD338BD00BF000000200649CB6885
:1006700023F4E0631B041B0C000200F4E06003435E
:10068000024A1A43CA60704700ED00E00000FA0514
:1006900030B4154BDB68C3F30223C3F10704042C09
:1006A00028BF04241D1D062D14D9033B4FF0FF3530
:1006B00005FA04F421EA0401994005FA03F322EA59
:1006C00003031943002807DB0901C9B2074B19547A
:1006D00030BC70470023E9E700F00F000901C9B200
:1006E000034B1954F4E700BF00ED00E000E400E024
:1006F00014ED00E00138B0F1807F0AD2064B58605B
:10070000064AF02182F823100020986007221A6020
:1007100070470120704700BF10E000E000ED00E0EE
:100720005079137943EA002307480B50D078937827
:100730001B0443EA0063507843EA00231278134312
:10074000024A8B50704700BF408002404480024004
:1007500070B59EB0044629B14FF40063C3604FF4F6
:1007600080438360E369002B68D14FF48063079373
:1007700021680B68374A1A40A368E068034307986A
:10078000034343F4007313430B6023681D68012087
:10079000FFF758FF23681D60236840225A602368D2
:1007A0005D680120FFF74EFF23685D602368002528
:1007B0009D602368DD602268936923F0BE031B04FB
:1007C0001B0C43F08003936123689E690120FFF7AF
:1007D00039FF23689E612368DD612368DD6901209C
:1007E000FFF730FF2368DD61216841F218054B599E
:1007F000194A1A40194B13434B5123685E59012083
:10080000FFF720FF23685E51236803F58053144AE5
:100810001A60236803F580531D680120FFF712FF5B
:10082000236803F580531D60A369012B09D0626919
:1008300000212046FFF774FF1EB070BD0023079310
:1008400096E7216841F21C028858064B03438B50FF
:10085000EDE700BF0F8120FF233FDEF804002002F8
:100860008020C10240000100F8B590F84430DBB2AE
:10087000822B33D016460546822380F84430026826
:10088000136903F01C03048AE402A4B223438C011D
:1008900004F4F8641C4344F001041461FFF7CCFE37
:1008A000074614F0010F10D0FFF7C6FEC01BB0F5CD
:1008B000803F02D22B681C69F3E7012385F844309E
:1008C000002385F84530032007E02B685B699BB265
:1008D0003360012385F844300020F8BD0220FCE796
:1008E00090F84430DBB2422B32D070B5054642233B
:1008F00080F844300068036903F01C032C8AE4028A
:10090000A4B223438C0104F4F8641C4344F00304B0
:1009100092B242612B681C61FFF78EFE064614F00E
:10092000010F10D0FFF788FE801BB0F5803F02D288
:100930002B681C69F3E7012385F84430002385F810
:100940004530032003E0012385F84430002070BDCA
:100950000220704770B582B000230193002800F098
:100960000C81044690F84430002B32D0844B5A6CF2
:1009700042F480425A645B6C03F480430093009B12
:10098000804B5A6822F400025A605A68216A0A436E
:100990005A60236803F580531A6842F001021A6016
:1009A000FFF74AFE0546236803F58052126812F0ED
:1009B000010F13D0FFF740FE401BB0F5FA7FF2D9CC
:1009C000032584F84450002384F84530284602B0BB
:1009D00070BD80F8453003F057FAC7E71D6925F070
:1009E0001C0500F0C3FD684B0344684A934255D888
:1009F00045F0080523681D614FF4004200212046A0
:100A0000FFF76EFF0546002860D1FF20FFF71AFEB2
:100A10006368002B00F09180FFF70EFE064601AAE6
:100A200001212046FFF720FFFFF706FE801B41F261
:100A30008833984252D8019B13F0040FEFD04FF443
:100A4000805200212046FFF74BFF002852D1FFF7CC
:100A5000F3FD064601AA01212046FFF705FFFFF737
:100A6000EBFD801B41F2883398424BD8019B13F079
:100A7000200FEFD001AA1F212046FFF7F5FE002826
:100A80004CD1019B13F0100F50D04FF40062E26084
:100A900013F0040F4DD00023A3605EE03C4B0344F1
:100AA0003C4A934202D845F00C05A3E73A4B034475
:100AB0003A4A93429ED93A4B03443A4A934202D867
:100AC00045F0040596E745F0100593E7012120461F
:100AD000FFF73EFE012584F8445077E701212046C8
:100AE000FFF736FE012384F84430002384F84530B4
:100AF00003256BE701212046FFF72AFE012584F834
:100B0000445063E701212046FFF722FE012384F8C9
:100B10004430002384F84530032557E7012120465F
:100B2000FFF716FE012584F844504FE70022E260EB
:100B3000AEE74FF48043A3600FE0E268C2F3CF0258
:100B4000A368C3F34F031A4300212046FFF7C8FEF2
:100B500058B940F6FF70FFF775FD00212046FFF7FA
:100B6000F7FD012384F8443030E701212046FFF7E8
:100B7000EFFD012584F8445028E7012526E700BF52
:100B8000003802400038014000D3CEFEBFE1E4004F
:100B900040F1E9FD3F787D0100796CFCFF5962026C
:100BA000001F0AFA7FF0FA0200230F2B00F2E18007
:100BB000F0B583B039E0092200E00022B2403A43A8
:100BC00002346C4E46F824206B4A1468EA4302EA69
:100BD00004064F6817F4803F01D045EA0406664CCE
:100BE0002660646802EA04064F6817F4003F01D0EB
:100BF00045EA0406604C6660A46802EA04064F6891
:100C000017F4801F01D045EA04065B4CA660E46837
:100C100022404E6816F4001F01D045EA0402564CEB
:100C2000E26001330F2B00F2A28001229A400C688F
:100C300004EA0205AA42F4D14C68661E112C18BFC2
:100C4000012E01D9122C12D186685F000324BC400A
:100C500026EA0406CC68BC4034438460466826EA31
:100C600002064C68C4F300129A4032434260C268E4
:100C70005F000326BE40F64332408C68BC401443FC
:100C8000C4604A68122A18BF022A13D1DC0808344B
:100C900050F824E003F007024FEA820C0F2202FA18
:100CA0000CF22EEA020E0A6902FA0CF242EA0E0275
:100CB00040F82420026816404A6802F00302BA4055
:100CC000324302604A6812F0805FAAD02B4A546C0B
:100CD00044F480445464526C02F480420192019ABC
:100CE0009C08A61C234A52F8267003F003029600C3
:100CF0000F22B24027EA0207214A90423FF45DAF3B
:100D000002F58062904222D002F58062904220D0AB
:100D100002F5806290421ED002F5806290421CD0A3
:100D200002F5806290421AD002F58062904218D09B
:100D300002F58062904216D002F58062904214D093
:100D400002F5806290423FF436AF0A2236E7012274
:100D500034E7022232E7032230E704222EE705229D
:100D60002CE706222AE7072228E7082226E703B015
:100D7000F0BD704700380140003C0140003802409F
:100D80000000024012B90904816170478161704717
:100D9000F0B58BB0002800F091800446056890F80B
:100DA000BD3323B3032384F8BD33EB6B13F4807F8F
:100DB00001D100232361206801F018FF254655F872
:100DC000107B6E460FCD0FC60FCD0FC695E8030002
:100DD00086E80300231D0ECB384601F0C9FE58B14A
:100DE000022384F8BD33012528460BB0F0BD80F8FE
:100DF000BC3303F053F9D5E70021206801F0FCFE75
:100E0000002315E0D900C81A82002244012082F88C
:100E10003D0082F83C30A2F84230002082F83F00CA
:100E200050649064CA1A9100214408650133DBB212
:100E30006568AB42E6D3002315E0D800C11A8A00EA
:100E40002244002182F8FD1182F8FC3182F8FF1162
:100E5000C2F80412C2F80812C21A90002044C0F866
:100E600010120133DBB29D42E7D8254655F8107BBE
:100E70006E460FCD0FC60FCD0FC695E8030086E86E
:100E80000300231D0ECB384601F0FCFE054660B979
:100E9000002384F83830012384F8BD33636A012BC2
:100EA00008D0206801F0C0FF9EE7022384F8BD331C
:100EB000012599E7204600F003F8F2E7012593E7C2
:100EC000024603680121C0F8FC13002082F8F403F5
:100ED0009A6942F000629A61596D024A0A435A6562
:100EE000704700BF03000010024A136843F4807388
:100EF0001360704700700040002800F0098270B550
:100F000082B00446036813F0010F29D0A24B9B68FE
:100F100003F00C03042B1AD09F4B9B6803F00C03C7
:100F2000082B0FD06368B3F5803F40D0002B54D11D
:100F3000994B1A6822F480321A601A6822F48022CF
:100F40001A6039E0944B5B6813F4800FEAD0924B3F
:100F50001B6813F4003F03D06368002B00F0DA81B4
:100F6000236813F0020F75D08B4B9B6813F00C0FA6
:100F70005ED0894B9B6803F00C03082B53D0E368C9
:100F8000002B00F08A80844A136843F00103136049
:100F9000FFF752FB0546804B1B6813F0020F73D11D
:100FA000FFF74AFB401B0228F5D90320B5E17A4A36
:100FB000136843F48033136063682BB3FFF73CFB83
:100FC0000546754B1B6813F4003FC9D1FFF734FB8E
:100FD000401B6428F5D903209FE1B3F5A02F09D069
:100FE0006D4B1A6822F480321A601A6822F480224B
:100FF0001A60E1E7684B1A6842F480221A601A68A6
:1010000042F480321A60D7E7FFF716FB0546624BC1
:101010001B6813F4003FA3D0FFF70EFB401B6428AE
:10102000F5D9032079E15C4B5B6813F4800FA6D1FE
:10103000594B1B6813F0020F04D0E368012B01D059
:1010400001206AE1544A136823F0F803216943EA56
:10105000C1031360236813F0080F46D0636983B39C
:101060004D4A536F43F001035367FFF7E5FA054616
:10107000494B5B6F13F0020F37D1FFF7DDFA401BCE
:101080000228F5D9032048E1434A136823F0F80306
:10109000216943EAC1031360DCE73F4A136823F088
:1010A00001031360FFF7C8FA05463B4B1B6813F0BA
:1010B000020FCFD0FFF7C0FA401B0228F5D903205A
:1010C0002BE1354A536F23F001035367FFF7B4FA5E
:1010D0000546314B5B6F13F0020F06D0FFF7ACFAF9
:1010E000401B0228F5D9032017E1236813F0040FF1
:1010F0007ED0294B1B6C13F0805F1ED1264B1A6CDF
:1011000042F080521A641B6C03F080530193019BE0
:101110000125224B1B6813F4807F10D0A368012B9C
:1011200021D0002B3CD11C4B1A6F22F001021A6710
:101130001A6F22F004021A671AE00025E9E7174A3D
:10114000136843F480731360FFF776FA0646134B77
:101150001B6813F4807FE1D1FFF76EFA801B6428CF
:10116000F5D90320D9E00C4A136F43F0010313674C
:10117000A3685BB3FFF760FA0646074B1B6F13F0DB
:10118000020F34D1FFF758FA801B41F2883398429E
:10119000F3D90320C1E000BF0038024000700040D6
:1011A000052B09D0604B1A6F22F001021A671A6FE3
:1011B00022F004021A67DBE75B4B1A6F42F004026D
:1011C0001A671A6F42F001021A67D1E7FFF734FA83
:1011D0000646554B1B6F13F0020F08D0FFF72CFA91
:1011E000801B41F288339842F3D9032095E0FDB982
:1011F000A369002B00F090804B4A926802F00C0229
:10120000082A58D0022B19D0474A136823F080735C
:101210001360FFF711FA0446434B1B6813F0007F7D
:1012200047D0FFF709FA001B0228F5D9032074E024
:101230003D4A136C23F080531364D9E73A4A13688C
:1012400023F080731360FFF7F7F90546364B1B68F0
:1012500013F0007F06D0FFF7EFF9401B0228F5D905
:1012600003205AE0E369226A1343626A43EA821365
:10127000A26A5208013A43EA0243E26A43EA02637D
:1012800043F00053284A5360136843F0807313609F
:10129000FFF7D2F90446244B1B6813F0007F06D1F8
:1012A000FFF7CAF9001B0228F5D9032035E000201A
:1012B00033E0002031E01C4A5268012B2FD002F4A9
:1012C0008003E1698B4201D0012026E002F03F0358
:1012D000216A8B4201D001201FE0616A47F6C0738A
:1012E0001340B3EB811F01D0012016E002F440311E
:1012F000A36A5B08013BB1EB034F01D001200CE076
:1013000002F07062E36AB2EB036F0AD0012004E0DE
:1013100001207047012000E0002002B070BD0120D4
:10132000FBE70020F9E700BF00380240324B9B6822
:1013300003F00C03042B5CD0082B01D02F4870471E
:101340002DE9F04B2C4B5A6802F03F025B6813F416
:10135000800F2BD0284B5B68C3F388131E460027F1
:101360005C010025E41A65EB0705A90141EA9461D7
:10137000A001001B61EB0501CB0043EA5073C400E0
:10138000A01943EB07014B0243EAD0534402204625
:1013900019460023FEF73CFF174B5B68C3F301437C
:1013A00001335B00B0FBF3F0BDE8F08B124B5B68E0
:1013B000C3F388131E4600275C010025E41A65EB81
:1013C0000705A90141EA9461A001001B61EB050139
:1013D000CB0043EA5073C400A01943EB07018B0212
:1013E00043EA90538402204619460023FEF710FF7B
:1013F000D2E70348704700BF003802400024F400E1
:1014000000127A00002800F0A38070B50446524B09
:101410001B6803F00F038B420CD24F4A136823F072
:101420000F030B431360136803F00F038B4201D0CB
:10143000012070BD236813F0020F17D013F0040FC2
:1014400004D0464A936843F4E0539360236813F052
:10145000080F04D0414A936843F4604393603F4AC5
:10146000936823F0F003A068034393600D4623685C
:1014700013F0010F31D06368012B20D0022B25D04F
:10148000364A126812F0020F64D034498A6822F09A
:10149000030213438B60FFF7CFF806462F4B9B6880
:1014A00003F00C036268B3EB820F16D0FFF7C4F8A9
:1014B000801B41F288339842F0D90320B9E7274ACC
:1014C000126812F4003FE0D10120B2E7234A12680B
:1014D00012F0007FD9D10120ABE71F4B1B6803F04E
:1014E0000F03AB420CD91C4A136823F00F032B43A4
:1014F0001360136803F00F03AB4201D0012098E79B
:10150000236813F0040F06D0144A936823F4E053C1
:10151000E1680B439360236813F0080F07D00F4A6C
:10152000936823F46043216943EAC1039360FFF7A2
:10153000FDFE0A4B9B68C3F30313094AD35CD840F2
:10154000084B1860084B1868FFF73AF8002070E75E
:101550000120704701206CE7003C02400038024047
:10156000944A00080800002004000020014B18687D
:10157000704700BF0800002008B5FFF7F7FF044BD5
:101580009B68C3F38223034AD35CD84008BD00BFE5
:1015900000380240A44A000808B5FFF7E7FF044BF3
:1015A0009B68C3F34233034AD35CD84008BD00BFF5
:1015B00000380240A44A0008F0B583B0044603682E
:1015C00013F0010F0CD0B64B9A6822F400029A6017
:1015D0009A68416B0A439A60436BC3B1002600E0EE
:1015E0000026236813F4002F15D0AD4AD2F88C30B2
:1015F00023F44013E16B0B43C2F88C30E36BB3F57B
:10160000801F06D0002B00F02981002504E0012670
:10161000E7E70126F6E70025236813F4801F0FD0C3
:101620009F4AD2F88C3023F44003216C0B43C2F85C
:101630008C30236CB3F5800F00F0128103B90125C3
:10164000236813F0807F00D0012613F0200F40F0B4
:101650000981236813F0100F0CD0914BD3F88C2024
:1016600022F08072C3F88C20D3F88C20A16B0A433F
:10167000C3F88C20236813F4804F08D0884AD2F82E
:10168000903023F44033616E0B43C2F890302368EE
:1016900013F4004F08D0824AD2F8903023F440234C
:1016A000A16E0B43C2F89030236813F4803F08D03A
:1016B0007B4AD2F8903023F44013E16E0B43C2F81A
:1016C0009030236813F4003F08D0754AD2F8903068
:1016D00023F44003216F0B43C2F89030236813F0CA
:1016E000400F08D06E4AD2F8903023F00303616CAB
:1016F0000B43C2F89030236813F0800F08D0684A7B
:10170000D2F8903023F00C03A16C0B43C2F8903058
:10171000236813F4807F08D0614AD2F8903023F018
:101720003003E16C0B43C2F89030236813F4007F60
:1017300008D05B4AD2F8903023F0C003216D0B43F0
:10174000C2F89030236813F4806F08D0544AD2F85E
:10175000903023F44073616D0B43C2F890302368DE
:1017600013F4006F08D04E4AD2F8903023F440634F
:10177000A16D0B43C2F89030236813F4805F08D04A
:10178000474AD2F8903023F44053E16D0B43C2F83E
:101790009030236813F4005F08D0414AD2F89030AB
:1017A00023F44043216E0B43C2F89030236813F4B6
:1017B000800F08D03A4AD2F8903023F08063A16FAE
:1017C0000B43C2F89030236813F4001F0DD0344A45
:1017D000D2F8903023F00063E16F0B43C2F89030F1
:1017E000E36FB3F1006F00F0A780236813F0080FD8
:1017F00000D0012513F4802F08D0294AD2F8903068
:1018000023F04073616F0B43C2F89030236813F4E8
:10181000000F09D0224AD2F8903023F08053D4F838
:1018200080100B43C2F8903026B9236813F0007F74
:1018300000F002811A4A136823F080631360FEF7F8
:10184000FBFE0646164B1B6813F0006F76D0FEF7C2
:10185000F3FE801B6428F5D90320EFE00125DBE6C9
:101860000126EBE60E4B1A6C42F080521A641B6C98
:1018700003F080530193019B0A4A136843F4807379
:101880001360FEF7D9FE0746064B1B6813F4807FF2
:101890000AD1FEF7D1FEC01B6428F5D90320CDE0A4
:1018A0000038024000700040AA4B1B6F13F44073D5
:1018B00015D0226B02F440729A4210D0A54B1A6FD9
:1018C00022F44072196F41F480311967196F21F4C5
:1018D000803119671A671B6F13F0010F12D1236B48
:1018E00003F44072B2F5407F1DD09A4A936823F406
:1018F000F813936097490B6F226BC2F30B021343EB
:101900000B67A6E6FEF798FE0746924B1B6F13F097
:10191000020FE4D1FEF790FEC01B41F288339842DB
:10192000F3D903208AE08B48826822F4F8128A49AE
:1019300019400A438260DDE7012556E7236813F06A
:10194000010F13D0636B8BB9824AD2F88430D2F87E
:101950008410606803F4403343EA801301F070613F
:101960000B43A16843EA0173C2F88430236813F47F
:10197000002F03D0E26BB2F5801F06D013F4801F56
:101980001ED0236CB3F5800F1AD1724AD2F884307E
:10199000D2F88410606803F4403343EA8013E068AF
:1019A00043EA006301F0E0410B43C2F88430D2F80F
:1019B0008C3023F01F03616A01390B43C2F88C306D
:1019C000236813F0807F11D0624AD2F88400D2F8E5
:1019D0008410666823691B0443EA861300F0706074
:1019E000034301F0E0410B43C2F88430236813F055
:1019F000007F0DD0626823691B0443EA8213E2680A
:101A000043EA0263A26843EA0273524AC2F884308E
:101A1000504A136843F080631360FEF70DFE0646DC
:101A20004C4B1B6813F0006F06D1FEF705FE801BC0
:101A30006428F5D9032001E015B9002003B0F0BDFA
:101A4000444A136823F080531360FEF7F5FD054602
:101A5000404B1B6813F0005F06D0FEF7EDFD401B06
:101A60006428F5D90320E9E7236813F4002F01D097
:101A7000E26B22B113F4801F1DD0236CDBB9354A11
:101A8000D2F88830D2F88810606903F4403343EA12
:101A90008013A06943EA006301F0E0410B43C2F800
:101AA0008830D2F88C3023F4F853A16A013943EA24
:101AB0000123C2F88C30236813F4001F03D0E36FB6
:101AC000B3F1006F31D0236813F0080F19D0214A09
:101AD000D2F88810D2F88830606903F4403343EAC2
:101AE000801301F070610B43E16943EA0173C2F8AE
:101AF0008830D2F88C3023F44033E16A0B43C2F8CB
:101B00008C30144A136843F080531360FEF794FD41
:101B10000446104B1B6813F0005F19D1FEF78CFDD3
:101B2000001B6428F5D9032088E70A4AD2F8880008
:101B3000D2F888106569236A1B0443EA851300F014
:101B40007060034301F0E0410B43C2F88830BAE70C
:101B5000002073E700380240FFFCFF0F2DE9F0433F
:101B600083B004460F4616461D46FEF765FD0A9BE8
:101B7000181A00EB0508FEF75FFD81462A4B1B682B
:101B8000C3F3CB3308FB03F3019323689B6837EA65
:101B900003030CBF01230023B34240D0B5F1FF3F44
:101BA000F3D0FEF749FDA0EB090040450AD2B8F199
:101BB000000F07D0019B0BB94FF00008019B013BC0
:101BC0000193E2E72268536823F0E00353606368FF
:101BD000B3F5827F0BD0A36AB3F5005F14D0012365
:101BE00084F85D30002384F85C30032018E0A3689B
:101BF000B3F5806F18BFB3F5004FECD122681368BE
:101C000023F040031360E6E72268136823F40053CF
:101C100013602268136843F400531360DFE7002069
:101C200003B0BDE8F08300BF080000202DE9F043B9
:101C300083B006460D4614461F46FEF7FDFC0A9B80
:101C4000181A00EB0708FEF7F7FC81462F4B1B68BC
:101C500003EB8303C3EBC3031B0D08FB03F30093E8
:101C600002E0B7F1FF3F0ED1326893682B40A342E8
:101C700047D0B5F5C06F08BF002CF2D1137BDBB2A3
:101C80000193019BEDE7FEF7D7FCA0EB090040456F
:101C90000AD2B8F1000F07D0009B0BB94FF0000833
:101CA000009B013B0093DFE73268536823F0E003B9
:101CB00053607368B3F5827F0BD0B36AB3F5005FEE
:101CC00014D0012386F85D30002386F85C300320B1
:101CD00018E0B368B3F5806F18BFB3F5004FECD1CF
:101CE0003268136823F040031360E6E73268136834
:101CF00023F4005313603268136843F400531360F5
:101D0000DFE7002003B0BDE8F08300BF080000203B
:101D100070B582B004460D46164600920B4600226E
:101D20004FF4C051FFF782FFB8B900962B4600224E
:101D300080212046FFF712FFB8B900962B460022FB
:101D40004FF4C0612046FFF771FF034650B1236E88
:101D500043F020032366032304E0236E43F02003B3
:101D600023660323184602B070BD236E43F02003A0
:101D700023660323F6E770B582B004460D46164687
:101D80004368B3F5827F0FD000962B460022802156
:101D90002046FFF7E3FE034698B96268B2F5827FFA
:101DA00015D0184602B070BD8368B3F5806F18BFB8
:101DB000B3F5004FE8D10268136823F040031360C5
:101DC000E2E7236E43F0200323660323E9E7A268DA
:101DD000B2F5806F18BFB2F5004FE2D100962B46E6
:101DE00000224FF4C0612046FFF720FF0346002881
:101DF000D7D0236E43F0200323660323D1E70028C6
:101E00006FD010B50446436A33B94368B3F5827F97
:101E100005D00023C36102E0002303614361002376
:101E2000A36294F85D30002B52D0022384F85D3019
:101E30002268136823F040031360E368B3F5E06F92
:101E40004CD90022B3F5706F18BFB3F5E06F01D025
:101E50000023A362636803F48273A16801F4044160
:101E60000B43216901F002010B43616901F001019B
:101E70000B43A16901F400710B43E16901F03801E2
:101E80000B43216A01F080010B43A16A01F4005168
:101E900020680B430360638B03F00403616A01F065
:101EA00010010B43616B01F008010B43E16801F481
:101EB00070610B43216813434B602268D36923F49C
:101EC0000063D36100202066012384F85D3010BDDB
:101ED00084F85C30204602F05FF8A6E74FF48052A9
:101EE000B0E7012070472DE9F04182B090F85C40E6
:101EF000012C00F0EA801D4617468846044601235F
:101F000080F85C30FEF798FB064694F85D30DBB253
:101F1000012B09D00220012384F85D30002384F8CE
:101F20005C3002B0BDE8F081B7FA87F35B09B8F125
:101F3000000F08BF0123002B40F0BB80032384F86F
:101F40005D3000232366C4F83880A787E7872364C1
:101F5000A4F84430A4F846302365E364A368B3F5DD
:101F6000004F1CD023681A6812F0400F03D11A6882
:101F700042F040021A60E368B3F5E06F38D9636855
:101F80000BB1012F20D1A26B23681288DA60A36BFA
:101F90000233A363E38F013B9BB2E38714E0226823
:101FA000136823F0400313602268136843F48043EE
:101FB0001360D7E7FEF740FB801BA84202D3B5F1C0
:101FC000FF3F78D1002D78D0E38F9BB2002B5BD000
:101FD00023689A6812F0020FECD0A26B1288DA60C4
:101FE000A36B0233A363E38F013B9BB2E387EBE771
:101FF00063680BB1012F30D1E38F9BB2012B0BD95A
:10200000A26B23681288DA60A36B0233A363E38FA9
:10201000023B9BB2E38720E0A26B236812781A731D
:10202000A36B0133A363E38F013B9BB2E38714E00F
:10203000A36B1B781373A36B0133A363E38F013B83
:102040009BB2E38709E0FEF7F7FA801BA84202D3B0
:10205000B5F1FF3F33D1002D33D0E38F9BB29BB15D
:102060002268936813F0020FEDD0E38F9BB2012B2F
:10207000DED9A36B1B88D360A36B0233A363E38F0A
:10208000023B9BB2E387E8E7324629462046FFF74A
:102090003FFE08B120232366A36833B90193236868
:1020A000DA6801929B680193019B236E5BB9002063
:1020B00031E701202FE703202DE703202BE7032042
:1020C00029E7032027E7012025E7022029E72DE95A
:1020D000F843DDF8208090F85C40012C00F05D8131
:1020E0001D4617460E460446012380F85C30FEF775
:1020F000A3FA814694F85D00C0B26368012814D049
:10210000B3F5827F09D00223012284F85D200022EA
:1021100084F85C201846BDE8F883A368002B40F0E3
:102120003081042801D00223EEE7B7FA87F35B0978
:10213000002E08BF0123002B40F02581002D00F068
:10214000248194F85D30DBB2042B02D0052384F89F
:102150005D30002323662764A4F84650A4F8445059
:10216000A663E587A587E3642365E368B3F5E06FBD
:1021700001D8012D22D92268536823F4805353607B
:1021800023681A6812F0400F03D11A6842F0400227
:102190001A60E368B3F5E06F56D963680BB1012D9F
:1021A0000AD1A26B23681288DA60A36B0233A3639F
:1021B000E38F013B9BB2E387012525E0226853684A
:1021C00043F480535360DBE723689A6812F0010FF1
:1021D00010D0B4F8462092B262B1DA68236C1A804B
:1021E000236C02332364B4F84630013B9BB2A4F85D
:1021F00046300125FEF720FAA0EB0900404503D345
:10220000B8F1FF3F40F0C380E38F9BB22BB9B4F825
:1022100046309BB2002B00F0A78023689A6812F02A
:10222000020FD1D0E28F92B2002ACDD0002DCBD0B8
:10223000A26B1288DA60A36B0233A363E38F013BC6
:102240009BB2E3870025BFE763680BB1012D0ED178
:10225000E38F9BB2012B0CD9A26B23681288DA6042
:10226000A36B0233A363E38F023B9BB2E387012599
:1022700047E0A26B236812781A73A36B0133A36340
:10228000E38F013B9BB2E387F1E7E28F92B2012A31
:102290000BD9A26B1288DA60A36B0233A363E38FBE
:1022A000023B9BB2E38700253CE0A26B12781A73D5
:1022B000A36B0133A363E38F013B9BB2E38700254C
:1022C00030E02268536843F48053536001250CE0EA
:1022D000226C1B7B1370236C01332364B4F84630EB
:1022E000013B9BB2A4F846300125FEF7A5F9A0EB0F
:1022F0000900404502D3B8F1FF3F4AD1B8F1000FC1
:1023000049D0E38F9BB21BB9B4F846309BB25BB3A4
:1023100023689A6812F0020F04D0E28F92B20AB1D9
:10232000002DB2D123689A6812F0010FDDD0B4F805
:10233000462092B2002AD8D0B4F8462092B2012AA0
:10234000C6D9DA68236C1A80236C02332364B4F88C
:102350004630023B9BB2A4F84630B4F846309BB2FC
:10236000012BAED90125C0E74A4641462046FFF77A
:10237000CFFC034600283FF4C7AE20232366012389
:10238000C2E60223C0E60123BEE60123BCE6032326
:10239000BAE60323B8E60323B6E60223BAE62DE93C
:1023A000F04182B00446884617461D464368B3F59F
:1023B000827F19D094F85C30012B00F0BF8001239C
:1023C00084F85C30FEF738F9064694F85D30DBB2ED
:1023D000012B15D00220012384F85D30002384F8FE
:1023E0005C3002B0BDE8F0818368002BE2D10423A9
:1023F00080F85D30009513460A46FFF768FEF0E767
:10240000B7FA87F35B09B8F1000F08BF0123002B6F
:1024100040F08880042384F85D3000232366C4F8EC
:102420004080A4F84470A4F84670A363A387E387B0
:10243000E3642365E368B3F5E06F16D92268536857
:1024400023F480535360A368B3F5004F13D023687F
:102450001A6812F0400F03D11A6842F040021A6065
:10246000E368B3F5E06F1BD93AE02268536843F4A0
:1024700080535360E7E72268136823F0400313603A
:102480002268136823F480431360E0E7FEF7D4F872
:10249000801BA84202D3B5F1FF3F45D1002D45D0A6
:1024A000B4F846309BB2002B30D023689A6812F003
:1024B000010FEBD0226C1B7B1370236C0133236460
:1024C000B4F84630013B9BB2A4F84630E8E7FEF78B
:1024D000B3F8801BA84202D3B5F1FF3F28D14DB31A
:1024E000B4F846309BB28BB123689A6812F0010FA2
:1024F000EDD0DA68236C1A80236C02332364B4F8BD
:102500004630013B9BB2A4F84630E9E73246294603
:102510002046FFF730FC08B120232366236E5BB909
:10252000002058E7012056E7032054E7032052E734
:10253000032050E703204EE701204CE7022050E73C
:1025400010B5044683680269134342691343C269A4
:10255000134301680868984A024013430B602268DD
:10256000536823F44053E1680B435360A269236A24
:102570001A4321688B6823F4306313438B6023680C
:102580008E4A934218D08E4A934228D08D4A934265
:102590003DD08D4A934250D08C4A934262D08C4AAF
:1025A000934277D08B4A934200F08C808A4A9342C0
:1025B00000F0A0801023B6E0884BD3F8903003F0F1
:1025C0000303032B09D8DFE803F00204AD0601235F
:1025D000A9E00423A7E00823A5E01023A3E07F4B94
:1025E000D3F8903003F00C030C2B0ED8DFE803F087
:1025F000070D0D0D090D0D0DA80D0D0D0B00002380
:1026000091E004238FE008238DE010238BE0734BCF
:10261000D3F8903003F03003102B0AD006D9202BCA
:1026200000F09080302B06D108237CE01BB90023FA
:1026300079E0042377E0102375E0684BD3F89030FD
:1026400003F0C003402B09D005D9802B7CD0C02BD0
:1026500006D1082367E01BB9002364E0042362E08D
:10266000102360E05D4BD3F8903003F44073B3F572
:10267000807F0BD007D9B3F5007F67D0B3F5407FDB
:1026800006D108234FE01BB900234CE004234AE0A5
:10269000102348E0514BD3F8903003F44063B3F576
:1026A000806F0BD007D9B3F5006F51D0B3F5406FF1
:1026B00006D1082337E01BB9012334E0042332E0BC
:1026C000102330E0454BD3F8903003F44053B3F57A
:1026D000805F0BD007D9B3F5005F3BD0B3F5405F07
:1026E00006D108231FE01BB900231CE004231AE0D5
:1026F000102318E0394BD3F8903003F44043B3F57E
:10270000804F0BD007D9B3F5004F25D0B3F5404F1C
:1027100006D1082307E01BB9002304E0042302E0EC
:10272000102300E00223E269B2F5004F16D0082B17
:102730007FD8DFE803F0596F577E727E7E7E75008A
:102740000223F0E70223EEE70223ECE70223EAE7A5
:102750000223E8E70223E6E70223E4E7082B62D836
:10276000DFE803F0082228612561616105004FF46C
:10277000004003E0FEF700FF002856D062685308CF
:1027800003EB4003B3FBF2F39BB2A3F110014FF64E
:10279000EF7291424BD823F00F02C3F3420313436D
:1027A0002268D360002031E0FEF7F6FEE4E7FEF792
:1027B000BDFDE1E70A48E1E7F369FFEF00100140E2
:1027C0000044004000480040004C004000500040E1
:1027D0000014014000780040007C004000380240B6
:1027E0000024F400164802E0FEF7C6FE18B3636842
:1027F00000EB5300B0FBF3F080B2A0F110024FF6F3
:10280000EF739A4219D82368D860002000236366CA
:10281000A36610BDFEF7C0FEE8E7FEF787FDE5E71B
:102820004FF40040E3E70120F0E70020EEE701204D
:10283000ECE70120EAE70020E8E70120E6E700BF37
:102840000024F400436A13F0010F06D002685368B5
:1028500023F40033816A0B435360436A13F0020F81
:1028600006D00268536823F48033C16A0B43536077
:10287000436A13F0040F06D00268536823F48023E0
:10288000016B0B435360436A13F0080F06D00268D4
:10289000536823F40043416B0B435360436A13F0C6
:1028A000100F06D00268936823F48053816B0B43AA
:1028B0009360436A13F0200F06D00268936823F4F4
:1028C0000053C16B0B439360436A13F0400F0AD06F
:1028D0000268536823F48013016C0B435360036C4C
:1028E000B3F5801F0BD0436A13F0800F06D0026847
:1028F000536823F40023816C0B43536070470268D4
:10290000536823F4C003416C0B435360EBE72DE99C
:10291000F04104460F4616469846069D2368DB693B
:1029200037EA03030CBF01230023B3423BD1B5F1C7
:10293000FF3FF3D0FDF780FEA0EB0800A84220D8AF
:10294000FDB123681A6812F0040FE7D0DA6912F4B7
:10295000006FE3D04FF400621A622268136823F418
:10296000D07313602268936823F0010393602023DF
:10297000A367E367C4F88030002384F87430032031
:1029800012E02268136823F4D073136022689368FE
:1029900023F0010393602023A367E367002384F8F7
:1029A0007430032000E00020BDE8F0812DE9F04103
:1029B00082B01E46836F202B5AD104460D469046A6
:1029C000B2FA82F35B09002908BF0123002B54D11E
:1029D00090F87430012B52D0012380F8743000231A
:1029E000C0F8803021238367FDF726FE0746A4F850
:1029F0005080A4F85280A368B3F5805F05D04FF0F3
:102A00000008002384F8743013E0236913B14FF0F9
:102A10000008F6E7A8460025F3E738F8023B2268ED
:102A2000C3F308039362B4F85230013B9BB2A4F89D
:102A30005230B4F852309BB273B100963B4600223C
:102A400080212046FFF763FFD8B9002DE5D015F8A7
:102A5000012B23689A62E6E700963B46002240215C
:102A60002046FFF754FF034668B92022A26700E022
:102A70000223184602B0BDE8F0810123F9E70223E2
:102A8000F7E70323F5E70323F3E710B582B0044625
:102A90000023C0F88030FDF7CFFD2268126812F0E5
:102AA000080F08D12023A367E3670020206684F87D
:102AB000740002B010BD6FF07E4300930346002205
:102AC0004FF400112046FFF722FF0028EAD0032030
:102AD000EFE768B310B50446836F03B32423A367FD
:102AE0002268136823F0010313602046FFF728FDD6
:102AF000012813D0636ABBB92268536823F490435A
:102B000053602268936823F02A0393602268136855
:102B100043F0010313602046FFF7B7FF10BD80F8B4
:102B2000743001F085FAD9E72046FFF78BFEE3E722
:102B300001207047002301330C4A934211D80269E7
:102B4000002AF8DA036943F001030361002301332B
:102B5000064A934207D8026912F0010FF7D100200C
:102B60007047032070470320704700BF400D0300EB
:102B700084B010B5044603A880E80E00089B012B22
:102B80001DD1A36B23F48033A363E268164B13407B
:102B9000E360E36823F44013E3600F9B012B09D04B
:102BA0002046FFF7C7FF069B012B14D0BDE810405D
:102BB00004B07047E36843F48013E360F0E7E36830
:102BC00043F04003E3602046FFF7B4FFA36B43F4F8
:102BD0008033A363E7E7A36843F00603A360A36819
:102BE00043F02003A360E1E7BFFFBDFF836823F04C
:102BF000010383600020704708B5C36823F0C04319
:102C0000C360012909D069B9C36843F08043C36038
:102C10003220FDF717FD002008BDC36843F00053C4
:102C2000C360F5E70120F7E7890141F02001016168
:102C300000230133054A934205D8026912F0200FA0
:102C4000F7D1002070470320704700BF400D0300FC
:102C50001023036100230133054A934205D802691A
:102C600012F0100FF7D1002070470320704700BF0B
:102C7000400D0300D0F800381943C0F800180020B8
:102C80007047000084B02DE9F041044607A880E8B1
:102C90000E002546002306E003F1400204EB820209
:102CA0000021516001330E2BF6D9119B33BBD4F8B0
:102CB000043843F00203C4F80438A36B23F4001370
:102CC000A363236843F040032360236843F0800339
:102CD00023600023C4F8003E04F50066D4F80038F1
:102CE000C4F800380C9B012B0DD0032B1CD1099B81
:102CF000ABB900212046FFF7BDFF19E0A36B43F4F9
:102D00000013A363E5E7099B23B900212046FFF7E1
:102D1000B1FF0DE001212046FFF7ACFF08E00121E3
:102D20002046FFF7A7FF03E003212046FFF7A2FF9D
:102D300010212046FFF778FF804608B14FF00108C8
:102D40002046FFF785FF08B14FF0010800233361EB
:102D50007361F3610AE0C3B94FF00060C2F8000983
:102D600000220A614FF67F328A6001330799994247
:102D700010D905EB431202F51061D2F800090028C2
:102D8000E9DB0020C2F80009EAE74FF09040C2F802
:102D90000009E5E700230AE0BBB14FF09047C2F815
:102DA000007B002202614FF67F328260013399423C
:102DB00010D905EB431202F53060D2F8007B002FEA
:102DC000EADB0027C2F8007BEBE74FF00067C2F8B0
:102DD000007BE6E7336923F4807333610023A3614A
:102DE0006FF0804363610A9B1BB9A36943F0100332
:102DF000A361A2690A4B1343A3610D9B1BB1A36995
:102E000043F00803A361119B012B04D04046BDE8A9
:102E1000F04104B07047A269024B1343A361F5E788
:102E200000383C8004000040D0F8003E23F003034B
:102E3000C0F8003ED0F8043843F00203C0F804386C
:102E40000020704708B530B9064B00221988586831
:102E5000FDF798FF08BD034B012219885868FDF75C
:102E600091FFF7E79000002008B530B9064B00222B
:102E700019895868FDF786FF08BD034B012219899F
:102E80005868FDF77FFFF7E79000002010B582B08B
:102E900004460020FFF7D6FF04F01F0402A901F842
:102EA000044D0A4C642301222046FFF71CF86423DA
:102EB00001220DF105012046FFF771FA9DF805404A
:102EC0000120FFF7BFFF204602B010BD9C0000208C
:102ED00070B582B004460D4616460020FFF7B2FFDB
:102EE00004F01F0402A901F8044D084C64230122D8
:102EF0002046FEF7F8FF6423324629462046FFF7B6
:102F00004EFA0120FFF79EFF02B070BD9C0000202A
:102F100030B583B004460D460020FFF793FF44F020
:102F200020048DF804408DF805506423022201A985
:102F30000348FEF7D8FF0120FFF784FF03B030BD40
:102F40009C00002070B582B004460D461646002055
:102F5000FFF778FF44F0200402A901F8044D084C63
:102F6000642301222046FEF7BEFF64233246294631
:102F70002046FEF7B8FF0120FFF764FF02B070BDE6
:102F80009C00002008B5FF21E120FFF7C1FF08BD2C
:102F900008B5FF21E220FFF7BBFF08BD08B50720F9
:102FA000FFF774FF08BD000008B50020FFF76EFFB3
:102FB00040F00301C9B20020FFF7AAFF094BD3E993
:102FC0001C23134307D1FFF7DDFFFFF7E1FF0120CB
:102FD000FFF74AFF08BD052203490A20FFF7B2FFA9
:102FE000F1E700BF900000200001002010B582B082
:102FF000CDE90023044620B9154BDDE90001C3E902
:103000001C01062C1AD8012C1AD901226946114B31
:10301000185DFFF797FF0F4B23440D4A92F8781085
:10302000187AFFF775FF0220FFF730FF40B2012149
:10303000A1400143C9B20220FFF76AFF02B010BDF0
:1030400005226946034B185DFFF77CFFE3E700BFED
:1030500090000020644A000808B501F00F0141EA21
:103060000011C9B20420FFF753FF08BD08B501469F
:103070007F2828BF7F210520FFF74AFF08BD0000F9
:10308000202828BF2020024B83F87800704700BF1B
:1030900090000020014B93F87800704790000020CA
:1030A00070B582B006460D46FFF7F4FF0446A8420D
:1030B00017D80020FFF7C6FE02A9612301F8013DE1
:1030C000094D642301222846FEF70DFF6423A2B2B6
:1030D00031462846FFF763F90120FFF7B3FE02B03F
:1030E00070BD2C46E5E700BF9C00002008B56020BD
:1030F000FFF7CCFE08BD10B5FFF7D2FF1720FFF792
:10310000C5FE00F00104FFF743FFFFF7EFFF204685
:1031100010BD08B51D20FFF7B9FE00F0FB011D2012
:10312000FFF7F6FE00211C20FFF7F2FE08BD08B5F0
:1031300020B900210120FFF7EBFE08BD3F2101204F
:10314000FFF7E6FEF9E710B504460620FFF79EFEFE
:1031500000F0F901032C09D0022C0DD0012C0ED067
:1031600034B1042C04D141F0060101E041F0060124
:103170000620FFF7CDFE10BD41F00401F8E741F055
:103180000201F5E738B505460620FFF77FFE00F09F
:10319000D704022D0CD0012D0DD021460620FFF7BB
:1031A000B7FE0620FFF772FEA04207D0002038BD10
:1031B00044F02004F1E744F00804EEE70120F6E7CC
:1031C00010B504460020FFF761FE00F0F3011CB1CA
:1031D000012C05D041F00C010020FFF799FE10BD35
:1031E00041F00801F8E708B50020FFF74FFE00F0B6
:1031F000FD010020FFF78CFE08BD70B50646FFF705
:10320000CDFE00F04003002B14BF012500250BD09C
:10321000044616B1C0F34203337040210720FFF784
:1032200077FE14F0200F01D1284670BD2021072021
:10323000FFF76EFEF8E708B50020FFF7DEFF08BDD8
:1032400070B504460D46202A28BF202216460020CD
:10325000FFF7F8FD04F007003246294640F0A800C9
:10326000FFF770FE0120FFF7EDFD70BD08B570217E
:103270000720FFF74DFE08BD00B583B00020FFF723
:10328000E1FD50238DF8043073238DF8053064235D
:10329000022201A90448FEF726FE0120FFF7D2FD15
:1032A00003B05DF804FB00BF9C00002008B51D20A2
:1032B000FFF7ECFD40F00601C9B21D20FFF728FE24
:1032C0001D20FFF7E3FD48B11C20FFF7DFFD40F0B4
:1032D0000301C9B21C20FFF71BFE08BDFFF7CCFF9E
:1032E0001D20FFF7D3FD40F00601C9B21D20FFF7F6
:1032F0000FFEE9E708B51D20FFF7C8FD40F0040107
:10330000C9B21D20FFF704FE1D20FFF7BFFD48B125
:103310001C20FFF7BBFD40F03F01C9B21C20FFF7A6
:10332000F7FD08BDFFF7A8FF1D20FFF7AFFD40F038
:103330000401C9B21D20FFF7EBFDE9E770B5A0B0AD
:1033400007ACC44D0FCD0FC40FCD0FC40FCD0FC4AC
:103350002B6824F8023B1B0C237007A8FDF7D8F854
:103360000A2382B207A9BC48FFF720FB0020FFF721
:103370008DFD10F0080F00F0618210F0040F00F0D6
:10338000518207ACB54D0FCD0FC495E8070084E816
:10339000070007A8FDF7BCF8AF4C0A2382B207A9C3
:1033A0002046FFF703FB0120FFF770FDC0F3401339
:1033B0000393C0F300130293C0F3C0030193C0F35F
:1033C00080030093C0F3400300F00102A44907A862
:1033D00000F040FF07A8FDF79BF80A2382B207A977
:1033E0002046FFF7E3FA0220FFF750FDC0F3401339
:1033F0000393C0F300130293C0F3C0030193C0F31F
:1034000080030093C0F3400300F00102954907A830
:1034100000F020FF07A8FDF77BF80A2382B207A976
:103420002046FFF7C3FA0320FFF730FD00F0030248
:1034300002328D4907A800F00DFF07A8FDF768F8D4
:103440000A2382B207A92046FFF7B0FA0520FFF74A
:103450001DFD00F07F02854907A800F0FBFE07A8CC
:10346000FDF756F80A2382B207A92046FFF79EFA15
:103470000620FFF70BFD044610F0080F00F0E58171
:1034800007AD7B4E0FCE0FC596E8030045F8040B41
:1034900025F8021B090C297007A8FDF739F80A2343
:1034A00082B207A96C48FFF781FAC4F34104002CEB
:1034B00000F0D881012C00F0DC81022C00F0E081CA
:1034C000032C00F0E78107A8FDF722F8624C0A23DD
:1034D00082B207A92046FFF769FA052205A90A204A
:1034E000FFF7F6FC9DF818209DF817309DF8161090
:1034F0009DF815009DF814500295019000915D49CA
:1035000007A800F0A7FE07A8FDF702F80A2382B279
:1035100007A92046FFF74AFA052205A90B20FFF765
:10352000D7FC9DF818209DF817309DF816109DF8CF
:1035300015009DF814500295019000914E4907A87E
:1035400000F088FE07A8FCF7E3FF0A2382B207A970
:103550002046FFF72BFA012205A90C20FFF7B8FC43
:103560009DF81420454907A800F074FE07A8FCF751
:10357000CFFF0A2382B207A92046FFF717FA0122DC
:1035800005A90D20FFF7A4FC9DF814203C4907A8CD
:1035900000F060FE07A8FCF7BBFF0A2382B207A970
:1035A0002046FFF703FA012205A90E20FFF790FC41
:1035B0009DF81420334907A800F04CFE07A8FCF73B
:1035C000A7FF0A2382B207A92046FFF7EFF90122DD
:1035D00005A90F20FFF77CFC9DF814202A4907A8B5
:1035E00000F038FE07A8FCF793FF0A2382B207A970
:1035F0002046FFF7DBF9052205A91020FFF768FC3C
:103600009DF818209DF817309DF816109DF81500AC
:103610009DF814500295019000911C4907A800F0F4
:1036200019FE07A8FCF774FF0A2382B207A92046F7
:10363000FFF7BCF91120FFF729FC00F03F02144905
:1036400007A800F007FE07A8FCF762FF0A2382B272
:1036500020E000BFAC4A00080C010020E04A00084E
:103660002C4B0008704B0008BC4B0008D84B0008DE
:10367000EC4B00086C4C00089C4C0008CC4C00083B
:10368000F44C00081C4D0008444D00086C4D000827
:10369000984D000807A92046FFF788F91220FFF788
:1036A000F5FB00F03F028A4907A800F0D3FD07A808
:1036B000FCF72EFF0A2382B207A92046FFF776F90E
:1036C0001320FFF7E3FB00F03F02824907A800F058
:1036D000C1FD07A8FCF71CFF0A2382B207A92046F8
:1036E000FFF764F91420FFF7D1FB00F03F027A499D
:1036F00007A800F0AFFD07A8FCF70AFF0A2382B273
:1037000007A92046FFF752F91520FFF7BFFB00F08D
:103710003F02724907A800F09DFD07A8FCF7F8FEDC
:103720000A2382B207A92046FFF740F91620FFF7C7
:10373000ADFB00F03F026A4907A800F08BFD07A827
:10374000FCF7E6FE0A2382B207A92046FFF72EF90E
:103750001C20FFF79BFBC0F340130393C0F300133F
:103760000293C0F3C0030193C0F380030093C0F33E
:10377000400300F001025B4907A800F06BFD07A8B9
:10378000FCF7C6FE0A2382B207A92046FFF70EF90E
:103790001D20FFF77BFB064610F0040F00F0818030
:1037A00007AC514D0FCD0FC495E8030044F8040B4E
:1037B000218007A8FCF7ACFE0A2382B207A94B4878
:1037C000FFF7F4F816F0020F78D107AC484D0FCD93
:1037D0000FC495E8070003C424F8022B120C2270D2
:1037E00007A8FCF795FE414E0A2382B207A930468E
:1037F000FFF7DCF807AC3F4D0FCD0FC40FCD0FC462
:103800000FCD0FC42B6824F8023B1B0C237007A8B4
:10381000FCF77EFE0A2382B207A93046FFF7C6F8FE
:1038200020B070BD07AC344D0FCD0FC495E8070034
:1038300003C424F8022B120C2270AAE507AC2F4D0A
:103840000FCD0FC42B682360A3E507AD2C4E0FCE20
:103850000FC596E8030045F8040B25F8021B090C78
:10386000297019E607AC274D0FCD0FC42B682360D4
:1038700029E607AC244D0FCD0FC42B68236022E648
:1038800007AC224D0FCD0FC42B6824F8023B1B0C54
:10389000237018E607AC1E4D0FCD0FC42B68238094
:1038A00011E607AC1B4D0FCD0FC495E8030044F89B
:1038B000040B24F8021B090C21707AE707AC164DA3
:1038C0000FCD0FC495E8070003C4228088E700BF2E
:1038D000B44D0008D04D0008EC4D0008084E00081B
:1038E000244E0008404E00088C4E00080C010020B9
:1038F000D84E0008AC4A0008FC4A0008184B0008E3
:10390000044C00081C4C0008304C0008444C0008D3
:10391000584C0008A44E0008BC4E000882B0F0B518
:1039200083B007460E46154608A941F8043F604C8F
:10393000642204F10C0000F079FC67602680258188
:103940000120FFF77FFA0020FFF78EFA0520FCF731
:1039500079FE08210020FFF7DBFA3F210120FFF765
:10396000D7FA03210220FFF7D3FA03210846FFF715
:10397000CFFA03210420FFF7CBFA02210520FFF73D
:10398000C7FA0F210620FFF7C3FA0E210720FFF721
:10399000BFFA00210820FFF7BBFA00210920FFF73A
:1039A000B7FAE7248DF804408DF803408DF8024003
:1039B0008DF8014002AD05F8084D052229460A2080
:1039C000FFF7C0FAC2238DF804308DF803308DF86C
:1039D00002308DF801308DF80030052229460B2089
:1039E000FFF7B0FAC3210C20FFF792FAC4210D2093
:1039F000FFF78EFAC5210E20FFF78AFAC6210F20A5
:103A0000FFF786FA8DF804408DF803408DF80240E8
:103A10008DF801408DF80040052229461020FFF75F
:103A200091FA00211120FFF773FA00211220FFF70D
:103A30006FFA00211320FFF76BFA00211420FFF723
:103A400067FA00211520FFF763FA00211620FFF71F
:103A50005FFAFFF711FC00211C20FFF759FA002143
:103A60001D20FFF755FAFFF769FC0F210846FFF705
:103A7000F3FA0320FFF767FB0120FFF783FB022027
:103A8000FFF79EFBFFF745FB2020FFF7F9FAFFF752
:103A9000EDFB4C20FFF7EAFAFFF774FAFFF778FA2C
:103AA000FFF7A1FB03B0BDE8F04002B0704700BFD4
:103AB0009000002084B008B50DF1080C8CE80F00D0
:103AC00084226146034800F0B1FBBDE8084004B021
:103AD000704700BF0C010020F0B58DB000240794A2
:103AE000089409940A940B94354B1A6B42F0040223
:103AF0001A631A6B02F004020192019A1A6B42F0E7
:103B000080021A631A6B02F080020292029A1A6B08
:103B100042F001021A631A6B02F001020392039A47
:103B20001A6B42F002021A631A6B02F0020204924C
:103B3000049A1A6B42F008021A631A6B02F0080228
:103B40000592059A1A6B42F040021A631B6B03F050
:103B500040030693069B1B4F224644F281013846E0
:103B6000FDF710F9184D22464C212846FDF70AF9B9
:103B70004FF400530793154B0893099407A9144871
:103B8000FDF712F844F28103079301260896099481
:103B90000A9407A93846FDF707F84C2307930896BF
:103BA00009940A9407A92846FCF7FEFF802307938F
:103BB0000894099407A92846FCF7F6FF0DB0F0BD5C
:103BC00000380240000402400018024000001110BA
:103BD0000008024008B50E480E4B03600123436005
:103BE0000023038242691370426980215170426947
:103BF000E12191704269D370426913714269537136
:103C00008361C3614FF400030362FCF7A3FE08BDA8
:103C1000900600200080024008B50E480E4B03605D
:103C20004FF482734360002383604FF4E062C2600C
:103C3000036143614FF4007282611022C26103622A
:103C4000436283620722C26203634363FEF7D7F8CD
:103C500008BD00BF2C060020003C004008B5094804
:103C6000094B03604FF4E133436000238360C3607A
:103C700003610C2242618361C36103624362FEF708
:103C800028FF08BDA40100200048004008B50A48EC
:103C90004FF0A0430360062343600222C26000236A
:103CA000036182610122C26103624362C2620363F3
:103CB000FDF76EF808BD00BF2802002030B5B5B092
:103CC0003022002128A800F0BCFA00242394249478
:103CD0002594269427948422214602A800F0B1FA64
:103CE000FDF702F91F4B1A6C42F080521A641B6CEC
:103CF00003F080530093009B1B4A136823F4404356
:103D000043F480431360136803F440430193019B21
:103D1000012328934FF4A023299302252E954FF4D5
:103D200080032F9304233093482331933295032348
:103D3000339328A8FDF7E0F80F23239324952594C7
:103D40004FF4805326932794294623A8FDF75AFB66
:103D5000064B02931594219402A8FDF72DFC35B073
:103D600030BD00BF0038024000700040000120005C
:103D700010B5B4B0FCF748FCFFF7A0FFFFF7ACFEAE
:103D8000FFF728FFFFF748FFFFF768FFFFF77EFF09
:103D90002D4B1FAC0FCB07C423800023CDF88A30F6
:103DA000CDF88E30CDF89230CDF89630ADF89A300F
:103DB000264C6022211D684600F038FA2368042250
:103DC00008212348FFF7AAFD224C742204F11001B8
:103DD000684600F02BFA94E80F00FFF76BFE012015
:103DE000FFF7A5F93420FFF741F92020FFF748F944
:103DF00013A3D3E900230120FFF7F8F8FFF77AFABD
:103E0000FFF754FAFFF7D0F8FFF798FAFFF713FA25
:103E10000028FBD0202127A8FFF76DF920221FA939
:103E20000120FFF70DFA0D238DF8BC300A238DF821
:103E3000BD30222227A90748FEF7B8FDE6E700BFFC
:103E4000AA44332211000000744A00082C06002006
:103E500000180240A401002082B00A4B1A6C42F004
:103E600080521A641A6C02F080520092009A5A6CC6
:103E700042F480425A645B6C03F480430193019BDB
:103E800002B0704700380240F0B58DB000230793B0
:103E9000089309930A930B9302683A4B9A4201D014
:103EA0000DB0F0BDA3F590431A6B42F000721A6397
:103EB0001A6B02F000720092009A1A6B42F0806254
:103EC0001A631A6B02F080620192019A1A6B42F037
:103ED00000621A631A6B02F000620292029A1A6B75
:103EE00042F004021A631A6B02F004020392039A6E
:103EF0001A6B42F001021A631A6B02F0010204927B
:103F0000049A1A6B42F002021A631A6B02F0020260
:103F10000592059A1A6B42F040021A631B6B03F07C
:103F200040030693069B3223079302260896032537
:103F30000A950B240B9407A91348FCF735FE86233A
:103F400007930896002709970A950B9407A90F482D
:103F5000FCF72AFE4FF400530793089609970A9539
:103F60000B9407A90A48FCF71FFE4FF42053079350
:103F7000089609970A950B9407A90648FCF714FEC2
:103F80008EE700BF008002400008024000000240AF
:103F9000000402400018024030B589B000230393AA
:103FA000049305930693079302681E4B9A4201D02F
:103FB00009B030BD03F5FE331A6C42F400421A64B6
:103FC0001A6C02F400420092009A1A6B42F002024C
:103FD0001A631A6B02F002020192019A1A6B42F004
:103FE00004021A631B6B03F004030293029B042375
:103FF000039302250495032406940723079303A93A
:104000000948FCF7D1FD4FF4406303930495002366
:10401000059306940623079303A90448FCF7C4FDFF
:10402000C6E700BF003C0040000402400008024018
:1040300000B589B000230393049305930693079377
:104040000268144B9A4202D009B05DF804FB03F5F4
:10405000F8331A6C42F480221A641A6C02F480223B
:104060000192019A1A6B42F008021A631B6B03F06B
:1040700008030293029B4FF44073039302230493BB
:10408000032306930723079303A90348FCF78CFD3A
:10409000DAE700BF00480040000C024030B589B0AC
:1040A0000023039304930593069307930368B3F1E6
:1040B000A04F01D009B030BD1A4C236B43F001036F
:1040C0002363236B03F001030093009B4FF4E85339
:1040D000039302230493032306930A230793124DA9
:1040E00003A92846FCF760FD4FF4007303930023F7
:1040F0000493059303A92846FCF756FD636B43F030
:1041000080036363636B03F080030193019B636C23
:1041100043F480436364636C03F480430293029B23
:10412000C8E700BF00380240000002407047FEE7C9
:10413000FEE7FEE7FEE770477047704708B5FCF7FB
:104140006FFA08BD08B503460B4A126842B10A4A25
:10415000106803446A46934206D8074A136008BDB4
:10416000054A06491160F2E700F036F80C230360B7
:104170004FF0FF30F3E700BF90010020E006002081
:1041800070470000DFF834D00D480E490E4A002376
:1041900002E0D458C4500433C4188C42F9D30B4AFB
:1041A0000B4C002301E013600432A242FBD3FFF763
:1041B000E7FF00F017F8FFF7DBFD70470000052070
:1041C0000000002070000020345000087000002023
:1041D000DC060020FEE70000014B1868704700BFB6
:1041E0000C00002070B50D4E0D4CA41BA410002532
:1041F000A54209D10B4E0C4C00F028FCA41BA410C6
:104200000025A54205D170BD56F8253098470135E7
:10421000EEE756F8253098470135F2E72C500008B4
:104220002C5000082C5000083050000810B5431ED8
:104230000A44914200D110BD11F8014B03F8014F1F
:10424000F7E702440346934200D1704703F8011B8D
:10425000F9E700000EB400B59CB01DAB02900690CB
:104260006FF00041094807910491094953F8042B64
:1042700005910068019302A900F066F8029B0022F4
:104280001A701CB05DF804EB03B070470C000020FE
:104290000802FFFF2DE9F0478E689E4282460C46D9
:1042A0009046994637D88A8912F4906F31D02568A4
:1042B00009696F1A6569022305EB450595FBF3F55E
:1042C00009F101033B449D4238BF1D46530530D5DB
:1042D000294600F021FB064650B90C23CAF80030ED
:1042E000A38943F04003A3814FF0FF30BDE8F0877E
:1042F0003A462169FFF79AFFA38923F4906343F0BC
:104300008003A381266165613E44ED1B2660A560A4
:104310004E464E4500D94E4632464146206800F092
:1043200093FAA3689B1BA36023681E4426600020A9
:10433000DCE72A4600F04AFB06460028E2D1216964
:10434000504600F09BFAC8E72DE9F04F1D468B89D7
:104350001F069DB080460C4616460FD50B696BB9FB
:10436000402100F0D9FA2060206128B90C23C8F858
:1043700000304FF0FF30C8E0402363610023099311
:1043800020238DF8293030238DF82A3003954FF003
:10439000010B37463D4615F8013B0BB1252B3ED1AD
:1043A000B7EB060A0BD05346324621464046FFF78C
:1043B00071FF013000F0A480099B534409933B78BE
:1043C000002B00F09D8000234FF0FF32CDE9052344
:1043D000049307938DF853301A932F46052217F84C
:1043E000011B5048FCF79CF8049BD0B9D90644BF88
:1043F00020228DF853201A0744BF2B228DF853201A
:104400002A782A2A15D0079A2F4600200A253946ED
:1044100011F8013B303B092B4DD9B8B10FE02F46C5
:10442000B8E7404A801A0BFA00F0184304903D4662
:10443000D3E7039A111D12680391002A01DB07924A
:1044400004E0524243F00203079204933B782E2B80
:104450000CD17B782A2B33D1039B1A1D1B68039246
:10446000002BB8BF4FF0FF33023705932E4D39783C
:1044700003222846FCF754F838B14023401B03FAC6
:1044800000F0049B034301370493397827488DF8E3
:10449000281006227E1CFCF743F8002838D0244B55
:1044A00013BB039B073323F0070308330393099BD4
:1044B0004B4409936DE705FB023201200F46A6E746
:1044C00000230137059319460A25384610F8012BB9
:1044D000303A092A03D9002BC8D00591C6E705FB5D
:1044E000012101230746F0E703AB00932246114B5D
:1044F00004A94046AFF30080B0F1FF3F8146D6D11A
:10450000A3895B063FF535AF09981DB0BDE8F08F74
:1045100003AB00932246074B04A9404600F082F803
:10452000EAE700BFF04F0008F64F0008FA4F000816
:1045300000000000954200082DE9F04791461F4613
:104540008A680B69DDF820809342B8BF1346C9F82A
:10455000003091F8432006460C4612B10133C9F8E9
:1045600000302368990642BFD9F800300233C9F8F9
:104570000030256815F0060507D104F1190AE36833
:10458000D9F800209B1AAB4228DC94F8433022680B
:10459000003318BF012392062DD404F1430239469B
:1045A0003046C047013020D02368E568D9F80020A4
:1045B00003F00603042B08BFAD1AA36822690CBFE1
:1045C00025EAE57500259342C4BF9B1AED184FF00C
:1045D00000091A344D451AD1002008E00123524643
:1045E00039463046C047013003D14FF0FF30BDE8B7
:1045F000F0870135C3E7E1185A1C302081F84300E9
:10460000224494F8451082F843100233C5E7012391
:10461000224639463046C0470130E6D009F101094B
:10462000D8E700002DE9F04301F1430C0C46097E68
:1046300085B06E291746064698460C9A00F0B3805E
:1046400022D8632936D00AD8002900F0B980582929
:1046500000F0838004F1420584F8421032E06429BE
:1046600001D06929F6D120681368050603F1040119
:104670002AD51B681160002B03DA2D225B4284F8D7
:1046800043206F480A2239E0732900F09D8008D842
:104690006F2920D07029DDD1236843F020032360E7
:1046A00003E0752917D07829D4D1782384F84530D0
:1046B000644855E01368191D1B68116004F1420538
:1046C00084F8423001238CE01B68116010F0400F29
:1046D00018BF1BB2CFE713682568181D10602806A5
:1046E00001D51B6802E06806FBD51B8854486F297A
:1046F00014BF0A220822002184F843106568A560CF
:10470000002DC0F29580216821F004012160002B6A
:104710003DD1002D40F08E806546082A0BD12368DC
:10472000DB0708D5236962689A42DEBF302305F8AB
:10473000013C05F1FF35ACEB05032361CDF80080AA
:104740003B4603AA21463046FFF7F6FE01304DD125
:104750004FF0FF3005B0BDE8F083394884F84510CC
:10476000136821681D1D1B6815600A060BD5CA0752
:1047700044BF41F0200121601BB9226822F02002D1
:1047800022601022B7E74D0648BF9BB2EFE76546AF
:10479000B3FBF2F102FB1133C35C05F8013D0B469C
:1047A0000029F5D1B9E7136825686169181D106003
:1047B00028061B6801D5196002E06A06FBD519803E
:1047C000002323616546B9E71368191D11601D6850
:1047D000626800212846FBF7A3FE08B1401B606019
:1047E00063682361002384F84330A7E723692A46DE
:1047F00039463046C0470130AAD023689B0713D4FE
:10480000E068039B9842B8BF1846A3E701234A46D5
:1048100039463046C04701309AD00135E368039AE3
:104820009B1AAB42F2DCEBE7002504F11909F5E72E
:10483000002BACD1037884F8423004F142056CE7D8
:104840000150000812500008884210B501EB020325
:1048500007D8421E99420AD011F8014B02F8014FC5
:10486000F8E78342F5D98118D21AD34200D110BD9E
:1048700013F8014D01F8014DF7E7000038B5054682
:10488000002945D051F8043C0C1F002BB8BFE41898
:1048900000F0D2F81F4A1368104633B96360146001
:1048A0002846BDE8384000F0C8B8A3420CD92168BA
:1048B0006218934204BF1A685B68636004BF5218B1
:1048C00022600460ECE713465A680AB1A242FAD9A2
:1048D00019685818A0420BD1206801445818824228
:1048E0001960DDD1106852685A6001441960D7E739
:1048F00002D90C232B60D3E7206821188A4204BF19
:1049000011685268626004BF091821605C60C7E7E3
:1049100038BD00BF9801002070B5CD1C25F00305FF
:1049200008350C2D38BF0C25002D064601DBA942A9
:1049300003D90C233360002070BD00F07DF8214ABC
:104940001468214691B9204C23681BB9304600F009
:1049500063F820602946304600F05EF8431C24D1FD
:104960000C233360304600F068F8E4E70B685B1B0B
:1049700018D40B2B0FD90B60CD50CC18304600F05B
:104980005CF804F10B00231D20F00700C31AD3D0FC
:104990005A42E250D0E78C424B6816BF6360136006
:1049A0000C46EBE70C464968CCE7C41C24F0030432
:1049B000A04205D0211A304600F02EF80130CFD0A9
:1049C0002560DBE7980100209C010020F8B5074630
:1049D00014460E4621B91146BDE8F840FFF79CBFCA
:1049E00022B9FFF74BFF25462846F8BD00F026F810
:1049F000A0420FD221463846FFF78EFF0546002819
:104A0000F2D031462246FFF711FC31463846FFF717
:104A100035FFE9E73546E7E738B5064C002305469C
:104A200008462360FFF78EFB431C02D1236803B1C5
:104A30002B6038BDD80600207047704751F8043C01
:104A4000181F002BBCBF0B58C0187047F8B500BF2B
:104A5000F8BC08BC9E467047F8B500BFF8BC08BC5F
:044A60009E467047B7
:104A64000A0B0C0D0E0F1000111213141516000072
:104A740041636B2062792053544D46372100000076
:104A84000000000000000000000000000000000022
:104A940000000000000000000102030406070809EA
:104AA40000000000010203040D0A2A2A2A2A2A2AE5
:104AB4002A2A2A2A2A2A2A2A2A2A2A2A2A2A2A2A52
:104AC4002A2A2A2A2A2A2A2A2A2A2A2A2A2A2A2A42
:104AD4002A2A2A2A2A2A2A2A0D0A00004352433A59
:104AE4000D0A0909456E61626C65642C203220420E
:104AF40079746573200D0A004352433A0D0A09097B
:104B0400456E61626C65642C2031204279746520A5
:104B14000D0A00004352433A0D0A090944697361BE
:104B2400626C6564200D0A00454E41413A0D0A0944
:104B34000950303A0925640D0A090950313A09250A
:104B4400640D0A090950323A0925640D0A0909500D
:104B5400333A0925640D0A090950343A0925640DCC
:104B64000A090950353A0925640D0A00454E5F5279
:104B740058414444523A0D0A090950303A0925640F
:104B84000D0A090950313A0925640D0A0909503200
:104B94003A0925640D0A090950333A0925640D0AB6
:104BA400090950343A0925640D0A090950353A09AE
:104BB40025640D0A0000000053455455505F4157C9
:104BC4003A0D0A09092564206279746573200D0A77
:104BD4000000000052465F43483A0D0A0909256463
:104BE400204348200D0A000044617461205261741E
:104BF400653A0D0A0909324D627073200D0A0000EE
:104C04004461746120526174653A0D0A0909314D99
:104C1400627073200D0A000052465F5057523A0DDD
:104C24000A09092D31386442200D0A0052465F50AA
:104C340057523A0D0A09092D31326442200D0A00F7
:104C440052465F5057523A0D0A09092D36644220E4
:104C54000D0A000052465F5057523A0D0A090930B6
:104C64006442200D0A00000052585F50697065309C
:104C74002041646472733A0D0A0909253032582CB4
:104C8400253032582C253032582C253032582C25DA
:104C940030325820200D0A0052585F506970653137
:104CA4002041646472733A0D0A0909253032582C84
:104CB400253032582C253032582C253032582C25AA
:104CC40030325820200D0A0052585F506970653206
:104CD4002041646472733A0D0A090978782C787853
:104CE4002C78782C78782C2530325820200D0A0026
:104CF40052585F50697065332041646472733A0D91
:104D04000A090978782C78782C78782C78782C25EE
:104D140030325820200D0A0052585F5069706534B3
:104D24002041646472733A0D0A090978782C787802
:104D34002C78782C78782C2530325820200D0A00D5
:104D440052585F50697065352041646472733A0D3E
:104D54000A090978782C78782C78782C78782C259E
:104D640030325820200D0A00545820416464727374
:104D74003A0D0A0909253032582C253032582C2591
:104D84003032582C253032582C2530325820200D02
:104D94000A00000052585F50575F50303A0D0A091C
:104DA400092564206279746573200D0A00000000EF
:104DB40052585F50575F50313A0D0A090925642053
:104DC4006279746573200D0A0000000052585F5028
:104DD400575F50323A0D0A090925642062797465D7
:104DE40073200D0A0000000052585F50575F503383
:104DF4003A0D0A09092564206279746573200D0A45
:104E04000000000052585F50575F50343A0D0A09B1
:104E1400092564206279746573200D0A000000007E
:104E240052585F50575F50353A0D0A0909256420DE
:104E34006279746573200D0A0000000044594E50D5
:104E4400445F706970653A0D0A090950303A0925C2
:104E5400640D0A090950313A0925640D0A090950FB
:104E6400323A0925640D0A090950333A0925640DBB
:104E74000A090950343A0925640D0A090950353ADA
:104E84000925640D0A000000454E5F44504C3A0D5C
:104E94000A0909456E61626C6564200D0A00000010
:104EA400454E5F44504C3A0D0A09094469736162E6
:104EB4006C6564200D0A0000454E5F41434B5F5012
:104EC40041593A0D0A0909456E61626C6564200D09
:104ED4000A000000454E5F41434B5F5041593A0D73
:104EE4000A090944697361626C6564200D0A000053
:104EF4000D0A2D2D2D2D2D2D2D2D2D2D2D2D2D2D21
:104F04002D2D2D2D2D2D2D2D2D2D2D0D0A00000097
:104F1400535441545553207265673A0D0A09095296
:104F2400585F44523A090925640D0A090954585F27
:104F340044533A090925640D0A09094D41585F5241
:104F4400543A090925640D0A090952585F505F4E05
:104F54004F3A0925640D0A090954585F46554C4CCB
:104F64003A0925640D0A0000434F4E464947207212
:104F740065673A0D0A09095057525F55503A0909B5
:104F840025640D0A09095052494D5F52583A0925C2
:104F9400640D0A004649464F2053746174757320AA
:104FA4007265673A0D0A090954585F46554C4C3AE4
:104FB400090925640D0A090954585F454D5054598F
:104FC4003A090925640D0A090952585F46554C4CA3
:104FD4003A090925640D0A090952585F454D505490
:104FE400593A090925640D0A00000000232D302BCD
:104FF4002000686C4C0065666745464700303132D6
:10500400333435363738394142434445460030312C
:10501400323334353637383961626364656600008B
:085024001CB2FF7F0100000037
:04502C00F501000882
:04503000D1010008A2
:1050340001000000100000000024F4001000002013
:10504400000000000000000000000000000000005C
:10505400000000000000000000000000000000004C
:10506400000000000000000000000000000000003C
:10507400000000000000000000000000000000002C
:10508400000000000000000000000000000000001C
:10509400000000000000000000000000000000000C
:040000050800418529
:00000001FF
